{
	"Learn/Sesi-01-Challenge/LiskGarden.sol": {
		"LiskGarden": {
			"abi": [
				{
					"inputs": [],
					"stateMutability": "nonpayable",
					"type": "constructor"
				},
				{
					"anonymous": false,
					"inputs": [
						{
							"indexed": true,
							"internalType": "uint256",
							"name": "plantId",
							"type": "uint256"
						},
						{
							"indexed": true,
							"internalType": "address",
							"name": "owner",
							"type": "address"
						},
						{
							"indexed": false,
							"internalType": "uint256",
							"name": "reward",
							"type": "uint256"
						}
					],
					"name": "PlantHarvested",
					"type": "event"
				},
				{
					"anonymous": false,
					"inputs": [
						{
							"indexed": true,
							"internalType": "address",
							"name": "owner",
							"type": "address"
						},
						{
							"indexed": true,
							"internalType": "uint256",
							"name": "plantId",
							"type": "uint256"
						}
					],
					"name": "PlantSeeded",
					"type": "event"
				},
				{
					"anonymous": false,
					"inputs": [
						{
							"indexed": true,
							"internalType": "uint256",
							"name": "plantId",
							"type": "uint256"
						},
						{
							"indexed": false,
							"internalType": "uint256",
							"name": "newWaterLevel",
							"type": "uint256"
						}
					],
					"name": "PlantWatered",
					"type": "event"
				},
				{
					"anonymous": false,
					"inputs": [
						{
							"indexed": true,
							"internalType": "uint256",
							"name": "plantId",
							"type": "uint256"
						},
						{
							"indexed": false,
							"internalType": "enum LiskGarden.GrowStage",
							"name": "newStage",
							"type": "uint8"
						}
					],
					"name": "StageAdvanced",
					"type": "event"
				},
				{
					"anonymous": false,
					"inputs": [
						{
							"indexed": true,
							"internalType": "uint256",
							"name": "plantId",
							"type": "uint256"
						}
					],
					"name": "plantDied",
					"type": "event"
				},
				{
					"inputs": [],
					"name": "PLANT_PRICE",
					"outputs": [
						{
							"internalType": "uint256",
							"name": "",
							"type": "uint256"
						}
					],
					"stateMutability": "view",
					"type": "function"
				},
				{
					"inputs": [],
					"name": "STAGE_DURATION",
					"outputs": [
						{
							"internalType": "uint256",
							"name": "",
							"type": "uint256"
						}
					],
					"stateMutability": "view",
					"type": "function"
				},
				{
					"inputs": [],
					"name": "WATER_DEPLETION_DURATION",
					"outputs": [
						{
							"internalType": "uint256",
							"name": "",
							"type": "uint256"
						}
					],
					"stateMutability": "view",
					"type": "function"
				},
				{
					"inputs": [],
					"name": "WATER_DEPLETION_RATE",
					"outputs": [
						{
							"internalType": "uint8",
							"name": "",
							"type": "uint8"
						}
					],
					"stateMutability": "view",
					"type": "function"
				},
				{
					"inputs": [
						{
							"internalType": "uint256",
							"name": "_plantId",
							"type": "uint256"
						}
					],
					"name": "calculateWaterLevel",
					"outputs": [
						{
							"internalType": "uint256",
							"name": "",
							"type": "uint256"
						}
					],
					"stateMutability": "view",
					"type": "function"
				},
				{
					"inputs": [],
					"name": "getBalance",
					"outputs": [
						{
							"internalType": "uint256",
							"name": "",
							"type": "uint256"
						}
					],
					"stateMutability": "view",
					"type": "function"
				},
				{
					"inputs": [
						{
							"internalType": "uint256",
							"name": "plantId",
							"type": "uint256"
						}
					],
					"name": "getPlant",
					"outputs": [
						{
							"components": [
								{
									"internalType": "uint256",
									"name": "plantId",
									"type": "uint256"
								},
								{
									"internalType": "address",
									"name": "owner",
									"type": "address"
								},
								{
									"internalType": "enum LiskGarden.GrowStage",
									"name": "stage",
									"type": "uint8"
								},
								{
									"internalType": "uint256",
									"name": "plantedDate",
									"type": "uint256"
								},
								{
									"internalType": "uint256",
									"name": "lastWatered",
									"type": "uint256"
								},
								{
									"internalType": "uint256",
									"name": "waterLevel",
									"type": "uint256"
								},
								{
									"internalType": "bool",
									"name": "exists",
									"type": "bool"
								},
								{
									"internalType": "bool",
									"name": "isDead",
									"type": "bool"
								}
							],
							"internalType": "struct LiskGarden.Plant",
							"name": "",
							"type": "tuple"
						}
					],
					"stateMutability": "view",
					"type": "function"
				},
				{
					"inputs": [
						{
							"internalType": "address",
							"name": "user",
							"type": "address"
						}
					],
					"name": "getUserPlants",
					"outputs": [
						{
							"internalType": "uint256[]",
							"name": "",
							"type": "uint256[]"
						}
					],
					"stateMutability": "view",
					"type": "function"
				},
				{
					"inputs": [
						{
							"internalType": "uint256",
							"name": "plantId",
							"type": "uint256"
						}
					],
					"name": "harvestPlant",
					"outputs": [],
					"stateMutability": "nonpayable",
					"type": "function"
				},
				{
					"inputs": [],
					"name": "owner",
					"outputs": [
						{
							"internalType": "address",
							"name": "",
							"type": "address"
						}
					],
					"stateMutability": "view",
					"type": "function"
				},
				{
					"inputs": [],
					"name": "plantCounter",
					"outputs": [
						{
							"internalType": "uint256",
							"name": "",
							"type": "uint256"
						}
					],
					"stateMutability": "view",
					"type": "function"
				},
				{
					"inputs": [],
					"name": "plantSeed",
					"outputs": [
						{
							"internalType": "uint256",
							"name": "",
							"type": "uint256"
						}
					],
					"stateMutability": "payable",
					"type": "function"
				},
				{
					"inputs": [
						{
							"internalType": "uint256",
							"name": "",
							"type": "uint256"
						}
					],
					"name": "plants",
					"outputs": [
						{
							"internalType": "uint256",
							"name": "plantId",
							"type": "uint256"
						},
						{
							"internalType": "address",
							"name": "owner",
							"type": "address"
						},
						{
							"internalType": "enum LiskGarden.GrowStage",
							"name": "stage",
							"type": "uint8"
						},
						{
							"internalType": "uint256",
							"name": "plantedDate",
							"type": "uint256"
						},
						{
							"internalType": "uint256",
							"name": "lastWatered",
							"type": "uint256"
						},
						{
							"internalType": "uint256",
							"name": "waterLevel",
							"type": "uint256"
						},
						{
							"internalType": "bool",
							"name": "exists",
							"type": "bool"
						},
						{
							"internalType": "bool",
							"name": "isDead",
							"type": "bool"
						}
					],
					"stateMutability": "view",
					"type": "function"
				},
				{
					"inputs": [
						{
							"internalType": "uint256",
							"name": "plantId",
							"type": "uint256"
						}
					],
					"name": "updatePlantStage",
					"outputs": [],
					"stateMutability": "nonpayable",
					"type": "function"
				},
				{
					"inputs": [
						{
							"internalType": "address",
							"name": "",
							"type": "address"
						},
						{
							"internalType": "uint256",
							"name": "",
							"type": "uint256"
						}
					],
					"name": "userPlants",
					"outputs": [
						{
							"internalType": "uint256",
							"name": "",
							"type": "uint256"
						}
					],
					"stateMutability": "view",
					"type": "function"
				},
				{
					"inputs": [
						{
							"internalType": "uint256",
							"name": "plantId",
							"type": "uint256"
						}
					],
					"name": "waterPlant",
					"outputs": [],
					"stateMutability": "nonpayable",
					"type": "function"
				},
				{
					"inputs": [],
					"name": "withdraw",
					"outputs": [],
					"stateMutability": "nonpayable",
					"type": "function"
				},
				{
					"stateMutability": "payable",
					"type": "receive"
				}
			],
			"devdoc": {
				"kind": "dev",
				"methods": {},
				"version": 1
			},
			"evm": {
				"assembly": "    /* \"Learn/Sesi-01-Challenge/LiskGarden.sol\":61:10387  contract LiskGarden {... */\n  mstore(0x40, 0x80)\n    /* \"Learn/Sesi-01-Challenge/LiskGarden.sol\":2920:2971  constructor() {... */\n  callvalue\n  dup1\n  iszero\n  tag_1\n  jumpi\n  revert(0x00, 0x00)\ntag_1:\n  pop\n    /* \"Learn/Sesi-01-Challenge/LiskGarden.sol\":2953:2963  msg.sender */\n  caller\n    /* \"Learn/Sesi-01-Challenge/LiskGarden.sol\":2945:2950  owner */\n  0x03\n  0x00\n    /* \"Learn/Sesi-01-Challenge/LiskGarden.sol\":2945:2963  owner = msg.sender */\n  0x0100\n  exp\n  dup2\n  sload\n  dup2\n  0xffffffffffffffffffffffffffffffffffffffff\n  mul\n  not\n  and\n  swap1\n  dup4\n  0xffffffffffffffffffffffffffffffffffffffff\n  and\n  mul\n  or\n  swap1\n  sstore\n  pop\n    /* \"Learn/Sesi-01-Challenge/LiskGarden.sol\":61:10387  contract LiskGarden {... */\n  dataSize(sub_0)\n  dup1\n  dataOffset(sub_0)\n  0x00\n  codecopy\n  0x00\n  return\nstop\n\nsub_0: assembly {\n        /* \"Learn/Sesi-01-Challenge/LiskGarden.sol\":61:10387  contract LiskGarden {... */\n      mstore(0x40, 0x80)\n      jumpi(tag_1, lt(calldatasize, 0x04))\n      shr(0xe0, calldataload(0x00))\n      dup1\n      0x8da5cb5b\n      gt\n      tag_20\n      jumpi\n      dup1\n      0xbacb5ebd\n      gt\n      tag_21\n      jumpi\n      dup1\n      0xbacb5ebd\n      eq\n      tag_15\n      jumpi\n      dup1\n      0xcfc9a5f8\n      eq\n      tag_16\n      jumpi\n      dup1\n      0xddd42596\n      eq\n      tag_17\n      jumpi\n      dup1\n      0xe38f8448\n      eq\n      tag_18\n      jumpi\n      dup1\n      0xed0b1f5f\n      eq\n      tag_19\n      jumpi\n      jump(tag_2)\n    tag_21:\n      dup1\n      0x8da5cb5b\n      eq\n      tag_11\n      jumpi\n      dup1\n      0x8dd2361c\n      eq\n      tag_12\n      jumpi\n      dup1\n      0x9886bcfa\n      eq\n      tag_13\n      jumpi\n      dup1\n      0x9c471749\n      eq\n      tag_14\n      jumpi\n      jump(tag_2)\n    tag_20:\n      dup1\n      0x5dba09bd\n      gt\n      tag_22\n      jumpi\n      dup1\n      0x5dba09bd\n      eq\n      tag_7\n      jumpi\n      dup1\n      0x74119a38\n      eq\n      tag_8\n      jumpi\n      dup1\n      0x754e150d\n      eq\n      tag_9\n      jumpi\n      dup1\n      0x8aee578b\n      eq\n      tag_10\n      jumpi\n      jump(tag_2)\n    tag_22:\n      dup1\n      0x12065fe0\n      eq\n      tag_3\n      jumpi\n      dup1\n      0x30cec0eb\n      eq\n      tag_4\n      jumpi\n      dup1\n      0x3ccfd60b\n      eq\n      tag_5\n      jumpi\n      dup1\n      0x51f9efde\n      eq\n      tag_6\n      jumpi\n      jump(tag_2)\n    tag_1:\n      jumpi(tag_2, calldatasize)\n      stop\n    tag_2:\n      revert(0x00, 0x00)\n        /* \"Learn/Sesi-01-Challenge/LiskGarden.sol\":3007:3106  function getBalance() public view returns (uint256) {... */\n    tag_3:\n      callvalue\n      dup1\n      iszero\n      tag_25\n      jumpi\n      revert(0x00, 0x00)\n    tag_25:\n      pop\n      tag_26\n      tag_27\n      jump\t// in\n    tag_26:\n      mload(0x40)\n      tag_28\n      swap2\n      swap1\n      tag_29\n      jump\t// in\n    tag_28:\n      mload(0x40)\n      dup1\n      swap2\n      sub\n      swap1\n      return\n        /* \"Learn/Sesi-01-Challenge/LiskGarden.sol\":10018:10138  function getUserPlants(address user) external view returns (uint256[] memory) {... */\n    tag_4:\n      callvalue\n      dup1\n      iszero\n      tag_30\n      jumpi\n      revert(0x00, 0x00)\n    tag_30:\n      pop\n      tag_31\n      0x04\n      dup1\n      calldatasize\n      sub\n      dup2\n      add\n      swap1\n      tag_32\n      swap2\n      swap1\n      tag_33\n      jump\t// in\n    tag_32:\n      tag_34\n      jump\t// in\n    tag_31:\n      mload(0x40)\n      tag_35\n      swap2\n      swap1\n      tag_36\n      jump\t// in\n    tag_35:\n      mload(0x40)\n      dup1\n      swap2\n      sub\n      swap1\n      return\n        /* \"Learn/Sesi-01-Challenge/LiskGarden.sol\":10146:10347  function withdraw() external {... */\n    tag_5:\n      callvalue\n      dup1\n      iszero\n      tag_37\n      jumpi\n      revert(0x00, 0x00)\n    tag_37:\n      pop\n      tag_38\n      tag_39\n      jump\t// in\n    tag_38:\n      stop\n        /* \"Learn/Sesi-01-Challenge/LiskGarden.sol\":1674:1724  uint256 public constant STAGE_DURATION = 1 minutes */\n    tag_6:\n      callvalue\n      dup1\n      iszero\n      tag_40\n      jumpi\n      revert(0x00, 0x00)\n    tag_40:\n      pop\n      tag_41\n      tag_42\n      jump\t// in\n    tag_41:\n      mload(0x40)\n      tag_43\n      swap2\n      swap1\n      tag_29\n      jump\t// in\n    tag_43:\n      mload(0x40)\n      dup1\n      swap2\n      sub\n      swap1\n      return\n        /* \"Learn/Sesi-01-Challenge/LiskGarden.sol\":1777:1838  uint256 public constant WATER_DEPLETION_DURATION = 30 seconds */\n    tag_7:\n      callvalue\n      dup1\n      iszero\n      tag_44\n      jumpi\n      revert(0x00, 0x00)\n    tag_44:\n      pop\n      tag_45\n      tag_46\n      jump\t// in\n    tag_45:\n      mload(0x40)\n      tag_47\n      swap2\n      swap1\n      tag_29\n      jump\t// in\n    tag_47:\n      mload(0x40)\n      dup1\n      swap2\n      sub\n      swap1\n      return\n        /* \"Learn/Sesi-01-Challenge/LiskGarden.sol\":3219:4300  function plantSeed() external payable returns (uint256){... */\n    tag_8:\n      tag_48\n      tag_49\n      jump\t// in\n    tag_48:\n      mload(0x40)\n      tag_50\n      swap2\n      swap1\n      tag_29\n      jump\t// in\n    tag_50:\n      mload(0x40)\n      dup1\n      swap2\n      sub\n      swap1\n      return\n        /* \"Learn/Sesi-01-Challenge/LiskGarden.sol\":4308:5236  function calculateWaterLevel(uint256 _plantId) public view returns (uint256){... */\n    tag_9:\n      callvalue\n      dup1\n      iszero\n      tag_51\n      jumpi\n      revert(0x00, 0x00)\n    tag_51:\n      pop\n      tag_52\n      0x04\n      dup1\n      calldatasize\n      sub\n      dup2\n      add\n      swap1\n      tag_53\n      swap2\n      swap1\n      tag_54\n      jump\t// in\n    tag_53:\n      tag_55\n      jump\t// in\n    tag_52:\n      mload(0x40)\n      tag_56\n      swap2\n      swap1\n      tag_29\n      jump\t// in\n    tag_56:\n      mload(0x40)\n      dup1\n      swap2\n      sub\n      swap1\n      return\n        /* \"Learn/Sesi-01-Challenge/LiskGarden.sol\":1149:1196  mapping(address => uint256[]) public userPlants */\n    tag_10:\n      callvalue\n      dup1\n      iszero\n      tag_57\n      jumpi\n      revert(0x00, 0x00)\n    tag_57:\n      pop\n      tag_58\n      0x04\n      dup1\n      calldatasize\n      sub\n      dup2\n      add\n      swap1\n      tag_59\n      swap2\n      swap1\n      tag_60\n      jump\t// in\n    tag_59:\n      tag_61\n      jump\t// in\n    tag_58:\n      mload(0x40)\n      tag_62\n      swap2\n      swap1\n      tag_29\n      jump\t// in\n    tag_62:\n      mload(0x40)\n      dup1\n      swap2\n      sub\n      swap1\n      return\n        /* \"Learn/Sesi-01-Challenge/LiskGarden.sol\":1424:1444  address public owner */\n    tag_11:\n      callvalue\n      dup1\n      iszero\n      tag_63\n      jumpi\n      revert(0x00, 0x00)\n    tag_63:\n      pop\n      tag_64\n      tag_65\n      jump\t// in\n    tag_64:\n      mload(0x40)\n      tag_66\n      swap2\n      swap1\n      tag_67\n      jump\t// in\n    tag_66:\n      mload(0x40)\n      dup1\n      swap2\n      sub\n      swap1\n      return\n        /* \"Learn/Sesi-01-Challenge/LiskGarden.sol\":1022:1061  mapping(uint256 => Plant) public plants */\n    tag_12:\n      callvalue\n      dup1\n      iszero\n      tag_68\n      jumpi\n      revert(0x00, 0x00)\n    tag_68:\n      pop\n      tag_69\n      0x04\n      dup1\n      calldatasize\n      sub\n      dup2\n      add\n      swap1\n      tag_70\n      swap2\n      swap1\n      tag_54\n      jump\t// in\n    tag_70:\n      tag_71\n      jump\t// in\n    tag_69:\n      mload(0x40)\n      tag_72\n      swap9\n      swap8\n      swap7\n      swap6\n      swap5\n      swap4\n      swap3\n      swap2\n      swap1\n      tag_73\n      jump\t// in\n    tag_72:\n      mload(0x40)\n      dup1\n      swap2\n      sub\n      swap1\n      return\n        /* \"Learn/Sesi-01-Challenge/LiskGarden.sol\":5924:6594  function waterPlant(uint256 plantId) external {... */\n    tag_13:\n      callvalue\n      dup1\n      iszero\n      tag_74\n      jumpi\n      revert(0x00, 0x00)\n    tag_74:\n      pop\n      tag_75\n      0x04\n      dup1\n      calldatasize\n      sub\n      dup2\n      add\n      swap1\n      tag_76\n      swap2\n      swap1\n      tag_54\n      jump\t// in\n    tag_76:\n      tag_77\n      jump\t// in\n    tag_75:\n      stop\n        /* \"Learn/Sesi-01-Challenge/LiskGarden.sol\":1299:1326  uint256 public plantCounter */\n    tag_14:\n      callvalue\n      dup1\n      iszero\n      tag_78\n      jumpi\n      revert(0x00, 0x00)\n    tag_78:\n      pop\n      tag_79\n      tag_80\n      jump\t// in\n    tag_79:\n      mload(0x40)\n      tag_81\n      swap2\n      swap1\n      tag_29\n      jump\t// in\n    tag_81:\n      mload(0x40)\n      dup1\n      swap2\n      sub\n      swap1\n      return\n        /* \"Learn/Sesi-01-Challenge/LiskGarden.sol\":1897:1943  uint8 public constant WATER_DEPLETION_RATE = 2 */\n    tag_15:\n      callvalue\n      dup1\n      iszero\n      tag_82\n      jumpi\n      revert(0x00, 0x00)\n    tag_82:\n      pop\n      tag_83\n      tag_84\n      jump\t// in\n    tag_83:\n      mload(0x40)\n      tag_85\n      swap2\n      swap1\n      tag_86\n      jump\t// in\n    tag_85:\n      mload(0x40)\n      dup1\n      swap2\n      sub\n      swap1\n      return\n        /* \"Learn/Sesi-01-Challenge/LiskGarden.sol\":1486:1537  uint256 public constant PLANT_PRICE = 0.00001 ether */\n    tag_16:\n      callvalue\n      dup1\n      iszero\n      tag_87\n      jumpi\n      revert(0x00, 0x00)\n    tag_87:\n      pop\n      tag_88\n      tag_89\n      jump\t// in\n    tag_88:\n      mload(0x40)\n      tag_90\n      swap2\n      swap1\n      tag_29\n      jump\t// in\n    tag_90:\n      mload(0x40)\n      dup1\n      swap2\n      sub\n      swap1\n      return\n        /* \"Learn/Sesi-01-Challenge/LiskGarden.sol\":6607:8434  function updatePlantStage(uint256 plantId) public  {... */\n    tag_17:\n      callvalue\n      dup1\n      iszero\n      tag_91\n      jumpi\n      revert(0x00, 0x00)\n    tag_91:\n      pop\n      tag_92\n      0x04\n      dup1\n      calldatasize\n      sub\n      dup2\n      add\n      swap1\n      tag_93\n      swap2\n      swap1\n      tag_54\n      jump\t// in\n    tag_93:\n      tag_94\n      jump\t// in\n    tag_92:\n      stop\n        /* \"Learn/Sesi-01-Challenge/LiskGarden.sol\":8442:9550  function harvestPlant(uint256 plantId) external {... */\n    tag_18:\n      callvalue\n      dup1\n      iszero\n      tag_95\n      jumpi\n      revert(0x00, 0x00)\n    tag_95:\n      pop\n      tag_96\n      0x04\n      dup1\n      calldatasize\n      sub\n      dup2\n      add\n      swap1\n      tag_97\n      swap2\n      swap1\n      tag_54\n      jump\t// in\n    tag_97:\n      tag_98\n      jump\t// in\n    tag_96:\n      stop\n        /* \"Learn/Sesi-01-Challenge/LiskGarden.sol\":9707:10010  function getPlant(uint256 plantId) external view returns (Plant memory) {... */\n    tag_19:\n      callvalue\n      dup1\n      iszero\n      tag_99\n      jumpi\n      revert(0x00, 0x00)\n    tag_99:\n      pop\n      tag_100\n      0x04\n      dup1\n      calldatasize\n      sub\n      dup2\n      add\n      swap1\n      tag_101\n      swap2\n      swap1\n      tag_54\n      jump\t// in\n    tag_101:\n      tag_102\n      jump\t// in\n    tag_100:\n      mload(0x40)\n      tag_103\n      swap2\n      swap1\n      tag_104\n      jump\t// in\n    tag_103:\n      mload(0x40)\n      dup1\n      swap2\n      sub\n      swap1\n      return\n        /* \"Learn/Sesi-01-Challenge/LiskGarden.sol\":3007:3106  function getBalance() public view returns (uint256) {... */\n    tag_27:\n        /* \"Learn/Sesi-01-Challenge/LiskGarden.sol\":3050:3057  uint256 */\n      0x00\n        /* \"Learn/Sesi-01-Challenge/LiskGarden.sol\":3077:3098  address(this).balance */\n      selfbalance\n        /* \"Learn/Sesi-01-Challenge/LiskGarden.sol\":3070:3098  return address(this).balance */\n      swap1\n      pop\n        /* \"Learn/Sesi-01-Challenge/LiskGarden.sol\":3007:3106  function getBalance() public view returns (uint256) {... */\n      swap1\n      jump\t// out\n        /* \"Learn/Sesi-01-Challenge/LiskGarden.sol\":10018:10138  function getUserPlants(address user) external view returns (uint256[] memory) {... */\n    tag_34:\n        /* \"Learn/Sesi-01-Challenge/LiskGarden.sol\":10078:10094  uint256[] memory */\n      0x60\n        /* \"Learn/Sesi-01-Challenge/LiskGarden.sol\":10114:10124  userPlants */\n      0x01\n        /* \"Learn/Sesi-01-Challenge/LiskGarden.sol\":10114:10130  userPlants[user] */\n      0x00\n        /* \"Learn/Sesi-01-Challenge/LiskGarden.sol\":10125:10129  user */\n      dup4\n        /* \"Learn/Sesi-01-Challenge/LiskGarden.sol\":10114:10130  userPlants[user] */\n      0xffffffffffffffffffffffffffffffffffffffff\n      and\n      0xffffffffffffffffffffffffffffffffffffffff\n      and\n      dup2\n      mstore\n      0x20\n      add\n      swap1\n      dup2\n      mstore\n      0x20\n      add\n      0x00\n      keccak256\n        /* \"Learn/Sesi-01-Challenge/LiskGarden.sol\":10107:10130  return userPlants[user] */\n      dup1\n      sload\n      dup1\n      0x20\n      mul\n      0x20\n      add\n      mload(0x40)\n      swap1\n      dup2\n      add\n      0x40\n      mstore\n      dup1\n      swap3\n      swap2\n      swap1\n      dup2\n      dup2\n      mstore\n      0x20\n      add\n      dup3\n      dup1\n      sload\n      dup1\n      iszero\n      tag_107\n      jumpi\n      0x20\n      mul\n      dup3\n      add\n      swap2\n      swap1\n      0x00\n      mstore\n      keccak256(0x00, 0x20)\n      swap1\n    tag_108:\n      dup2\n      sload\n      dup2\n      mstore\n      0x20\n      add\n      swap1\n      0x01\n      add\n      swap1\n      dup1\n      dup4\n      gt\n      tag_108\n      jumpi\n    tag_107:\n      pop\n      pop\n      pop\n      pop\n      pop\n      swap1\n      pop\n        /* \"Learn/Sesi-01-Challenge/LiskGarden.sol\":10018:10138  function getUserPlants(address user) external view returns (uint256[] memory) {... */\n      swap2\n      swap1\n      pop\n      jump\t// out\n        /* \"Learn/Sesi-01-Challenge/LiskGarden.sol\":10146:10347  function withdraw() external {... */\n    tag_39:\n        /* \"Learn/Sesi-01-Challenge/LiskGarden.sol\":10208:10213  owner */\n      0x03\n      0x00\n      swap1\n      sload\n      swap1\n      0x0100\n      exp\n      swap1\n      div\n      0xffffffffffffffffffffffffffffffffffffffff\n      and\n        /* \"Learn/Sesi-01-Challenge/LiskGarden.sol\":10194:10213  msg.sender == owner */\n      0xffffffffffffffffffffffffffffffffffffffff\n      and\n        /* \"Learn/Sesi-01-Challenge/LiskGarden.sol\":10194:10204  msg.sender */\n      caller\n        /* \"Learn/Sesi-01-Challenge/LiskGarden.sol\":10194:10213  msg.sender == owner */\n      0xffffffffffffffffffffffffffffffffffffffff\n      and\n      eq\n        /* \"Learn/Sesi-01-Challenge/LiskGarden.sol\":10186:10229  require(msg.sender == owner, \"Bukan owner\") */\n      tag_110\n      jumpi\n      mload(0x40)\n      0x08c379a000000000000000000000000000000000000000000000000000000000\n      dup2\n      mstore\n      0x04\n      add\n      tag_111\n      swap1\n      tag_112\n      jump\t// in\n    tag_111:\n      mload(0x40)\n      dup1\n      swap2\n      sub\n      swap1\n      revert\n    tag_110:\n        /* \"Learn/Sesi-01-Challenge/LiskGarden.sol\":10241:10253  bool success */\n      0x00\n        /* \"Learn/Sesi-01-Challenge/LiskGarden.sol\":10259:10264  owner */\n      0x03\n      0x00\n      swap1\n      sload\n      swap1\n      0x0100\n      exp\n      swap1\n      div\n      0xffffffffffffffffffffffffffffffffffffffff\n      and\n        /* \"Learn/Sesi-01-Challenge/LiskGarden.sol\":10259:10269  owner.call */\n      0xffffffffffffffffffffffffffffffffffffffff\n      and\n        /* \"Learn/Sesi-01-Challenge/LiskGarden.sol\":10277:10289  0.0003 ether */\n      0x0110d9316ec000\n        /* \"Learn/Sesi-01-Challenge/LiskGarden.sol\":10259:10294  owner.call{value: 0.0003 ether}(\"\") */\n      mload(0x40)\n      tag_113\n      swap1\n      tag_114\n      jump\t// in\n    tag_113:\n      0x00\n      mload(0x40)\n      dup1\n      dup4\n      sub\n      dup2\n      dup6\n      dup8\n      gas\n      call\n      swap3\n      pop\n      pop\n      pop\n      returndatasize\n      dup1\n      0x00\n      dup2\n      eq\n      tag_117\n      jumpi\n      mload(0x40)\n      swap2\n      pop\n      and(add(returndatasize, 0x3f), not(0x1f))\n      dup3\n      add\n      0x40\n      mstore\n      returndatasize\n      dup3\n      mstore\n      returndatasize\n      0x00\n      0x20\n      dup5\n      add\n      returndatacopy\n      jump(tag_116)\n    tag_117:\n      0x60\n      swap2\n      pop\n    tag_116:\n      pop\n        /* \"Learn/Sesi-01-Challenge/LiskGarden.sol\":10240:10294  (bool success, ) = owner.call{value: 0.0003 ether}(\"\") */\n      pop\n      swap1\n      pop\n        /* \"Learn/Sesi-01-Challenge/LiskGarden.sol\":10313:10320  success */\n      dup1\n        /* \"Learn/Sesi-01-Challenge/LiskGarden.sol\":10305:10339  require(success, \"Transfer gagal\") */\n      tag_118\n      jumpi\n      mload(0x40)\n      0x08c379a000000000000000000000000000000000000000000000000000000000\n      dup2\n      mstore\n      0x04\n      add\n      tag_119\n      swap1\n      tag_120\n      jump\t// in\n    tag_119:\n      mload(0x40)\n      dup1\n      swap2\n      sub\n      swap1\n      revert\n    tag_118:\n        /* \"Learn/Sesi-01-Challenge/LiskGarden.sol\":10175:10347  {... */\n      pop\n        /* \"Learn/Sesi-01-Challenge/LiskGarden.sol\":10146:10347  function withdraw() external {... */\n      jump\t// out\n        /* \"Learn/Sesi-01-Challenge/LiskGarden.sol\":1674:1724  uint256 public constant STAGE_DURATION = 1 minutes */\n    tag_42:\n        /* \"Learn/Sesi-01-Challenge/LiskGarden.sol\":1715:1724  1 minutes */\n      0x3c\n        /* \"Learn/Sesi-01-Challenge/LiskGarden.sol\":1674:1724  uint256 public constant STAGE_DURATION = 1 minutes */\n      dup2\n      jump\t// out\n        /* \"Learn/Sesi-01-Challenge/LiskGarden.sol\":1777:1838  uint256 public constant WATER_DEPLETION_DURATION = 30 seconds */\n    tag_46:\n        /* \"Learn/Sesi-01-Challenge/LiskGarden.sol\":1828:1838  30 seconds */\n      0x1e\n        /* \"Learn/Sesi-01-Challenge/LiskGarden.sol\":1777:1838  uint256 public constant WATER_DEPLETION_DURATION = 30 seconds */\n      dup2\n      jump\t// out\n        /* \"Learn/Sesi-01-Challenge/LiskGarden.sol\":3219:4300  function plantSeed() external payable returns (uint256){... */\n    tag_49:\n        /* \"Learn/Sesi-01-Challenge/LiskGarden.sol\":3266:3273  uint256 */\n      0x00\n        /* \"Learn/Sesi-01-Challenge/LiskGarden.sol\":1524:1537  0.00001 ether */\n      0x09184e72a000\n        /* \"Learn/Sesi-01-Challenge/LiskGarden.sol\":3358:3367  msg.value */\n      callvalue\n        /* \"Learn/Sesi-01-Challenge/LiskGarden.sol\":3358:3382  msg.value >= PLANT_PRICE */\n      lt\n      iszero\n        /* \"Learn/Sesi-01-Challenge/LiskGarden.sol\":3350:3407  require(msg.value >= PLANT_PRICE, \"Minium 0.00001 ether\") */\n      tag_122\n      jumpi\n      mload(0x40)\n      0x08c379a000000000000000000000000000000000000000000000000000000000\n      dup2\n      mstore\n      0x04\n      add\n      tag_123\n      swap1\n      tag_124\n      jump\t// in\n    tag_123:\n      mload(0x40)\n      dup1\n      swap2\n      sub\n      swap1\n      revert\n    tag_122:\n        /* \"Learn/Sesi-01-Challenge/LiskGarden.sol\":3493:3494  1 */\n      0x01\n        /* \"Learn/Sesi-01-Challenge/LiskGarden.sol\":3477:3489  plantCounter */\n      0x02\n      0x00\n        /* \"Learn/Sesi-01-Challenge/LiskGarden.sol\":3477:3494  plantCounter += 1 */\n      dup3\n      dup3\n      sload\n      tag_125\n      swap2\n      swap1\n      tag_126\n      jump\t// in\n    tag_125:\n      swap3\n      pop\n      pop\n      dup2\n      swap1\n      sstore\n      pop\n        /* \"Learn/Sesi-01-Challenge/LiskGarden.sol\":3567:3588  Plant memory newPlant */\n      0x00\n        /* \"Learn/Sesi-01-Challenge/LiskGarden.sol\":3591:3884  Plant({... */\n      mload(0x40)\n      dup1\n      0x0100\n      add\n      0x40\n      mstore\n      dup1\n        /* \"Learn/Sesi-01-Challenge/LiskGarden.sol\":3621:3633  plantCounter */\n      sload(0x02)\n        /* \"Learn/Sesi-01-Challenge/LiskGarden.sol\":3591:3884  Plant({... */\n      dup2\n      mstore\n      0x20\n      add\n        /* \"Learn/Sesi-01-Challenge/LiskGarden.sol\":3655:3665  msg.sender */\n      caller\n        /* \"Learn/Sesi-01-Challenge/LiskGarden.sol\":3591:3884  Plant({... */\n      0xffffffffffffffffffffffffffffffffffffffff\n      and\n      dup2\n      mstore\n      0x20\n      add\n        /* \"Learn/Sesi-01-Challenge/LiskGarden.sol\":3687:3701  GrowStage.SEED */\n      0x00\n        /* \"Learn/Sesi-01-Challenge/LiskGarden.sol\":3591:3884  Plant({... */\n      0x03\n      dup2\n      gt\n      iszero\n      tag_127\n      jumpi\n      tag_128\n      tag_129\n      jump\t// in\n    tag_128:\n    tag_127:\n      dup2\n      mstore\n      0x20\n      add\n        /* \"Learn/Sesi-01-Challenge/LiskGarden.sol\":3729:3744  block.timestamp */\n      timestamp\n        /* \"Learn/Sesi-01-Challenge/LiskGarden.sol\":3591:3884  Plant({... */\n      dup2\n      mstore\n      0x20\n      add\n        /* \"Learn/Sesi-01-Challenge/LiskGarden.sol\":3772:3787  block.timestamp */\n      timestamp\n        /* \"Learn/Sesi-01-Challenge/LiskGarden.sol\":3591:3884  Plant({... */\n      dup2\n      mstore\n      0x20\n      add\n        /* \"Learn/Sesi-01-Challenge/LiskGarden.sol\":3814:3817  100 */\n      0x64\n        /* \"Learn/Sesi-01-Challenge/LiskGarden.sol\":3591:3884  Plant({... */\n      dup2\n      mstore\n      0x20\n      add\n        /* \"Learn/Sesi-01-Challenge/LiskGarden.sol\":3840:3844  true */\n      0x01\n        /* \"Learn/Sesi-01-Challenge/LiskGarden.sol\":3591:3884  Plant({... */\n      iszero\n      iszero\n      dup2\n      mstore\n      0x20\n      add\n        /* \"Learn/Sesi-01-Challenge/LiskGarden.sol\":3867:3872  false */\n      0x00\n        /* \"Learn/Sesi-01-Challenge/LiskGarden.sol\":3591:3884  Plant({... */\n      iszero\n      iszero\n      dup2\n      mstore\n      pop\n        /* \"Learn/Sesi-01-Challenge/LiskGarden.sol\":3567:3884  Plant memory newPlant = Plant({... */\n      swap1\n      pop\n        /* \"Learn/Sesi-01-Challenge/LiskGarden.sol\":3984:3992  newPlant */\n      dup1\n        /* \"Learn/Sesi-01-Challenge/LiskGarden.sol\":3961:3967  plants */\n      0x00\n        /* \"Learn/Sesi-01-Challenge/LiskGarden.sol\":3961:3981  plants[plantCounter] */\n      0x00\n        /* \"Learn/Sesi-01-Challenge/LiskGarden.sol\":3968:3980  plantCounter */\n      sload(0x02)\n        /* \"Learn/Sesi-01-Challenge/LiskGarden.sol\":3961:3981  plants[plantCounter] */\n      dup2\n      mstore\n      0x20\n      add\n      swap1\n      dup2\n      mstore\n      0x20\n      add\n      0x00\n      keccak256\n        /* \"Learn/Sesi-01-Challenge/LiskGarden.sol\":3961:3992  plants[plantCounter] = newPlant */\n      0x00\n      dup3\n      add\n      mload\n      dup2\n      0x00\n      add\n      sstore\n      0x20\n      dup3\n      add\n      mload\n      dup2\n      0x01\n      add\n      exp(0x0100, 0x00)\n      dup2\n      sload\n      dup2\n      0xffffffffffffffffffffffffffffffffffffffff\n      mul\n      not\n      and\n      swap1\n      dup4\n      0xffffffffffffffffffffffffffffffffffffffff\n      and\n      mul\n      or\n      swap1\n      sstore\n      pop\n      0x40\n      dup3\n      add\n      mload\n      dup2\n      0x01\n      add\n      exp(0x0100, 0x14)\n      dup2\n      sload\n      dup2\n      0xff\n      mul\n      not\n      and\n      swap1\n      dup4\n      0x03\n      dup2\n      gt\n      iszero\n      tag_130\n      jumpi\n      tag_131\n      tag_129\n      jump\t// in\n    tag_131:\n    tag_130:\n      mul\n      or\n      swap1\n      sstore\n      pop\n      0x60\n      dup3\n      add\n      mload\n      dup2\n      0x02\n      add\n      sstore\n      0x80\n      dup3\n      add\n      mload\n      dup2\n      0x03\n      add\n      sstore\n      0xa0\n      dup3\n      add\n      mload\n      dup2\n      0x04\n      add\n      sstore\n      0xc0\n      dup3\n      add\n      mload\n      dup2\n      0x05\n      add\n      exp(0x0100, 0x00)\n      dup2\n      sload\n      dup2\n      0xff\n      mul\n      not\n      and\n      swap1\n      dup4\n      iszero\n      iszero\n      mul\n      or\n      swap1\n      sstore\n      pop\n      0xe0\n      dup3\n      add\n      mload\n      dup2\n      0x05\n      add\n      exp(0x0100, 0x01)\n      dup2\n      sload\n      dup2\n      0xff\n      mul\n      not\n      and\n      swap1\n      dup4\n      iszero\n      iszero\n      mul\n      or\n      swap1\n      sstore\n      pop\n      swap1\n      pop\n      pop\n        /* \"Learn/Sesi-01-Challenge/LiskGarden.sol\":4045:4055  userPlants */\n      0x01\n        /* \"Learn/Sesi-01-Challenge/LiskGarden.sol\":4045:4067  userPlants[msg.sender] */\n      0x00\n        /* \"Learn/Sesi-01-Challenge/LiskGarden.sol\":4056:4066  msg.sender */\n      caller\n        /* \"Learn/Sesi-01-Challenge/LiskGarden.sol\":4045:4067  userPlants[msg.sender] */\n      0xffffffffffffffffffffffffffffffffffffffff\n      and\n      0xffffffffffffffffffffffffffffffffffffffff\n      and\n      dup2\n      mstore\n      0x20\n      add\n      swap1\n      dup2\n      mstore\n      0x20\n      add\n      0x00\n      keccak256\n        /* \"Learn/Sesi-01-Challenge/LiskGarden.sol\":4073:4081  newPlant */\n      dup2\n        /* \"Learn/Sesi-01-Challenge/LiskGarden.sol\":4073:4089  newPlant.plantId */\n      0x00\n      add\n      mload\n        /* \"Learn/Sesi-01-Challenge/LiskGarden.sol\":4045:4090  userPlants[msg.sender].push(newPlant.plantId) */\n      swap1\n      dup1\n      0x01\n      dup2\n      sload\n      add\n      dup1\n      dup3\n      sstore\n      dup1\n      swap2\n      pop\n      pop\n      0x01\n      swap1\n      sub\n      swap1\n      0x00\n      mstore\n      keccak256(0x00, 0x20)\n      add\n      0x00\n      swap1\n      swap2\n      swap1\n      swap2\n      swap1\n      swap2\n      pop\n      sstore\n        /* \"Learn/Sesi-01-Challenge/LiskGarden.sol\":4193:4201  newPlant */\n      dup1\n        /* \"Learn/Sesi-01-Challenge/LiskGarden.sol\":4193:4209  newPlant.plantId */\n      0x00\n      add\n      mload\n        /* \"Learn/Sesi-01-Challenge/LiskGarden.sol\":4177:4185  newPlant */\n      dup2\n        /* \"Learn/Sesi-01-Challenge/LiskGarden.sol\":4177:4191  newPlant.owner */\n      0x20\n      add\n      mload\n        /* \"Learn/Sesi-01-Challenge/LiskGarden.sol\":4165:4210  PlantSeeded(newPlant.owner, newPlant.plantId) */\n      0xffffffffffffffffffffffffffffffffffffffff\n      and\n      0x4f5b22082ac57121703b0b6c1203ef527cfbfa5069616fee6deb979d124adbf0\n      mload(0x40)\n      mload(0x40)\n      dup1\n      swap2\n      sub\n      swap1\n      log3\n        /* \"Learn/Sesi-01-Challenge/LiskGarden.sol\":4280:4292  plantCounter */\n      sload(0x02)\n        /* \"Learn/Sesi-01-Challenge/LiskGarden.sol\":4273:4292  return plantCounter */\n      swap2\n      pop\n      pop\n        /* \"Learn/Sesi-01-Challenge/LiskGarden.sol\":3219:4300  function plantSeed() external payable returns (uint256){... */\n      swap1\n      jump\t// out\n        /* \"Learn/Sesi-01-Challenge/LiskGarden.sol\":4308:5236  function calculateWaterLevel(uint256 _plantId) public view returns (uint256){... */\n    tag_55:\n        /* \"Learn/Sesi-01-Challenge/LiskGarden.sol\":4376:4383  uint256 */\n      0x00\n        /* \"Learn/Sesi-01-Challenge/LiskGarden.sol\":4436:4456  Plant memory myPlant */\n      0x00\n        /* \"Learn/Sesi-01-Challenge/LiskGarden.sol\":4459:4465  plants */\n      0x00\n        /* \"Learn/Sesi-01-Challenge/LiskGarden.sol\":4459:4476  plants[ _plantId] */\n      0x00\n        /* \"Learn/Sesi-01-Challenge/LiskGarden.sol\":4467:4475  _plantId */\n      dup5\n        /* \"Learn/Sesi-01-Challenge/LiskGarden.sol\":4459:4476  plants[ _plantId] */\n      dup2\n      mstore\n      0x20\n      add\n      swap1\n      dup2\n      mstore\n      0x20\n      add\n      0x00\n      keccak256\n        /* \"Learn/Sesi-01-Challenge/LiskGarden.sol\":4436:4476  Plant memory myPlant = plants[ _plantId] */\n      mload(0x40)\n      dup1\n      0x0100\n      add\n      0x40\n      mstore\n      swap1\n      dup2\n      0x00\n      dup3\n      add\n      sload\n      dup2\n      mstore\n      0x20\n      add\n      0x01\n      dup3\n      add\n      0x00\n      swap1\n      sload\n      swap1\n      0x0100\n      exp\n      swap1\n      div\n      0xffffffffffffffffffffffffffffffffffffffff\n      and\n      0xffffffffffffffffffffffffffffffffffffffff\n      and\n      0xffffffffffffffffffffffffffffffffffffffff\n      and\n      dup2\n      mstore\n      0x20\n      add\n      0x01\n      dup3\n      add\n      0x14\n      swap1\n      sload\n      swap1\n      0x0100\n      exp\n      swap1\n      div\n      0xff\n      and\n      0x03\n      dup2\n      gt\n      iszero\n      tag_134\n      jumpi\n      tag_135\n      tag_129\n      jump\t// in\n    tag_135:\n    tag_134:\n      0x03\n      dup2\n      gt\n      iszero\n      tag_136\n      jumpi\n      tag_137\n      tag_129\n      jump\t// in\n    tag_137:\n    tag_136:\n      dup2\n      mstore\n      0x20\n      add\n      0x02\n      dup3\n      add\n      sload\n      dup2\n      mstore\n      0x20\n      add\n      0x03\n      dup3\n      add\n      sload\n      dup2\n      mstore\n      0x20\n      add\n      0x04\n      dup3\n      add\n      sload\n      dup2\n      mstore\n      0x20\n      add\n      0x05\n      dup3\n      add\n      0x00\n      swap1\n      sload\n      swap1\n      0x0100\n      exp\n      swap1\n      div\n      0xff\n      and\n      iszero\n      iszero\n      iszero\n      iszero\n      dup2\n      mstore\n      0x20\n      add\n      0x05\n      dup3\n      add\n      0x01\n      swap1\n      sload\n      swap1\n      0x0100\n      exp\n      swap1\n      div\n      0xff\n      and\n      iszero\n      iszero\n      iszero\n      iszero\n      dup2\n      mstore\n      pop\n      pop\n      swap1\n      pop\n        /* \"Learn/Sesi-01-Challenge/LiskGarden.sol\":4559:4563  true */\n      0x01\n        /* \"Learn/Sesi-01-Challenge/LiskGarden.sol\":4541:4563  myPlant.isDead == true */\n      iszero\n      iszero\n        /* \"Learn/Sesi-01-Challenge/LiskGarden.sol\":4541:4548  myPlant */\n      dup2\n        /* \"Learn/Sesi-01-Challenge/LiskGarden.sol\":4541:4555  myPlant.isDead */\n      0xe0\n      add\n      mload\n        /* \"Learn/Sesi-01-Challenge/LiskGarden.sol\":4541:4563  myPlant.isDead == true */\n      iszero\n      iszero\n      eq\n        /* \"Learn/Sesi-01-Challenge/LiskGarden.sol\":4541:4590  myPlant.isDead == true || myPlant.exists == false */\n      dup1\n      tag_138\n      jumpi\n      pop\n        /* \"Learn/Sesi-01-Challenge/LiskGarden.sol\":4585:4590  false */\n      0x00\n        /* \"Learn/Sesi-01-Challenge/LiskGarden.sol\":4567:4590  myPlant.exists == false */\n      iszero\n      iszero\n        /* \"Learn/Sesi-01-Challenge/LiskGarden.sol\":4567:4574  myPlant */\n      dup2\n        /* \"Learn/Sesi-01-Challenge/LiskGarden.sol\":4567:4581  myPlant.exists */\n      0xc0\n      add\n      mload\n        /* \"Learn/Sesi-01-Challenge/LiskGarden.sol\":4567:4590  myPlant.exists == false */\n      iszero\n      iszero\n      eq\n        /* \"Learn/Sesi-01-Challenge/LiskGarden.sol\":4541:4590  myPlant.isDead == true || myPlant.exists == false */\n    tag_138:\n        /* \"Learn/Sesi-01-Challenge/LiskGarden.sol\":4537:4627  if (myPlant.isDead == true || myPlant.exists == false) {... */\n      iszero\n      tag_139\n      jumpi\n        /* \"Learn/Sesi-01-Challenge/LiskGarden.sol\":4614:4615  0 */\n      0x00\n        /* \"Learn/Sesi-01-Challenge/LiskGarden.sol\":4607:4615  return 0 */\n      swap2\n      pop\n      pop\n      jump(tag_133)\n        /* \"Learn/Sesi-01-Challenge/LiskGarden.sol\":4537:4627  if (myPlant.isDead == true || myPlant.exists == false) {... */\n    tag_139:\n        /* \"Learn/Sesi-01-Challenge/LiskGarden.sol\":4706:4713  myPlant */\n      dup1\n        /* \"Learn/Sesi-01-Challenge/LiskGarden.sol\":4706:4725  myPlant.lastWatered */\n      0x80\n      add\n      mload\n        /* \"Learn/Sesi-01-Challenge/LiskGarden.sol\":4687:4702  block.timestamp */\n      timestamp\n        /* \"Learn/Sesi-01-Challenge/LiskGarden.sol\":4687:4725  block.timestamp <= myPlant.lastWatered */\n      gt\n        /* \"Learn/Sesi-01-Challenge/LiskGarden.sol\":4683:4752  if (block.timestamp <= myPlant.lastWatered) return myPlant.waterLevel */\n      tag_140\n      jumpi\n        /* \"Learn/Sesi-01-Challenge/LiskGarden.sol\":4734:4741  myPlant */\n      dup1\n        /* \"Learn/Sesi-01-Challenge/LiskGarden.sol\":4734:4752  myPlant.waterLevel */\n      0xa0\n      add\n      mload\n        /* \"Learn/Sesi-01-Challenge/LiskGarden.sol\":4727:4752  return myPlant.waterLevel */\n      swap2\n      pop\n      pop\n      jump(tag_133)\n        /* \"Learn/Sesi-01-Challenge/LiskGarden.sol\":4683:4752  if (block.timestamp <= myPlant.lastWatered) return myPlant.waterLevel */\n    tag_140:\n        /* \"Learn/Sesi-01-Challenge/LiskGarden.sol\":4765:4780  uint256 elapsed */\n      0x00\n        /* \"Learn/Sesi-01-Challenge/LiskGarden.sol\":4801:4808  myPlant */\n      dup2\n        /* \"Learn/Sesi-01-Challenge/LiskGarden.sol\":4801:4820  myPlant.lastWatered */\n      0x80\n      add\n      mload\n        /* \"Learn/Sesi-01-Challenge/LiskGarden.sol\":4783:4798  block.timestamp */\n      timestamp\n        /* \"Learn/Sesi-01-Challenge/LiskGarden.sol\":4783:4820  block.timestamp - myPlant.lastWatered */\n      tag_141\n      swap2\n      swap1\n      tag_142\n      jump\t// in\n    tag_141:\n        /* \"Learn/Sesi-01-Challenge/LiskGarden.sol\":4765:4820  uint256 elapsed = block.timestamp - myPlant.lastWatered */\n      swap1\n      pop\n        /* \"Learn/Sesi-01-Challenge/LiskGarden.sol\":1828:1838  30 seconds */\n      0x1e\n        /* \"Learn/Sesi-01-Challenge/LiskGarden.sol\":4867:4874  elapsed */\n      dup2\n        /* \"Learn/Sesi-01-Challenge/LiskGarden.sol\":4867:4901  elapsed < WATER_DEPLETION_DURATION */\n      lt\n        /* \"Learn/Sesi-01-Challenge/LiskGarden.sol\":4863:4928  if (elapsed < WATER_DEPLETION_DURATION) return myPlant.waterLevel */\n      iszero\n      tag_143\n      jumpi\n        /* \"Learn/Sesi-01-Challenge/LiskGarden.sol\":4910:4917  myPlant */\n      dup2\n        /* \"Learn/Sesi-01-Challenge/LiskGarden.sol\":4910:4928  myPlant.waterLevel */\n      0xa0\n      add\n      mload\n        /* \"Learn/Sesi-01-Challenge/LiskGarden.sol\":4903:4928  return myPlant.waterLevel */\n      swap3\n      pop\n      pop\n      pop\n      jump(tag_133)\n        /* \"Learn/Sesi-01-Challenge/LiskGarden.sol\":4863:4928  if (elapsed < WATER_DEPLETION_DURATION) return myPlant.waterLevel */\n    tag_143:\n        /* \"Learn/Sesi-01-Challenge/LiskGarden.sol\":4967:4984  uint256 intervals */\n      0x00\n        /* \"Learn/Sesi-01-Challenge/LiskGarden.sol\":1828:1838  30 seconds */\n      0x1e\n        /* \"Learn/Sesi-01-Challenge/LiskGarden.sol\":4987:4994  elapsed */\n      dup3\n        /* \"Learn/Sesi-01-Challenge/LiskGarden.sol\":4987:5021  elapsed / WATER_DEPLETION_DURATION */\n      tag_144\n      swap2\n      swap1\n      tag_145\n      jump\t// in\n    tag_144:\n        /* \"Learn/Sesi-01-Challenge/LiskGarden.sol\":4967:5021  uint256 intervals = elapsed / WATER_DEPLETION_DURATION */\n      swap1\n      pop\n        /* \"Learn/Sesi-01-Challenge/LiskGarden.sol\":5059:5071  uint256 lost */\n      0x00\n        /* \"Learn/Sesi-01-Challenge/LiskGarden.sol\":1942:1943  2 */\n      0x02\n        /* \"Learn/Sesi-01-Challenge/LiskGarden.sol\":5074:5106  intervals * WATER_DEPLETION_RATE */\n      0xff\n      and\n        /* \"Learn/Sesi-01-Challenge/LiskGarden.sol\":5074:5083  intervals */\n      dup3\n        /* \"Learn/Sesi-01-Challenge/LiskGarden.sol\":5074:5106  intervals * WATER_DEPLETION_RATE */\n      tag_146\n      swap2\n      swap1\n      tag_147\n      jump\t// in\n    tag_146:\n        /* \"Learn/Sesi-01-Challenge/LiskGarden.sol\":5059:5106  uint256 lost = intervals * WATER_DEPLETION_RATE */\n      swap1\n      pop\n        /* \"Learn/Sesi-01-Challenge/LiskGarden.sol\":5189:5193  lost */\n      dup1\n        /* \"Learn/Sesi-01-Challenge/LiskGarden.sol\":5168:5175  myPlant */\n      dup5\n        /* \"Learn/Sesi-01-Challenge/LiskGarden.sol\":5168:5186  myPlant.waterLevel */\n      0xa0\n      add\n      mload\n        /* \"Learn/Sesi-01-Challenge/LiskGarden.sol\":5168:5193  myPlant.waterLevel > lost */\n      gt\n        /* \"Learn/Sesi-01-Challenge/LiskGarden.sol\":5167:5228  (myPlant.waterLevel > lost) ? (myPlant.waterLevel - lost) : 0 */\n      tag_148\n      jumpi\n        /* \"Learn/Sesi-01-Challenge/LiskGarden.sol\":5227:5228  0 */\n      0x00\n        /* \"Learn/Sesi-01-Challenge/LiskGarden.sol\":5167:5228  (myPlant.waterLevel > lost) ? (myPlant.waterLevel - lost) : 0 */\n      jump(tag_149)\n    tag_148:\n        /* \"Learn/Sesi-01-Challenge/LiskGarden.sol\":5219:5223  lost */\n      dup1\n        /* \"Learn/Sesi-01-Challenge/LiskGarden.sol\":5198:5205  myPlant */\n      dup5\n        /* \"Learn/Sesi-01-Challenge/LiskGarden.sol\":5198:5216  myPlant.waterLevel */\n      0xa0\n      add\n      mload\n        /* \"Learn/Sesi-01-Challenge/LiskGarden.sol\":5198:5223  myPlant.waterLevel - lost */\n      tag_150\n      swap2\n      swap1\n      tag_142\n      jump\t// in\n    tag_150:\n        /* \"Learn/Sesi-01-Challenge/LiskGarden.sol\":5167:5228  (myPlant.waterLevel > lost) ? (myPlant.waterLevel - lost) : 0 */\n    tag_149:\n        /* \"Learn/Sesi-01-Challenge/LiskGarden.sol\":5160:5228  return (myPlant.waterLevel > lost) ? (myPlant.waterLevel - lost) : 0 */\n      swap5\n      pop\n      pop\n      pop\n      pop\n      pop\n        /* \"Learn/Sesi-01-Challenge/LiskGarden.sol\":4308:5236  function calculateWaterLevel(uint256 _plantId) public view returns (uint256){... */\n    tag_133:\n      swap2\n      swap1\n      pop\n      jump\t// out\n        /* \"Learn/Sesi-01-Challenge/LiskGarden.sol\":1149:1196  mapping(address => uint256[]) public userPlants */\n    tag_61:\n      mstore(0x20, 0x01)\n      dup2\n      0x00\n      mstore\n      keccak256(0x00, 0x40)\n      dup2\n      dup2\n      sload\n      dup2\n      lt\n      tag_151\n      jumpi\n      0x00\n      dup1\n      revert\n    tag_151:\n      swap1\n      0x00\n      mstore\n      keccak256(0x00, 0x20)\n      add\n      0x00\n      swap2\n      pop\n      swap2\n      pop\n      pop\n      sload\n      dup2\n      jump\t// out\n        /* \"Learn/Sesi-01-Challenge/LiskGarden.sol\":1424:1444  address public owner */\n    tag_65:\n      0x03\n      0x00\n      swap1\n      sload\n      swap1\n      0x0100\n      exp\n      swap1\n      div\n      0xffffffffffffffffffffffffffffffffffffffff\n      and\n      dup2\n      jump\t// out\n        /* \"Learn/Sesi-01-Challenge/LiskGarden.sol\":1022:1061  mapping(uint256 => Plant) public plants */\n    tag_71:\n      mstore(0x20, 0x00)\n      dup1\n      0x00\n      mstore\n      keccak256(0x00, 0x40)\n      0x00\n      swap2\n      pop\n      swap1\n      pop\n      dup1\n      0x00\n      add\n      sload\n      swap1\n      dup1\n      0x01\n      add\n      0x00\n      swap1\n      sload\n      swap1\n      0x0100\n      exp\n      swap1\n      div\n      0xffffffffffffffffffffffffffffffffffffffff\n      and\n      swap1\n      dup1\n      0x01\n      add\n      0x14\n      swap1\n      sload\n      swap1\n      0x0100\n      exp\n      swap1\n      div\n      0xff\n      and\n      swap1\n      dup1\n      0x02\n      add\n      sload\n      swap1\n      dup1\n      0x03\n      add\n      sload\n      swap1\n      dup1\n      0x04\n      add\n      sload\n      swap1\n      dup1\n      0x05\n      add\n      0x00\n      swap1\n      sload\n      swap1\n      0x0100\n      exp\n      swap1\n      div\n      0xff\n      and\n      swap1\n      dup1\n      0x05\n      add\n      0x01\n      swap1\n      sload\n      swap1\n      0x0100\n      exp\n      swap1\n      div\n      0xff\n      and\n      swap1\n      pop\n      dup9\n      jump\t// out\n        /* \"Learn/Sesi-01-Challenge/LiskGarden.sol\":5924:6594  function waterPlant(uint256 plantId) external {... */\n    tag_77:\n        /* \"Learn/Sesi-01-Challenge/LiskGarden.sol\":6024:6045  Plant storage myPlant */\n      0x00\n        /* \"Learn/Sesi-01-Challenge/LiskGarden.sol\":6048:6054  plants */\n      0x00\n        /* \"Learn/Sesi-01-Challenge/LiskGarden.sol\":6048:6063  plants[plantId] */\n      0x00\n        /* \"Learn/Sesi-01-Challenge/LiskGarden.sol\":6055:6062  plantId */\n      dup4\n        /* \"Learn/Sesi-01-Challenge/LiskGarden.sol\":6048:6063  plants[plantId] */\n      dup2\n      mstore\n      0x20\n      add\n      swap1\n      dup2\n      mstore\n      0x20\n      add\n      0x00\n      keccak256\n        /* \"Learn/Sesi-01-Challenge/LiskGarden.sol\":6024:6063  Plant storage myPlant = plants[plantId] */\n      swap1\n      pop\n        /* \"Learn/Sesi-01-Challenge/LiskGarden.sol\":6135:6139  true */\n      0x01\n        /* \"Learn/Sesi-01-Challenge/LiskGarden.sol\":6117:6139  myPlant.exists == true */\n      iszero\n      iszero\n        /* \"Learn/Sesi-01-Challenge/LiskGarden.sol\":6117:6124  myPlant */\n      dup2\n        /* \"Learn/Sesi-01-Challenge/LiskGarden.sol\":6117:6131  myPlant.exists */\n      0x05\n      add\n      0x00\n      swap1\n      sload\n      swap1\n      0x0100\n      exp\n      swap1\n      div\n      0xff\n      and\n        /* \"Learn/Sesi-01-Challenge/LiskGarden.sol\":6117:6139  myPlant.exists == true */\n      iszero\n      iszero\n      eq\n        /* \"Learn/Sesi-01-Challenge/LiskGarden.sol\":6109:6166  require(myPlant.exists == true,\"tanaman tidak ditemukan\") */\n      tag_154\n      jumpi\n      mload(0x40)\n      0x08c379a000000000000000000000000000000000000000000000000000000000\n      dup2\n      mstore\n      0x04\n      add\n      tag_155\n      swap1\n      tag_156\n      jump\t// in\n    tag_155:\n      mload(0x40)\n      dup1\n      swap2\n      sub\n      swap1\n      revert\n    tag_154:\n        /* \"Learn/Sesi-01-Challenge/LiskGarden.sol\":6245:6250  false */\n      0x00\n        /* \"Learn/Sesi-01-Challenge/LiskGarden.sol\":6227:6250  myPlant.isDead == false */\n      iszero\n      iszero\n        /* \"Learn/Sesi-01-Challenge/LiskGarden.sol\":6227:6234  myPlant */\n      dup2\n        /* \"Learn/Sesi-01-Challenge/LiskGarden.sol\":6227:6241  myPlant.isDead */\n      0x05\n      add\n      0x01\n      swap1\n      sload\n      swap1\n      0x0100\n      exp\n      swap1\n      div\n      0xff\n      and\n        /* \"Learn/Sesi-01-Challenge/LiskGarden.sol\":6227:6250  myPlant.isDead == false */\n      iszero\n      iszero\n      eq\n        /* \"Learn/Sesi-01-Challenge/LiskGarden.sol\":6219:6273  require(myPlant.isDead == false, \"Tanaman sudah mati\") */\n      tag_157\n      jumpi\n      mload(0x40)\n      0x08c379a000000000000000000000000000000000000000000000000000000000\n      dup2\n      mstore\n      0x04\n      add\n      tag_158\n      swap1\n      tag_159\n      jump\t// in\n    tag_158:\n      mload(0x40)\n      dup1\n      swap2\n      sub\n      swap1\n      revert\n    tag_157:\n        /* \"Learn/Sesi-01-Challenge/LiskGarden.sol\":6372:6375  100 */\n      0x64\n        /* \"Learn/Sesi-01-Challenge/LiskGarden.sol\":6351:6358  myPlant */\n      dup2\n        /* \"Learn/Sesi-01-Challenge/LiskGarden.sol\":6351:6369  myPlant.waterLevel */\n      0x04\n      add\n        /* \"Learn/Sesi-01-Challenge/LiskGarden.sol\":6351:6375  myPlant.waterLevel = 100 */\n      dup2\n      swap1\n      sstore\n      pop\n        /* \"Learn/Sesi-01-Challenge/LiskGarden.sol\":6408:6423  block.timestamp */\n      timestamp\n        /* \"Learn/Sesi-01-Challenge/LiskGarden.sol\":6386:6393  myPlant */\n      dup2\n        /* \"Learn/Sesi-01-Challenge/LiskGarden.sol\":6386:6405  myPlant.lastWatered */\n      0x03\n      add\n        /* \"Learn/Sesi-01-Challenge/LiskGarden.sol\":6386:6423  myPlant.lastWatered = block.timestamp */\n      dup2\n      swap1\n      sstore\n      pop\n        /* \"Learn/Sesi-01-Challenge/LiskGarden.sol\":6521:6528  plantId */\n      dup2\n        /* \"Learn/Sesi-01-Challenge/LiskGarden.sol\":6508:6548  PlantWatered(plantId,myPlant.waterLevel) */\n      0xfa682feb3090180eda377672ba020dae237bd124aee1085e233d47762b7e4e81\n        /* \"Learn/Sesi-01-Challenge/LiskGarden.sol\":6529:6536  myPlant */\n      dup3\n        /* \"Learn/Sesi-01-Challenge/LiskGarden.sol\":6529:6547  myPlant.waterLevel */\n      0x04\n      add\n      sload\n        /* \"Learn/Sesi-01-Challenge/LiskGarden.sol\":6508:6548  PlantWatered(plantId,myPlant.waterLevel) */\n      mload(0x40)\n      tag_160\n      swap2\n      swap1\n      tag_29\n      jump\t// in\n    tag_160:\n      mload(0x40)\n      dup1\n      swap2\n      sub\n      swap1\n      log2\n        /* \"Learn/Sesi-01-Challenge/LiskGarden.sol\":6561:6586  updatePlantStage(plantId) */\n      tag_161\n        /* \"Learn/Sesi-01-Challenge/LiskGarden.sol\":6578:6585  plantId */\n      dup3\n        /* \"Learn/Sesi-01-Challenge/LiskGarden.sol\":6561:6577  updatePlantStage */\n      tag_94\n        /* \"Learn/Sesi-01-Challenge/LiskGarden.sol\":6561:6586  updatePlantStage(plantId) */\n      jump\t// in\n    tag_161:\n        /* \"Learn/Sesi-01-Challenge/LiskGarden.sol\":5970:6594  {... */\n      pop\n        /* \"Learn/Sesi-01-Challenge/LiskGarden.sol\":5924:6594  function waterPlant(uint256 plantId) external {... */\n      pop\n      jump\t// out\n        /* \"Learn/Sesi-01-Challenge/LiskGarden.sol\":1299:1326  uint256 public plantCounter */\n    tag_80:\n      sload(0x02)\n      dup2\n      jump\t// out\n        /* \"Learn/Sesi-01-Challenge/LiskGarden.sol\":1897:1943  uint8 public constant WATER_DEPLETION_RATE = 2 */\n    tag_84:\n        /* \"Learn/Sesi-01-Challenge/LiskGarden.sol\":1942:1943  2 */\n      0x02\n        /* \"Learn/Sesi-01-Challenge/LiskGarden.sol\":1897:1943  uint8 public constant WATER_DEPLETION_RATE = 2 */\n      dup2\n      jump\t// out\n        /* \"Learn/Sesi-01-Challenge/LiskGarden.sol\":1486:1537  uint256 public constant PLANT_PRICE = 0.00001 ether */\n    tag_89:\n        /* \"Learn/Sesi-01-Challenge/LiskGarden.sol\":1524:1537  0.00001 ether */\n      0x09184e72a000\n        /* \"Learn/Sesi-01-Challenge/LiskGarden.sol\":1486:1537  uint256 public constant PLANT_PRICE = 0.00001 ether */\n      dup2\n      jump\t// out\n        /* \"Learn/Sesi-01-Challenge/LiskGarden.sol\":6607:8434  function updatePlantStage(uint256 plantId) public  {... */\n    tag_94:\n        /* \"Learn/Sesi-01-Challenge/LiskGarden.sol\":6712:6733  Plant storage myPlant */\n      0x00\n        /* \"Learn/Sesi-01-Challenge/LiskGarden.sol\":6736:6742  plants */\n      0x00\n        /* \"Learn/Sesi-01-Challenge/LiskGarden.sol\":6736:6751  plants[plantId] */\n      0x00\n        /* \"Learn/Sesi-01-Challenge/LiskGarden.sol\":6743:6750  plantId */\n      dup4\n        /* \"Learn/Sesi-01-Challenge/LiskGarden.sol\":6736:6751  plants[plantId] */\n      dup2\n      mstore\n      0x20\n      add\n      swap1\n      dup2\n      mstore\n      0x20\n      add\n      0x00\n      keccak256\n        /* \"Learn/Sesi-01-Challenge/LiskGarden.sol\":6712:6751  Plant storage myPlant = plants[plantId] */\n      swap1\n      pop\n        /* \"Learn/Sesi-01-Challenge/LiskGarden.sol\":6824:6828  true */\n      0x01\n        /* \"Learn/Sesi-01-Challenge/LiskGarden.sol\":6806:6828  myPlant.exists == true */\n      iszero\n      iszero\n        /* \"Learn/Sesi-01-Challenge/LiskGarden.sol\":6806:6813  myPlant */\n      dup2\n        /* \"Learn/Sesi-01-Challenge/LiskGarden.sol\":6806:6820  myPlant.exists */\n      0x05\n      add\n      0x00\n      swap1\n      sload\n      swap1\n      0x0100\n      exp\n      swap1\n      div\n      0xff\n      and\n        /* \"Learn/Sesi-01-Challenge/LiskGarden.sol\":6806:6828  myPlant.exists == true */\n      iszero\n      iszero\n      eq\n        /* \"Learn/Sesi-01-Challenge/LiskGarden.sol\":6798:6855  require(myPlant.exists == true,\"tanaman tidak ditemukan\") */\n      tag_163\n      jumpi\n      mload(0x40)\n      0x08c379a000000000000000000000000000000000000000000000000000000000\n      dup2\n      mstore\n      0x04\n      add\n      tag_164\n      swap1\n      tag_156\n      jump\t// in\n    tag_164:\n      mload(0x40)\n      dup1\n      swap2\n      sub\n      swap1\n      revert\n    tag_163:\n        /* \"Learn/Sesi-01-Challenge/LiskGarden.sol\":6914:6939  updateWaterLevel(plantId) */\n      tag_165\n        /* \"Learn/Sesi-01-Challenge/LiskGarden.sol\":6931:6938  plantId */\n      dup3\n        /* \"Learn/Sesi-01-Challenge/LiskGarden.sol\":6914:6930  updateWaterLevel */\n      tag_166\n        /* \"Learn/Sesi-01-Challenge/LiskGarden.sol\":6914:6939  updateWaterLevel(plantId) */\n      jump\t// in\n    tag_165:\n        /* \"Learn/Sesi-01-Challenge/LiskGarden.sol\":7011:7015  true */\n      0x01\n        /* \"Learn/Sesi-01-Challenge/LiskGarden.sol\":6993:7015  myPlant.isDead == true */\n      iszero\n      iszero\n        /* \"Learn/Sesi-01-Challenge/LiskGarden.sol\":6993:7000  myPlant */\n      dup2\n        /* \"Learn/Sesi-01-Challenge/LiskGarden.sol\":6993:7007  myPlant.isDead */\n      0x05\n      add\n      0x01\n      swap1\n      sload\n      swap1\n      0x0100\n      exp\n      swap1\n      div\n      0xff\n      and\n        /* \"Learn/Sesi-01-Challenge/LiskGarden.sol\":6993:7015  myPlant.isDead == true */\n      iszero\n      iszero\n      sub\n        /* \"Learn/Sesi-01-Challenge/LiskGarden.sol\":6989:7050  if (myPlant.isDead == true) {... */\n      tag_167\n      jumpi\n        /* \"Learn/Sesi-01-Challenge/LiskGarden.sol\":7032:7039  return; */\n      pop\n      jump(tag_162)\n        /* \"Learn/Sesi-01-Challenge/LiskGarden.sol\":6989:7050  if (myPlant.isDead == true) {... */\n    tag_167:\n        /* \"Learn/Sesi-01-Challenge/LiskGarden.sol\":7063:7081  GrowStage oldStage */\n      0x00\n        /* \"Learn/Sesi-01-Challenge/LiskGarden.sol\":7084:7091  myPlant */\n      dup2\n        /* \"Learn/Sesi-01-Challenge/LiskGarden.sol\":7084:7097  myPlant.stage */\n      0x01\n      add\n      0x14\n      swap1\n      sload\n      swap1\n      0x0100\n      exp\n      swap1\n      div\n      0xff\n      and\n        /* \"Learn/Sesi-01-Challenge/LiskGarden.sol\":7063:7097  GrowStage oldStage = myPlant.stage */\n      swap1\n      pop\n        /* \"Learn/Sesi-01-Challenge/LiskGarden.sol\":7108:7127  GrowStage newSatage */\n      0x00\n        /* \"Learn/Sesi-01-Challenge/LiskGarden.sol\":7130:7138  oldStage */\n      dup2\n        /* \"Learn/Sesi-01-Challenge/LiskGarden.sol\":7108:7138  GrowStage newSatage = oldStage */\n      swap1\n      pop\n        /* \"Learn/Sesi-01-Challenge/LiskGarden.sol\":7207:7231  uint256 timeSincePlanted */\n      0x00\n        /* \"Learn/Sesi-01-Challenge/LiskGarden.sol\":7252:7259  myPlant */\n      dup4\n        /* \"Learn/Sesi-01-Challenge/LiskGarden.sol\":7252:7271  myPlant.plantedDate */\n      0x02\n      add\n      sload\n        /* \"Learn/Sesi-01-Challenge/LiskGarden.sol\":7234:7249  block.timestamp */\n      timestamp\n        /* \"Learn/Sesi-01-Challenge/LiskGarden.sol\":7234:7271  block.timestamp - myPlant.plantedDate */\n      tag_168\n      swap2\n      swap1\n      tag_142\n      jump\t// in\n    tag_168:\n        /* \"Learn/Sesi-01-Challenge/LiskGarden.sol\":7207:7271  uint256 timeSincePlanted = block.timestamp - myPlant.plantedDate */\n      swap1\n      pop\n        /* \"Learn/Sesi-01-Challenge/LiskGarden.sol\":7402:7403  0 */\n      0x00\n        /* \"Learn/Sesi-01-Challenge/LiskGarden.sol\":7382:7398  timeSincePlanted */\n      dup2\n        /* \"Learn/Sesi-01-Challenge/LiskGarden.sol\":7382:7403  timeSincePlanted >= 0 */\n      lt\n      iszero\n        /* \"Learn/Sesi-01-Challenge/LiskGarden.sol\":7382:7429  timeSincePlanted >= 0 && timeSincePlanted <= 60 */\n      dup1\n      iszero\n      tag_169\n      jumpi\n      pop\n        /* \"Learn/Sesi-01-Challenge/LiskGarden.sol\":7427:7429  60 */\n      0x3c\n        /* \"Learn/Sesi-01-Challenge/LiskGarden.sol\":7407:7423  timeSincePlanted */\n      dup2\n        /* \"Learn/Sesi-01-Challenge/LiskGarden.sol\":7407:7429  timeSincePlanted <= 60 */\n      gt\n      iszero\n        /* \"Learn/Sesi-01-Challenge/LiskGarden.sol\":7382:7429  timeSincePlanted >= 0 && timeSincePlanted <= 60 */\n    tag_169:\n        /* \"Learn/Sesi-01-Challenge/LiskGarden.sol\":7378:8161  if (timeSincePlanted >= 0 && timeSincePlanted <= 60) {... */\n      iszero\n      tag_170\n      jumpi\n        /* \"Learn/Sesi-01-Challenge/LiskGarden.sol\":7458:7472  GrowStage.SEED */\n      0x00\n        /* \"Learn/Sesi-01-Challenge/LiskGarden.sol\":7446:7472  newSatage = GrowStage.SEED */\n      swap2\n      pop\n        /* \"Learn/Sesi-01-Challenge/LiskGarden.sol\":7378:8161  if (timeSincePlanted >= 0 && timeSincePlanted <= 60) {... */\n      jump(tag_171)\n    tag_170:\n        /* \"Learn/Sesi-01-Challenge/LiskGarden.sol\":7579:7581  61 */\n      0x3d\n        /* \"Learn/Sesi-01-Challenge/LiskGarden.sol\":7559:7575  timeSincePlanted */\n      dup2\n        /* \"Learn/Sesi-01-Challenge/LiskGarden.sol\":7559:7581  timeSincePlanted >= 61 */\n      lt\n      iszero\n        /* \"Learn/Sesi-01-Challenge/LiskGarden.sol\":7559:7608  timeSincePlanted >= 61 && timeSincePlanted <= 120 */\n      dup1\n      iszero\n      tag_172\n      jumpi\n      pop\n        /* \"Learn/Sesi-01-Challenge/LiskGarden.sol\":7605:7608  120 */\n      0x78\n        /* \"Learn/Sesi-01-Challenge/LiskGarden.sol\":7585:7601  timeSincePlanted */\n      dup2\n        /* \"Learn/Sesi-01-Challenge/LiskGarden.sol\":7585:7608  timeSincePlanted <= 120 */\n      gt\n      iszero\n        /* \"Learn/Sesi-01-Challenge/LiskGarden.sol\":7559:7608  timeSincePlanted >= 61 && timeSincePlanted <= 120 */\n    tag_172:\n        /* \"Learn/Sesi-01-Challenge/LiskGarden.sol\":7555:8161  if (timeSincePlanted >= 61 && timeSincePlanted <= 120) {... */\n      iszero\n      tag_173\n      jumpi\n        /* \"Learn/Sesi-01-Challenge/LiskGarden.sol\":7639:7655  GrowStage.SPROUT */\n      0x01\n        /* \"Learn/Sesi-01-Challenge/LiskGarden.sol\":7627:7655  newSatage = GrowStage.SPROUT */\n      swap2\n      pop\n        /* \"Learn/Sesi-01-Challenge/LiskGarden.sol\":7555:8161  if (timeSincePlanted >= 61 && timeSincePlanted <= 120) {... */\n      jump(tag_174)\n    tag_173:\n        /* \"Learn/Sesi-01-Challenge/LiskGarden.sol\":7763:7766  121 */\n      0x79\n        /* \"Learn/Sesi-01-Challenge/LiskGarden.sol\":7743:7759  timeSincePlanted */\n      dup2\n        /* \"Learn/Sesi-01-Challenge/LiskGarden.sol\":7743:7766  timeSincePlanted >= 121 */\n      lt\n      iszero\n        /* \"Learn/Sesi-01-Challenge/LiskGarden.sol\":7743:7793  timeSincePlanted >= 121 && timeSincePlanted <= 160 */\n      dup1\n      iszero\n      tag_175\n      jumpi\n      pop\n        /* \"Learn/Sesi-01-Challenge/LiskGarden.sol\":7790:7793  160 */\n      0xa0\n        /* \"Learn/Sesi-01-Challenge/LiskGarden.sol\":7770:7786  timeSincePlanted */\n      dup2\n        /* \"Learn/Sesi-01-Challenge/LiskGarden.sol\":7770:7793  timeSincePlanted <= 160 */\n      gt\n      iszero\n        /* \"Learn/Sesi-01-Challenge/LiskGarden.sol\":7743:7793  timeSincePlanted >= 121 && timeSincePlanted <= 160 */\n    tag_175:\n        /* \"Learn/Sesi-01-Challenge/LiskGarden.sol\":7739:8161  if (timeSincePlanted >= 121 && timeSincePlanted <= 160) {... */\n      iszero\n      tag_176\n      jumpi\n        /* \"Learn/Sesi-01-Challenge/LiskGarden.sol\":7822:7839  GrowStage.GROWING */\n      0x02\n        /* \"Learn/Sesi-01-Challenge/LiskGarden.sol\":7810:7839  newSatage = GrowStage.GROWING */\n      swap2\n      pop\n        /* \"Learn/Sesi-01-Challenge/LiskGarden.sol\":7739:8161  if (timeSincePlanted >= 121 && timeSincePlanted <= 160) {... */\n      jump(tag_177)\n    tag_176:\n        /* \"Learn/Sesi-01-Challenge/LiskGarden.sol\":7946:7949  161 */\n      0xa1\n        /* \"Learn/Sesi-01-Challenge/LiskGarden.sol\":7926:7942  timeSincePlanted */\n      dup2\n        /* \"Learn/Sesi-01-Challenge/LiskGarden.sol\":7926:7949  timeSincePlanted >= 161 */\n      lt\n      iszero\n        /* \"Learn/Sesi-01-Challenge/LiskGarden.sol\":7926:7976  timeSincePlanted >= 161 && timeSincePlanted <= 210 */\n      dup1\n      iszero\n      tag_178\n      jumpi\n      pop\n        /* \"Learn/Sesi-01-Challenge/LiskGarden.sol\":7973:7976  210 */\n      0xd2\n        /* \"Learn/Sesi-01-Challenge/LiskGarden.sol\":7953:7969  timeSincePlanted */\n      dup2\n        /* \"Learn/Sesi-01-Challenge/LiskGarden.sol\":7953:7976  timeSincePlanted <= 210 */\n      gt\n      iszero\n        /* \"Learn/Sesi-01-Challenge/LiskGarden.sol\":7926:7976  timeSincePlanted >= 161 && timeSincePlanted <= 210 */\n    tag_178:\n        /* \"Learn/Sesi-01-Challenge/LiskGarden.sol\":7922:8161  if (timeSincePlanted >= 161 && timeSincePlanted <= 210) {... */\n      iszero\n      tag_179\n      jumpi\n        /* \"Learn/Sesi-01-Challenge/LiskGarden.sol\":8005:8023  GrowStage.BLOOMING */\n      0x03\n        /* \"Learn/Sesi-01-Challenge/LiskGarden.sol\":7993:8023  newSatage = GrowStage.BLOOMING */\n      swap2\n      pop\n        /* \"Learn/Sesi-01-Challenge/LiskGarden.sol\":7922:8161  if (timeSincePlanted >= 161 && timeSincePlanted <= 210) {... */\n      jump(tag_180)\n    tag_179:\n        /* \"Learn/Sesi-01-Challenge/LiskGarden.sol\":8131:8149  GrowStage.BLOOMING */\n      0x03\n        /* \"Learn/Sesi-01-Challenge/LiskGarden.sol\":8119:8149  newSatage = GrowStage.BLOOMING */\n      swap2\n      pop\n        /* \"Learn/Sesi-01-Challenge/LiskGarden.sol\":7922:8161  if (timeSincePlanted >= 161 && timeSincePlanted <= 210) {... */\n    tag_180:\n        /* \"Learn/Sesi-01-Challenge/LiskGarden.sol\":7739:8161  if (timeSincePlanted >= 121 && timeSincePlanted <= 160) {... */\n    tag_177:\n        /* \"Learn/Sesi-01-Challenge/LiskGarden.sol\":7555:8161  if (timeSincePlanted >= 61 && timeSincePlanted <= 120) {... */\n    tag_174:\n        /* \"Learn/Sesi-01-Challenge/LiskGarden.sol\":7378:8161  if (timeSincePlanted >= 0 && timeSincePlanted <= 60) {... */\n    tag_171:\n        /* \"Learn/Sesi-01-Challenge/LiskGarden.sol\":8250:8259  newSatage */\n      dup2\n        /* \"Learn/Sesi-01-Challenge/LiskGarden.sol\":8238:8259  oldStage != newSatage */\n      0x03\n      dup2\n      gt\n      iszero\n      tag_181\n      jumpi\n      tag_182\n      tag_129\n      jump\t// in\n    tag_182:\n    tag_181:\n        /* \"Learn/Sesi-01-Challenge/LiskGarden.sol\":8238:8246  oldStage */\n      dup4\n        /* \"Learn/Sesi-01-Challenge/LiskGarden.sol\":8238:8259  oldStage != newSatage */\n      0x03\n      dup2\n      gt\n      iszero\n      tag_183\n      jumpi\n      tag_184\n      tag_129\n      jump\t// in\n    tag_184:\n    tag_183:\n      eq\n        /* \"Learn/Sesi-01-Challenge/LiskGarden.sol\":8234:8427  if (oldStage != newSatage) {... */\n      tag_185\n      jumpi\n        /* \"Learn/Sesi-01-Challenge/LiskGarden.sol\":8292:8301  newSatage */\n      dup2\n        /* \"Learn/Sesi-01-Challenge/LiskGarden.sol\":8276:8283  myPlant */\n      dup5\n        /* \"Learn/Sesi-01-Challenge/LiskGarden.sol\":8276:8289  myPlant.stage */\n      0x01\n      add\n      0x14\n        /* \"Learn/Sesi-01-Challenge/LiskGarden.sol\":8276:8301  myPlant.stage = newSatage */\n      0x0100\n      exp\n      dup2\n      sload\n      dup2\n      0xff\n      mul\n      not\n      and\n      swap1\n      dup4\n      0x03\n      dup2\n      gt\n      iszero\n      tag_186\n      jumpi\n      tag_187\n      tag_129\n      jump\t// in\n    tag_187:\n    tag_186:\n      mul\n      or\n      swap1\n      sstore\n      pop\n        /* \"Learn/Sesi-01-Challenge/LiskGarden.sol\":8392:8399  plantId */\n      dup5\n        /* \"Learn/Sesi-01-Challenge/LiskGarden.sol\":8378:8415  StageAdvanced(plantId, myPlant.stage) */\n      0x338b8976706f9da67298dddfa1ea4ff7d99cce68b9ca39c4f348994f8e2124a8\n        /* \"Learn/Sesi-01-Challenge/LiskGarden.sol\":8401:8408  myPlant */\n      dup6\n        /* \"Learn/Sesi-01-Challenge/LiskGarden.sol\":8401:8414  myPlant.stage */\n      0x01\n      add\n      0x14\n      swap1\n      sload\n      swap1\n      0x0100\n      exp\n      swap1\n      div\n      0xff\n      and\n        /* \"Learn/Sesi-01-Challenge/LiskGarden.sol\":8378:8415  StageAdvanced(plantId, myPlant.stage) */\n      mload(0x40)\n      tag_188\n      swap2\n      swap1\n      tag_189\n      jump\t// in\n    tag_188:\n      mload(0x40)\n      dup1\n      swap2\n      sub\n      swap1\n      log2\n        /* \"Learn/Sesi-01-Challenge/LiskGarden.sol\":8234:8427  if (oldStage != newSatage) {... */\n    tag_185:\n        /* \"Learn/Sesi-01-Challenge/LiskGarden.sol\":6658:8434  {... */\n      pop\n      pop\n      pop\n      pop\n        /* \"Learn/Sesi-01-Challenge/LiskGarden.sol\":6607:8434  function updatePlantStage(uint256 plantId) public  {... */\n    tag_162:\n      pop\n      jump\t// out\n        /* \"Learn/Sesi-01-Challenge/LiskGarden.sol\":8442:9550  function harvestPlant(uint256 plantId) external {... */\n    tag_98:\n        /* \"Learn/Sesi-01-Challenge/LiskGarden.sol\":8544:8565  Plant storage myPlant */\n      0x00\n        /* \"Learn/Sesi-01-Challenge/LiskGarden.sol\":8568:8574  plants */\n      0x00\n        /* \"Learn/Sesi-01-Challenge/LiskGarden.sol\":8568:8583  plants[plantId] */\n      0x00\n        /* \"Learn/Sesi-01-Challenge/LiskGarden.sol\":8575:8582  plantId */\n      dup4\n        /* \"Learn/Sesi-01-Challenge/LiskGarden.sol\":8568:8583  plants[plantId] */\n      dup2\n      mstore\n      0x20\n      add\n      swap1\n      dup2\n      mstore\n      0x20\n      add\n      0x00\n      keccak256\n        /* \"Learn/Sesi-01-Challenge/LiskGarden.sol\":8544:8583  Plant storage myPlant = plants[plantId] */\n      swap1\n      pop\n        /* \"Learn/Sesi-01-Challenge/LiskGarden.sol\":8657:8661  true */\n      0x01\n        /* \"Learn/Sesi-01-Challenge/LiskGarden.sol\":8639:8661  myPlant.exists == true */\n      iszero\n      iszero\n        /* \"Learn/Sesi-01-Challenge/LiskGarden.sol\":8639:8646  myPlant */\n      dup2\n        /* \"Learn/Sesi-01-Challenge/LiskGarden.sol\":8639:8653  myPlant.exists */\n      0x05\n      add\n      0x00\n      swap1\n      sload\n      swap1\n      0x0100\n      exp\n      swap1\n      div\n      0xff\n      and\n        /* \"Learn/Sesi-01-Challenge/LiskGarden.sol\":8639:8661  myPlant.exists == true */\n      iszero\n      iszero\n      eq\n        /* \"Learn/Sesi-01-Challenge/LiskGarden.sol\":8631:8688  require(myPlant.exists == true,\"tanaman tidak ditemukan\") */\n      tag_191\n      jumpi\n      mload(0x40)\n      0x08c379a000000000000000000000000000000000000000000000000000000000\n      dup2\n      mstore\n      0x04\n      add\n      tag_192\n      swap1\n      tag_156\n      jump\t// in\n    tag_192:\n      mload(0x40)\n      dup1\n      swap2\n      sub\n      swap1\n      revert\n    tag_191:\n        /* \"Learn/Sesi-01-Challenge/LiskGarden.sol\":8746:8753  myPlant */\n      dup1\n        /* \"Learn/Sesi-01-Challenge/LiskGarden.sol\":8746:8759  myPlant.owner */\n      0x01\n      add\n      0x00\n      swap1\n      sload\n      swap1\n      0x0100\n      exp\n      swap1\n      div\n      0xffffffffffffffffffffffffffffffffffffffff\n      and\n        /* \"Learn/Sesi-01-Challenge/LiskGarden.sol\":8732:8759  msg.sender == myPlant.owner */\n      0xffffffffffffffffffffffffffffffffffffffff\n      and\n        /* \"Learn/Sesi-01-Challenge/LiskGarden.sol\":8732:8742  msg.sender */\n      caller\n        /* \"Learn/Sesi-01-Challenge/LiskGarden.sol\":8732:8759  msg.sender == myPlant.owner */\n      0xffffffffffffffffffffffffffffffffffffffff\n      and\n      eq\n        /* \"Learn/Sesi-01-Challenge/LiskGarden.sol\":8724:8791  require(msg.sender == myPlant.owner,\"tanaman ini bukan milik kamu\") */\n      tag_193\n      jumpi\n      mload(0x40)\n      0x08c379a000000000000000000000000000000000000000000000000000000000\n      dup2\n      mstore\n      0x04\n      add\n      tag_194\n      swap1\n      tag_195\n      jump\t// in\n    tag_194:\n      mload(0x40)\n      dup1\n      swap2\n      sub\n      swap1\n      revert\n    tag_193:\n        /* \"Learn/Sesi-01-Challenge/LiskGarden.sol\":8865:8870  false */\n      0x00\n        /* \"Learn/Sesi-01-Challenge/LiskGarden.sol\":8847:8870  myPlant.isDead == false */\n      iszero\n      iszero\n        /* \"Learn/Sesi-01-Challenge/LiskGarden.sol\":8847:8854  myPlant */\n      dup2\n        /* \"Learn/Sesi-01-Challenge/LiskGarden.sol\":8847:8861  myPlant.isDead */\n      0x05\n      add\n      0x01\n      swap1\n      sload\n      swap1\n      0x0100\n      exp\n      swap1\n      div\n      0xff\n      and\n        /* \"Learn/Sesi-01-Challenge/LiskGarden.sol\":8847:8870  myPlant.isDead == false */\n      iszero\n      iszero\n      eq\n        /* \"Learn/Sesi-01-Challenge/LiskGarden.sol\":8839:8892  require(myPlant.isDead == false,\"tanaman sudah mati\") */\n      tag_196\n      jumpi\n      mload(0x40)\n      0x08c379a000000000000000000000000000000000000000000000000000000000\n      dup2\n      mstore\n      0x04\n      add\n      tag_197\n      swap1\n      tag_198\n      jump\t// in\n    tag_197:\n      mload(0x40)\n      dup1\n      swap2\n      sub\n      swap1\n      revert\n    tag_196:\n        /* \"Learn/Sesi-01-Challenge/LiskGarden.sol\":8939:8964  updatePlantStage(plantId) */\n      tag_199\n        /* \"Learn/Sesi-01-Challenge/LiskGarden.sol\":8956:8963  plantId */\n      dup3\n        /* \"Learn/Sesi-01-Challenge/LiskGarden.sol\":8939:8955  updatePlantStage */\n      tag_94\n        /* \"Learn/Sesi-01-Challenge/LiskGarden.sol\":8939:8964  updatePlantStage(plantId) */\n      jump\t// in\n    tag_199:\n        /* \"Learn/Sesi-01-Challenge/LiskGarden.sol\":9044:9062  GrowStage.BLOOMING */\n      0x03\n        /* \"Learn/Sesi-01-Challenge/LiskGarden.sol\":9027:9062  myPlant.stage == GrowStage.BLOOMING */\n      dup1\n      dup2\n      gt\n      iszero\n      tag_200\n      jumpi\n      tag_201\n      tag_129\n      jump\t// in\n    tag_201:\n    tag_200:\n        /* \"Learn/Sesi-01-Challenge/LiskGarden.sol\":9027:9034  myPlant */\n      dup2\n        /* \"Learn/Sesi-01-Challenge/LiskGarden.sol\":9027:9040  myPlant.stage */\n      0x01\n      add\n      0x14\n      swap1\n      sload\n      swap1\n      0x0100\n      exp\n      swap1\n      div\n      0xff\n      and\n        /* \"Learn/Sesi-01-Challenge/LiskGarden.sol\":9027:9062  myPlant.stage == GrowStage.BLOOMING */\n      0x03\n      dup2\n      gt\n      iszero\n      tag_202\n      jumpi\n      tag_203\n      tag_129\n      jump\t// in\n    tag_203:\n    tag_202:\n      eq\n        /* \"Learn/Sesi-01-Challenge/LiskGarden.sol\":9019:9086  require(myPlant.stage == GrowStage.BLOOMING, \"Tanaman belum mekar\") */\n      tag_204\n      jumpi\n      mload(0x40)\n      0x08c379a000000000000000000000000000000000000000000000000000000000\n      dup2\n      mstore\n      0x04\n      add\n      tag_205\n      swap1\n      tag_206\n      jump\t// in\n    tag_205:\n      mload(0x40)\n      dup1\n      swap2\n      sub\n      swap1\n      revert\n    tag_204:\n        /* \"Learn/Sesi-01-Challenge/LiskGarden.sol\":9170:9175  false */\n      0x00\n        /* \"Learn/Sesi-01-Challenge/LiskGarden.sol\":9153:9160  myPlant */\n      dup2\n        /* \"Learn/Sesi-01-Challenge/LiskGarden.sol\":9153:9167  myPlant.exists */\n      0x05\n      add\n      0x00\n        /* \"Learn/Sesi-01-Challenge/LiskGarden.sol\":9153:9175  myPlant.exists = false */\n      0x0100\n      exp\n      dup2\n      sload\n      dup2\n      0xff\n      mul\n      not\n      and\n      swap1\n      dup4\n      iszero\n      iszero\n      mul\n      or\n      swap1\n      sstore\n      pop\n        /* \"Learn/Sesi-01-Challenge/LiskGarden.sol\":9252:9262  msg.sender */\n      caller\n        /* \"Learn/Sesi-01-Challenge/LiskGarden.sol\":9228:9270  PlantHarvested(plantId, msg.sender, panen) */\n      0xffffffffffffffffffffffffffffffffffffffff\n      and\n        /* \"Learn/Sesi-01-Challenge/LiskGarden.sol\":9243:9250  plantId */\n      dup3\n        /* \"Learn/Sesi-01-Challenge/LiskGarden.sol\":9228:9270  PlantHarvested(plantId, msg.sender, panen) */\n      0x79f2138ea100070ff95b59c265da7aa3c7a0f61595fe1bb2f5fda2762f398847\n        /* \"Learn/Sesi-01-Challenge/LiskGarden.sol\":1611:1624  0.00003 ether */\n      0x1b48eb57e000\n        /* \"Learn/Sesi-01-Challenge/LiskGarden.sol\":9228:9270  PlantHarvested(plantId, msg.sender, panen) */\n      mload(0x40)\n      tag_207\n      swap2\n      swap1\n      tag_29\n      jump\t// in\n    tag_207:\n      mload(0x40)\n      dup1\n      swap2\n      sub\n      swap1\n      log3\n        /* \"Learn/Sesi-01-Challenge/LiskGarden.sol\":1611:1624  0.00003 ether */\n      0x1b48eb57e000\n        /* \"Learn/Sesi-01-Challenge/LiskGarden.sol\":9322:9343  address(this).balance */\n      selfbalance\n        /* \"Learn/Sesi-01-Challenge/LiskGarden.sol\":9322:9352  address(this).balance >= panen */\n      lt\n      iszero\n        /* \"Learn/Sesi-01-Challenge/LiskGarden.sol\":9314:9382  require(address(this).balance >= panen, \"Saldo kontrak tidak cukup\") */\n      tag_208\n      jumpi\n      mload(0x40)\n      0x08c379a000000000000000000000000000000000000000000000000000000000\n      dup2\n      mstore\n      0x04\n      add\n      tag_209\n      swap1\n      tag_210\n      jump\t// in\n    tag_209:\n      mload(0x40)\n      dup1\n      swap2\n      sub\n      swap1\n      revert\n    tag_208:\n        /* \"Learn/Sesi-01-Challenge/LiskGarden.sol\":9394:9406  bool success */\n      0x00\n        /* \"Learn/Sesi-01-Challenge/LiskGarden.sol\":9420:9430  msg.sender */\n      caller\n        /* \"Learn/Sesi-01-Challenge/LiskGarden.sol\":9412:9436  payable(msg.sender).call */\n      0xffffffffffffffffffffffffffffffffffffffff\n      and\n        /* \"Learn/Sesi-01-Challenge/LiskGarden.sol\":1611:1624  0.00003 ether */\n      0x1b48eb57e000\n        /* \"Learn/Sesi-01-Challenge/LiskGarden.sol\":9412:9454  payable(msg.sender).call{value: panen}(\"\") */\n      mload(0x40)\n      tag_211\n      swap1\n      tag_114\n      jump\t// in\n    tag_211:\n      0x00\n      mload(0x40)\n      dup1\n      dup4\n      sub\n      dup2\n      dup6\n      dup8\n      gas\n      call\n      swap3\n      pop\n      pop\n      pop\n      returndatasize\n      dup1\n      0x00\n      dup2\n      eq\n      tag_214\n      jumpi\n      mload(0x40)\n      swap2\n      pop\n      and(add(returndatasize, 0x3f), not(0x1f))\n      dup3\n      add\n      0x40\n      mstore\n      returndatasize\n      dup3\n      mstore\n      returndatasize\n      0x00\n      0x20\n      dup5\n      add\n      returndatacopy\n      jump(tag_213)\n    tag_214:\n      0x60\n      swap2\n      pop\n    tag_213:\n      pop\n        /* \"Learn/Sesi-01-Challenge/LiskGarden.sol\":9393:9454  (bool success, ) = payable(msg.sender).call{value: panen}(\"\") */\n      pop\n      swap1\n      pop\n        /* \"Learn/Sesi-01-Challenge/LiskGarden.sol\":9507:9514  success */\n      dup1\n        /* \"Learn/Sesi-01-Challenge/LiskGarden.sol\":9499:9540  require(success, \"Transfer reward gagal\") */\n      tag_215\n      jumpi\n      mload(0x40)\n      0x08c379a000000000000000000000000000000000000000000000000000000000\n      dup2\n      mstore\n      0x04\n      add\n      tag_216\n      swap1\n      tag_217\n      jump\t// in\n    tag_216:\n      mload(0x40)\n      dup1\n      swap2\n      sub\n      swap1\n      revert\n    tag_215:\n        /* \"Learn/Sesi-01-Challenge/LiskGarden.sol\":8490:9550  {... */\n      pop\n      pop\n        /* \"Learn/Sesi-01-Challenge/LiskGarden.sol\":8442:9550  function harvestPlant(uint256 plantId) external {... */\n      pop\n      jump\t// out\n        /* \"Learn/Sesi-01-Challenge/LiskGarden.sol\":9707:10010  function getPlant(uint256 plantId) external view returns (Plant memory) {... */\n    tag_102:\n        /* \"Learn/Sesi-01-Challenge/LiskGarden.sol\":9765:9777  Plant memory */\n      tag_218\n      tag_219\n      jump\t// in\n    tag_218:\n        /* \"Learn/Sesi-01-Challenge/LiskGarden.sol\":9790:9810  Plant memory myPlant */\n      0x00\n        /* \"Learn/Sesi-01-Challenge/LiskGarden.sol\":9813:9819  plants */\n      0x00\n        /* \"Learn/Sesi-01-Challenge/LiskGarden.sol\":9813:9828  plants[plantId] */\n      0x00\n        /* \"Learn/Sesi-01-Challenge/LiskGarden.sol\":9820:9827  plantId */\n      dup5\n        /* \"Learn/Sesi-01-Challenge/LiskGarden.sol\":9813:9828  plants[plantId] */\n      dup2\n      mstore\n      0x20\n      add\n      swap1\n      dup2\n      mstore\n      0x20\n      add\n      0x00\n      keccak256\n        /* \"Learn/Sesi-01-Challenge/LiskGarden.sol\":9790:9828  Plant memory myPlant = plants[plantId] */\n      mload(0x40)\n      dup1\n      0x0100\n      add\n      0x40\n      mstore\n      swap1\n      dup2\n      0x00\n      dup3\n      add\n      sload\n      dup2\n      mstore\n      0x20\n      add\n      0x01\n      dup3\n      add\n      0x00\n      swap1\n      sload\n      swap1\n      0x0100\n      exp\n      swap1\n      div\n      0xffffffffffffffffffffffffffffffffffffffff\n      and\n      0xffffffffffffffffffffffffffffffffffffffff\n      and\n      0xffffffffffffffffffffffffffffffffffffffff\n      and\n      dup2\n      mstore\n      0x20\n      add\n      0x01\n      dup3\n      add\n      0x14\n      swap1\n      sload\n      swap1\n      0x0100\n      exp\n      swap1\n      div\n      0xff\n      and\n      0x03\n      dup2\n      gt\n      iszero\n      tag_221\n      jumpi\n      tag_222\n      tag_129\n      jump\t// in\n    tag_222:\n    tag_221:\n      0x03\n      dup2\n      gt\n      iszero\n      tag_223\n      jumpi\n      tag_224\n      tag_129\n      jump\t// in\n    tag_224:\n    tag_223:\n      dup2\n      mstore\n      0x20\n      add\n      0x02\n      dup3\n      add\n      sload\n      dup2\n      mstore\n      0x20\n      add\n      0x03\n      dup3\n      add\n      sload\n      dup2\n      mstore\n      0x20\n      add\n      0x04\n      dup3\n      add\n      sload\n      dup2\n      mstore\n      0x20\n      add\n      0x05\n      dup3\n      add\n      0x00\n      swap1\n      sload\n      swap1\n      0x0100\n      exp\n      swap1\n      div\n      0xff\n      and\n      iszero\n      iszero\n      iszero\n      iszero\n      dup2\n      mstore\n      0x20\n      add\n      0x05\n      dup3\n      add\n      0x01\n      swap1\n      sload\n      swap1\n      0x0100\n      exp\n      swap1\n      div\n      0xff\n      and\n      iszero\n      iszero\n      iszero\n      iszero\n      dup2\n      mstore\n      pop\n      pop\n      swap1\n      pop\n        /* \"Learn/Sesi-01-Challenge/LiskGarden.sol\":9860:9888  calculateWaterLevel(plantId) */\n      tag_225\n        /* \"Learn/Sesi-01-Challenge/LiskGarden.sol\":9880:9887  plantId */\n      dup4\n        /* \"Learn/Sesi-01-Challenge/LiskGarden.sol\":9860:9879  calculateWaterLevel */\n      tag_55\n        /* \"Learn/Sesi-01-Challenge/LiskGarden.sol\":9860:9888  calculateWaterLevel(plantId) */\n      jump\t// in\n    tag_225:\n        /* \"Learn/Sesi-01-Challenge/LiskGarden.sol\":9839:9846  myPlant */\n      dup2\n        /* \"Learn/Sesi-01-Challenge/LiskGarden.sol\":9839:9857  myPlant.waterLevel */\n      0xa0\n      add\n        /* \"Learn/Sesi-01-Challenge/LiskGarden.sol\":9839:9888  myPlant.waterLevel = calculateWaterLevel(plantId) */\n      dup2\n      dup2\n      mstore\n      pop\n      pop\n        /* \"Learn/Sesi-01-Challenge/LiskGarden.sol\":9927:9928  0 */\n      0x00\n        /* \"Learn/Sesi-01-Challenge/LiskGarden.sol\":9905:9912  myPlant */\n      dup2\n        /* \"Learn/Sesi-01-Challenge/LiskGarden.sol\":9905:9923  myPlant.waterLevel */\n      0xa0\n      add\n      mload\n        /* \"Learn/Sesi-01-Challenge/LiskGarden.sol\":9905:9928  myPlant.waterLevel == 0 */\n      sub\n        /* \"Learn/Sesi-01-Challenge/LiskGarden.sol\":9901:9978  if (myPlant.waterLevel == 0) {... */\n      tag_226\n      jumpi\n        /* \"Learn/Sesi-01-Challenge/LiskGarden.sol\":9962:9966  true */\n      0x01\n        /* \"Learn/Sesi-01-Challenge/LiskGarden.sol\":9945:9952  myPlant */\n      dup2\n        /* \"Learn/Sesi-01-Challenge/LiskGarden.sol\":9945:9959  myPlant.isDead */\n      0xe0\n      add\n        /* \"Learn/Sesi-01-Challenge/LiskGarden.sol\":9945:9966  myPlant.isDead = true */\n      swap1\n      iszero\n      iszero\n      swap1\n      dup2\n      iszero\n      iszero\n      dup2\n      mstore\n      pop\n      pop\n        /* \"Learn/Sesi-01-Challenge/LiskGarden.sol\":9901:9978  if (myPlant.waterLevel == 0) {... */\n    tag_226:\n        /* \"Learn/Sesi-01-Challenge/LiskGarden.sol\":9995:10002  myPlant */\n      dup1\n        /* \"Learn/Sesi-01-Challenge/LiskGarden.sol\":9988:10002  return myPlant */\n      swap2\n      pop\n      pop\n        /* \"Learn/Sesi-01-Challenge/LiskGarden.sol\":9707:10010  function getPlant(uint256 plantId) external view returns (Plant memory) {... */\n      swap2\n      swap1\n      pop\n      jump\t// out\n        /* \"Learn/Sesi-01-Challenge/LiskGarden.sol\":5244:5913  function updateWaterLevel(uint256 _plantId) internal {... */\n    tag_166:\n        /* \"Learn/Sesi-01-Challenge/LiskGarden.sol\":5349:5370  Plant storage myPlant */\n      0x00\n        /* \"Learn/Sesi-01-Challenge/LiskGarden.sol\":5373:5379  plants */\n      0x00\n        /* \"Learn/Sesi-01-Challenge/LiskGarden.sol\":5373:5390  plants[ _plantId] */\n      0x00\n        /* \"Learn/Sesi-01-Challenge/LiskGarden.sol\":5381:5389  _plantId */\n      dup4\n        /* \"Learn/Sesi-01-Challenge/LiskGarden.sol\":5373:5390  plants[ _plantId] */\n      dup2\n      mstore\n      0x20\n      add\n      swap1\n      dup2\n      mstore\n      0x20\n      add\n      0x00\n      keccak256\n        /* \"Learn/Sesi-01-Challenge/LiskGarden.sol\":5349:5390  Plant storage myPlant = plants[ _plantId] */\n      swap1\n      pop\n        /* \"Learn/Sesi-01-Challenge/LiskGarden.sol\":5482:5507  uint256 currentWaterLevel */\n      0x00\n        /* \"Learn/Sesi-01-Challenge/LiskGarden.sol\":5510:5539  calculateWaterLevel(_plantId) */\n      tag_228\n        /* \"Learn/Sesi-01-Challenge/LiskGarden.sol\":5530:5538  _plantId */\n      dup4\n        /* \"Learn/Sesi-01-Challenge/LiskGarden.sol\":5510:5529  calculateWaterLevel */\n      tag_55\n        /* \"Learn/Sesi-01-Challenge/LiskGarden.sol\":5510:5539  calculateWaterLevel(_plantId) */\n      jump\t// in\n    tag_228:\n        /* \"Learn/Sesi-01-Challenge/LiskGarden.sol\":5482:5539  uint256 currentWaterLevel = calculateWaterLevel(_plantId) */\n      swap1\n      pop\n        /* \"Learn/Sesi-01-Challenge/LiskGarden.sol\":5605:5622  currentWaterLevel */\n      dup1\n        /* \"Learn/Sesi-01-Challenge/LiskGarden.sol\":5584:5591  myPlant */\n      dup3\n        /* \"Learn/Sesi-01-Challenge/LiskGarden.sol\":5584:5602  myPlant.waterLevel */\n      0x04\n      add\n        /* \"Learn/Sesi-01-Challenge/LiskGarden.sol\":5584:5622  myPlant.waterLevel = currentWaterLevel */\n      dup2\n      swap1\n      sstore\n      pop\n        /* \"Learn/Sesi-01-Challenge/LiskGarden.sol\":5700:5715  block.timestamp */\n      timestamp\n        /* \"Learn/Sesi-01-Challenge/LiskGarden.sol\":5678:5685  myPlant */\n      dup3\n        /* \"Learn/Sesi-01-Challenge/LiskGarden.sol\":5678:5697  myPlant.lastWatered */\n      0x03\n      add\n        /* \"Learn/Sesi-01-Challenge/LiskGarden.sol\":5678:5715  myPlant.lastWatered = block.timestamp */\n      dup2\n      swap1\n      sstore\n      pop\n        /* \"Learn/Sesi-01-Challenge/LiskGarden.sol\":5829:5830  0 */\n      0x00\n        /* \"Learn/Sesi-01-Challenge/LiskGarden.sol\":5807:5814  myPlant */\n      dup3\n        /* \"Learn/Sesi-01-Challenge/LiskGarden.sol\":5807:5825  myPlant.waterLevel */\n      0x04\n      add\n      sload\n        /* \"Learn/Sesi-01-Challenge/LiskGarden.sol\":5807:5830  myPlant.waterLevel == 0 */\n      eq\n        /* \"Learn/Sesi-01-Challenge/LiskGarden.sol\":5807:5856  myPlant.waterLevel == 0 && myPlant.isDead ==false */\n      dup1\n      iszero\n      tag_229\n      jumpi\n      pop\n        /* \"Learn/Sesi-01-Challenge/LiskGarden.sol\":5851:5856  false */\n      0x00\n        /* \"Learn/Sesi-01-Challenge/LiskGarden.sol\":5834:5856  myPlant.isDead ==false */\n      iszero\n      iszero\n        /* \"Learn/Sesi-01-Challenge/LiskGarden.sol\":5834:5841  myPlant */\n      dup3\n        /* \"Learn/Sesi-01-Challenge/LiskGarden.sol\":5834:5848  myPlant.isDead */\n      0x05\n      add\n      0x01\n      swap1\n      sload\n      swap1\n      0x0100\n      exp\n      swap1\n      div\n      0xff\n      and\n        /* \"Learn/Sesi-01-Challenge/LiskGarden.sol\":5834:5856  myPlant.isDead ==false */\n      iszero\n      iszero\n      eq\n        /* \"Learn/Sesi-01-Challenge/LiskGarden.sol\":5807:5856  myPlant.waterLevel == 0 && myPlant.isDead ==false */\n    tag_229:\n        /* \"Learn/Sesi-01-Challenge/LiskGarden.sol\":5803:5906  if (myPlant.waterLevel == 0 && myPlant.isDead ==false) {... */\n      iszero\n      tag_230\n      jumpi\n        /* \"Learn/Sesi-01-Challenge/LiskGarden.sol\":5890:5894  true */\n      0x01\n        /* \"Learn/Sesi-01-Challenge/LiskGarden.sol\":5873:5880  myPlant */\n      dup3\n        /* \"Learn/Sesi-01-Challenge/LiskGarden.sol\":5873:5887  myPlant.isDead */\n      0x05\n      add\n      0x01\n        /* \"Learn/Sesi-01-Challenge/LiskGarden.sol\":5873:5894  myPlant.isDead = true */\n      0x0100\n      exp\n      dup2\n      sload\n      dup2\n      0xff\n      mul\n      not\n      and\n      swap1\n      dup4\n      iszero\n      iszero\n      mul\n      or\n      swap1\n      sstore\n      pop\n        /* \"Learn/Sesi-01-Challenge/LiskGarden.sol\":5803:5906  if (myPlant.waterLevel == 0 && myPlant.isDead ==false) {... */\n    tag_230:\n        /* \"Learn/Sesi-01-Challenge/LiskGarden.sol\":5297:5913  {... */\n      pop\n      pop\n        /* \"Learn/Sesi-01-Challenge/LiskGarden.sol\":5244:5913  function updateWaterLevel(uint256 _plantId) internal {... */\n      pop\n      jump\t// out\n    tag_219:\n      mload(0x40)\n      dup1\n      0x0100\n      add\n      0x40\n      mstore\n      dup1\n      0x00\n      dup2\n      mstore\n      0x20\n      add\n      and(0xffffffffffffffffffffffffffffffffffffffff, 0x00)\n      dup2\n      mstore\n      0x20\n      add\n      0x00\n      0x03\n      dup2\n      gt\n      iszero\n      tag_231\n      jumpi\n      tag_232\n      tag_129\n      jump\t// in\n    tag_232:\n    tag_231:\n      dup2\n      mstore\n      0x20\n      add\n      0x00\n      dup2\n      mstore\n      0x20\n      add\n      0x00\n      dup2\n      mstore\n      0x20\n      add\n      0x00\n      dup2\n      mstore\n      0x20\n      add\n      iszero(iszero(0x00))\n      dup2\n      mstore\n      0x20\n      add\n      iszero(iszero(0x00))\n      dup2\n      mstore\n      pop\n      swap1\n      jump\t// out\n        /* \"#utility.yul\":7:84   */\n    tag_233:\n        /* \"#utility.yul\":44:51   */\n      0x00\n        /* \"#utility.yul\":73:78   */\n      dup2\n        /* \"#utility.yul\":62:78   */\n      swap1\n      pop\n        /* \"#utility.yul\":7:84   */\n      swap2\n      swap1\n      pop\n      jump\t// out\n        /* \"#utility.yul\":90:208   */\n    tag_234:\n        /* \"#utility.yul\":177:201   */\n      tag_293\n        /* \"#utility.yul\":195:200   */\n      dup2\n        /* \"#utility.yul\":177:201   */\n      tag_233\n      jump\t// in\n    tag_293:\n        /* \"#utility.yul\":172:175   */\n      dup3\n        /* \"#utility.yul\":165:202   */\n      mstore\n        /* \"#utility.yul\":90:208   */\n      pop\n      pop\n      jump\t// out\n        /* \"#utility.yul\":214:436   */\n    tag_29:\n        /* \"#utility.yul\":307:311   */\n      0x00\n        /* \"#utility.yul\":345:347   */\n      0x20\n        /* \"#utility.yul\":334:343   */\n      dup3\n        /* \"#utility.yul\":330:348   */\n      add\n        /* \"#utility.yul\":322:348   */\n      swap1\n      pop\n        /* \"#utility.yul\":358:429   */\n      tag_295\n        /* \"#utility.yul\":426:427   */\n      0x00\n        /* \"#utility.yul\":415:424   */\n      dup4\n        /* \"#utility.yul\":411:428   */\n      add\n        /* \"#utility.yul\":402:408   */\n      dup5\n        /* \"#utility.yul\":358:429   */\n      tag_234\n      jump\t// in\n    tag_295:\n        /* \"#utility.yul\":214:436   */\n      swap3\n      swap2\n      pop\n      pop\n      jump\t// out\n        /* \"#utility.yul\":523:640   */\n    tag_236:\n        /* \"#utility.yul\":632:633   */\n      0x00\n        /* \"#utility.yul\":629:630   */\n      0x00\n        /* \"#utility.yul\":622:634   */\n      revert\n        /* \"#utility.yul\":769:895   */\n    tag_238:\n        /* \"#utility.yul\":806:813   */\n      0x00\n        /* \"#utility.yul\":846:888   */\n      0xffffffffffffffffffffffffffffffffffffffff\n        /* \"#utility.yul\":839:844   */\n      dup3\n        /* \"#utility.yul\":835:889   */\n      and\n        /* \"#utility.yul\":824:889   */\n      swap1\n      pop\n        /* \"#utility.yul\":769:895   */\n      swap2\n      swap1\n      pop\n      jump\t// out\n        /* \"#utility.yul\":901:997   */\n    tag_239:\n        /* \"#utility.yul\":938:945   */\n      0x00\n        /* \"#utility.yul\":967:991   */\n      tag_301\n        /* \"#utility.yul\":985:990   */\n      dup3\n        /* \"#utility.yul\":967:991   */\n      tag_238\n      jump\t// in\n    tag_301:\n        /* \"#utility.yul\":956:991   */\n      swap1\n      pop\n        /* \"#utility.yul\":901:997   */\n      swap2\n      swap1\n      pop\n      jump\t// out\n        /* \"#utility.yul\":1003:1125   */\n    tag_240:\n        /* \"#utility.yul\":1076:1100   */\n      tag_303\n        /* \"#utility.yul\":1094:1099   */\n      dup2\n        /* \"#utility.yul\":1076:1100   */\n      tag_239\n      jump\t// in\n    tag_303:\n        /* \"#utility.yul\":1069:1074   */\n      dup2\n        /* \"#utility.yul\":1066:1101   */\n      eq\n        /* \"#utility.yul\":1056:1119   */\n      tag_304\n      jumpi\n        /* \"#utility.yul\":1115:1116   */\n      0x00\n        /* \"#utility.yul\":1112:1113   */\n      0x00\n        /* \"#utility.yul\":1105:1117   */\n      revert\n        /* \"#utility.yul\":1056:1119   */\n    tag_304:\n        /* \"#utility.yul\":1003:1125   */\n      pop\n      jump\t// out\n        /* \"#utility.yul\":1131:1270   */\n    tag_241:\n        /* \"#utility.yul\":1177:1182   */\n      0x00\n        /* \"#utility.yul\":1215:1221   */\n      dup2\n        /* \"#utility.yul\":1202:1222   */\n      calldataload\n        /* \"#utility.yul\":1193:1222   */\n      swap1\n      pop\n        /* \"#utility.yul\":1231:1264   */\n      tag_306\n        /* \"#utility.yul\":1258:1263   */\n      dup2\n        /* \"#utility.yul\":1231:1264   */\n      tag_240\n      jump\t// in\n    tag_306:\n        /* \"#utility.yul\":1131:1270   */\n      swap3\n      swap2\n      pop\n      pop\n      jump\t// out\n        /* \"#utility.yul\":1276:1605   */\n    tag_33:\n        /* \"#utility.yul\":1335:1341   */\n      0x00\n        /* \"#utility.yul\":1384:1386   */\n      0x20\n        /* \"#utility.yul\":1372:1381   */\n      dup3\n        /* \"#utility.yul\":1363:1370   */\n      dup5\n        /* \"#utility.yul\":1359:1382   */\n      sub\n        /* \"#utility.yul\":1355:1387   */\n      slt\n        /* \"#utility.yul\":1352:1471   */\n      iszero\n      tag_308\n      jumpi\n        /* \"#utility.yul\":1390:1469   */\n      tag_309\n      tag_236\n      jump\t// in\n    tag_309:\n        /* \"#utility.yul\":1352:1471   */\n    tag_308:\n        /* \"#utility.yul\":1510:1511   */\n      0x00\n        /* \"#utility.yul\":1535:1588   */\n      tag_310\n        /* \"#utility.yul\":1580:1587   */\n      dup5\n        /* \"#utility.yul\":1571:1577   */\n      dup3\n        /* \"#utility.yul\":1560:1569   */\n      dup6\n        /* \"#utility.yul\":1556:1578   */\n      add\n        /* \"#utility.yul\":1535:1588   */\n      tag_241\n      jump\t// in\n    tag_310:\n        /* \"#utility.yul\":1525:1588   */\n      swap2\n      pop\n        /* \"#utility.yul\":1481:1598   */\n      pop\n        /* \"#utility.yul\":1276:1605   */\n      swap3\n      swap2\n      pop\n      pop\n      jump\t// out\n        /* \"#utility.yul\":1611:1725   */\n    tag_242:\n        /* \"#utility.yul\":1678:1684   */\n      0x00\n        /* \"#utility.yul\":1712:1717   */\n      dup2\n        /* \"#utility.yul\":1706:1718   */\n      mload\n        /* \"#utility.yul\":1696:1718   */\n      swap1\n      pop\n        /* \"#utility.yul\":1611:1725   */\n      swap2\n      swap1\n      pop\n      jump\t// out\n        /* \"#utility.yul\":1731:1915   */\n    tag_243:\n        /* \"#utility.yul\":1830:1841   */\n      0x00\n        /* \"#utility.yul\":1864:1870   */\n      dup3\n        /* \"#utility.yul\":1859:1862   */\n      dup3\n        /* \"#utility.yul\":1852:1871   */\n      mstore\n        /* \"#utility.yul\":1904:1908   */\n      0x20\n        /* \"#utility.yul\":1899:1902   */\n      dup3\n        /* \"#utility.yul\":1895:1909   */\n      add\n        /* \"#utility.yul\":1880:1909   */\n      swap1\n      pop\n        /* \"#utility.yul\":1731:1915   */\n      swap3\n      swap2\n      pop\n      pop\n      jump\t// out\n        /* \"#utility.yul\":1921:2053   */\n    tag_244:\n        /* \"#utility.yul\":1988:1992   */\n      0x00\n        /* \"#utility.yul\":2011:2014   */\n      dup2\n        /* \"#utility.yul\":2003:2014   */\n      swap1\n      pop\n        /* \"#utility.yul\":2041:2045   */\n      0x20\n        /* \"#utility.yul\":2036:2039   */\n      dup3\n        /* \"#utility.yul\":2032:2046   */\n      add\n        /* \"#utility.yul\":2024:2046   */\n      swap1\n      pop\n        /* \"#utility.yul\":1921:2053   */\n      swap2\n      swap1\n      pop\n      jump\t// out\n        /* \"#utility.yul\":2059:2167   */\n    tag_245:\n        /* \"#utility.yul\":2136:2160   */\n      tag_315\n        /* \"#utility.yul\":2154:2159   */\n      dup2\n        /* \"#utility.yul\":2136:2160   */\n      tag_233\n      jump\t// in\n    tag_315:\n        /* \"#utility.yul\":2131:2134   */\n      dup3\n        /* \"#utility.yul\":2124:2161   */\n      mstore\n        /* \"#utility.yul\":2059:2167   */\n      pop\n      pop\n      jump\t// out\n        /* \"#utility.yul\":2173:2352   */\n    tag_246:\n        /* \"#utility.yul\":2242:2252   */\n      0x00\n        /* \"#utility.yul\":2263:2309   */\n      tag_317\n        /* \"#utility.yul\":2305:2308   */\n      dup4\n        /* \"#utility.yul\":2297:2303   */\n      dup4\n        /* \"#utility.yul\":2263:2309   */\n      tag_245\n      jump\t// in\n    tag_317:\n        /* \"#utility.yul\":2341:2345   */\n      0x20\n        /* \"#utility.yul\":2336:2339   */\n      dup4\n        /* \"#utility.yul\":2332:2346   */\n      add\n        /* \"#utility.yul\":2318:2346   */\n      swap1\n      pop\n        /* \"#utility.yul\":2173:2352   */\n      swap3\n      swap2\n      pop\n      pop\n      jump\t// out\n        /* \"#utility.yul\":2358:2471   */\n    tag_247:\n        /* \"#utility.yul\":2428:2432   */\n      0x00\n        /* \"#utility.yul\":2460:2464   */\n      0x20\n        /* \"#utility.yul\":2455:2458   */\n      dup3\n        /* \"#utility.yul\":2451:2465   */\n      add\n        /* \"#utility.yul\":2443:2465   */\n      swap1\n      pop\n        /* \"#utility.yul\":2358:2471   */\n      swap2\n      swap1\n      pop\n      jump\t// out\n        /* \"#utility.yul\":2507:3239   */\n    tag_248:\n        /* \"#utility.yul\":2626:2629   */\n      0x00\n        /* \"#utility.yul\":2655:2709   */\n      tag_320\n        /* \"#utility.yul\":2703:2708   */\n      dup3\n        /* \"#utility.yul\":2655:2709   */\n      tag_242\n      jump\t// in\n    tag_320:\n        /* \"#utility.yul\":2725:2811   */\n      tag_321\n        /* \"#utility.yul\":2804:2810   */\n      dup2\n        /* \"#utility.yul\":2799:2802   */\n      dup6\n        /* \"#utility.yul\":2725:2811   */\n      tag_243\n      jump\t// in\n    tag_321:\n        /* \"#utility.yul\":2718:2811   */\n      swap4\n      pop\n        /* \"#utility.yul\":2835:2891   */\n      tag_322\n        /* \"#utility.yul\":2885:2890   */\n      dup4\n        /* \"#utility.yul\":2835:2891   */\n      tag_244\n      jump\t// in\n    tag_322:\n        /* \"#utility.yul\":2914:2921   */\n      dup1\n        /* \"#utility.yul\":2945:2946   */\n      0x00\n        /* \"#utility.yul\":2930:3214   */\n    tag_323:\n        /* \"#utility.yul\":2955:2961   */\n      dup4\n        /* \"#utility.yul\":2952:2953   */\n      dup2\n        /* \"#utility.yul\":2949:2962   */\n      lt\n        /* \"#utility.yul\":2930:3214   */\n      iszero\n      tag_325\n      jumpi\n        /* \"#utility.yul\":3031:3037   */\n      dup2\n        /* \"#utility.yul\":3025:3038   */\n      mload\n        /* \"#utility.yul\":3058:3121   */\n      tag_326\n        /* \"#utility.yul\":3117:3120   */\n      dup9\n        /* \"#utility.yul\":3102:3115   */\n      dup3\n        /* \"#utility.yul\":3058:3121   */\n      tag_246\n      jump\t// in\n    tag_326:\n        /* \"#utility.yul\":3051:3121   */\n      swap8\n      pop\n        /* \"#utility.yul\":3144:3204   */\n      tag_327\n        /* \"#utility.yul\":3197:3203   */\n      dup4\n        /* \"#utility.yul\":3144:3204   */\n      tag_247\n      jump\t// in\n    tag_327:\n        /* \"#utility.yul\":3134:3204   */\n      swap3\n      pop\n        /* \"#utility.yul\":2990:3214   */\n      pop\n        /* \"#utility.yul\":2977:2978   */\n      0x01\n        /* \"#utility.yul\":2974:2975   */\n      dup2\n        /* \"#utility.yul\":2970:2979   */\n      add\n        /* \"#utility.yul\":2965:2979   */\n      swap1\n      pop\n        /* \"#utility.yul\":2930:3214   */\n      jump(tag_323)\n    tag_325:\n        /* \"#utility.yul\":2934:2948   */\n      pop\n        /* \"#utility.yul\":3230:3233   */\n      dup6\n        /* \"#utility.yul\":3223:3233   */\n      swap4\n      pop\n        /* \"#utility.yul\":2631:3239   */\n      pop\n      pop\n      pop\n        /* \"#utility.yul\":2507:3239   */\n      swap3\n      swap2\n      pop\n      pop\n      jump\t// out\n        /* \"#utility.yul\":3245:3618   */\n    tag_36:\n        /* \"#utility.yul\":3388:3392   */\n      0x00\n        /* \"#utility.yul\":3426:3428   */\n      0x20\n        /* \"#utility.yul\":3415:3424   */\n      dup3\n        /* \"#utility.yul\":3411:3429   */\n      add\n        /* \"#utility.yul\":3403:3429   */\n      swap1\n      pop\n        /* \"#utility.yul\":3475:3484   */\n      dup2\n        /* \"#utility.yul\":3469:3473   */\n      dup2\n        /* \"#utility.yul\":3465:3485   */\n      sub\n        /* \"#utility.yul\":3461:3462   */\n      0x00\n        /* \"#utility.yul\":3450:3459   */\n      dup4\n        /* \"#utility.yul\":3446:3463   */\n      add\n        /* \"#utility.yul\":3439:3486   */\n      mstore\n        /* \"#utility.yul\":3503:3611   */\n      tag_329\n        /* \"#utility.yul\":3606:3610   */\n      dup2\n        /* \"#utility.yul\":3597:3603   */\n      dup5\n        /* \"#utility.yul\":3503:3611   */\n      tag_248\n      jump\t// in\n    tag_329:\n        /* \"#utility.yul\":3495:3611   */\n      swap1\n      pop\n        /* \"#utility.yul\":3245:3618   */\n      swap3\n      swap2\n      pop\n      pop\n      jump\t// out\n        /* \"#utility.yul\":3624:3746   */\n    tag_249:\n        /* \"#utility.yul\":3697:3721   */\n      tag_331\n        /* \"#utility.yul\":3715:3720   */\n      dup2\n        /* \"#utility.yul\":3697:3721   */\n      tag_233\n      jump\t// in\n    tag_331:\n        /* \"#utility.yul\":3690:3695   */\n      dup2\n        /* \"#utility.yul\":3687:3722   */\n      eq\n        /* \"#utility.yul\":3677:3740   */\n      tag_332\n      jumpi\n        /* \"#utility.yul\":3736:3737   */\n      0x00\n        /* \"#utility.yul\":3733:3734   */\n      0x00\n        /* \"#utility.yul\":3726:3738   */\n      revert\n        /* \"#utility.yul\":3677:3740   */\n    tag_332:\n        /* \"#utility.yul\":3624:3746   */\n      pop\n      jump\t// out\n        /* \"#utility.yul\":3752:3891   */\n    tag_250:\n        /* \"#utility.yul\":3798:3803   */\n      0x00\n        /* \"#utility.yul\":3836:3842   */\n      dup2\n        /* \"#utility.yul\":3823:3843   */\n      calldataload\n        /* \"#utility.yul\":3814:3843   */\n      swap1\n      pop\n        /* \"#utility.yul\":3852:3885   */\n      tag_334\n        /* \"#utility.yul\":3879:3884   */\n      dup2\n        /* \"#utility.yul\":3852:3885   */\n      tag_249\n      jump\t// in\n    tag_334:\n        /* \"#utility.yul\":3752:3891   */\n      swap3\n      swap2\n      pop\n      pop\n      jump\t// out\n        /* \"#utility.yul\":3897:4226   */\n    tag_54:\n        /* \"#utility.yul\":3956:3962   */\n      0x00\n        /* \"#utility.yul\":4005:4007   */\n      0x20\n        /* \"#utility.yul\":3993:4002   */\n      dup3\n        /* \"#utility.yul\":3984:3991   */\n      dup5\n        /* \"#utility.yul\":3980:4003   */\n      sub\n        /* \"#utility.yul\":3976:4008   */\n      slt\n        /* \"#utility.yul\":3973:4092   */\n      iszero\n      tag_336\n      jumpi\n        /* \"#utility.yul\":4011:4090   */\n      tag_337\n      tag_236\n      jump\t// in\n    tag_337:\n        /* \"#utility.yul\":3973:4092   */\n    tag_336:\n        /* \"#utility.yul\":4131:4132   */\n      0x00\n        /* \"#utility.yul\":4156:4209   */\n      tag_338\n        /* \"#utility.yul\":4201:4208   */\n      dup5\n        /* \"#utility.yul\":4192:4198   */\n      dup3\n        /* \"#utility.yul\":4181:4190   */\n      dup6\n        /* \"#utility.yul\":4177:4199   */\n      add\n        /* \"#utility.yul\":4156:4209   */\n      tag_250\n      jump\t// in\n    tag_338:\n        /* \"#utility.yul\":4146:4209   */\n      swap2\n      pop\n        /* \"#utility.yul\":4102:4219   */\n      pop\n        /* \"#utility.yul\":3897:4226   */\n      swap3\n      swap2\n      pop\n      pop\n      jump\t// out\n        /* \"#utility.yul\":4232:4706   */\n    tag_60:\n        /* \"#utility.yul\":4300:4306   */\n      0x00\n        /* \"#utility.yul\":4308:4314   */\n      0x00\n        /* \"#utility.yul\":4357:4359   */\n      0x40\n        /* \"#utility.yul\":4345:4354   */\n      dup4\n        /* \"#utility.yul\":4336:4343   */\n      dup6\n        /* \"#utility.yul\":4332:4355   */\n      sub\n        /* \"#utility.yul\":4328:4360   */\n      slt\n        /* \"#utility.yul\":4325:4444   */\n      iszero\n      tag_340\n      jumpi\n        /* \"#utility.yul\":4363:4442   */\n      tag_341\n      tag_236\n      jump\t// in\n    tag_341:\n        /* \"#utility.yul\":4325:4444   */\n    tag_340:\n        /* \"#utility.yul\":4483:4484   */\n      0x00\n        /* \"#utility.yul\":4508:4561   */\n      tag_342\n        /* \"#utility.yul\":4553:4560   */\n      dup6\n        /* \"#utility.yul\":4544:4550   */\n      dup3\n        /* \"#utility.yul\":4533:4542   */\n      dup7\n        /* \"#utility.yul\":4529:4551   */\n      add\n        /* \"#utility.yul\":4508:4561   */\n      tag_241\n      jump\t// in\n    tag_342:\n        /* \"#utility.yul\":4498:4561   */\n      swap3\n      pop\n        /* \"#utility.yul\":4454:4571   */\n      pop\n        /* \"#utility.yul\":4610:4612   */\n      0x20\n        /* \"#utility.yul\":4636:4689   */\n      tag_343\n        /* \"#utility.yul\":4681:4688   */\n      dup6\n        /* \"#utility.yul\":4672:4678   */\n      dup3\n        /* \"#utility.yul\":4661:4670   */\n      dup7\n        /* \"#utility.yul\":4657:4679   */\n      add\n        /* \"#utility.yul\":4636:4689   */\n      tag_250\n      jump\t// in\n    tag_343:\n        /* \"#utility.yul\":4626:4689   */\n      swap2\n      pop\n        /* \"#utility.yul\":4581:4699   */\n      pop\n        /* \"#utility.yul\":4232:4706   */\n      swap3\n      pop\n      swap3\n      swap1\n      pop\n      jump\t// out\n        /* \"#utility.yul\":4712:4830   */\n    tag_251:\n        /* \"#utility.yul\":4799:4823   */\n      tag_345\n        /* \"#utility.yul\":4817:4822   */\n      dup2\n        /* \"#utility.yul\":4799:4823   */\n      tag_239\n      jump\t// in\n    tag_345:\n        /* \"#utility.yul\":4794:4797   */\n      dup3\n        /* \"#utility.yul\":4787:4824   */\n      mstore\n        /* \"#utility.yul\":4712:4830   */\n      pop\n      pop\n      jump\t// out\n        /* \"#utility.yul\":4836:5058   */\n    tag_67:\n        /* \"#utility.yul\":4929:4933   */\n      0x00\n        /* \"#utility.yul\":4967:4969   */\n      0x20\n        /* \"#utility.yul\":4956:4965   */\n      dup3\n        /* \"#utility.yul\":4952:4970   */\n      add\n        /* \"#utility.yul\":4944:4970   */\n      swap1\n      pop\n        /* \"#utility.yul\":4980:5051   */\n      tag_347\n        /* \"#utility.yul\":5048:5049   */\n      0x00\n        /* \"#utility.yul\":5037:5046   */\n      dup4\n        /* \"#utility.yul\":5033:5050   */\n      add\n        /* \"#utility.yul\":5024:5030   */\n      dup5\n        /* \"#utility.yul\":4980:5051   */\n      tag_251\n      jump\t// in\n    tag_347:\n        /* \"#utility.yul\":4836:5058   */\n      swap3\n      swap2\n      pop\n      pop\n      jump\t// out\n        /* \"#utility.yul\":5064:5244   */\n    tag_129:\n        /* \"#utility.yul\":5112:5189   */\n      0x4e487b7100000000000000000000000000000000000000000000000000000000\n        /* \"#utility.yul\":5109:5110   */\n      0x00\n        /* \"#utility.yul\":5102:5190   */\n      mstore\n        /* \"#utility.yul\":5209:5213   */\n      0x21\n        /* \"#utility.yul\":5206:5207   */\n      0x04\n        /* \"#utility.yul\":5199:5214   */\n      mstore\n        /* \"#utility.yul\":5233:5237   */\n      0x24\n        /* \"#utility.yul\":5230:5231   */\n      0x00\n        /* \"#utility.yul\":5223:5238   */\n      revert\n        /* \"#utility.yul\":5250:5366   */\n    tag_252:\n        /* \"#utility.yul\":5334:5335   */\n      0x04\n        /* \"#utility.yul\":5327:5332   */\n      dup2\n        /* \"#utility.yul\":5324:5336   */\n      lt\n        /* \"#utility.yul\":5314:5360   */\n      tag_350\n      jumpi\n        /* \"#utility.yul\":5340:5358   */\n      tag_351\n      tag_129\n      jump\t// in\n    tag_351:\n        /* \"#utility.yul\":5314:5360   */\n    tag_350:\n        /* \"#utility.yul\":5250:5366   */\n      pop\n      jump\t// out\n        /* \"#utility.yul\":5372:5505   */\n    tag_253:\n        /* \"#utility.yul\":5420:5427   */\n      0x00\n        /* \"#utility.yul\":5449:5454   */\n      dup2\n        /* \"#utility.yul\":5438:5454   */\n      swap1\n      pop\n        /* \"#utility.yul\":5455:5499   */\n      tag_353\n        /* \"#utility.yul\":5493:5498   */\n      dup3\n        /* \"#utility.yul\":5455:5499   */\n      tag_252\n      jump\t// in\n    tag_353:\n        /* \"#utility.yul\":5372:5505   */\n      swap2\n      swap1\n      pop\n      jump\t// out\n        /* \"#utility.yul\":5511:5644   */\n    tag_254:\n        /* \"#utility.yul\":5570:5579   */\n      0x00\n        /* \"#utility.yul\":5603:5638   */\n      tag_355\n        /* \"#utility.yul\":5632:5637   */\n      dup3\n        /* \"#utility.yul\":5603:5638   */\n      tag_253\n      jump\t// in\n    tag_355:\n        /* \"#utility.yul\":5590:5638   */\n      swap1\n      pop\n        /* \"#utility.yul\":5511:5644   */\n      swap2\n      swap1\n      pop\n      jump\t// out\n        /* \"#utility.yul\":5650:5799   */\n    tag_255:\n        /* \"#utility.yul\":5746:5792   */\n      tag_357\n        /* \"#utility.yul\":5786:5791   */\n      dup2\n        /* \"#utility.yul\":5746:5792   */\n      tag_254\n      jump\t// in\n    tag_357:\n        /* \"#utility.yul\":5741:5744   */\n      dup3\n        /* \"#utility.yul\":5734:5793   */\n      mstore\n        /* \"#utility.yul\":5650:5799   */\n      pop\n      pop\n      jump\t// out\n        /* \"#utility.yul\":5805:5895   */\n    tag_256:\n        /* \"#utility.yul\":5839:5846   */\n      0x00\n        /* \"#utility.yul\":5882:5887   */\n      dup2\n        /* \"#utility.yul\":5875:5888   */\n      iszero\n        /* \"#utility.yul\":5868:5889   */\n      iszero\n        /* \"#utility.yul\":5857:5889   */\n      swap1\n      pop\n        /* \"#utility.yul\":5805:5895   */\n      swap2\n      swap1\n      pop\n      jump\t// out\n        /* \"#utility.yul\":5901:6010   */\n    tag_257:\n        /* \"#utility.yul\":5982:6003   */\n      tag_360\n        /* \"#utility.yul\":5997:6002   */\n      dup2\n        /* \"#utility.yul\":5982:6003   */\n      tag_256\n      jump\t// in\n    tag_360:\n        /* \"#utility.yul\":5977:5980   */\n      dup3\n        /* \"#utility.yul\":5970:6004   */\n      mstore\n        /* \"#utility.yul\":5901:6010   */\n      pop\n      pop\n      jump\t// out\n        /* \"#utility.yul\":6016:7007   */\n    tag_73:\n        /* \"#utility.yul\":6302:6306   */\n      0x00\n        /* \"#utility.yul\":6340:6343   */\n      0x0100\n        /* \"#utility.yul\":6329:6338   */\n      dup3\n        /* \"#utility.yul\":6325:6344   */\n      add\n        /* \"#utility.yul\":6317:6344   */\n      swap1\n      pop\n        /* \"#utility.yul\":6354:6425   */\n      tag_362\n        /* \"#utility.yul\":6422:6423   */\n      0x00\n        /* \"#utility.yul\":6411:6420   */\n      dup4\n        /* \"#utility.yul\":6407:6424   */\n      add\n        /* \"#utility.yul\":6398:6404   */\n      dup12\n        /* \"#utility.yul\":6354:6425   */\n      tag_234\n      jump\t// in\n    tag_362:\n        /* \"#utility.yul\":6435:6507   */\n      tag_363\n        /* \"#utility.yul\":6503:6505   */\n      0x20\n        /* \"#utility.yul\":6492:6501   */\n      dup4\n        /* \"#utility.yul\":6488:6506   */\n      add\n        /* \"#utility.yul\":6479:6485   */\n      dup11\n        /* \"#utility.yul\":6435:6507   */\n      tag_251\n      jump\t// in\n    tag_363:\n        /* \"#utility.yul\":6517:6598   */\n      tag_364\n        /* \"#utility.yul\":6594:6596   */\n      0x40\n        /* \"#utility.yul\":6583:6592   */\n      dup4\n        /* \"#utility.yul\":6579:6597   */\n      add\n        /* \"#utility.yul\":6570:6576   */\n      dup10\n        /* \"#utility.yul\":6517:6598   */\n      tag_255\n      jump\t// in\n    tag_364:\n        /* \"#utility.yul\":6608:6680   */\n      tag_365\n        /* \"#utility.yul\":6676:6678   */\n      0x60\n        /* \"#utility.yul\":6665:6674   */\n      dup4\n        /* \"#utility.yul\":6661:6679   */\n      add\n        /* \"#utility.yul\":6652:6658   */\n      dup9\n        /* \"#utility.yul\":6608:6680   */\n      tag_234\n      jump\t// in\n    tag_365:\n        /* \"#utility.yul\":6690:6763   */\n      tag_366\n        /* \"#utility.yul\":6758:6761   */\n      0x80\n        /* \"#utility.yul\":6747:6756   */\n      dup4\n        /* \"#utility.yul\":6743:6762   */\n      add\n        /* \"#utility.yul\":6734:6740   */\n      dup8\n        /* \"#utility.yul\":6690:6763   */\n      tag_234\n      jump\t// in\n    tag_366:\n        /* \"#utility.yul\":6773:6846   */\n      tag_367\n        /* \"#utility.yul\":6841:6844   */\n      0xa0\n        /* \"#utility.yul\":6830:6839   */\n      dup4\n        /* \"#utility.yul\":6826:6845   */\n      add\n        /* \"#utility.yul\":6817:6823   */\n      dup7\n        /* \"#utility.yul\":6773:6846   */\n      tag_234\n      jump\t// in\n    tag_367:\n        /* \"#utility.yul\":6856:6923   */\n      tag_368\n        /* \"#utility.yul\":6918:6921   */\n      0xc0\n        /* \"#utility.yul\":6907:6916   */\n      dup4\n        /* \"#utility.yul\":6903:6922   */\n      add\n        /* \"#utility.yul\":6894:6900   */\n      dup6\n        /* \"#utility.yul\":6856:6923   */\n      tag_257\n      jump\t// in\n    tag_368:\n        /* \"#utility.yul\":6933:7000   */\n      tag_369\n        /* \"#utility.yul\":6995:6998   */\n      0xe0\n        /* \"#utility.yul\":6984:6993   */\n      dup4\n        /* \"#utility.yul\":6980:6999   */\n      add\n        /* \"#utility.yul\":6971:6977   */\n      dup5\n        /* \"#utility.yul\":6933:7000   */\n      tag_257\n      jump\t// in\n    tag_369:\n        /* \"#utility.yul\":6016:7007   */\n      swap10\n      swap9\n      pop\n      pop\n      pop\n      pop\n      pop\n      pop\n      pop\n      pop\n      pop\n      jump\t// out\n        /* \"#utility.yul\":7013:7099   */\n    tag_258:\n        /* \"#utility.yul\":7048:7055   */\n      0x00\n        /* \"#utility.yul\":7088:7092   */\n      0xff\n        /* \"#utility.yul\":7081:7086   */\n      dup3\n        /* \"#utility.yul\":7077:7093   */\n      and\n        /* \"#utility.yul\":7066:7093   */\n      swap1\n      pop\n        /* \"#utility.yul\":7013:7099   */\n      swap2\n      swap1\n      pop\n      jump\t// out\n        /* \"#utility.yul\":7105:7217   */\n    tag_259:\n        /* \"#utility.yul\":7188:7210   */\n      tag_372\n        /* \"#utility.yul\":7204:7209   */\n      dup2\n        /* \"#utility.yul\":7188:7210   */\n      tag_258\n      jump\t// in\n    tag_372:\n        /* \"#utility.yul\":7183:7186   */\n      dup3\n        /* \"#utility.yul\":7176:7211   */\n      mstore\n        /* \"#utility.yul\":7105:7217   */\n      pop\n      pop\n      jump\t// out\n        /* \"#utility.yul\":7223:7437   */\n    tag_86:\n        /* \"#utility.yul\":7312:7316   */\n      0x00\n        /* \"#utility.yul\":7350:7352   */\n      0x20\n        /* \"#utility.yul\":7339:7348   */\n      dup3\n        /* \"#utility.yul\":7335:7353   */\n      add\n        /* \"#utility.yul\":7327:7353   */\n      swap1\n      pop\n        /* \"#utility.yul\":7363:7430   */\n      tag_374\n        /* \"#utility.yul\":7427:7428   */\n      0x00\n        /* \"#utility.yul\":7416:7425   */\n      dup4\n        /* \"#utility.yul\":7412:7429   */\n      add\n        /* \"#utility.yul\":7403:7409   */\n      dup5\n        /* \"#utility.yul\":7363:7430   */\n      tag_259\n      jump\t// in\n    tag_374:\n        /* \"#utility.yul\":7223:7437   */\n      swap3\n      swap2\n      pop\n      pop\n      jump\t// out\n        /* \"#utility.yul\":7443:7551   */\n    tag_260:\n        /* \"#utility.yul\":7520:7544   */\n      tag_376\n        /* \"#utility.yul\":7538:7543   */\n      dup2\n        /* \"#utility.yul\":7520:7544   */\n      tag_239\n      jump\t// in\n    tag_376:\n        /* \"#utility.yul\":7515:7518   */\n      dup3\n        /* \"#utility.yul\":7508:7545   */\n      mstore\n        /* \"#utility.yul\":7443:7551   */\n      pop\n      pop\n      jump\t// out\n        /* \"#utility.yul\":7557:7696   */\n    tag_261:\n        /* \"#utility.yul\":7643:7689   */\n      tag_378\n        /* \"#utility.yul\":7683:7688   */\n      dup2\n        /* \"#utility.yul\":7643:7689   */\n      tag_254\n      jump\t// in\n    tag_378:\n        /* \"#utility.yul\":7638:7641   */\n      dup3\n        /* \"#utility.yul\":7631:7690   */\n      mstore\n        /* \"#utility.yul\":7557:7696   */\n      pop\n      pop\n      jump\t// out\n        /* \"#utility.yul\":7702:7801   */\n    tag_262:\n        /* \"#utility.yul\":7773:7794   */\n      tag_380\n        /* \"#utility.yul\":7788:7793   */\n      dup2\n        /* \"#utility.yul\":7773:7794   */\n      tag_256\n      jump\t// in\n    tag_380:\n        /* \"#utility.yul\":7768:7771   */\n      dup3\n        /* \"#utility.yul\":7761:7795   */\n      mstore\n        /* \"#utility.yul\":7702:7801   */\n      pop\n      pop\n      jump\t// out\n        /* \"#utility.yul\":7865:9436   */\n    tag_263:\n        /* \"#utility.yul\":8004:8010   */\n      0x0100\n        /* \"#utility.yul\":7999:8002   */\n      dup3\n        /* \"#utility.yul\":7995:8011   */\n      add\n        /* \"#utility.yul\":8096:8100   */\n      0x00\n        /* \"#utility.yul\":8089:8094   */\n      dup3\n        /* \"#utility.yul\":8085:8101   */\n      add\n        /* \"#utility.yul\":8079:8102   */\n      mload\n        /* \"#utility.yul\":8115:8178   */\n      tag_382\n        /* \"#utility.yul\":8172:8176   */\n      0x00\n        /* \"#utility.yul\":8167:8170   */\n      dup6\n        /* \"#utility.yul\":8163:8177   */\n      add\n        /* \"#utility.yul\":8149:8161   */\n      dup3\n        /* \"#utility.yul\":8115:8178   */\n      tag_245\n      jump\t// in\n    tag_382:\n        /* \"#utility.yul\":8021:8188   */\n      pop\n        /* \"#utility.yul\":8271:8275   */\n      0x20\n        /* \"#utility.yul\":8264:8269   */\n      dup3\n        /* \"#utility.yul\":8260:8276   */\n      add\n        /* \"#utility.yul\":8254:8277   */\n      mload\n        /* \"#utility.yul\":8290:8353   */\n      tag_383\n        /* \"#utility.yul\":8347:8351   */\n      0x20\n        /* \"#utility.yul\":8342:8345   */\n      dup6\n        /* \"#utility.yul\":8338:8352   */\n      add\n        /* \"#utility.yul\":8324:8336   */\n      dup3\n        /* \"#utility.yul\":8290:8353   */\n      tag_260\n      jump\t// in\n    tag_383:\n        /* \"#utility.yul\":8198:8363   */\n      pop\n        /* \"#utility.yul\":8446:8450   */\n      0x40\n        /* \"#utility.yul\":8439:8444   */\n      dup3\n        /* \"#utility.yul\":8435:8451   */\n      add\n        /* \"#utility.yul\":8429:8452   */\n      mload\n        /* \"#utility.yul\":8465:8537   */\n      tag_384\n        /* \"#utility.yul\":8531:8535   */\n      0x40\n        /* \"#utility.yul\":8526:8529   */\n      dup6\n        /* \"#utility.yul\":8522:8536   */\n      add\n        /* \"#utility.yul\":8508:8520   */\n      dup3\n        /* \"#utility.yul\":8465:8537   */\n      tag_261\n      jump\t// in\n    tag_384:\n        /* \"#utility.yul\":8373:8547   */\n      pop\n        /* \"#utility.yul\":8636:8640   */\n      0x60\n        /* \"#utility.yul\":8629:8634   */\n      dup3\n        /* \"#utility.yul\":8625:8641   */\n      add\n        /* \"#utility.yul\":8619:8642   */\n      mload\n        /* \"#utility.yul\":8655:8718   */\n      tag_385\n        /* \"#utility.yul\":8712:8716   */\n      0x60\n        /* \"#utility.yul\":8707:8710   */\n      dup6\n        /* \"#utility.yul\":8703:8717   */\n      add\n        /* \"#utility.yul\":8689:8701   */\n      dup3\n        /* \"#utility.yul\":8655:8718   */\n      tag_245\n      jump\t// in\n    tag_385:\n        /* \"#utility.yul\":8557:8728   */\n      pop\n        /* \"#utility.yul\":8817:8821   */\n      0x80\n        /* \"#utility.yul\":8810:8815   */\n      dup3\n        /* \"#utility.yul\":8806:8822   */\n      add\n        /* \"#utility.yul\":8800:8823   */\n      mload\n        /* \"#utility.yul\":8836:8899   */\n      tag_386\n        /* \"#utility.yul\":8893:8897   */\n      0x80\n        /* \"#utility.yul\":8888:8891   */\n      dup6\n        /* \"#utility.yul\":8884:8898   */\n      add\n        /* \"#utility.yul\":8870:8882   */\n      dup3\n        /* \"#utility.yul\":8836:8899   */\n      tag_245\n      jump\t// in\n    tag_386:\n        /* \"#utility.yul\":8738:8909   */\n      pop\n        /* \"#utility.yul\":8997:9001   */\n      0xa0\n        /* \"#utility.yul\":8990:8995   */\n      dup3\n        /* \"#utility.yul\":8986:9002   */\n      add\n        /* \"#utility.yul\":8980:9003   */\n      mload\n        /* \"#utility.yul\":9016:9079   */\n      tag_387\n        /* \"#utility.yul\":9073:9077   */\n      0xa0\n        /* \"#utility.yul\":9068:9071   */\n      dup6\n        /* \"#utility.yul\":9064:9078   */\n      add\n        /* \"#utility.yul\":9050:9062   */\n      dup3\n        /* \"#utility.yul\":9016:9079   */\n      tag_245\n      jump\t// in\n    tag_387:\n        /* \"#utility.yul\":8919:9089   */\n      pop\n        /* \"#utility.yul\":9173:9177   */\n      0xc0\n        /* \"#utility.yul\":9166:9171   */\n      dup3\n        /* \"#utility.yul\":9162:9178   */\n      add\n        /* \"#utility.yul\":9156:9179   */\n      mload\n        /* \"#utility.yul\":9192:9249   */\n      tag_388\n        /* \"#utility.yul\":9243:9247   */\n      0xc0\n        /* \"#utility.yul\":9238:9241   */\n      dup6\n        /* \"#utility.yul\":9234:9248   */\n      add\n        /* \"#utility.yul\":9220:9232   */\n      dup3\n        /* \"#utility.yul\":9192:9249   */\n      tag_262\n      jump\t// in\n    tag_388:\n        /* \"#utility.yul\":9099:9259   */\n      pop\n        /* \"#utility.yul\":9343:9347   */\n      0xe0\n        /* \"#utility.yul\":9336:9341   */\n      dup3\n        /* \"#utility.yul\":9332:9348   */\n      add\n        /* \"#utility.yul\":9326:9349   */\n      mload\n        /* \"#utility.yul\":9362:9419   */\n      tag_389\n        /* \"#utility.yul\":9413:9417   */\n      0xe0\n        /* \"#utility.yul\":9408:9411   */\n      dup6\n        /* \"#utility.yul\":9404:9418   */\n      add\n        /* \"#utility.yul\":9390:9402   */\n      dup3\n        /* \"#utility.yul\":9362:9419   */\n      tag_262\n      jump\t// in\n    tag_389:\n        /* \"#utility.yul\":9269:9429   */\n      pop\n        /* \"#utility.yul\":7973:9436   */\n      pop\n        /* \"#utility.yul\":7865:9436   */\n      pop\n      pop\n      jump\t// out\n        /* \"#utility.yul\":9442:9749   */\n    tag_104:\n        /* \"#utility.yul\":9577:9581   */\n      0x00\n        /* \"#utility.yul\":9615:9618   */\n      0x0100\n        /* \"#utility.yul\":9604:9613   */\n      dup3\n        /* \"#utility.yul\":9600:9619   */\n      add\n        /* \"#utility.yul\":9592:9619   */\n      swap1\n      pop\n        /* \"#utility.yul\":9629:9742   */\n      tag_391\n        /* \"#utility.yul\":9739:9740   */\n      0x00\n        /* \"#utility.yul\":9728:9737   */\n      dup4\n        /* \"#utility.yul\":9724:9741   */\n      add\n        /* \"#utility.yul\":9715:9721   */\n      dup5\n        /* \"#utility.yul\":9629:9742   */\n      tag_263\n      jump\t// in\n    tag_391:\n        /* \"#utility.yul\":9442:9749   */\n      swap3\n      swap2\n      pop\n      pop\n      jump\t// out\n        /* \"#utility.yul\":9755:9924   */\n    tag_264:\n        /* \"#utility.yul\":9839:9850   */\n      0x00\n        /* \"#utility.yul\":9873:9879   */\n      dup3\n        /* \"#utility.yul\":9868:9871   */\n      dup3\n        /* \"#utility.yul\":9861:9880   */\n      mstore\n        /* \"#utility.yul\":9913:9917   */\n      0x20\n        /* \"#utility.yul\":9908:9911   */\n      dup3\n        /* \"#utility.yul\":9904:9918   */\n      add\n        /* \"#utility.yul\":9889:9918   */\n      swap1\n      pop\n        /* \"#utility.yul\":9755:9924   */\n      swap3\n      swap2\n      pop\n      pop\n      jump\t// out\n        /* \"#utility.yul\":9930:10091   */\n    tag_265:\n        /* \"#utility.yul\":10070:10083   */\n      0x42756b616e206f776e6572000000000000000000000000000000000000000000\n        /* \"#utility.yul\":10066:10067   */\n      0x00\n        /* \"#utility.yul\":10058:10064   */\n      dup3\n        /* \"#utility.yul\":10054:10068   */\n      add\n        /* \"#utility.yul\":10047:10084   */\n      mstore\n        /* \"#utility.yul\":9930:10091   */\n      pop\n      jump\t// out\n        /* \"#utility.yul\":10097:10463   */\n    tag_266:\n        /* \"#utility.yul\":10239:10242   */\n      0x00\n        /* \"#utility.yul\":10260:10327   */\n      tag_395\n        /* \"#utility.yul\":10324:10326   */\n      0x0b\n        /* \"#utility.yul\":10319:10322   */\n      dup4\n        /* \"#utility.yul\":10260:10327   */\n      tag_264\n      jump\t// in\n    tag_395:\n        /* \"#utility.yul\":10253:10327   */\n      swap2\n      pop\n        /* \"#utility.yul\":10336:10429   */\n      tag_396\n        /* \"#utility.yul\":10425:10428   */\n      dup3\n        /* \"#utility.yul\":10336:10429   */\n      tag_265\n      jump\t// in\n    tag_396:\n        /* \"#utility.yul\":10454:10456   */\n      0x20\n        /* \"#utility.yul\":10449:10452   */\n      dup3\n        /* \"#utility.yul\":10445:10457   */\n      add\n        /* \"#utility.yul\":10438:10457   */\n      swap1\n      pop\n        /* \"#utility.yul\":10097:10463   */\n      swap2\n      swap1\n      pop\n      jump\t// out\n        /* \"#utility.yul\":10469:10888   */\n    tag_112:\n        /* \"#utility.yul\":10635:10639   */\n      0x00\n        /* \"#utility.yul\":10673:10675   */\n      0x20\n        /* \"#utility.yul\":10662:10671   */\n      dup3\n        /* \"#utility.yul\":10658:10676   */\n      add\n        /* \"#utility.yul\":10650:10676   */\n      swap1\n      pop\n        /* \"#utility.yul\":10722:10731   */\n      dup2\n        /* \"#utility.yul\":10716:10720   */\n      dup2\n        /* \"#utility.yul\":10712:10732   */\n      sub\n        /* \"#utility.yul\":10708:10709   */\n      0x00\n        /* \"#utility.yul\":10697:10706   */\n      dup4\n        /* \"#utility.yul\":10693:10710   */\n      add\n        /* \"#utility.yul\":10686:10733   */\n      mstore\n        /* \"#utility.yul\":10750:10881   */\n      tag_398\n        /* \"#utility.yul\":10876:10880   */\n      dup2\n        /* \"#utility.yul\":10750:10881   */\n      tag_266\n      jump\t// in\n    tag_398:\n        /* \"#utility.yul\":10742:10881   */\n      swap1\n      pop\n        /* \"#utility.yul\":10469:10888   */\n      swap2\n      swap1\n      pop\n      jump\t// out\n        /* \"#utility.yul\":10894:11041   */\n    tag_267:\n        /* \"#utility.yul\":10995:11006   */\n      0x00\n        /* \"#utility.yul\":11032:11035   */\n      dup2\n        /* \"#utility.yul\":11017:11035   */\n      swap1\n      pop\n        /* \"#utility.yul\":10894:11041   */\n      swap3\n      swap2\n      pop\n      pop\n      jump\t// out\n        /* \"#utility.yul\":11047:11161   */\n    tag_268:\n      pop\n      jump\t// out\n        /* \"#utility.yul\":11167:11565   */\n    tag_269:\n        /* \"#utility.yul\":11326:11329   */\n      0x00\n        /* \"#utility.yul\":11347:11430   */\n      tag_402\n        /* \"#utility.yul\":11428:11429   */\n      0x00\n        /* \"#utility.yul\":11423:11426   */\n      dup4\n        /* \"#utility.yul\":11347:11430   */\n      tag_267\n      jump\t// in\n    tag_402:\n        /* \"#utility.yul\":11340:11430   */\n      swap2\n      pop\n        /* \"#utility.yul\":11439:11532   */\n      tag_403\n        /* \"#utility.yul\":11528:11531   */\n      dup3\n        /* \"#utility.yul\":11439:11532   */\n      tag_268\n      jump\t// in\n    tag_403:\n        /* \"#utility.yul\":11557:11558   */\n      0x00\n        /* \"#utility.yul\":11552:11555   */\n      dup3\n        /* \"#utility.yul\":11548:11559   */\n      add\n        /* \"#utility.yul\":11541:11559   */\n      swap1\n      pop\n        /* \"#utility.yul\":11167:11565   */\n      swap2\n      swap1\n      pop\n      jump\t// out\n        /* \"#utility.yul\":11571:11950   */\n    tag_114:\n        /* \"#utility.yul\":11755:11758   */\n      0x00\n        /* \"#utility.yul\":11777:11924   */\n      tag_405\n        /* \"#utility.yul\":11920:11923   */\n      dup3\n        /* \"#utility.yul\":11777:11924   */\n      tag_269\n      jump\t// in\n    tag_405:\n        /* \"#utility.yul\":11770:11924   */\n      swap2\n      pop\n        /* \"#utility.yul\":11941:11944   */\n      dup2\n        /* \"#utility.yul\":11934:11944   */\n      swap1\n      pop\n        /* \"#utility.yul\":11571:11950   */\n      swap2\n      swap1\n      pop\n      jump\t// out\n        /* \"#utility.yul\":11956:12120   */\n    tag_270:\n        /* \"#utility.yul\":12096:12112   */\n      0x5472616e7366657220676167616c000000000000000000000000000000000000\n        /* \"#utility.yul\":12092:12093   */\n      0x00\n        /* \"#utility.yul\":12084:12090   */\n      dup3\n        /* \"#utility.yul\":12080:12094   */\n      add\n        /* \"#utility.yul\":12073:12113   */\n      mstore\n        /* \"#utility.yul\":11956:12120   */\n      pop\n      jump\t// out\n        /* \"#utility.yul\":12126:12492   */\n    tag_271:\n        /* \"#utility.yul\":12268:12271   */\n      0x00\n        /* \"#utility.yul\":12289:12356   */\n      tag_408\n        /* \"#utility.yul\":12353:12355   */\n      0x0e\n        /* \"#utility.yul\":12348:12351   */\n      dup4\n        /* \"#utility.yul\":12289:12356   */\n      tag_264\n      jump\t// in\n    tag_408:\n        /* \"#utility.yul\":12282:12356   */\n      swap2\n      pop\n        /* \"#utility.yul\":12365:12458   */\n      tag_409\n        /* \"#utility.yul\":12454:12457   */\n      dup3\n        /* \"#utility.yul\":12365:12458   */\n      tag_270\n      jump\t// in\n    tag_409:\n        /* \"#utility.yul\":12483:12485   */\n      0x20\n        /* \"#utility.yul\":12478:12481   */\n      dup3\n        /* \"#utility.yul\":12474:12486   */\n      add\n        /* \"#utility.yul\":12467:12486   */\n      swap1\n      pop\n        /* \"#utility.yul\":12126:12492   */\n      swap2\n      swap1\n      pop\n      jump\t// out\n        /* \"#utility.yul\":12498:12917   */\n    tag_120:\n        /* \"#utility.yul\":12664:12668   */\n      0x00\n        /* \"#utility.yul\":12702:12704   */\n      0x20\n        /* \"#utility.yul\":12691:12700   */\n      dup3\n        /* \"#utility.yul\":12687:12705   */\n      add\n        /* \"#utility.yul\":12679:12705   */\n      swap1\n      pop\n        /* \"#utility.yul\":12751:12760   */\n      dup2\n        /* \"#utility.yul\":12745:12749   */\n      dup2\n        /* \"#utility.yul\":12741:12761   */\n      sub\n        /* \"#utility.yul\":12737:12738   */\n      0x00\n        /* \"#utility.yul\":12726:12735   */\n      dup4\n        /* \"#utility.yul\":12722:12739   */\n      add\n        /* \"#utility.yul\":12715:12762   */\n      mstore\n        /* \"#utility.yul\":12779:12910   */\n      tag_411\n        /* \"#utility.yul\":12905:12909   */\n      dup2\n        /* \"#utility.yul\":12779:12910   */\n      tag_271\n      jump\t// in\n    tag_411:\n        /* \"#utility.yul\":12771:12910   */\n      swap1\n      pop\n        /* \"#utility.yul\":12498:12917   */\n      swap2\n      swap1\n      pop\n      jump\t// out\n        /* \"#utility.yul\":12923:13093   */\n    tag_272:\n        /* \"#utility.yul\":13063:13085   */\n      0x4d696e69756d20302e3030303031206574686572000000000000000000000000\n        /* \"#utility.yul\":13059:13060   */\n      0x00\n        /* \"#utility.yul\":13051:13057   */\n      dup3\n        /* \"#utility.yul\":13047:13061   */\n      add\n        /* \"#utility.yul\":13040:13086   */\n      mstore\n        /* \"#utility.yul\":12923:13093   */\n      pop\n      jump\t// out\n        /* \"#utility.yul\":13099:13465   */\n    tag_273:\n        /* \"#utility.yul\":13241:13244   */\n      0x00\n        /* \"#utility.yul\":13262:13329   */\n      tag_414\n        /* \"#utility.yul\":13326:13328   */\n      0x14\n        /* \"#utility.yul\":13321:13324   */\n      dup4\n        /* \"#utility.yul\":13262:13329   */\n      tag_264\n      jump\t// in\n    tag_414:\n        /* \"#utility.yul\":13255:13329   */\n      swap2\n      pop\n        /* \"#utility.yul\":13338:13431   */\n      tag_415\n        /* \"#utility.yul\":13427:13430   */\n      dup3\n        /* \"#utility.yul\":13338:13431   */\n      tag_272\n      jump\t// in\n    tag_415:\n        /* \"#utility.yul\":13456:13458   */\n      0x20\n        /* \"#utility.yul\":13451:13454   */\n      dup3\n        /* \"#utility.yul\":13447:13459   */\n      add\n        /* \"#utility.yul\":13440:13459   */\n      swap1\n      pop\n        /* \"#utility.yul\":13099:13465   */\n      swap2\n      swap1\n      pop\n      jump\t// out\n        /* \"#utility.yul\":13471:13890   */\n    tag_124:\n        /* \"#utility.yul\":13637:13641   */\n      0x00\n        /* \"#utility.yul\":13675:13677   */\n      0x20\n        /* \"#utility.yul\":13664:13673   */\n      dup3\n        /* \"#utility.yul\":13660:13678   */\n      add\n        /* \"#utility.yul\":13652:13678   */\n      swap1\n      pop\n        /* \"#utility.yul\":13724:13733   */\n      dup2\n        /* \"#utility.yul\":13718:13722   */\n      dup2\n        /* \"#utility.yul\":13714:13734   */\n      sub\n        /* \"#utility.yul\":13710:13711   */\n      0x00\n        /* \"#utility.yul\":13699:13708   */\n      dup4\n        /* \"#utility.yul\":13695:13712   */\n      add\n        /* \"#utility.yul\":13688:13735   */\n      mstore\n        /* \"#utility.yul\":13752:13883   */\n      tag_417\n        /* \"#utility.yul\":13878:13882   */\n      dup2\n        /* \"#utility.yul\":13752:13883   */\n      tag_273\n      jump\t// in\n    tag_417:\n        /* \"#utility.yul\":13744:13883   */\n      swap1\n      pop\n        /* \"#utility.yul\":13471:13890   */\n      swap2\n      swap1\n      pop\n      jump\t// out\n        /* \"#utility.yul\":13896:14076   */\n    tag_274:\n        /* \"#utility.yul\":13944:14021   */\n      0x4e487b7100000000000000000000000000000000000000000000000000000000\n        /* \"#utility.yul\":13941:13942   */\n      0x00\n        /* \"#utility.yul\":13934:14022   */\n      mstore\n        /* \"#utility.yul\":14041:14045   */\n      0x11\n        /* \"#utility.yul\":14038:14039   */\n      0x04\n        /* \"#utility.yul\":14031:14046   */\n      mstore\n        /* \"#utility.yul\":14065:14069   */\n      0x24\n        /* \"#utility.yul\":14062:14063   */\n      0x00\n        /* \"#utility.yul\":14055:14070   */\n      revert\n        /* \"#utility.yul\":14082:14273   */\n    tag_126:\n        /* \"#utility.yul\":14122:14125   */\n      0x00\n        /* \"#utility.yul\":14141:14161   */\n      tag_420\n        /* \"#utility.yul\":14159:14160   */\n      dup3\n        /* \"#utility.yul\":14141:14161   */\n      tag_233\n      jump\t// in\n    tag_420:\n        /* \"#utility.yul\":14136:14161   */\n      swap2\n      pop\n        /* \"#utility.yul\":14175:14195   */\n      tag_421\n        /* \"#utility.yul\":14193:14194   */\n      dup4\n        /* \"#utility.yul\":14175:14195   */\n      tag_233\n      jump\t// in\n    tag_421:\n        /* \"#utility.yul\":14170:14195   */\n      swap3\n      pop\n        /* \"#utility.yul\":14218:14219   */\n      dup3\n        /* \"#utility.yul\":14215:14216   */\n      dup3\n        /* \"#utility.yul\":14211:14220   */\n      add\n        /* \"#utility.yul\":14204:14220   */\n      swap1\n      pop\n        /* \"#utility.yul\":14239:14242   */\n      dup1\n        /* \"#utility.yul\":14236:14237   */\n      dup3\n        /* \"#utility.yul\":14233:14243   */\n      gt\n        /* \"#utility.yul\":14230:14266   */\n      iszero\n      tag_422\n      jumpi\n        /* \"#utility.yul\":14246:14264   */\n      tag_423\n      tag_274\n      jump\t// in\n    tag_423:\n        /* \"#utility.yul\":14230:14266   */\n    tag_422:\n        /* \"#utility.yul\":14082:14273   */\n      swap3\n      swap2\n      pop\n      pop\n      jump\t// out\n        /* \"#utility.yul\":14279:14473   */\n    tag_142:\n        /* \"#utility.yul\":14319:14323   */\n      0x00\n        /* \"#utility.yul\":14339:14359   */\n      tag_425\n        /* \"#utility.yul\":14357:14358   */\n      dup3\n        /* \"#utility.yul\":14339:14359   */\n      tag_233\n      jump\t// in\n    tag_425:\n        /* \"#utility.yul\":14334:14359   */\n      swap2\n      pop\n        /* \"#utility.yul\":14373:14393   */\n      tag_426\n        /* \"#utility.yul\":14391:14392   */\n      dup4\n        /* \"#utility.yul\":14373:14393   */\n      tag_233\n      jump\t// in\n    tag_426:\n        /* \"#utility.yul\":14368:14393   */\n      swap3\n      pop\n        /* \"#utility.yul\":14417:14418   */\n      dup3\n        /* \"#utility.yul\":14414:14415   */\n      dup3\n        /* \"#utility.yul\":14410:14419   */\n      sub\n        /* \"#utility.yul\":14402:14419   */\n      swap1\n      pop\n        /* \"#utility.yul\":14441:14442   */\n      dup2\n        /* \"#utility.yul\":14435:14439   */\n      dup2\n        /* \"#utility.yul\":14432:14443   */\n      gt\n        /* \"#utility.yul\":14429:14466   */\n      iszero\n      tag_427\n      jumpi\n        /* \"#utility.yul\":14446:14464   */\n      tag_428\n      tag_274\n      jump\t// in\n    tag_428:\n        /* \"#utility.yul\":14429:14466   */\n    tag_427:\n        /* \"#utility.yul\":14279:14473   */\n      swap3\n      swap2\n      pop\n      pop\n      jump\t// out\n        /* \"#utility.yul\":14479:14659   */\n    tag_275:\n        /* \"#utility.yul\":14527:14604   */\n      0x4e487b7100000000000000000000000000000000000000000000000000000000\n        /* \"#utility.yul\":14524:14525   */\n      0x00\n        /* \"#utility.yul\":14517:14605   */\n      mstore\n        /* \"#utility.yul\":14624:14628   */\n      0x12\n        /* \"#utility.yul\":14621:14622   */\n      0x04\n        /* \"#utility.yul\":14614:14629   */\n      mstore\n        /* \"#utility.yul\":14648:14652   */\n      0x24\n        /* \"#utility.yul\":14645:14646   */\n      0x00\n        /* \"#utility.yul\":14638:14653   */\n      revert\n        /* \"#utility.yul\":14665:14850   */\n    tag_145:\n        /* \"#utility.yul\":14705:14706   */\n      0x00\n        /* \"#utility.yul\":14722:14742   */\n      tag_431\n        /* \"#utility.yul\":14740:14741   */\n      dup3\n        /* \"#utility.yul\":14722:14742   */\n      tag_233\n      jump\t// in\n    tag_431:\n        /* \"#utility.yul\":14717:14742   */\n      swap2\n      pop\n        /* \"#utility.yul\":14756:14776   */\n      tag_432\n        /* \"#utility.yul\":14774:14775   */\n      dup4\n        /* \"#utility.yul\":14756:14776   */\n      tag_233\n      jump\t// in\n    tag_432:\n        /* \"#utility.yul\":14751:14776   */\n      swap3\n      pop\n        /* \"#utility.yul\":14795:14796   */\n      dup3\n        /* \"#utility.yul\":14785:14820   */\n      tag_433\n      jumpi\n        /* \"#utility.yul\":14800:14818   */\n      tag_434\n      tag_275\n      jump\t// in\n    tag_434:\n        /* \"#utility.yul\":14785:14820   */\n    tag_433:\n        /* \"#utility.yul\":14842:14843   */\n      dup3\n        /* \"#utility.yul\":14839:14840   */\n      dup3\n        /* \"#utility.yul\":14835:14844   */\n      div\n        /* \"#utility.yul\":14830:14844   */\n      swap1\n      pop\n        /* \"#utility.yul\":14665:14850   */\n      swap3\n      swap2\n      pop\n      pop\n      jump\t// out\n        /* \"#utility.yul\":14856:15266   */\n    tag_147:\n        /* \"#utility.yul\":14896:14903   */\n      0x00\n        /* \"#utility.yul\":14919:14939   */\n      tag_436\n        /* \"#utility.yul\":14937:14938   */\n      dup3\n        /* \"#utility.yul\":14919:14939   */\n      tag_233\n      jump\t// in\n    tag_436:\n        /* \"#utility.yul\":14914:14939   */\n      swap2\n      pop\n        /* \"#utility.yul\":14953:14973   */\n      tag_437\n        /* \"#utility.yul\":14971:14972   */\n      dup4\n        /* \"#utility.yul\":14953:14973   */\n      tag_233\n      jump\t// in\n    tag_437:\n        /* \"#utility.yul\":14948:14973   */\n      swap3\n      pop\n        /* \"#utility.yul\":15008:15009   */\n      dup3\n        /* \"#utility.yul\":15005:15006   */\n      dup3\n        /* \"#utility.yul\":15001:15010   */\n      mul\n        /* \"#utility.yul\":15030:15060   */\n      tag_438\n        /* \"#utility.yul\":15048:15059   */\n      dup2\n        /* \"#utility.yul\":15030:15060   */\n      tag_233\n      jump\t// in\n    tag_438:\n        /* \"#utility.yul\":15019:15060   */\n      swap2\n      pop\n        /* \"#utility.yul\":15209:15210   */\n      dup3\n        /* \"#utility.yul\":15200:15207   */\n      dup3\n        /* \"#utility.yul\":15196:15211   */\n      div\n        /* \"#utility.yul\":15193:15194   */\n      dup5\n        /* \"#utility.yul\":15190:15212   */\n      eq\n        /* \"#utility.yul\":15170:15171   */\n      dup4\n        /* \"#utility.yul\":15163:15172   */\n      iszero\n        /* \"#utility.yul\":15143:15226   */\n      or\n        /* \"#utility.yul\":15120:15259   */\n      tag_439\n      jumpi\n        /* \"#utility.yul\":15239:15257   */\n      tag_440\n      tag_274\n      jump\t// in\n    tag_440:\n        /* \"#utility.yul\":15120:15259   */\n    tag_439:\n        /* \"#utility.yul\":14904:15266   */\n      pop\n        /* \"#utility.yul\":14856:15266   */\n      swap3\n      swap2\n      pop\n      pop\n      jump\t// out\n        /* \"#utility.yul\":15272:15445   */\n    tag_276:\n        /* \"#utility.yul\":15412:15437   */\n      0x74616e616d616e20746964616b20646974656d756b616e000000000000000000\n        /* \"#utility.yul\":15408:15409   */\n      0x00\n        /* \"#utility.yul\":15400:15406   */\n      dup3\n        /* \"#utility.yul\":15396:15410   */\n      add\n        /* \"#utility.yul\":15389:15438   */\n      mstore\n        /* \"#utility.yul\":15272:15445   */\n      pop\n      jump\t// out\n        /* \"#utility.yul\":15451:15817   */\n    tag_277:\n        /* \"#utility.yul\":15593:15596   */\n      0x00\n        /* \"#utility.yul\":15614:15681   */\n      tag_443\n        /* \"#utility.yul\":15678:15680   */\n      0x17\n        /* \"#utility.yul\":15673:15676   */\n      dup4\n        /* \"#utility.yul\":15614:15681   */\n      tag_264\n      jump\t// in\n    tag_443:\n        /* \"#utility.yul\":15607:15681   */\n      swap2\n      pop\n        /* \"#utility.yul\":15690:15783   */\n      tag_444\n        /* \"#utility.yul\":15779:15782   */\n      dup3\n        /* \"#utility.yul\":15690:15783   */\n      tag_276\n      jump\t// in\n    tag_444:\n        /* \"#utility.yul\":15808:15810   */\n      0x20\n        /* \"#utility.yul\":15803:15806   */\n      dup3\n        /* \"#utility.yul\":15799:15811   */\n      add\n        /* \"#utility.yul\":15792:15811   */\n      swap1\n      pop\n        /* \"#utility.yul\":15451:15817   */\n      swap2\n      swap1\n      pop\n      jump\t// out\n        /* \"#utility.yul\":15823:16242   */\n    tag_156:\n        /* \"#utility.yul\":15989:15993   */\n      0x00\n        /* \"#utility.yul\":16027:16029   */\n      0x20\n        /* \"#utility.yul\":16016:16025   */\n      dup3\n        /* \"#utility.yul\":16012:16030   */\n      add\n        /* \"#utility.yul\":16004:16030   */\n      swap1\n      pop\n        /* \"#utility.yul\":16076:16085   */\n      dup2\n        /* \"#utility.yul\":16070:16074   */\n      dup2\n        /* \"#utility.yul\":16066:16086   */\n      sub\n        /* \"#utility.yul\":16062:16063   */\n      0x00\n        /* \"#utility.yul\":16051:16060   */\n      dup4\n        /* \"#utility.yul\":16047:16064   */\n      add\n        /* \"#utility.yul\":16040:16087   */\n      mstore\n        /* \"#utility.yul\":16104:16235   */\n      tag_446\n        /* \"#utility.yul\":16230:16234   */\n      dup2\n        /* \"#utility.yul\":16104:16235   */\n      tag_277\n      jump\t// in\n    tag_446:\n        /* \"#utility.yul\":16096:16235   */\n      swap1\n      pop\n        /* \"#utility.yul\":15823:16242   */\n      swap2\n      swap1\n      pop\n      jump\t// out\n        /* \"#utility.yul\":16248:16416   */\n    tag_278:\n        /* \"#utility.yul\":16388:16408   */\n      0x54616e616d616e207375646168206d6174690000000000000000000000000000\n        /* \"#utility.yul\":16384:16385   */\n      0x00\n        /* \"#utility.yul\":16376:16382   */\n      dup3\n        /* \"#utility.yul\":16372:16386   */\n      add\n        /* \"#utility.yul\":16365:16409   */\n      mstore\n        /* \"#utility.yul\":16248:16416   */\n      pop\n      jump\t// out\n        /* \"#utility.yul\":16422:16788   */\n    tag_279:\n        /* \"#utility.yul\":16564:16567   */\n      0x00\n        /* \"#utility.yul\":16585:16652   */\n      tag_449\n        /* \"#utility.yul\":16649:16651   */\n      0x12\n        /* \"#utility.yul\":16644:16647   */\n      dup4\n        /* \"#utility.yul\":16585:16652   */\n      tag_264\n      jump\t// in\n    tag_449:\n        /* \"#utility.yul\":16578:16652   */\n      swap2\n      pop\n        /* \"#utility.yul\":16661:16754   */\n      tag_450\n        /* \"#utility.yul\":16750:16753   */\n      dup3\n        /* \"#utility.yul\":16661:16754   */\n      tag_278\n      jump\t// in\n    tag_450:\n        /* \"#utility.yul\":16779:16781   */\n      0x20\n        /* \"#utility.yul\":16774:16777   */\n      dup3\n        /* \"#utility.yul\":16770:16782   */\n      add\n        /* \"#utility.yul\":16763:16782   */\n      swap1\n      pop\n        /* \"#utility.yul\":16422:16788   */\n      swap2\n      swap1\n      pop\n      jump\t// out\n        /* \"#utility.yul\":16794:17213   */\n    tag_159:\n        /* \"#utility.yul\":16960:16964   */\n      0x00\n        /* \"#utility.yul\":16998:17000   */\n      0x20\n        /* \"#utility.yul\":16987:16996   */\n      dup3\n        /* \"#utility.yul\":16983:17001   */\n      add\n        /* \"#utility.yul\":16975:17001   */\n      swap1\n      pop\n        /* \"#utility.yul\":17047:17056   */\n      dup2\n        /* \"#utility.yul\":17041:17045   */\n      dup2\n        /* \"#utility.yul\":17037:17057   */\n      sub\n        /* \"#utility.yul\":17033:17034   */\n      0x00\n        /* \"#utility.yul\":17022:17031   */\n      dup4\n        /* \"#utility.yul\":17018:17035   */\n      add\n        /* \"#utility.yul\":17011:17058   */\n      mstore\n        /* \"#utility.yul\":17075:17206   */\n      tag_452\n        /* \"#utility.yul\":17201:17205   */\n      dup2\n        /* \"#utility.yul\":17075:17206   */\n      tag_279\n      jump\t// in\n    tag_452:\n        /* \"#utility.yul\":17067:17206   */\n      swap1\n      pop\n        /* \"#utility.yul\":16794:17213   */\n      swap2\n      swap1\n      pop\n      jump\t// out\n        /* \"#utility.yul\":17219:17459   */\n    tag_189:\n        /* \"#utility.yul\":17321:17325   */\n      0x00\n        /* \"#utility.yul\":17359:17361   */\n      0x20\n        /* \"#utility.yul\":17348:17357   */\n      dup3\n        /* \"#utility.yul\":17344:17362   */\n      add\n        /* \"#utility.yul\":17336:17362   */\n      swap1\n      pop\n        /* \"#utility.yul\":17372:17452   */\n      tag_454\n        /* \"#utility.yul\":17449:17450   */\n      0x00\n        /* \"#utility.yul\":17438:17447   */\n      dup4\n        /* \"#utility.yul\":17434:17451   */\n      add\n        /* \"#utility.yul\":17425:17431   */\n      dup5\n        /* \"#utility.yul\":17372:17452   */\n      tag_255\n      jump\t// in\n    tag_454:\n        /* \"#utility.yul\":17219:17459   */\n      swap3\n      swap2\n      pop\n      pop\n      jump\t// out\n        /* \"#utility.yul\":17465:17643   */\n    tag_280:\n        /* \"#utility.yul\":17605:17635   */\n      0x74616e616d616e20696e692062756b616e206d696c696b206b616d7500000000\n        /* \"#utility.yul\":17601:17602   */\n      0x00\n        /* \"#utility.yul\":17593:17599   */\n      dup3\n        /* \"#utility.yul\":17589:17603   */\n      add\n        /* \"#utility.yul\":17582:17636   */\n      mstore\n        /* \"#utility.yul\":17465:17643   */\n      pop\n      jump\t// out\n        /* \"#utility.yul\":17649:18015   */\n    tag_281:\n        /* \"#utility.yul\":17791:17794   */\n      0x00\n        /* \"#utility.yul\":17812:17879   */\n      tag_457\n        /* \"#utility.yul\":17876:17878   */\n      0x1c\n        /* \"#utility.yul\":17871:17874   */\n      dup4\n        /* \"#utility.yul\":17812:17879   */\n      tag_264\n      jump\t// in\n    tag_457:\n        /* \"#utility.yul\":17805:17879   */\n      swap2\n      pop\n        /* \"#utility.yul\":17888:17981   */\n      tag_458\n        /* \"#utility.yul\":17977:17980   */\n      dup3\n        /* \"#utility.yul\":17888:17981   */\n      tag_280\n      jump\t// in\n    tag_458:\n        /* \"#utility.yul\":18006:18008   */\n      0x20\n        /* \"#utility.yul\":18001:18004   */\n      dup3\n        /* \"#utility.yul\":17997:18009   */\n      add\n        /* \"#utility.yul\":17990:18009   */\n      swap1\n      pop\n        /* \"#utility.yul\":17649:18015   */\n      swap2\n      swap1\n      pop\n      jump\t// out\n        /* \"#utility.yul\":18021:18440   */\n    tag_195:\n        /* \"#utility.yul\":18187:18191   */\n      0x00\n        /* \"#utility.yul\":18225:18227   */\n      0x20\n        /* \"#utility.yul\":18214:18223   */\n      dup3\n        /* \"#utility.yul\":18210:18228   */\n      add\n        /* \"#utility.yul\":18202:18228   */\n      swap1\n      pop\n        /* \"#utility.yul\":18274:18283   */\n      dup2\n        /* \"#utility.yul\":18268:18272   */\n      dup2\n        /* \"#utility.yul\":18264:18284   */\n      sub\n        /* \"#utility.yul\":18260:18261   */\n      0x00\n        /* \"#utility.yul\":18249:18258   */\n      dup4\n        /* \"#utility.yul\":18245:18262   */\n      add\n        /* \"#utility.yul\":18238:18285   */\n      mstore\n        /* \"#utility.yul\":18302:18433   */\n      tag_460\n        /* \"#utility.yul\":18428:18432   */\n      dup2\n        /* \"#utility.yul\":18302:18433   */\n      tag_281\n      jump\t// in\n    tag_460:\n        /* \"#utility.yul\":18294:18433   */\n      swap1\n      pop\n        /* \"#utility.yul\":18021:18440   */\n      swap2\n      swap1\n      pop\n      jump\t// out\n        /* \"#utility.yul\":18446:18614   */\n    tag_282:\n        /* \"#utility.yul\":18586:18606   */\n      0x74616e616d616e207375646168206d6174690000000000000000000000000000\n        /* \"#utility.yul\":18582:18583   */\n      0x00\n        /* \"#utility.yul\":18574:18580   */\n      dup3\n        /* \"#utility.yul\":18570:18584   */\n      add\n        /* \"#utility.yul\":18563:18607   */\n      mstore\n        /* \"#utility.yul\":18446:18614   */\n      pop\n      jump\t// out\n        /* \"#utility.yul\":18620:18986   */\n    tag_283:\n        /* \"#utility.yul\":18762:18765   */\n      0x00\n        /* \"#utility.yul\":18783:18850   */\n      tag_463\n        /* \"#utility.yul\":18847:18849   */\n      0x12\n        /* \"#utility.yul\":18842:18845   */\n      dup4\n        /* \"#utility.yul\":18783:18850   */\n      tag_264\n      jump\t// in\n    tag_463:\n        /* \"#utility.yul\":18776:18850   */\n      swap2\n      pop\n        /* \"#utility.yul\":18859:18952   */\n      tag_464\n        /* \"#utility.yul\":18948:18951   */\n      dup3\n        /* \"#utility.yul\":18859:18952   */\n      tag_282\n      jump\t// in\n    tag_464:\n        /* \"#utility.yul\":18977:18979   */\n      0x20\n        /* \"#utility.yul\":18972:18975   */\n      dup3\n        /* \"#utility.yul\":18968:18980   */\n      add\n        /* \"#utility.yul\":18961:18980   */\n      swap1\n      pop\n        /* \"#utility.yul\":18620:18986   */\n      swap2\n      swap1\n      pop\n      jump\t// out\n        /* \"#utility.yul\":18992:19411   */\n    tag_198:\n        /* \"#utility.yul\":19158:19162   */\n      0x00\n        /* \"#utility.yul\":19196:19198   */\n      0x20\n        /* \"#utility.yul\":19185:19194   */\n      dup3\n        /* \"#utility.yul\":19181:19199   */\n      add\n        /* \"#utility.yul\":19173:19199   */\n      swap1\n      pop\n        /* \"#utility.yul\":19245:19254   */\n      dup2\n        /* \"#utility.yul\":19239:19243   */\n      dup2\n        /* \"#utility.yul\":19235:19255   */\n      sub\n        /* \"#utility.yul\":19231:19232   */\n      0x00\n        /* \"#utility.yul\":19220:19229   */\n      dup4\n        /* \"#utility.yul\":19216:19233   */\n      add\n        /* \"#utility.yul\":19209:19256   */\n      mstore\n        /* \"#utility.yul\":19273:19404   */\n      tag_466\n        /* \"#utility.yul\":19399:19403   */\n      dup2\n        /* \"#utility.yul\":19273:19404   */\n      tag_283\n      jump\t// in\n    tag_466:\n        /* \"#utility.yul\":19265:19404   */\n      swap1\n      pop\n        /* \"#utility.yul\":18992:19411   */\n      swap2\n      swap1\n      pop\n      jump\t// out\n        /* \"#utility.yul\":19417:19586   */\n    tag_284:\n        /* \"#utility.yul\":19557:19578   */\n      0x54616e616d616e2062656c756d206d656b617200000000000000000000000000\n        /* \"#utility.yul\":19553:19554   */\n      0x00\n        /* \"#utility.yul\":19545:19551   */\n      dup3\n        /* \"#utility.yul\":19541:19555   */\n      add\n        /* \"#utility.yul\":19534:19579   */\n      mstore\n        /* \"#utility.yul\":19417:19586   */\n      pop\n      jump\t// out\n        /* \"#utility.yul\":19592:19958   */\n    tag_285:\n        /* \"#utility.yul\":19734:19737   */\n      0x00\n        /* \"#utility.yul\":19755:19822   */\n      tag_469\n        /* \"#utility.yul\":19819:19821   */\n      0x13\n        /* \"#utility.yul\":19814:19817   */\n      dup4\n        /* \"#utility.yul\":19755:19822   */\n      tag_264\n      jump\t// in\n    tag_469:\n        /* \"#utility.yul\":19748:19822   */\n      swap2\n      pop\n        /* \"#utility.yul\":19831:19924   */\n      tag_470\n        /* \"#utility.yul\":19920:19923   */\n      dup3\n        /* \"#utility.yul\":19831:19924   */\n      tag_284\n      jump\t// in\n    tag_470:\n        /* \"#utility.yul\":19949:19951   */\n      0x20\n        /* \"#utility.yul\":19944:19947   */\n      dup3\n        /* \"#utility.yul\":19940:19952   */\n      add\n        /* \"#utility.yul\":19933:19952   */\n      swap1\n      pop\n        /* \"#utility.yul\":19592:19958   */\n      swap2\n      swap1\n      pop\n      jump\t// out\n        /* \"#utility.yul\":19964:20383   */\n    tag_206:\n        /* \"#utility.yul\":20130:20134   */\n      0x00\n        /* \"#utility.yul\":20168:20170   */\n      0x20\n        /* \"#utility.yul\":20157:20166   */\n      dup3\n        /* \"#utility.yul\":20153:20171   */\n      add\n        /* \"#utility.yul\":20145:20171   */\n      swap1\n      pop\n        /* \"#utility.yul\":20217:20226   */\n      dup2\n        /* \"#utility.yul\":20211:20215   */\n      dup2\n        /* \"#utility.yul\":20207:20227   */\n      sub\n        /* \"#utility.yul\":20203:20204   */\n      0x00\n        /* \"#utility.yul\":20192:20201   */\n      dup4\n        /* \"#utility.yul\":20188:20205   */\n      add\n        /* \"#utility.yul\":20181:20228   */\n      mstore\n        /* \"#utility.yul\":20245:20376   */\n      tag_472\n        /* \"#utility.yul\":20371:20375   */\n      dup2\n        /* \"#utility.yul\":20245:20376   */\n      tag_285\n      jump\t// in\n    tag_472:\n        /* \"#utility.yul\":20237:20376   */\n      swap1\n      pop\n        /* \"#utility.yul\":19964:20383   */\n      swap2\n      swap1\n      pop\n      jump\t// out\n        /* \"#utility.yul\":20389:20564   */\n    tag_286:\n        /* \"#utility.yul\":20529:20556   */\n      0x53616c646f206b6f6e7472616b20746964616b2063756b757000000000000000\n        /* \"#utility.yul\":20525:20526   */\n      0x00\n        /* \"#utility.yul\":20517:20523   */\n      dup3\n        /* \"#utility.yul\":20513:20527   */\n      add\n        /* \"#utility.yul\":20506:20557   */\n      mstore\n        /* \"#utility.yul\":20389:20564   */\n      pop\n      jump\t// out\n        /* \"#utility.yul\":20570:20936   */\n    tag_287:\n        /* \"#utility.yul\":20712:20715   */\n      0x00\n        /* \"#utility.yul\":20733:20800   */\n      tag_475\n        /* \"#utility.yul\":20797:20799   */\n      0x19\n        /* \"#utility.yul\":20792:20795   */\n      dup4\n        /* \"#utility.yul\":20733:20800   */\n      tag_264\n      jump\t// in\n    tag_475:\n        /* \"#utility.yul\":20726:20800   */\n      swap2\n      pop\n        /* \"#utility.yul\":20809:20902   */\n      tag_476\n        /* \"#utility.yul\":20898:20901   */\n      dup3\n        /* \"#utility.yul\":20809:20902   */\n      tag_286\n      jump\t// in\n    tag_476:\n        /* \"#utility.yul\":20927:20929   */\n      0x20\n        /* \"#utility.yul\":20922:20925   */\n      dup3\n        /* \"#utility.yul\":20918:20930   */\n      add\n        /* \"#utility.yul\":20911:20930   */\n      swap1\n      pop\n        /* \"#utility.yul\":20570:20936   */\n      swap2\n      swap1\n      pop\n      jump\t// out\n        /* \"#utility.yul\":20942:21361   */\n    tag_210:\n        /* \"#utility.yul\":21108:21112   */\n      0x00\n        /* \"#utility.yul\":21146:21148   */\n      0x20\n        /* \"#utility.yul\":21135:21144   */\n      dup3\n        /* \"#utility.yul\":21131:21149   */\n      add\n        /* \"#utility.yul\":21123:21149   */\n      swap1\n      pop\n        /* \"#utility.yul\":21195:21204   */\n      dup2\n        /* \"#utility.yul\":21189:21193   */\n      dup2\n        /* \"#utility.yul\":21185:21205   */\n      sub\n        /* \"#utility.yul\":21181:21182   */\n      0x00\n        /* \"#utility.yul\":21170:21179   */\n      dup4\n        /* \"#utility.yul\":21166:21183   */\n      add\n        /* \"#utility.yul\":21159:21206   */\n      mstore\n        /* \"#utility.yul\":21223:21354   */\n      tag_478\n        /* \"#utility.yul\":21349:21353   */\n      dup2\n        /* \"#utility.yul\":21223:21354   */\n      tag_287\n      jump\t// in\n    tag_478:\n        /* \"#utility.yul\":21215:21354   */\n      swap1\n      pop\n        /* \"#utility.yul\":20942:21361   */\n      swap2\n      swap1\n      pop\n      jump\t// out\n        /* \"#utility.yul\":21367:21538   */\n    tag_288:\n        /* \"#utility.yul\":21507:21530   */\n      0x5472616e736665722072657761726420676167616c0000000000000000000000\n        /* \"#utility.yul\":21503:21504   */\n      0x00\n        /* \"#utility.yul\":21495:21501   */\n      dup3\n        /* \"#utility.yul\":21491:21505   */\n      add\n        /* \"#utility.yul\":21484:21531   */\n      mstore\n        /* \"#utility.yul\":21367:21538   */\n      pop\n      jump\t// out\n        /* \"#utility.yul\":21544:21910   */\n    tag_289:\n        /* \"#utility.yul\":21686:21689   */\n      0x00\n        /* \"#utility.yul\":21707:21774   */\n      tag_481\n        /* \"#utility.yul\":21771:21773   */\n      0x15\n        /* \"#utility.yul\":21766:21769   */\n      dup4\n        /* \"#utility.yul\":21707:21774   */\n      tag_264\n      jump\t// in\n    tag_481:\n        /* \"#utility.yul\":21700:21774   */\n      swap2\n      pop\n        /* \"#utility.yul\":21783:21876   */\n      tag_482\n        /* \"#utility.yul\":21872:21875   */\n      dup3\n        /* \"#utility.yul\":21783:21876   */\n      tag_288\n      jump\t// in\n    tag_482:\n        /* \"#utility.yul\":21901:21903   */\n      0x20\n        /* \"#utility.yul\":21896:21899   */\n      dup3\n        /* \"#utility.yul\":21892:21904   */\n      add\n        /* \"#utility.yul\":21885:21904   */\n      swap1\n      pop\n        /* \"#utility.yul\":21544:21910   */\n      swap2\n      swap1\n      pop\n      jump\t// out\n        /* \"#utility.yul\":21916:22335   */\n    tag_217:\n        /* \"#utility.yul\":22082:22086   */\n      0x00\n        /* \"#utility.yul\":22120:22122   */\n      0x20\n        /* \"#utility.yul\":22109:22118   */\n      dup3\n        /* \"#utility.yul\":22105:22123   */\n      add\n        /* \"#utility.yul\":22097:22123   */\n      swap1\n      pop\n        /* \"#utility.yul\":22169:22178   */\n      dup2\n        /* \"#utility.yul\":22163:22167   */\n      dup2\n        /* \"#utility.yul\":22159:22179   */\n      sub\n        /* \"#utility.yul\":22155:22156   */\n      0x00\n        /* \"#utility.yul\":22144:22153   */\n      dup4\n        /* \"#utility.yul\":22140:22157   */\n      add\n        /* \"#utility.yul\":22133:22180   */\n      mstore\n        /* \"#utility.yul\":22197:22328   */\n      tag_484\n        /* \"#utility.yul\":22323:22327   */\n      dup2\n        /* \"#utility.yul\":22197:22328   */\n      tag_289\n      jump\t// in\n    tag_484:\n        /* \"#utility.yul\":22189:22328   */\n      swap1\n      pop\n        /* \"#utility.yul\":21916:22335   */\n      swap2\n      swap1\n      pop\n      jump\t// out\n\n    auxdata: 0xa264697066735822122009acd1736c6abea84749f3b640f6f121c59d821a8a0914d32159dbac8ec7ddbe64736f6c634300081e0033\n}\n",
				"bytecode": {
					"linkReferences": {},
					"object": "6080604052348015600e575f5ffd5b503360035f6101000a81548173ffffffffffffffffffffffffffffffffffffffff021916908373ffffffffffffffffffffffffffffffffffffffff160217905550611e198061005c5f395ff3fe608060405260043610610101575f3560e01c80638da5cb5b11610094578063bacb5ebd11610063578063bacb5ebd14610331578063cfc9a5f81461035b578063ddd4259614610385578063e38f8448146103ad578063ed0b1f5f146103d557610108565b80638da5cb5b146102725780638dd2361c1461029c5780639886bcfa146102df5780639c4717491461030757610108565b80635dba09bd116100d05780635dba09bd146101b257806374119a38146101dc578063754e150d146101fa5780638aee578b1461023657610108565b806312065fe01461010c57806330cec0eb146101365780633ccfd60b1461017257806351f9efde1461018857610108565b3661010857005b5f5ffd5b348015610117575f5ffd5b50610120610411565b60405161012d91906113e0565b60405180910390f35b348015610141575f5ffd5b5061015c60048036038101906101579190611457565b610418565b6040516101699190611539565b60405180910390f35b34801561017d575f5ffd5b506101866104ab565b005b348015610193575f5ffd5b5061019c61060d565b6040516101a991906113e0565b60405180910390f35b3480156101bd575f5ffd5b506101c6610612565b6040516101d391906113e0565b60405180910390f35b6101e4610617565b6040516101f191906113e0565b60405180910390f35b348015610205575f5ffd5b50610220600480360381019061021b9190611583565b610890565b60405161022d91906113e0565b60405180910390f35b348015610241575f5ffd5b5061025c600480360381019061025791906115ae565b610a5b565b60405161026991906113e0565b60405180910390f35b34801561027d575f5ffd5b50610286610a86565b60405161029391906115fb565b60405180910390f35b3480156102a7575f5ffd5b506102c260048036038101906102bd9190611583565b610aab565b6040516102d69897969594939291906116a1565b60405180910390f35b3480156102ea575f5ffd5b5061030560048036038101906103009190611583565b610b33565b005b348015610312575f5ffd5b5061031b610c50565b60405161032891906113e0565b60405180910390f35b34801561033c575f5ffd5b50610345610c56565b6040516103529190611738565b60405180910390f35b348015610366575f5ffd5b5061036f610c5b565b60405161037c91906113e0565b60405180910390f35b348015610390575f5ffd5b506103ab60048036038101906103a69190611583565b610c65565b005b3480156103b8575f5ffd5b506103d360048036038101906103ce9190611583565b610e56565b005b3480156103e0575f5ffd5b506103fb60048036038101906103f69190611583565b611194565b604051610408919061181e565b60405180910390f35b5f47905090565b606060015f8373ffffffffffffffffffffffffffffffffffffffff1673ffffffffffffffffffffffffffffffffffffffff1681526020019081526020015f2080548060200260200160405190810160405280929190818152602001828054801561049f57602002820191905f5260205f20905b81548152602001906001019080831161048b575b50505050509050919050565b60035f9054906101000a900473ffffffffffffffffffffffffffffffffffffffff1673ffffffffffffffffffffffffffffffffffffffff163373ffffffffffffffffffffffffffffffffffffffff161461053a576040517f08c379a000000000000000000000000000000000000000000000000000000000815260040161053190611892565b60405180910390fd5b5f60035f9054906101000a900473ffffffffffffffffffffffffffffffffffffffff1673ffffffffffffffffffffffffffffffffffffffff16660110d9316ec000604051610587906118dd565b5f6040518083038185875af1925050503d805f81146105c1576040519150601f19603f3d011682016040523d82523d5f602084013e6105c6565b606091505b505090508061060a576040517f08c379a00000000000000000000000000000000000000000000000000000000081526004016106019061193b565b60405180910390fd5b50565b603c81565b601e81565b5f6509184e72a000341015610661576040517f08c379a0000000000000000000000000000000000000000000000000000000008152600401610658906119a3565b60405180910390fd5b600160025f82825461067391906119ee565b925050819055505f60405180610100016040528060025481526020013373ffffffffffffffffffffffffffffffffffffffff1681526020015f60038111156106be576106bd611614565b5b8152602001428152602001428152602001606481526020016001151581526020015f15158152509050805f5f60025481526020019081526020015f205f820151815f01556020820151816001015f6101000a81548173ffffffffffffffffffffffffffffffffffffffff021916908373ffffffffffffffffffffffffffffffffffffffff16021790555060408201518160010160146101000a81548160ff0219169083600381111561077357610772611614565b5b0217905550606082015181600201556080820151816003015560a0820151816004015560c0820151816005015f6101000a81548160ff02191690831515021790555060e08201518160050160016101000a81548160ff02191690831515021790555090505060015f3373ffffffffffffffffffffffffffffffffffffffff1673ffffffffffffffffffffffffffffffffffffffff1681526020019081526020015f20815f0151908060018154018082558091505060019003905f5260205f20015f9091909190915055805f0151816020015173ffffffffffffffffffffffffffffffffffffffff167f4f5b22082ac57121703b0b6c1203ef527cfbfa5069616fee6deb979d124adbf060405160405180910390a360025491505090565b5f5f5f5f8481526020019081526020015f20604051806101000160405290815f8201548152602001600182015f9054906101000a900473ffffffffffffffffffffffffffffffffffffffff1673ffffffffffffffffffffffffffffffffffffffff1673ffffffffffffffffffffffffffffffffffffffff1681526020016001820160149054906101000a900460ff16600381111561093157610930611614565b5b600381111561094357610942611614565b5b8152602001600282015481526020016003820154815260200160048201548152602001600582015f9054906101000a900460ff161515151581526020016005820160019054906101000a900460ff1615151515815250509050600115158160e00151151514806109ba57505f15158160c001511515145b156109c8575f915050610a56565b806080015142116109e0578060a00151915050610a56565b5f8160800151426109f19190611a21565b9050601e811015610a0a578160a0015192505050610a56565b5f601e82610a189190611a81565b90505f600260ff1682610a2b9190611ab1565b9050808460a0015111610a3e575f610a4f565b808460a00151610a4e9190611a21565b5b9450505050505b919050565b6001602052815f5260405f208181548110610a74575f80fd5b905f5260205f20015f91509150505481565b60035f9054906101000a900473ffffffffffffffffffffffffffffffffffffffff1681565b5f602052805f5260405f205f91509050805f015490806001015f9054906101000a900473ffffffffffffffffffffffffffffffffffffffff16908060010160149054906101000a900460ff1690806002015490806003015490806004015490806005015f9054906101000a900460ff16908060050160019054906101000a900460ff16905088565b5f5f5f8381526020019081526020015f20905060011515816005015f9054906101000a900460ff16151514610b9d576040517f08c379a0000000000000000000000000000000000000000000000000000000008152600401610b9490611b3c565b60405180910390fd5b5f15158160050160019054906101000a900460ff16151514610bf4576040517f08c379a0000000000000000000000000000000000000000000000000000000008152600401610beb90611ba4565b60405180910390fd5b60648160040181905550428160030181905550817ffa682feb3090180eda377672ba020dae237bd124aee1085e233d47762b7e4e818260040154604051610c3b91906113e0565b60405180910390a2610c4c82610c65565b5050565b60025481565b600281565b6509184e72a00081565b5f5f5f8381526020019081526020015f20905060011515816005015f9054906101000a900460ff16151514610ccf576040517f08c379a0000000000000000000000000000000000000000000000000000000008152600401610cc690611b3c565b60405180910390fd5b610cd8826112df565b600115158160050160019054906101000a900460ff16151503610cfb5750610e53565b5f8160010160149054906101000a900460ff1690505f8190505f836002015442610d259190611a21565b90505f8110158015610d385750603c8111155b15610d45575f9150610dad565b603d8110158015610d57575060788111155b15610d655760019150610dac565b60798110158015610d77575060a08111155b15610d855760029150610dab565b60a18110158015610d97575060d28111155b15610da55760039150610daa565b600391505b5b5b5b816003811115610dc057610dbf611614565b5b836003811115610dd357610dd2611614565b5b14610e4e57818460010160146101000a81548160ff02191690836003811115610dff57610dfe611614565b5b0217905550847f338b8976706f9da67298dddfa1ea4ff7d99cce68b9ca39c4f348994f8e2124a88560010160149054906101000a900460ff16604051610e459190611bc2565b60405180910390a25b505050505b50565b5f5f5f8381526020019081526020015f20905060011515816005015f9054906101000a900460ff16151514610ec0576040517f08c379a0000000000000000000000000000000000000000000000000000000008152600401610eb790611b3c565b60405180910390fd5b806001015f9054906101000a900473ffffffffffffffffffffffffffffffffffffffff1673ffffffffffffffffffffffffffffffffffffffff163373ffffffffffffffffffffffffffffffffffffffff1614610f51576040517f08c379a0000000000000000000000000000000000000000000000000000000008152600401610f4890611c25565b60405180910390fd5b5f15158160050160019054906101000a900460ff16151514610fa8576040517f08c379a0000000000000000000000000000000000000000000000000000000008152600401610f9f90611c8d565b60405180910390fd5b610fb182610c65565b600380811115610fc457610fc3611614565b5b8160010160149054906101000a900460ff166003811115610fe857610fe7611614565b5b14611028576040517f08c379a000000000000000000000000000000000000000000000000000000000815260040161101f90611cf5565b60405180910390fd5b5f816005015f6101000a81548160ff0219169083151502179055503373ffffffffffffffffffffffffffffffffffffffff16827f79f2138ea100070ff95b59c265da7aa3c7a0f61595fe1bb2f5fda2762f398847651b48eb57e00060405161109091906113e0565b60405180910390a3651b48eb57e0004710156110e1576040517f08c379a00000000000000000000000000000000000000000000000000000000081526004016110d890611d5d565b60405180910390fd5b5f3373ffffffffffffffffffffffffffffffffffffffff16651b48eb57e00060405161110c906118dd565b5f6040518083038185875af1925050503d805f8114611146576040519150601f19603f3d011682016040523d82523d5f602084013e61114b565b606091505b505090508061118f576040517f08c379a000000000000000000000000000000000000000000000000000000000815260040161118690611dc5565b60405180910390fd5b505050565b61119c61135f565b5f5f5f8481526020019081526020015f20604051806101000160405290815f8201548152602001600182015f9054906101000a900473ffffffffffffffffffffffffffffffffffffffff1673ffffffffffffffffffffffffffffffffffffffff1673ffffffffffffffffffffffffffffffffffffffff1681526020016001820160149054906101000a900460ff16600381111561123c5761123b611614565b5b600381111561124e5761124d611614565b5b8152602001600282015481526020016003820154815260200160048201548152602001600582015f9054906101000a900460ff161515151581526020016005820160019054906101000a900460ff16151515158152505090506112b083610890565b8160a00181815250505f8160a00151036112d65760018160e00190151590811515815250505b80915050919050565b5f5f5f8381526020019081526020015f2090505f6112fc83610890565b90508082600401819055504282600301819055505f826004015414801561133757505f15158260050160019054906101000a900460ff161515145b1561135a5760018260050160016101000a81548160ff0219169083151502179055505b505050565b6040518061010001604052805f81526020015f73ffffffffffffffffffffffffffffffffffffffff1681526020015f60038111156113a05761139f611614565b5b81526020015f81526020015f81526020015f81526020015f151581526020015f151581525090565b5f819050919050565b6113da816113c8565b82525050565b5f6020820190506113f35f8301846113d1565b92915050565b5f5ffd5b5f73ffffffffffffffffffffffffffffffffffffffff82169050919050565b5f611426826113fd565b9050919050565b6114368161141c565b8114611440575f5ffd5b50565b5f813590506114518161142d565b92915050565b5f6020828403121561146c5761146b6113f9565b5b5f61147984828501611443565b91505092915050565b5f81519050919050565b5f82825260208201905092915050565b5f819050602082019050919050565b6114b4816113c8565b82525050565b5f6114c583836114ab565b60208301905092915050565b5f602082019050919050565b5f6114e782611482565b6114f1818561148c565b93506114fc8361149c565b805f5b8381101561152c57815161151388826114ba565b975061151e836114d1565b9250506001810190506114ff565b5085935050505092915050565b5f6020820190508181035f83015261155181846114dd565b905092915050565b611562816113c8565b811461156c575f5ffd5b50565b5f8135905061157d81611559565b92915050565b5f60208284031215611598576115976113f9565b5b5f6115a58482850161156f565b91505092915050565b5f5f604083850312156115c4576115c36113f9565b5b5f6115d185828601611443565b92505060206115e28582860161156f565b9150509250929050565b6115f58161141c565b82525050565b5f60208201905061160e5f8301846115ec565b92915050565b7f4e487b71000000000000000000000000000000000000000000000000000000005f52602160045260245ffd5b6004811061165257611651611614565b5b50565b5f81905061166282611641565b919050565b5f61167182611655565b9050919050565b61168181611667565b82525050565b5f8115159050919050565b61169b81611687565b82525050565b5f610100820190506116b55f83018b6113d1565b6116c2602083018a6115ec565b6116cf6040830189611678565b6116dc60608301886113d1565b6116e960808301876113d1565b6116f660a08301866113d1565b61170360c0830185611692565b61171060e0830184611692565b9998505050505050505050565b5f60ff82169050919050565b6117328161171d565b82525050565b5f60208201905061174b5f830184611729565b92915050565b61175a8161141c565b82525050565b61176981611667565b82525050565b61177881611687565b82525050565b61010082015f8201516117935f8501826114ab565b5060208201516117a66020850182611751565b5060408201516117b96040850182611760565b5060608201516117cc60608501826114ab565b5060808201516117df60808501826114ab565b5060a08201516117f260a08501826114ab565b5060c082015161180560c085018261176f565b5060e082015161181860e085018261176f565b50505050565b5f610100820190506118325f83018461177e565b92915050565b5f82825260208201905092915050565b7f42756b616e206f776e65720000000000000000000000000000000000000000005f82015250565b5f61187c600b83611838565b915061188782611848565b602082019050919050565b5f6020820190508181035f8301526118a981611870565b9050919050565b5f81905092915050565b50565b5f6118c85f836118b0565b91506118d3826118ba565b5f82019050919050565b5f6118e7826118bd565b9150819050919050565b7f5472616e7366657220676167616c0000000000000000000000000000000000005f82015250565b5f611925600e83611838565b9150611930826118f1565b602082019050919050565b5f6020820190508181035f83015261195281611919565b9050919050565b7f4d696e69756d20302e30303030312065746865720000000000000000000000005f82015250565b5f61198d601483611838565b915061199882611959565b602082019050919050565b5f6020820190508181035f8301526119ba81611981565b9050919050565b7f4e487b71000000000000000000000000000000000000000000000000000000005f52601160045260245ffd5b5f6119f8826113c8565b9150611a03836113c8565b9250828201905080821115611a1b57611a1a6119c1565b5b92915050565b5f611a2b826113c8565b9150611a36836113c8565b9250828203905081811115611a4e57611a4d6119c1565b5b92915050565b7f4e487b71000000000000000000000000000000000000000000000000000000005f52601260045260245ffd5b5f611a8b826113c8565b9150611a96836113c8565b925082611aa657611aa5611a54565b5b828204905092915050565b5f611abb826113c8565b9150611ac6836113c8565b9250828202611ad4816113c8565b91508282048414831517611aeb57611aea6119c1565b5b5092915050565b7f74616e616d616e20746964616b20646974656d756b616e0000000000000000005f82015250565b5f611b26601783611838565b9150611b3182611af2565b602082019050919050565b5f6020820190508181035f830152611b5381611b1a565b9050919050565b7f54616e616d616e207375646168206d61746900000000000000000000000000005f82015250565b5f611b8e601283611838565b9150611b9982611b5a565b602082019050919050565b5f6020820190508181035f830152611bbb81611b82565b9050919050565b5f602082019050611bd55f830184611678565b92915050565b7f74616e616d616e20696e692062756b616e206d696c696b206b616d75000000005f82015250565b5f611c0f601c83611838565b9150611c1a82611bdb565b602082019050919050565b5f6020820190508181035f830152611c3c81611c03565b9050919050565b7f74616e616d616e207375646168206d61746900000000000000000000000000005f82015250565b5f611c77601283611838565b9150611c8282611c43565b602082019050919050565b5f6020820190508181035f830152611ca481611c6b565b9050919050565b7f54616e616d616e2062656c756d206d656b6172000000000000000000000000005f82015250565b5f611cdf601383611838565b9150611cea82611cab565b602082019050919050565b5f6020820190508181035f830152611d0c81611cd3565b9050919050565b7f53616c646f206b6f6e7472616b20746964616b2063756b7570000000000000005f82015250565b5f611d47601983611838565b9150611d5282611d13565b602082019050919050565b5f6020820190508181035f830152611d7481611d3b565b9050919050565b7f5472616e736665722072657761726420676167616c00000000000000000000005f82015250565b5f611daf601583611838565b9150611dba82611d7b565b602082019050919050565b5f6020820190508181035f830152611ddc81611da3565b905091905056fea264697066735822122009acd1736c6abea84749f3b640f6f121c59d821a8a0914d32159dbac8ec7ddbe64736f6c634300081e0033",
					"opcodes": "PUSH1 0x80 PUSH1 0x40 MSTORE CALLVALUE DUP1 ISZERO PUSH1 0xE JUMPI PUSH0 PUSH0 REVERT JUMPDEST POP CALLER PUSH1 0x3 PUSH0 PUSH2 0x100 EXP DUP2 SLOAD DUP2 PUSH20 0xFFFFFFFFFFFFFFFFFFFFFFFFFFFFFFFFFFFFFFFF MUL NOT AND SWAP1 DUP4 PUSH20 0xFFFFFFFFFFFFFFFFFFFFFFFFFFFFFFFFFFFFFFFF AND MUL OR SWAP1 SSTORE POP PUSH2 0x1E19 DUP1 PUSH2 0x5C PUSH0 CODECOPY PUSH0 RETURN INVALID PUSH1 0x80 PUSH1 0x40 MSTORE PUSH1 0x4 CALLDATASIZE LT PUSH2 0x101 JUMPI PUSH0 CALLDATALOAD PUSH1 0xE0 SHR DUP1 PUSH4 0x8DA5CB5B GT PUSH2 0x94 JUMPI DUP1 PUSH4 0xBACB5EBD GT PUSH2 0x63 JUMPI DUP1 PUSH4 0xBACB5EBD EQ PUSH2 0x331 JUMPI DUP1 PUSH4 0xCFC9A5F8 EQ PUSH2 0x35B JUMPI DUP1 PUSH4 0xDDD42596 EQ PUSH2 0x385 JUMPI DUP1 PUSH4 0xE38F8448 EQ PUSH2 0x3AD JUMPI DUP1 PUSH4 0xED0B1F5F EQ PUSH2 0x3D5 JUMPI PUSH2 0x108 JUMP JUMPDEST DUP1 PUSH4 0x8DA5CB5B EQ PUSH2 0x272 JUMPI DUP1 PUSH4 0x8DD2361C EQ PUSH2 0x29C JUMPI DUP1 PUSH4 0x9886BCFA EQ PUSH2 0x2DF JUMPI DUP1 PUSH4 0x9C471749 EQ PUSH2 0x307 JUMPI PUSH2 0x108 JUMP JUMPDEST DUP1 PUSH4 0x5DBA09BD GT PUSH2 0xD0 JUMPI DUP1 PUSH4 0x5DBA09BD EQ PUSH2 0x1B2 JUMPI DUP1 PUSH4 0x74119A38 EQ PUSH2 0x1DC JUMPI DUP1 PUSH4 0x754E150D EQ PUSH2 0x1FA JUMPI DUP1 PUSH4 0x8AEE578B EQ PUSH2 0x236 JUMPI PUSH2 0x108 JUMP JUMPDEST DUP1 PUSH4 0x12065FE0 EQ PUSH2 0x10C JUMPI DUP1 PUSH4 0x30CEC0EB EQ PUSH2 0x136 JUMPI DUP1 PUSH4 0x3CCFD60B EQ PUSH2 0x172 JUMPI DUP1 PUSH4 0x51F9EFDE EQ PUSH2 0x188 JUMPI PUSH2 0x108 JUMP JUMPDEST CALLDATASIZE PUSH2 0x108 JUMPI STOP JUMPDEST PUSH0 PUSH0 REVERT JUMPDEST CALLVALUE DUP1 ISZERO PUSH2 0x117 JUMPI PUSH0 PUSH0 REVERT JUMPDEST POP PUSH2 0x120 PUSH2 0x411 JUMP JUMPDEST PUSH1 0x40 MLOAD PUSH2 0x12D SWAP2 SWAP1 PUSH2 0x13E0 JUMP JUMPDEST PUSH1 0x40 MLOAD DUP1 SWAP2 SUB SWAP1 RETURN JUMPDEST CALLVALUE DUP1 ISZERO PUSH2 0x141 JUMPI PUSH0 PUSH0 REVERT JUMPDEST POP PUSH2 0x15C PUSH1 0x4 DUP1 CALLDATASIZE SUB DUP2 ADD SWAP1 PUSH2 0x157 SWAP2 SWAP1 PUSH2 0x1457 JUMP JUMPDEST PUSH2 0x418 JUMP JUMPDEST PUSH1 0x40 MLOAD PUSH2 0x169 SWAP2 SWAP1 PUSH2 0x1539 JUMP JUMPDEST PUSH1 0x40 MLOAD DUP1 SWAP2 SUB SWAP1 RETURN JUMPDEST CALLVALUE DUP1 ISZERO PUSH2 0x17D JUMPI PUSH0 PUSH0 REVERT JUMPDEST POP PUSH2 0x186 PUSH2 0x4AB JUMP JUMPDEST STOP JUMPDEST CALLVALUE DUP1 ISZERO PUSH2 0x193 JUMPI PUSH0 PUSH0 REVERT JUMPDEST POP PUSH2 0x19C PUSH2 0x60D JUMP JUMPDEST PUSH1 0x40 MLOAD PUSH2 0x1A9 SWAP2 SWAP1 PUSH2 0x13E0 JUMP JUMPDEST PUSH1 0x40 MLOAD DUP1 SWAP2 SUB SWAP1 RETURN JUMPDEST CALLVALUE DUP1 ISZERO PUSH2 0x1BD JUMPI PUSH0 PUSH0 REVERT JUMPDEST POP PUSH2 0x1C6 PUSH2 0x612 JUMP JUMPDEST PUSH1 0x40 MLOAD PUSH2 0x1D3 SWAP2 SWAP1 PUSH2 0x13E0 JUMP JUMPDEST PUSH1 0x40 MLOAD DUP1 SWAP2 SUB SWAP1 RETURN JUMPDEST PUSH2 0x1E4 PUSH2 0x617 JUMP JUMPDEST PUSH1 0x40 MLOAD PUSH2 0x1F1 SWAP2 SWAP1 PUSH2 0x13E0 JUMP JUMPDEST PUSH1 0x40 MLOAD DUP1 SWAP2 SUB SWAP1 RETURN JUMPDEST CALLVALUE DUP1 ISZERO PUSH2 0x205 JUMPI PUSH0 PUSH0 REVERT JUMPDEST POP PUSH2 0x220 PUSH1 0x4 DUP1 CALLDATASIZE SUB DUP2 ADD SWAP1 PUSH2 0x21B SWAP2 SWAP1 PUSH2 0x1583 JUMP JUMPDEST PUSH2 0x890 JUMP JUMPDEST PUSH1 0x40 MLOAD PUSH2 0x22D SWAP2 SWAP1 PUSH2 0x13E0 JUMP JUMPDEST PUSH1 0x40 MLOAD DUP1 SWAP2 SUB SWAP1 RETURN JUMPDEST CALLVALUE DUP1 ISZERO PUSH2 0x241 JUMPI PUSH0 PUSH0 REVERT JUMPDEST POP PUSH2 0x25C PUSH1 0x4 DUP1 CALLDATASIZE SUB DUP2 ADD SWAP1 PUSH2 0x257 SWAP2 SWAP1 PUSH2 0x15AE JUMP JUMPDEST PUSH2 0xA5B JUMP JUMPDEST PUSH1 0x40 MLOAD PUSH2 0x269 SWAP2 SWAP1 PUSH2 0x13E0 JUMP JUMPDEST PUSH1 0x40 MLOAD DUP1 SWAP2 SUB SWAP1 RETURN JUMPDEST CALLVALUE DUP1 ISZERO PUSH2 0x27D JUMPI PUSH0 PUSH0 REVERT JUMPDEST POP PUSH2 0x286 PUSH2 0xA86 JUMP JUMPDEST PUSH1 0x40 MLOAD PUSH2 0x293 SWAP2 SWAP1 PUSH2 0x15FB JUMP JUMPDEST PUSH1 0x40 MLOAD DUP1 SWAP2 SUB SWAP1 RETURN JUMPDEST CALLVALUE DUP1 ISZERO PUSH2 0x2A7 JUMPI PUSH0 PUSH0 REVERT JUMPDEST POP PUSH2 0x2C2 PUSH1 0x4 DUP1 CALLDATASIZE SUB DUP2 ADD SWAP1 PUSH2 0x2BD SWAP2 SWAP1 PUSH2 0x1583 JUMP JUMPDEST PUSH2 0xAAB JUMP JUMPDEST PUSH1 0x40 MLOAD PUSH2 0x2D6 SWAP9 SWAP8 SWAP7 SWAP6 SWAP5 SWAP4 SWAP3 SWAP2 SWAP1 PUSH2 0x16A1 JUMP JUMPDEST PUSH1 0x40 MLOAD DUP1 SWAP2 SUB SWAP1 RETURN JUMPDEST CALLVALUE DUP1 ISZERO PUSH2 0x2EA JUMPI PUSH0 PUSH0 REVERT JUMPDEST POP PUSH2 0x305 PUSH1 0x4 DUP1 CALLDATASIZE SUB DUP2 ADD SWAP1 PUSH2 0x300 SWAP2 SWAP1 PUSH2 0x1583 JUMP JUMPDEST PUSH2 0xB33 JUMP JUMPDEST STOP JUMPDEST CALLVALUE DUP1 ISZERO PUSH2 0x312 JUMPI PUSH0 PUSH0 REVERT JUMPDEST POP PUSH2 0x31B PUSH2 0xC50 JUMP JUMPDEST PUSH1 0x40 MLOAD PUSH2 0x328 SWAP2 SWAP1 PUSH2 0x13E0 JUMP JUMPDEST PUSH1 0x40 MLOAD DUP1 SWAP2 SUB SWAP1 RETURN JUMPDEST CALLVALUE DUP1 ISZERO PUSH2 0x33C JUMPI PUSH0 PUSH0 REVERT JUMPDEST POP PUSH2 0x345 PUSH2 0xC56 JUMP JUMPDEST PUSH1 0x40 MLOAD PUSH2 0x352 SWAP2 SWAP1 PUSH2 0x1738 JUMP JUMPDEST PUSH1 0x40 MLOAD DUP1 SWAP2 SUB SWAP1 RETURN JUMPDEST CALLVALUE DUP1 ISZERO PUSH2 0x366 JUMPI PUSH0 PUSH0 REVERT JUMPDEST POP PUSH2 0x36F PUSH2 0xC5B JUMP JUMPDEST PUSH1 0x40 MLOAD PUSH2 0x37C SWAP2 SWAP1 PUSH2 0x13E0 JUMP JUMPDEST PUSH1 0x40 MLOAD DUP1 SWAP2 SUB SWAP1 RETURN JUMPDEST CALLVALUE DUP1 ISZERO PUSH2 0x390 JUMPI PUSH0 PUSH0 REVERT JUMPDEST POP PUSH2 0x3AB PUSH1 0x4 DUP1 CALLDATASIZE SUB DUP2 ADD SWAP1 PUSH2 0x3A6 SWAP2 SWAP1 PUSH2 0x1583 JUMP JUMPDEST PUSH2 0xC65 JUMP JUMPDEST STOP JUMPDEST CALLVALUE DUP1 ISZERO PUSH2 0x3B8 JUMPI PUSH0 PUSH0 REVERT JUMPDEST POP PUSH2 0x3D3 PUSH1 0x4 DUP1 CALLDATASIZE SUB DUP2 ADD SWAP1 PUSH2 0x3CE SWAP2 SWAP1 PUSH2 0x1583 JUMP JUMPDEST PUSH2 0xE56 JUMP JUMPDEST STOP JUMPDEST CALLVALUE DUP1 ISZERO PUSH2 0x3E0 JUMPI PUSH0 PUSH0 REVERT JUMPDEST POP PUSH2 0x3FB PUSH1 0x4 DUP1 CALLDATASIZE SUB DUP2 ADD SWAP1 PUSH2 0x3F6 SWAP2 SWAP1 PUSH2 0x1583 JUMP JUMPDEST PUSH2 0x1194 JUMP JUMPDEST PUSH1 0x40 MLOAD PUSH2 0x408 SWAP2 SWAP1 PUSH2 0x181E JUMP JUMPDEST PUSH1 0x40 MLOAD DUP1 SWAP2 SUB SWAP1 RETURN JUMPDEST PUSH0 SELFBALANCE SWAP1 POP SWAP1 JUMP JUMPDEST PUSH1 0x60 PUSH1 0x1 PUSH0 DUP4 PUSH20 0xFFFFFFFFFFFFFFFFFFFFFFFFFFFFFFFFFFFFFFFF AND PUSH20 0xFFFFFFFFFFFFFFFFFFFFFFFFFFFFFFFFFFFFFFFF AND DUP2 MSTORE PUSH1 0x20 ADD SWAP1 DUP2 MSTORE PUSH1 0x20 ADD PUSH0 KECCAK256 DUP1 SLOAD DUP1 PUSH1 0x20 MUL PUSH1 0x20 ADD PUSH1 0x40 MLOAD SWAP1 DUP2 ADD PUSH1 0x40 MSTORE DUP1 SWAP3 SWAP2 SWAP1 DUP2 DUP2 MSTORE PUSH1 0x20 ADD DUP3 DUP1 SLOAD DUP1 ISZERO PUSH2 0x49F JUMPI PUSH1 0x20 MUL DUP3 ADD SWAP2 SWAP1 PUSH0 MSTORE PUSH1 0x20 PUSH0 KECCAK256 SWAP1 JUMPDEST DUP2 SLOAD DUP2 MSTORE PUSH1 0x20 ADD SWAP1 PUSH1 0x1 ADD SWAP1 DUP1 DUP4 GT PUSH2 0x48B JUMPI JUMPDEST POP POP POP POP POP SWAP1 POP SWAP2 SWAP1 POP JUMP JUMPDEST PUSH1 0x3 PUSH0 SWAP1 SLOAD SWAP1 PUSH2 0x100 EXP SWAP1 DIV PUSH20 0xFFFFFFFFFFFFFFFFFFFFFFFFFFFFFFFFFFFFFFFF AND PUSH20 0xFFFFFFFFFFFFFFFFFFFFFFFFFFFFFFFFFFFFFFFF AND CALLER PUSH20 0xFFFFFFFFFFFFFFFFFFFFFFFFFFFFFFFFFFFFFFFF AND EQ PUSH2 0x53A JUMPI PUSH1 0x40 MLOAD PUSH32 0x8C379A000000000000000000000000000000000000000000000000000000000 DUP2 MSTORE PUSH1 0x4 ADD PUSH2 0x531 SWAP1 PUSH2 0x1892 JUMP JUMPDEST PUSH1 0x40 MLOAD DUP1 SWAP2 SUB SWAP1 REVERT JUMPDEST PUSH0 PUSH1 0x3 PUSH0 SWAP1 SLOAD SWAP1 PUSH2 0x100 EXP SWAP1 DIV PUSH20 0xFFFFFFFFFFFFFFFFFFFFFFFFFFFFFFFFFFFFFFFF AND PUSH20 0xFFFFFFFFFFFFFFFFFFFFFFFFFFFFFFFFFFFFFFFF AND PUSH7 0x110D9316EC000 PUSH1 0x40 MLOAD PUSH2 0x587 SWAP1 PUSH2 0x18DD JUMP JUMPDEST PUSH0 PUSH1 0x40 MLOAD DUP1 DUP4 SUB DUP2 DUP6 DUP8 GAS CALL SWAP3 POP POP POP RETURNDATASIZE DUP1 PUSH0 DUP2 EQ PUSH2 0x5C1 JUMPI PUSH1 0x40 MLOAD SWAP2 POP PUSH1 0x1F NOT PUSH1 0x3F RETURNDATASIZE ADD AND DUP3 ADD PUSH1 0x40 MSTORE RETURNDATASIZE DUP3 MSTORE RETURNDATASIZE PUSH0 PUSH1 0x20 DUP5 ADD RETURNDATACOPY PUSH2 0x5C6 JUMP JUMPDEST PUSH1 0x60 SWAP2 POP JUMPDEST POP POP SWAP1 POP DUP1 PUSH2 0x60A JUMPI PUSH1 0x40 MLOAD PUSH32 0x8C379A000000000000000000000000000000000000000000000000000000000 DUP2 MSTORE PUSH1 0x4 ADD PUSH2 0x601 SWAP1 PUSH2 0x193B JUMP JUMPDEST PUSH1 0x40 MLOAD DUP1 SWAP2 SUB SWAP1 REVERT JUMPDEST POP JUMP JUMPDEST PUSH1 0x3C DUP2 JUMP JUMPDEST PUSH1 0x1E DUP2 JUMP JUMPDEST PUSH0 PUSH6 0x9184E72A000 CALLVALUE LT ISZERO PUSH2 0x661 JUMPI PUSH1 0x40 MLOAD PUSH32 0x8C379A000000000000000000000000000000000000000000000000000000000 DUP2 MSTORE PUSH1 0x4 ADD PUSH2 0x658 SWAP1 PUSH2 0x19A3 JUMP JUMPDEST PUSH1 0x40 MLOAD DUP1 SWAP2 SUB SWAP1 REVERT JUMPDEST PUSH1 0x1 PUSH1 0x2 PUSH0 DUP3 DUP3 SLOAD PUSH2 0x673 SWAP2 SWAP1 PUSH2 0x19EE JUMP JUMPDEST SWAP3 POP POP DUP2 SWAP1 SSTORE POP PUSH0 PUSH1 0x40 MLOAD DUP1 PUSH2 0x100 ADD PUSH1 0x40 MSTORE DUP1 PUSH1 0x2 SLOAD DUP2 MSTORE PUSH1 0x20 ADD CALLER PUSH20 0xFFFFFFFFFFFFFFFFFFFFFFFFFFFFFFFFFFFFFFFF AND DUP2 MSTORE PUSH1 0x20 ADD PUSH0 PUSH1 0x3 DUP2 GT ISZERO PUSH2 0x6BE JUMPI PUSH2 0x6BD PUSH2 0x1614 JUMP JUMPDEST JUMPDEST DUP2 MSTORE PUSH1 0x20 ADD TIMESTAMP DUP2 MSTORE PUSH1 0x20 ADD TIMESTAMP DUP2 MSTORE PUSH1 0x20 ADD PUSH1 0x64 DUP2 MSTORE PUSH1 0x20 ADD PUSH1 0x1 ISZERO ISZERO DUP2 MSTORE PUSH1 0x20 ADD PUSH0 ISZERO ISZERO DUP2 MSTORE POP SWAP1 POP DUP1 PUSH0 PUSH0 PUSH1 0x2 SLOAD DUP2 MSTORE PUSH1 0x20 ADD SWAP1 DUP2 MSTORE PUSH1 0x20 ADD PUSH0 KECCAK256 PUSH0 DUP3 ADD MLOAD DUP2 PUSH0 ADD SSTORE PUSH1 0x20 DUP3 ADD MLOAD DUP2 PUSH1 0x1 ADD PUSH0 PUSH2 0x100 EXP DUP2 SLOAD DUP2 PUSH20 0xFFFFFFFFFFFFFFFFFFFFFFFFFFFFFFFFFFFFFFFF MUL NOT AND SWAP1 DUP4 PUSH20 0xFFFFFFFFFFFFFFFFFFFFFFFFFFFFFFFFFFFFFFFF AND MUL OR SWAP1 SSTORE POP PUSH1 0x40 DUP3 ADD MLOAD DUP2 PUSH1 0x1 ADD PUSH1 0x14 PUSH2 0x100 EXP DUP2 SLOAD DUP2 PUSH1 0xFF MUL NOT AND SWAP1 DUP4 PUSH1 0x3 DUP2 GT ISZERO PUSH2 0x773 JUMPI PUSH2 0x772 PUSH2 0x1614 JUMP JUMPDEST JUMPDEST MUL OR SWAP1 SSTORE POP PUSH1 0x60 DUP3 ADD MLOAD DUP2 PUSH1 0x2 ADD SSTORE PUSH1 0x80 DUP3 ADD MLOAD DUP2 PUSH1 0x3 ADD SSTORE PUSH1 0xA0 DUP3 ADD MLOAD DUP2 PUSH1 0x4 ADD SSTORE PUSH1 0xC0 DUP3 ADD MLOAD DUP2 PUSH1 0x5 ADD PUSH0 PUSH2 0x100 EXP DUP2 SLOAD DUP2 PUSH1 0xFF MUL NOT AND SWAP1 DUP4 ISZERO ISZERO MUL OR SWAP1 SSTORE POP PUSH1 0xE0 DUP3 ADD MLOAD DUP2 PUSH1 0x5 ADD PUSH1 0x1 PUSH2 0x100 EXP DUP2 SLOAD DUP2 PUSH1 0xFF MUL NOT AND SWAP1 DUP4 ISZERO ISZERO MUL OR SWAP1 SSTORE POP SWAP1 POP POP PUSH1 0x1 PUSH0 CALLER PUSH20 0xFFFFFFFFFFFFFFFFFFFFFFFFFFFFFFFFFFFFFFFF AND PUSH20 0xFFFFFFFFFFFFFFFFFFFFFFFFFFFFFFFFFFFFFFFF AND DUP2 MSTORE PUSH1 0x20 ADD SWAP1 DUP2 MSTORE PUSH1 0x20 ADD PUSH0 KECCAK256 DUP2 PUSH0 ADD MLOAD SWAP1 DUP1 PUSH1 0x1 DUP2 SLOAD ADD DUP1 DUP3 SSTORE DUP1 SWAP2 POP POP PUSH1 0x1 SWAP1 SUB SWAP1 PUSH0 MSTORE PUSH1 0x20 PUSH0 KECCAK256 ADD PUSH0 SWAP1 SWAP2 SWAP1 SWAP2 SWAP1 SWAP2 POP SSTORE DUP1 PUSH0 ADD MLOAD DUP2 PUSH1 0x20 ADD MLOAD PUSH20 0xFFFFFFFFFFFFFFFFFFFFFFFFFFFFFFFFFFFFFFFF AND PUSH32 0x4F5B22082AC57121703B0B6C1203EF527CFBFA5069616FEE6DEB979D124ADBF0 PUSH1 0x40 MLOAD PUSH1 0x40 MLOAD DUP1 SWAP2 SUB SWAP1 LOG3 PUSH1 0x2 SLOAD SWAP2 POP POP SWAP1 JUMP JUMPDEST PUSH0 PUSH0 PUSH0 PUSH0 DUP5 DUP2 MSTORE PUSH1 0x20 ADD SWAP1 DUP2 MSTORE PUSH1 0x20 ADD PUSH0 KECCAK256 PUSH1 0x40 MLOAD DUP1 PUSH2 0x100 ADD PUSH1 0x40 MSTORE SWAP1 DUP2 PUSH0 DUP3 ADD SLOAD DUP2 MSTORE PUSH1 0x20 ADD PUSH1 0x1 DUP3 ADD PUSH0 SWAP1 SLOAD SWAP1 PUSH2 0x100 EXP SWAP1 DIV PUSH20 0xFFFFFFFFFFFFFFFFFFFFFFFFFFFFFFFFFFFFFFFF AND PUSH20 0xFFFFFFFFFFFFFFFFFFFFFFFFFFFFFFFFFFFFFFFF AND PUSH20 0xFFFFFFFFFFFFFFFFFFFFFFFFFFFFFFFFFFFFFFFF AND DUP2 MSTORE PUSH1 0x20 ADD PUSH1 0x1 DUP3 ADD PUSH1 0x14 SWAP1 SLOAD SWAP1 PUSH2 0x100 EXP SWAP1 DIV PUSH1 0xFF AND PUSH1 0x3 DUP2 GT ISZERO PUSH2 0x931 JUMPI PUSH2 0x930 PUSH2 0x1614 JUMP JUMPDEST JUMPDEST PUSH1 0x3 DUP2 GT ISZERO PUSH2 0x943 JUMPI PUSH2 0x942 PUSH2 0x1614 JUMP JUMPDEST JUMPDEST DUP2 MSTORE PUSH1 0x20 ADD PUSH1 0x2 DUP3 ADD SLOAD DUP2 MSTORE PUSH1 0x20 ADD PUSH1 0x3 DUP3 ADD SLOAD DUP2 MSTORE PUSH1 0x20 ADD PUSH1 0x4 DUP3 ADD SLOAD DUP2 MSTORE PUSH1 0x20 ADD PUSH1 0x5 DUP3 ADD PUSH0 SWAP1 SLOAD SWAP1 PUSH2 0x100 EXP SWAP1 DIV PUSH1 0xFF AND ISZERO ISZERO ISZERO ISZERO DUP2 MSTORE PUSH1 0x20 ADD PUSH1 0x5 DUP3 ADD PUSH1 0x1 SWAP1 SLOAD SWAP1 PUSH2 0x100 EXP SWAP1 DIV PUSH1 0xFF AND ISZERO ISZERO ISZERO ISZERO DUP2 MSTORE POP POP SWAP1 POP PUSH1 0x1 ISZERO ISZERO DUP2 PUSH1 0xE0 ADD MLOAD ISZERO ISZERO EQ DUP1 PUSH2 0x9BA JUMPI POP PUSH0 ISZERO ISZERO DUP2 PUSH1 0xC0 ADD MLOAD ISZERO ISZERO EQ JUMPDEST ISZERO PUSH2 0x9C8 JUMPI PUSH0 SWAP2 POP POP PUSH2 0xA56 JUMP JUMPDEST DUP1 PUSH1 0x80 ADD MLOAD TIMESTAMP GT PUSH2 0x9E0 JUMPI DUP1 PUSH1 0xA0 ADD MLOAD SWAP2 POP POP PUSH2 0xA56 JUMP JUMPDEST PUSH0 DUP2 PUSH1 0x80 ADD MLOAD TIMESTAMP PUSH2 0x9F1 SWAP2 SWAP1 PUSH2 0x1A21 JUMP JUMPDEST SWAP1 POP PUSH1 0x1E DUP2 LT ISZERO PUSH2 0xA0A JUMPI DUP2 PUSH1 0xA0 ADD MLOAD SWAP3 POP POP POP PUSH2 0xA56 JUMP JUMPDEST PUSH0 PUSH1 0x1E DUP3 PUSH2 0xA18 SWAP2 SWAP1 PUSH2 0x1A81 JUMP JUMPDEST SWAP1 POP PUSH0 PUSH1 0x2 PUSH1 0xFF AND DUP3 PUSH2 0xA2B SWAP2 SWAP1 PUSH2 0x1AB1 JUMP JUMPDEST SWAP1 POP DUP1 DUP5 PUSH1 0xA0 ADD MLOAD GT PUSH2 0xA3E JUMPI PUSH0 PUSH2 0xA4F JUMP JUMPDEST DUP1 DUP5 PUSH1 0xA0 ADD MLOAD PUSH2 0xA4E SWAP2 SWAP1 PUSH2 0x1A21 JUMP JUMPDEST JUMPDEST SWAP5 POP POP POP POP POP JUMPDEST SWAP2 SWAP1 POP JUMP JUMPDEST PUSH1 0x1 PUSH1 0x20 MSTORE DUP2 PUSH0 MSTORE PUSH1 0x40 PUSH0 KECCAK256 DUP2 DUP2 SLOAD DUP2 LT PUSH2 0xA74 JUMPI PUSH0 DUP1 REVERT JUMPDEST SWAP1 PUSH0 MSTORE PUSH1 0x20 PUSH0 KECCAK256 ADD PUSH0 SWAP2 POP SWAP2 POP POP SLOAD DUP2 JUMP JUMPDEST PUSH1 0x3 PUSH0 SWAP1 SLOAD SWAP1 PUSH2 0x100 EXP SWAP1 DIV PUSH20 0xFFFFFFFFFFFFFFFFFFFFFFFFFFFFFFFFFFFFFFFF AND DUP2 JUMP JUMPDEST PUSH0 PUSH1 0x20 MSTORE DUP1 PUSH0 MSTORE PUSH1 0x40 PUSH0 KECCAK256 PUSH0 SWAP2 POP SWAP1 POP DUP1 PUSH0 ADD SLOAD SWAP1 DUP1 PUSH1 0x1 ADD PUSH0 SWAP1 SLOAD SWAP1 PUSH2 0x100 EXP SWAP1 DIV PUSH20 0xFFFFFFFFFFFFFFFFFFFFFFFFFFFFFFFFFFFFFFFF AND SWAP1 DUP1 PUSH1 0x1 ADD PUSH1 0x14 SWAP1 SLOAD SWAP1 PUSH2 0x100 EXP SWAP1 DIV PUSH1 0xFF AND SWAP1 DUP1 PUSH1 0x2 ADD SLOAD SWAP1 DUP1 PUSH1 0x3 ADD SLOAD SWAP1 DUP1 PUSH1 0x4 ADD SLOAD SWAP1 DUP1 PUSH1 0x5 ADD PUSH0 SWAP1 SLOAD SWAP1 PUSH2 0x100 EXP SWAP1 DIV PUSH1 0xFF AND SWAP1 DUP1 PUSH1 0x5 ADD PUSH1 0x1 SWAP1 SLOAD SWAP1 PUSH2 0x100 EXP SWAP1 DIV PUSH1 0xFF AND SWAP1 POP DUP9 JUMP JUMPDEST PUSH0 PUSH0 PUSH0 DUP4 DUP2 MSTORE PUSH1 0x20 ADD SWAP1 DUP2 MSTORE PUSH1 0x20 ADD PUSH0 KECCAK256 SWAP1 POP PUSH1 0x1 ISZERO ISZERO DUP2 PUSH1 0x5 ADD PUSH0 SWAP1 SLOAD SWAP1 PUSH2 0x100 EXP SWAP1 DIV PUSH1 0xFF AND ISZERO ISZERO EQ PUSH2 0xB9D JUMPI PUSH1 0x40 MLOAD PUSH32 0x8C379A000000000000000000000000000000000000000000000000000000000 DUP2 MSTORE PUSH1 0x4 ADD PUSH2 0xB94 SWAP1 PUSH2 0x1B3C JUMP JUMPDEST PUSH1 0x40 MLOAD DUP1 SWAP2 SUB SWAP1 REVERT JUMPDEST PUSH0 ISZERO ISZERO DUP2 PUSH1 0x5 ADD PUSH1 0x1 SWAP1 SLOAD SWAP1 PUSH2 0x100 EXP SWAP1 DIV PUSH1 0xFF AND ISZERO ISZERO EQ PUSH2 0xBF4 JUMPI PUSH1 0x40 MLOAD PUSH32 0x8C379A000000000000000000000000000000000000000000000000000000000 DUP2 MSTORE PUSH1 0x4 ADD PUSH2 0xBEB SWAP1 PUSH2 0x1BA4 JUMP JUMPDEST PUSH1 0x40 MLOAD DUP1 SWAP2 SUB SWAP1 REVERT JUMPDEST PUSH1 0x64 DUP2 PUSH1 0x4 ADD DUP2 SWAP1 SSTORE POP TIMESTAMP DUP2 PUSH1 0x3 ADD DUP2 SWAP1 SSTORE POP DUP2 PUSH32 0xFA682FEB3090180EDA377672BA020DAE237BD124AEE1085E233D47762B7E4E81 DUP3 PUSH1 0x4 ADD SLOAD PUSH1 0x40 MLOAD PUSH2 0xC3B SWAP2 SWAP1 PUSH2 0x13E0 JUMP JUMPDEST PUSH1 0x40 MLOAD DUP1 SWAP2 SUB SWAP1 LOG2 PUSH2 0xC4C DUP3 PUSH2 0xC65 JUMP JUMPDEST POP POP JUMP JUMPDEST PUSH1 0x2 SLOAD DUP2 JUMP JUMPDEST PUSH1 0x2 DUP2 JUMP JUMPDEST PUSH6 0x9184E72A000 DUP2 JUMP JUMPDEST PUSH0 PUSH0 PUSH0 DUP4 DUP2 MSTORE PUSH1 0x20 ADD SWAP1 DUP2 MSTORE PUSH1 0x20 ADD PUSH0 KECCAK256 SWAP1 POP PUSH1 0x1 ISZERO ISZERO DUP2 PUSH1 0x5 ADD PUSH0 SWAP1 SLOAD SWAP1 PUSH2 0x100 EXP SWAP1 DIV PUSH1 0xFF AND ISZERO ISZERO EQ PUSH2 0xCCF JUMPI PUSH1 0x40 MLOAD PUSH32 0x8C379A000000000000000000000000000000000000000000000000000000000 DUP2 MSTORE PUSH1 0x4 ADD PUSH2 0xCC6 SWAP1 PUSH2 0x1B3C JUMP JUMPDEST PUSH1 0x40 MLOAD DUP1 SWAP2 SUB SWAP1 REVERT JUMPDEST PUSH2 0xCD8 DUP3 PUSH2 0x12DF JUMP JUMPDEST PUSH1 0x1 ISZERO ISZERO DUP2 PUSH1 0x5 ADD PUSH1 0x1 SWAP1 SLOAD SWAP1 PUSH2 0x100 EXP SWAP1 DIV PUSH1 0xFF AND ISZERO ISZERO SUB PUSH2 0xCFB JUMPI POP PUSH2 0xE53 JUMP JUMPDEST PUSH0 DUP2 PUSH1 0x1 ADD PUSH1 0x14 SWAP1 SLOAD SWAP1 PUSH2 0x100 EXP SWAP1 DIV PUSH1 0xFF AND SWAP1 POP PUSH0 DUP2 SWAP1 POP PUSH0 DUP4 PUSH1 0x2 ADD SLOAD TIMESTAMP PUSH2 0xD25 SWAP2 SWAP1 PUSH2 0x1A21 JUMP JUMPDEST SWAP1 POP PUSH0 DUP2 LT ISZERO DUP1 ISZERO PUSH2 0xD38 JUMPI POP PUSH1 0x3C DUP2 GT ISZERO JUMPDEST ISZERO PUSH2 0xD45 JUMPI PUSH0 SWAP2 POP PUSH2 0xDAD JUMP JUMPDEST PUSH1 0x3D DUP2 LT ISZERO DUP1 ISZERO PUSH2 0xD57 JUMPI POP PUSH1 0x78 DUP2 GT ISZERO JUMPDEST ISZERO PUSH2 0xD65 JUMPI PUSH1 0x1 SWAP2 POP PUSH2 0xDAC JUMP JUMPDEST PUSH1 0x79 DUP2 LT ISZERO DUP1 ISZERO PUSH2 0xD77 JUMPI POP PUSH1 0xA0 DUP2 GT ISZERO JUMPDEST ISZERO PUSH2 0xD85 JUMPI PUSH1 0x2 SWAP2 POP PUSH2 0xDAB JUMP JUMPDEST PUSH1 0xA1 DUP2 LT ISZERO DUP1 ISZERO PUSH2 0xD97 JUMPI POP PUSH1 0xD2 DUP2 GT ISZERO JUMPDEST ISZERO PUSH2 0xDA5 JUMPI PUSH1 0x3 SWAP2 POP PUSH2 0xDAA JUMP JUMPDEST PUSH1 0x3 SWAP2 POP JUMPDEST JUMPDEST JUMPDEST JUMPDEST DUP2 PUSH1 0x3 DUP2 GT ISZERO PUSH2 0xDC0 JUMPI PUSH2 0xDBF PUSH2 0x1614 JUMP JUMPDEST JUMPDEST DUP4 PUSH1 0x3 DUP2 GT ISZERO PUSH2 0xDD3 JUMPI PUSH2 0xDD2 PUSH2 0x1614 JUMP JUMPDEST JUMPDEST EQ PUSH2 0xE4E JUMPI DUP2 DUP5 PUSH1 0x1 ADD PUSH1 0x14 PUSH2 0x100 EXP DUP2 SLOAD DUP2 PUSH1 0xFF MUL NOT AND SWAP1 DUP4 PUSH1 0x3 DUP2 GT ISZERO PUSH2 0xDFF JUMPI PUSH2 0xDFE PUSH2 0x1614 JUMP JUMPDEST JUMPDEST MUL OR SWAP1 SSTORE POP DUP5 PUSH32 0x338B8976706F9DA67298DDDFA1EA4FF7D99CCE68B9CA39C4F348994F8E2124A8 DUP6 PUSH1 0x1 ADD PUSH1 0x14 SWAP1 SLOAD SWAP1 PUSH2 0x100 EXP SWAP1 DIV PUSH1 0xFF AND PUSH1 0x40 MLOAD PUSH2 0xE45 SWAP2 SWAP1 PUSH2 0x1BC2 JUMP JUMPDEST PUSH1 0x40 MLOAD DUP1 SWAP2 SUB SWAP1 LOG2 JUMPDEST POP POP POP POP JUMPDEST POP JUMP JUMPDEST PUSH0 PUSH0 PUSH0 DUP4 DUP2 MSTORE PUSH1 0x20 ADD SWAP1 DUP2 MSTORE PUSH1 0x20 ADD PUSH0 KECCAK256 SWAP1 POP PUSH1 0x1 ISZERO ISZERO DUP2 PUSH1 0x5 ADD PUSH0 SWAP1 SLOAD SWAP1 PUSH2 0x100 EXP SWAP1 DIV PUSH1 0xFF AND ISZERO ISZERO EQ PUSH2 0xEC0 JUMPI PUSH1 0x40 MLOAD PUSH32 0x8C379A000000000000000000000000000000000000000000000000000000000 DUP2 MSTORE PUSH1 0x4 ADD PUSH2 0xEB7 SWAP1 PUSH2 0x1B3C JUMP JUMPDEST PUSH1 0x40 MLOAD DUP1 SWAP2 SUB SWAP1 REVERT JUMPDEST DUP1 PUSH1 0x1 ADD PUSH0 SWAP1 SLOAD SWAP1 PUSH2 0x100 EXP SWAP1 DIV PUSH20 0xFFFFFFFFFFFFFFFFFFFFFFFFFFFFFFFFFFFFFFFF AND PUSH20 0xFFFFFFFFFFFFFFFFFFFFFFFFFFFFFFFFFFFFFFFF AND CALLER PUSH20 0xFFFFFFFFFFFFFFFFFFFFFFFFFFFFFFFFFFFFFFFF AND EQ PUSH2 0xF51 JUMPI PUSH1 0x40 MLOAD PUSH32 0x8C379A000000000000000000000000000000000000000000000000000000000 DUP2 MSTORE PUSH1 0x4 ADD PUSH2 0xF48 SWAP1 PUSH2 0x1C25 JUMP JUMPDEST PUSH1 0x40 MLOAD DUP1 SWAP2 SUB SWAP1 REVERT JUMPDEST PUSH0 ISZERO ISZERO DUP2 PUSH1 0x5 ADD PUSH1 0x1 SWAP1 SLOAD SWAP1 PUSH2 0x100 EXP SWAP1 DIV PUSH1 0xFF AND ISZERO ISZERO EQ PUSH2 0xFA8 JUMPI PUSH1 0x40 MLOAD PUSH32 0x8C379A000000000000000000000000000000000000000000000000000000000 DUP2 MSTORE PUSH1 0x4 ADD PUSH2 0xF9F SWAP1 PUSH2 0x1C8D JUMP JUMPDEST PUSH1 0x40 MLOAD DUP1 SWAP2 SUB SWAP1 REVERT JUMPDEST PUSH2 0xFB1 DUP3 PUSH2 0xC65 JUMP JUMPDEST PUSH1 0x3 DUP1 DUP2 GT ISZERO PUSH2 0xFC4 JUMPI PUSH2 0xFC3 PUSH2 0x1614 JUMP JUMPDEST JUMPDEST DUP2 PUSH1 0x1 ADD PUSH1 0x14 SWAP1 SLOAD SWAP1 PUSH2 0x100 EXP SWAP1 DIV PUSH1 0xFF AND PUSH1 0x3 DUP2 GT ISZERO PUSH2 0xFE8 JUMPI PUSH2 0xFE7 PUSH2 0x1614 JUMP JUMPDEST JUMPDEST EQ PUSH2 0x1028 JUMPI PUSH1 0x40 MLOAD PUSH32 0x8C379A000000000000000000000000000000000000000000000000000000000 DUP2 MSTORE PUSH1 0x4 ADD PUSH2 0x101F SWAP1 PUSH2 0x1CF5 JUMP JUMPDEST PUSH1 0x40 MLOAD DUP1 SWAP2 SUB SWAP1 REVERT JUMPDEST PUSH0 DUP2 PUSH1 0x5 ADD PUSH0 PUSH2 0x100 EXP DUP2 SLOAD DUP2 PUSH1 0xFF MUL NOT AND SWAP1 DUP4 ISZERO ISZERO MUL OR SWAP1 SSTORE POP CALLER PUSH20 0xFFFFFFFFFFFFFFFFFFFFFFFFFFFFFFFFFFFFFFFF AND DUP3 PUSH32 0x79F2138EA100070FF95B59C265DA7AA3C7A0F61595FE1BB2F5FDA2762F398847 PUSH6 0x1B48EB57E000 PUSH1 0x40 MLOAD PUSH2 0x1090 SWAP2 SWAP1 PUSH2 0x13E0 JUMP JUMPDEST PUSH1 0x40 MLOAD DUP1 SWAP2 SUB SWAP1 LOG3 PUSH6 0x1B48EB57E000 SELFBALANCE LT ISZERO PUSH2 0x10E1 JUMPI PUSH1 0x40 MLOAD PUSH32 0x8C379A000000000000000000000000000000000000000000000000000000000 DUP2 MSTORE PUSH1 0x4 ADD PUSH2 0x10D8 SWAP1 PUSH2 0x1D5D JUMP JUMPDEST PUSH1 0x40 MLOAD DUP1 SWAP2 SUB SWAP1 REVERT JUMPDEST PUSH0 CALLER PUSH20 0xFFFFFFFFFFFFFFFFFFFFFFFFFFFFFFFFFFFFFFFF AND PUSH6 0x1B48EB57E000 PUSH1 0x40 MLOAD PUSH2 0x110C SWAP1 PUSH2 0x18DD JUMP JUMPDEST PUSH0 PUSH1 0x40 MLOAD DUP1 DUP4 SUB DUP2 DUP6 DUP8 GAS CALL SWAP3 POP POP POP RETURNDATASIZE DUP1 PUSH0 DUP2 EQ PUSH2 0x1146 JUMPI PUSH1 0x40 MLOAD SWAP2 POP PUSH1 0x1F NOT PUSH1 0x3F RETURNDATASIZE ADD AND DUP3 ADD PUSH1 0x40 MSTORE RETURNDATASIZE DUP3 MSTORE RETURNDATASIZE PUSH0 PUSH1 0x20 DUP5 ADD RETURNDATACOPY PUSH2 0x114B JUMP JUMPDEST PUSH1 0x60 SWAP2 POP JUMPDEST POP POP SWAP1 POP DUP1 PUSH2 0x118F JUMPI PUSH1 0x40 MLOAD PUSH32 0x8C379A000000000000000000000000000000000000000000000000000000000 DUP2 MSTORE PUSH1 0x4 ADD PUSH2 0x1186 SWAP1 PUSH2 0x1DC5 JUMP JUMPDEST PUSH1 0x40 MLOAD DUP1 SWAP2 SUB SWAP1 REVERT JUMPDEST POP POP POP JUMP JUMPDEST PUSH2 0x119C PUSH2 0x135F JUMP JUMPDEST PUSH0 PUSH0 PUSH0 DUP5 DUP2 MSTORE PUSH1 0x20 ADD SWAP1 DUP2 MSTORE PUSH1 0x20 ADD PUSH0 KECCAK256 PUSH1 0x40 MLOAD DUP1 PUSH2 0x100 ADD PUSH1 0x40 MSTORE SWAP1 DUP2 PUSH0 DUP3 ADD SLOAD DUP2 MSTORE PUSH1 0x20 ADD PUSH1 0x1 DUP3 ADD PUSH0 SWAP1 SLOAD SWAP1 PUSH2 0x100 EXP SWAP1 DIV PUSH20 0xFFFFFFFFFFFFFFFFFFFFFFFFFFFFFFFFFFFFFFFF AND PUSH20 0xFFFFFFFFFFFFFFFFFFFFFFFFFFFFFFFFFFFFFFFF AND PUSH20 0xFFFFFFFFFFFFFFFFFFFFFFFFFFFFFFFFFFFFFFFF AND DUP2 MSTORE PUSH1 0x20 ADD PUSH1 0x1 DUP3 ADD PUSH1 0x14 SWAP1 SLOAD SWAP1 PUSH2 0x100 EXP SWAP1 DIV PUSH1 0xFF AND PUSH1 0x3 DUP2 GT ISZERO PUSH2 0x123C JUMPI PUSH2 0x123B PUSH2 0x1614 JUMP JUMPDEST JUMPDEST PUSH1 0x3 DUP2 GT ISZERO PUSH2 0x124E JUMPI PUSH2 0x124D PUSH2 0x1614 JUMP JUMPDEST JUMPDEST DUP2 MSTORE PUSH1 0x20 ADD PUSH1 0x2 DUP3 ADD SLOAD DUP2 MSTORE PUSH1 0x20 ADD PUSH1 0x3 DUP3 ADD SLOAD DUP2 MSTORE PUSH1 0x20 ADD PUSH1 0x4 DUP3 ADD SLOAD DUP2 MSTORE PUSH1 0x20 ADD PUSH1 0x5 DUP3 ADD PUSH0 SWAP1 SLOAD SWAP1 PUSH2 0x100 EXP SWAP1 DIV PUSH1 0xFF AND ISZERO ISZERO ISZERO ISZERO DUP2 MSTORE PUSH1 0x20 ADD PUSH1 0x5 DUP3 ADD PUSH1 0x1 SWAP1 SLOAD SWAP1 PUSH2 0x100 EXP SWAP1 DIV PUSH1 0xFF AND ISZERO ISZERO ISZERO ISZERO DUP2 MSTORE POP POP SWAP1 POP PUSH2 0x12B0 DUP4 PUSH2 0x890 JUMP JUMPDEST DUP2 PUSH1 0xA0 ADD DUP2 DUP2 MSTORE POP POP PUSH0 DUP2 PUSH1 0xA0 ADD MLOAD SUB PUSH2 0x12D6 JUMPI PUSH1 0x1 DUP2 PUSH1 0xE0 ADD SWAP1 ISZERO ISZERO SWAP1 DUP2 ISZERO ISZERO DUP2 MSTORE POP POP JUMPDEST DUP1 SWAP2 POP POP SWAP2 SWAP1 POP JUMP JUMPDEST PUSH0 PUSH0 PUSH0 DUP4 DUP2 MSTORE PUSH1 0x20 ADD SWAP1 DUP2 MSTORE PUSH1 0x20 ADD PUSH0 KECCAK256 SWAP1 POP PUSH0 PUSH2 0x12FC DUP4 PUSH2 0x890 JUMP JUMPDEST SWAP1 POP DUP1 DUP3 PUSH1 0x4 ADD DUP2 SWAP1 SSTORE POP TIMESTAMP DUP3 PUSH1 0x3 ADD DUP2 SWAP1 SSTORE POP PUSH0 DUP3 PUSH1 0x4 ADD SLOAD EQ DUP1 ISZERO PUSH2 0x1337 JUMPI POP PUSH0 ISZERO ISZERO DUP3 PUSH1 0x5 ADD PUSH1 0x1 SWAP1 SLOAD SWAP1 PUSH2 0x100 EXP SWAP1 DIV PUSH1 0xFF AND ISZERO ISZERO EQ JUMPDEST ISZERO PUSH2 0x135A JUMPI PUSH1 0x1 DUP3 PUSH1 0x5 ADD PUSH1 0x1 PUSH2 0x100 EXP DUP2 SLOAD DUP2 PUSH1 0xFF MUL NOT AND SWAP1 DUP4 ISZERO ISZERO MUL OR SWAP1 SSTORE POP JUMPDEST POP POP POP JUMP JUMPDEST PUSH1 0x40 MLOAD DUP1 PUSH2 0x100 ADD PUSH1 0x40 MSTORE DUP1 PUSH0 DUP2 MSTORE PUSH1 0x20 ADD PUSH0 PUSH20 0xFFFFFFFFFFFFFFFFFFFFFFFFFFFFFFFFFFFFFFFF AND DUP2 MSTORE PUSH1 0x20 ADD PUSH0 PUSH1 0x3 DUP2 GT ISZERO PUSH2 0x13A0 JUMPI PUSH2 0x139F PUSH2 0x1614 JUMP JUMPDEST JUMPDEST DUP2 MSTORE PUSH1 0x20 ADD PUSH0 DUP2 MSTORE PUSH1 0x20 ADD PUSH0 DUP2 MSTORE PUSH1 0x20 ADD PUSH0 DUP2 MSTORE PUSH1 0x20 ADD PUSH0 ISZERO ISZERO DUP2 MSTORE PUSH1 0x20 ADD PUSH0 ISZERO ISZERO DUP2 MSTORE POP SWAP1 JUMP JUMPDEST PUSH0 DUP2 SWAP1 POP SWAP2 SWAP1 POP JUMP JUMPDEST PUSH2 0x13DA DUP2 PUSH2 0x13C8 JUMP JUMPDEST DUP3 MSTORE POP POP JUMP JUMPDEST PUSH0 PUSH1 0x20 DUP3 ADD SWAP1 POP PUSH2 0x13F3 PUSH0 DUP4 ADD DUP5 PUSH2 0x13D1 JUMP JUMPDEST SWAP3 SWAP2 POP POP JUMP JUMPDEST PUSH0 PUSH0 REVERT JUMPDEST PUSH0 PUSH20 0xFFFFFFFFFFFFFFFFFFFFFFFFFFFFFFFFFFFFFFFF DUP3 AND SWAP1 POP SWAP2 SWAP1 POP JUMP JUMPDEST PUSH0 PUSH2 0x1426 DUP3 PUSH2 0x13FD JUMP JUMPDEST SWAP1 POP SWAP2 SWAP1 POP JUMP JUMPDEST PUSH2 0x1436 DUP2 PUSH2 0x141C JUMP JUMPDEST DUP2 EQ PUSH2 0x1440 JUMPI PUSH0 PUSH0 REVERT JUMPDEST POP JUMP JUMPDEST PUSH0 DUP2 CALLDATALOAD SWAP1 POP PUSH2 0x1451 DUP2 PUSH2 0x142D JUMP JUMPDEST SWAP3 SWAP2 POP POP JUMP JUMPDEST PUSH0 PUSH1 0x20 DUP3 DUP5 SUB SLT ISZERO PUSH2 0x146C JUMPI PUSH2 0x146B PUSH2 0x13F9 JUMP JUMPDEST JUMPDEST PUSH0 PUSH2 0x1479 DUP5 DUP3 DUP6 ADD PUSH2 0x1443 JUMP JUMPDEST SWAP2 POP POP SWAP3 SWAP2 POP POP JUMP JUMPDEST PUSH0 DUP2 MLOAD SWAP1 POP SWAP2 SWAP1 POP JUMP JUMPDEST PUSH0 DUP3 DUP3 MSTORE PUSH1 0x20 DUP3 ADD SWAP1 POP SWAP3 SWAP2 POP POP JUMP JUMPDEST PUSH0 DUP2 SWAP1 POP PUSH1 0x20 DUP3 ADD SWAP1 POP SWAP2 SWAP1 POP JUMP JUMPDEST PUSH2 0x14B4 DUP2 PUSH2 0x13C8 JUMP JUMPDEST DUP3 MSTORE POP POP JUMP JUMPDEST PUSH0 PUSH2 0x14C5 DUP4 DUP4 PUSH2 0x14AB JUMP JUMPDEST PUSH1 0x20 DUP4 ADD SWAP1 POP SWAP3 SWAP2 POP POP JUMP JUMPDEST PUSH0 PUSH1 0x20 DUP3 ADD SWAP1 POP SWAP2 SWAP1 POP JUMP JUMPDEST PUSH0 PUSH2 0x14E7 DUP3 PUSH2 0x1482 JUMP JUMPDEST PUSH2 0x14F1 DUP2 DUP6 PUSH2 0x148C JUMP JUMPDEST SWAP4 POP PUSH2 0x14FC DUP4 PUSH2 0x149C JUMP JUMPDEST DUP1 PUSH0 JUMPDEST DUP4 DUP2 LT ISZERO PUSH2 0x152C JUMPI DUP2 MLOAD PUSH2 0x1513 DUP9 DUP3 PUSH2 0x14BA JUMP JUMPDEST SWAP8 POP PUSH2 0x151E DUP4 PUSH2 0x14D1 JUMP JUMPDEST SWAP3 POP POP PUSH1 0x1 DUP2 ADD SWAP1 POP PUSH2 0x14FF JUMP JUMPDEST POP DUP6 SWAP4 POP POP POP POP SWAP3 SWAP2 POP POP JUMP JUMPDEST PUSH0 PUSH1 0x20 DUP3 ADD SWAP1 POP DUP2 DUP2 SUB PUSH0 DUP4 ADD MSTORE PUSH2 0x1551 DUP2 DUP5 PUSH2 0x14DD JUMP JUMPDEST SWAP1 POP SWAP3 SWAP2 POP POP JUMP JUMPDEST PUSH2 0x1562 DUP2 PUSH2 0x13C8 JUMP JUMPDEST DUP2 EQ PUSH2 0x156C JUMPI PUSH0 PUSH0 REVERT JUMPDEST POP JUMP JUMPDEST PUSH0 DUP2 CALLDATALOAD SWAP1 POP PUSH2 0x157D DUP2 PUSH2 0x1559 JUMP JUMPDEST SWAP3 SWAP2 POP POP JUMP JUMPDEST PUSH0 PUSH1 0x20 DUP3 DUP5 SUB SLT ISZERO PUSH2 0x1598 JUMPI PUSH2 0x1597 PUSH2 0x13F9 JUMP JUMPDEST JUMPDEST PUSH0 PUSH2 0x15A5 DUP5 DUP3 DUP6 ADD PUSH2 0x156F JUMP JUMPDEST SWAP2 POP POP SWAP3 SWAP2 POP POP JUMP JUMPDEST PUSH0 PUSH0 PUSH1 0x40 DUP4 DUP6 SUB SLT ISZERO PUSH2 0x15C4 JUMPI PUSH2 0x15C3 PUSH2 0x13F9 JUMP JUMPDEST JUMPDEST PUSH0 PUSH2 0x15D1 DUP6 DUP3 DUP7 ADD PUSH2 0x1443 JUMP JUMPDEST SWAP3 POP POP PUSH1 0x20 PUSH2 0x15E2 DUP6 DUP3 DUP7 ADD PUSH2 0x156F JUMP JUMPDEST SWAP2 POP POP SWAP3 POP SWAP3 SWAP1 POP JUMP JUMPDEST PUSH2 0x15F5 DUP2 PUSH2 0x141C JUMP JUMPDEST DUP3 MSTORE POP POP JUMP JUMPDEST PUSH0 PUSH1 0x20 DUP3 ADD SWAP1 POP PUSH2 0x160E PUSH0 DUP4 ADD DUP5 PUSH2 0x15EC JUMP JUMPDEST SWAP3 SWAP2 POP POP JUMP JUMPDEST PUSH32 0x4E487B7100000000000000000000000000000000000000000000000000000000 PUSH0 MSTORE PUSH1 0x21 PUSH1 0x4 MSTORE PUSH1 0x24 PUSH0 REVERT JUMPDEST PUSH1 0x4 DUP2 LT PUSH2 0x1652 JUMPI PUSH2 0x1651 PUSH2 0x1614 JUMP JUMPDEST JUMPDEST POP JUMP JUMPDEST PUSH0 DUP2 SWAP1 POP PUSH2 0x1662 DUP3 PUSH2 0x1641 JUMP JUMPDEST SWAP2 SWAP1 POP JUMP JUMPDEST PUSH0 PUSH2 0x1671 DUP3 PUSH2 0x1655 JUMP JUMPDEST SWAP1 POP SWAP2 SWAP1 POP JUMP JUMPDEST PUSH2 0x1681 DUP2 PUSH2 0x1667 JUMP JUMPDEST DUP3 MSTORE POP POP JUMP JUMPDEST PUSH0 DUP2 ISZERO ISZERO SWAP1 POP SWAP2 SWAP1 POP JUMP JUMPDEST PUSH2 0x169B DUP2 PUSH2 0x1687 JUMP JUMPDEST DUP3 MSTORE POP POP JUMP JUMPDEST PUSH0 PUSH2 0x100 DUP3 ADD SWAP1 POP PUSH2 0x16B5 PUSH0 DUP4 ADD DUP12 PUSH2 0x13D1 JUMP JUMPDEST PUSH2 0x16C2 PUSH1 0x20 DUP4 ADD DUP11 PUSH2 0x15EC JUMP JUMPDEST PUSH2 0x16CF PUSH1 0x40 DUP4 ADD DUP10 PUSH2 0x1678 JUMP JUMPDEST PUSH2 0x16DC PUSH1 0x60 DUP4 ADD DUP9 PUSH2 0x13D1 JUMP JUMPDEST PUSH2 0x16E9 PUSH1 0x80 DUP4 ADD DUP8 PUSH2 0x13D1 JUMP JUMPDEST PUSH2 0x16F6 PUSH1 0xA0 DUP4 ADD DUP7 PUSH2 0x13D1 JUMP JUMPDEST PUSH2 0x1703 PUSH1 0xC0 DUP4 ADD DUP6 PUSH2 0x1692 JUMP JUMPDEST PUSH2 0x1710 PUSH1 0xE0 DUP4 ADD DUP5 PUSH2 0x1692 JUMP JUMPDEST SWAP10 SWAP9 POP POP POP POP POP POP POP POP POP JUMP JUMPDEST PUSH0 PUSH1 0xFF DUP3 AND SWAP1 POP SWAP2 SWAP1 POP JUMP JUMPDEST PUSH2 0x1732 DUP2 PUSH2 0x171D JUMP JUMPDEST DUP3 MSTORE POP POP JUMP JUMPDEST PUSH0 PUSH1 0x20 DUP3 ADD SWAP1 POP PUSH2 0x174B PUSH0 DUP4 ADD DUP5 PUSH2 0x1729 JUMP JUMPDEST SWAP3 SWAP2 POP POP JUMP JUMPDEST PUSH2 0x175A DUP2 PUSH2 0x141C JUMP JUMPDEST DUP3 MSTORE POP POP JUMP JUMPDEST PUSH2 0x1769 DUP2 PUSH2 0x1667 JUMP JUMPDEST DUP3 MSTORE POP POP JUMP JUMPDEST PUSH2 0x1778 DUP2 PUSH2 0x1687 JUMP JUMPDEST DUP3 MSTORE POP POP JUMP JUMPDEST PUSH2 0x100 DUP3 ADD PUSH0 DUP3 ADD MLOAD PUSH2 0x1793 PUSH0 DUP6 ADD DUP3 PUSH2 0x14AB JUMP JUMPDEST POP PUSH1 0x20 DUP3 ADD MLOAD PUSH2 0x17A6 PUSH1 0x20 DUP6 ADD DUP3 PUSH2 0x1751 JUMP JUMPDEST POP PUSH1 0x40 DUP3 ADD MLOAD PUSH2 0x17B9 PUSH1 0x40 DUP6 ADD DUP3 PUSH2 0x1760 JUMP JUMPDEST POP PUSH1 0x60 DUP3 ADD MLOAD PUSH2 0x17CC PUSH1 0x60 DUP6 ADD DUP3 PUSH2 0x14AB JUMP JUMPDEST POP PUSH1 0x80 DUP3 ADD MLOAD PUSH2 0x17DF PUSH1 0x80 DUP6 ADD DUP3 PUSH2 0x14AB JUMP JUMPDEST POP PUSH1 0xA0 DUP3 ADD MLOAD PUSH2 0x17F2 PUSH1 0xA0 DUP6 ADD DUP3 PUSH2 0x14AB JUMP JUMPDEST POP PUSH1 0xC0 DUP3 ADD MLOAD PUSH2 0x1805 PUSH1 0xC0 DUP6 ADD DUP3 PUSH2 0x176F JUMP JUMPDEST POP PUSH1 0xE0 DUP3 ADD MLOAD PUSH2 0x1818 PUSH1 0xE0 DUP6 ADD DUP3 PUSH2 0x176F JUMP JUMPDEST POP POP POP POP JUMP JUMPDEST PUSH0 PUSH2 0x100 DUP3 ADD SWAP1 POP PUSH2 0x1832 PUSH0 DUP4 ADD DUP5 PUSH2 0x177E JUMP JUMPDEST SWAP3 SWAP2 POP POP JUMP JUMPDEST PUSH0 DUP3 DUP3 MSTORE PUSH1 0x20 DUP3 ADD SWAP1 POP SWAP3 SWAP2 POP POP JUMP JUMPDEST PUSH32 0x42756B616E206F776E6572000000000000000000000000000000000000000000 PUSH0 DUP3 ADD MSTORE POP JUMP JUMPDEST PUSH0 PUSH2 0x187C PUSH1 0xB DUP4 PUSH2 0x1838 JUMP JUMPDEST SWAP2 POP PUSH2 0x1887 DUP3 PUSH2 0x1848 JUMP JUMPDEST PUSH1 0x20 DUP3 ADD SWAP1 POP SWAP2 SWAP1 POP JUMP JUMPDEST PUSH0 PUSH1 0x20 DUP3 ADD SWAP1 POP DUP2 DUP2 SUB PUSH0 DUP4 ADD MSTORE PUSH2 0x18A9 DUP2 PUSH2 0x1870 JUMP JUMPDEST SWAP1 POP SWAP2 SWAP1 POP JUMP JUMPDEST PUSH0 DUP2 SWAP1 POP SWAP3 SWAP2 POP POP JUMP JUMPDEST POP JUMP JUMPDEST PUSH0 PUSH2 0x18C8 PUSH0 DUP4 PUSH2 0x18B0 JUMP JUMPDEST SWAP2 POP PUSH2 0x18D3 DUP3 PUSH2 0x18BA JUMP JUMPDEST PUSH0 DUP3 ADD SWAP1 POP SWAP2 SWAP1 POP JUMP JUMPDEST PUSH0 PUSH2 0x18E7 DUP3 PUSH2 0x18BD JUMP JUMPDEST SWAP2 POP DUP2 SWAP1 POP SWAP2 SWAP1 POP JUMP JUMPDEST PUSH32 0x5472616E7366657220676167616C000000000000000000000000000000000000 PUSH0 DUP3 ADD MSTORE POP JUMP JUMPDEST PUSH0 PUSH2 0x1925 PUSH1 0xE DUP4 PUSH2 0x1838 JUMP JUMPDEST SWAP2 POP PUSH2 0x1930 DUP3 PUSH2 0x18F1 JUMP JUMPDEST PUSH1 0x20 DUP3 ADD SWAP1 POP SWAP2 SWAP1 POP JUMP JUMPDEST PUSH0 PUSH1 0x20 DUP3 ADD SWAP1 POP DUP2 DUP2 SUB PUSH0 DUP4 ADD MSTORE PUSH2 0x1952 DUP2 PUSH2 0x1919 JUMP JUMPDEST SWAP1 POP SWAP2 SWAP1 POP JUMP JUMPDEST PUSH32 0x4D696E69756D20302E3030303031206574686572000000000000000000000000 PUSH0 DUP3 ADD MSTORE POP JUMP JUMPDEST PUSH0 PUSH2 0x198D PUSH1 0x14 DUP4 PUSH2 0x1838 JUMP JUMPDEST SWAP2 POP PUSH2 0x1998 DUP3 PUSH2 0x1959 JUMP JUMPDEST PUSH1 0x20 DUP3 ADD SWAP1 POP SWAP2 SWAP1 POP JUMP JUMPDEST PUSH0 PUSH1 0x20 DUP3 ADD SWAP1 POP DUP2 DUP2 SUB PUSH0 DUP4 ADD MSTORE PUSH2 0x19BA DUP2 PUSH2 0x1981 JUMP JUMPDEST SWAP1 POP SWAP2 SWAP1 POP JUMP JUMPDEST PUSH32 0x4E487B7100000000000000000000000000000000000000000000000000000000 PUSH0 MSTORE PUSH1 0x11 PUSH1 0x4 MSTORE PUSH1 0x24 PUSH0 REVERT JUMPDEST PUSH0 PUSH2 0x19F8 DUP3 PUSH2 0x13C8 JUMP JUMPDEST SWAP2 POP PUSH2 0x1A03 DUP4 PUSH2 0x13C8 JUMP JUMPDEST SWAP3 POP DUP3 DUP3 ADD SWAP1 POP DUP1 DUP3 GT ISZERO PUSH2 0x1A1B JUMPI PUSH2 0x1A1A PUSH2 0x19C1 JUMP JUMPDEST JUMPDEST SWAP3 SWAP2 POP POP JUMP JUMPDEST PUSH0 PUSH2 0x1A2B DUP3 PUSH2 0x13C8 JUMP JUMPDEST SWAP2 POP PUSH2 0x1A36 DUP4 PUSH2 0x13C8 JUMP JUMPDEST SWAP3 POP DUP3 DUP3 SUB SWAP1 POP DUP2 DUP2 GT ISZERO PUSH2 0x1A4E JUMPI PUSH2 0x1A4D PUSH2 0x19C1 JUMP JUMPDEST JUMPDEST SWAP3 SWAP2 POP POP JUMP JUMPDEST PUSH32 0x4E487B7100000000000000000000000000000000000000000000000000000000 PUSH0 MSTORE PUSH1 0x12 PUSH1 0x4 MSTORE PUSH1 0x24 PUSH0 REVERT JUMPDEST PUSH0 PUSH2 0x1A8B DUP3 PUSH2 0x13C8 JUMP JUMPDEST SWAP2 POP PUSH2 0x1A96 DUP4 PUSH2 0x13C8 JUMP JUMPDEST SWAP3 POP DUP3 PUSH2 0x1AA6 JUMPI PUSH2 0x1AA5 PUSH2 0x1A54 JUMP JUMPDEST JUMPDEST DUP3 DUP3 DIV SWAP1 POP SWAP3 SWAP2 POP POP JUMP JUMPDEST PUSH0 PUSH2 0x1ABB DUP3 PUSH2 0x13C8 JUMP JUMPDEST SWAP2 POP PUSH2 0x1AC6 DUP4 PUSH2 0x13C8 JUMP JUMPDEST SWAP3 POP DUP3 DUP3 MUL PUSH2 0x1AD4 DUP2 PUSH2 0x13C8 JUMP JUMPDEST SWAP2 POP DUP3 DUP3 DIV DUP5 EQ DUP4 ISZERO OR PUSH2 0x1AEB JUMPI PUSH2 0x1AEA PUSH2 0x19C1 JUMP JUMPDEST JUMPDEST POP SWAP3 SWAP2 POP POP JUMP JUMPDEST PUSH32 0x74616E616D616E20746964616B20646974656D756B616E000000000000000000 PUSH0 DUP3 ADD MSTORE POP JUMP JUMPDEST PUSH0 PUSH2 0x1B26 PUSH1 0x17 DUP4 PUSH2 0x1838 JUMP JUMPDEST SWAP2 POP PUSH2 0x1B31 DUP3 PUSH2 0x1AF2 JUMP JUMPDEST PUSH1 0x20 DUP3 ADD SWAP1 POP SWAP2 SWAP1 POP JUMP JUMPDEST PUSH0 PUSH1 0x20 DUP3 ADD SWAP1 POP DUP2 DUP2 SUB PUSH0 DUP4 ADD MSTORE PUSH2 0x1B53 DUP2 PUSH2 0x1B1A JUMP JUMPDEST SWAP1 POP SWAP2 SWAP1 POP JUMP JUMPDEST PUSH32 0x54616E616D616E207375646168206D6174690000000000000000000000000000 PUSH0 DUP3 ADD MSTORE POP JUMP JUMPDEST PUSH0 PUSH2 0x1B8E PUSH1 0x12 DUP4 PUSH2 0x1838 JUMP JUMPDEST SWAP2 POP PUSH2 0x1B99 DUP3 PUSH2 0x1B5A JUMP JUMPDEST PUSH1 0x20 DUP3 ADD SWAP1 POP SWAP2 SWAP1 POP JUMP JUMPDEST PUSH0 PUSH1 0x20 DUP3 ADD SWAP1 POP DUP2 DUP2 SUB PUSH0 DUP4 ADD MSTORE PUSH2 0x1BBB DUP2 PUSH2 0x1B82 JUMP JUMPDEST SWAP1 POP SWAP2 SWAP1 POP JUMP JUMPDEST PUSH0 PUSH1 0x20 DUP3 ADD SWAP1 POP PUSH2 0x1BD5 PUSH0 DUP4 ADD DUP5 PUSH2 0x1678 JUMP JUMPDEST SWAP3 SWAP2 POP POP JUMP JUMPDEST PUSH32 0x74616E616D616E20696E692062756B616E206D696C696B206B616D7500000000 PUSH0 DUP3 ADD MSTORE POP JUMP JUMPDEST PUSH0 PUSH2 0x1C0F PUSH1 0x1C DUP4 PUSH2 0x1838 JUMP JUMPDEST SWAP2 POP PUSH2 0x1C1A DUP3 PUSH2 0x1BDB JUMP JUMPDEST PUSH1 0x20 DUP3 ADD SWAP1 POP SWAP2 SWAP1 POP JUMP JUMPDEST PUSH0 PUSH1 0x20 DUP3 ADD SWAP1 POP DUP2 DUP2 SUB PUSH0 DUP4 ADD MSTORE PUSH2 0x1C3C DUP2 PUSH2 0x1C03 JUMP JUMPDEST SWAP1 POP SWAP2 SWAP1 POP JUMP JUMPDEST PUSH32 0x74616E616D616E207375646168206D6174690000000000000000000000000000 PUSH0 DUP3 ADD MSTORE POP JUMP JUMPDEST PUSH0 PUSH2 0x1C77 PUSH1 0x12 DUP4 PUSH2 0x1838 JUMP JUMPDEST SWAP2 POP PUSH2 0x1C82 DUP3 PUSH2 0x1C43 JUMP JUMPDEST PUSH1 0x20 DUP3 ADD SWAP1 POP SWAP2 SWAP1 POP JUMP JUMPDEST PUSH0 PUSH1 0x20 DUP3 ADD SWAP1 POP DUP2 DUP2 SUB PUSH0 DUP4 ADD MSTORE PUSH2 0x1CA4 DUP2 PUSH2 0x1C6B JUMP JUMPDEST SWAP1 POP SWAP2 SWAP1 POP JUMP JUMPDEST PUSH32 0x54616E616D616E2062656C756D206D656B617200000000000000000000000000 PUSH0 DUP3 ADD MSTORE POP JUMP JUMPDEST PUSH0 PUSH2 0x1CDF PUSH1 0x13 DUP4 PUSH2 0x1838 JUMP JUMPDEST SWAP2 POP PUSH2 0x1CEA DUP3 PUSH2 0x1CAB JUMP JUMPDEST PUSH1 0x20 DUP3 ADD SWAP1 POP SWAP2 SWAP1 POP JUMP JUMPDEST PUSH0 PUSH1 0x20 DUP3 ADD SWAP1 POP DUP2 DUP2 SUB PUSH0 DUP4 ADD MSTORE PUSH2 0x1D0C DUP2 PUSH2 0x1CD3 JUMP JUMPDEST SWAP1 POP SWAP2 SWAP1 POP JUMP JUMPDEST PUSH32 0x53616C646F206B6F6E7472616B20746964616B2063756B757000000000000000 PUSH0 DUP3 ADD MSTORE POP JUMP JUMPDEST PUSH0 PUSH2 0x1D47 PUSH1 0x19 DUP4 PUSH2 0x1838 JUMP JUMPDEST SWAP2 POP PUSH2 0x1D52 DUP3 PUSH2 0x1D13 JUMP JUMPDEST PUSH1 0x20 DUP3 ADD SWAP1 POP SWAP2 SWAP1 POP JUMP JUMPDEST PUSH0 PUSH1 0x20 DUP3 ADD SWAP1 POP DUP2 DUP2 SUB PUSH0 DUP4 ADD MSTORE PUSH2 0x1D74 DUP2 PUSH2 0x1D3B JUMP JUMPDEST SWAP1 POP SWAP2 SWAP1 POP JUMP JUMPDEST PUSH32 0x5472616E736665722072657761726420676167616C0000000000000000000000 PUSH0 DUP3 ADD MSTORE POP JUMP JUMPDEST PUSH0 PUSH2 0x1DAF PUSH1 0x15 DUP4 PUSH2 0x1838 JUMP JUMPDEST SWAP2 POP PUSH2 0x1DBA DUP3 PUSH2 0x1D7B JUMP JUMPDEST PUSH1 0x20 DUP3 ADD SWAP1 POP SWAP2 SWAP1 POP JUMP JUMPDEST PUSH0 PUSH1 0x20 DUP3 ADD SWAP1 POP DUP2 DUP2 SUB PUSH0 DUP4 ADD MSTORE PUSH2 0x1DDC DUP2 PUSH2 0x1DA3 JUMP JUMPDEST SWAP1 POP SWAP2 SWAP1 POP JUMP INVALID LOG2 PUSH5 0x6970667358 0x22 SLT KECCAK256 MULMOD 0xAC DATALOADN 0x736C PUSH11 0xBEA84749F3B640F6F121C5 SWAP14 DUP3 BYTE DUP11 MULMOD EQ 0xD3 0x21 MSIZE 0xDB 0xAC DUP15 0xC7 0xDD 0xBE PUSH5 0x736F6C6343 STOP ADDMOD 0x1E STOP CALLER "
				},
				"gasEstimates": {
					"creation": {
						"codeDepositCost": "1541000",
						"executionCost": "25873",
						"totalCost": "1566873"
					},
					"external": {
						"PLANT_PRICE()": "369",
						"STAGE_DURATION()": "415",
						"WATER_DEPLETION_DURATION()": "348",
						"WATER_DEPLETION_RATE()": "353",
						"calculateWaterLevel(uint256)": "infinite",
						"getBalance()": "358",
						"getPlant(uint256)": "infinite",
						"getUserPlants(address)": "infinite",
						"harvestPlant(uint256)": "infinite",
						"owner()": "2531",
						"plantCounter()": "2514",
						"plantSeed()": "infinite",
						"plants(uint256)": "infinite",
						"updatePlantStage(uint256)": "infinite",
						"userPlants(address,uint256)": "infinite",
						"waterPlant(uint256)": "infinite",
						"withdraw()": "infinite"
					},
					"internal": {
						"updateWaterLevel(uint256)": "infinite"
					}
				},
				"methodIdentifiers": {
					"PLANT_PRICE()": "cfc9a5f8",
					"STAGE_DURATION()": "51f9efde",
					"WATER_DEPLETION_DURATION()": "5dba09bd",
					"WATER_DEPLETION_RATE()": "bacb5ebd",
					"calculateWaterLevel(uint256)": "754e150d",
					"getBalance()": "12065fe0",
					"getPlant(uint256)": "ed0b1f5f",
					"getUserPlants(address)": "30cec0eb",
					"harvestPlant(uint256)": "e38f8448",
					"owner()": "8da5cb5b",
					"plantCounter()": "9c471749",
					"plantSeed()": "74119a38",
					"plants(uint256)": "8dd2361c",
					"updatePlantStage(uint256)": "ddd42596",
					"userPlants(address,uint256)": "8aee578b",
					"waterPlant(uint256)": "9886bcfa",
					"withdraw()": "3ccfd60b"
				}
			},
			"storageLayout": {
				"storage": [
					{
						"astId": 29,
						"contract": "Learn/Sesi-01-Challenge/LiskGarden.sol:LiskGarden",
						"label": "plants",
						"offset": 0,
						"slot": "0",
						"type": "t_mapping(t_uint256,t_struct(Plant)24_storage)"
					},
					{
						"astId": 34,
						"contract": "Learn/Sesi-01-Challenge/LiskGarden.sol:LiskGarden",
						"label": "userPlants",
						"offset": 0,
						"slot": "1",
						"type": "t_mapping(t_address,t_array(t_uint256)dyn_storage)"
					},
					{
						"astId": 36,
						"contract": "Learn/Sesi-01-Challenge/LiskGarden.sol:LiskGarden",
						"label": "plantCounter",
						"offset": 0,
						"slot": "2",
						"type": "t_uint256"
					},
					{
						"astId": 38,
						"contract": "Learn/Sesi-01-Challenge/LiskGarden.sol:LiskGarden",
						"label": "owner",
						"offset": 0,
						"slot": "3",
						"type": "t_address"
					}
				],
				"types": {
					"t_address": {
						"encoding": "inplace",
						"label": "address",
						"numberOfBytes": "20"
					},
					"t_array(t_uint256)dyn_storage": {
						"base": "t_uint256",
						"encoding": "dynamic_array",
						"label": "uint256[]",
						"numberOfBytes": "32"
					},
					"t_bool": {
						"encoding": "inplace",
						"label": "bool",
						"numberOfBytes": "1"
					},
					"t_enum(GrowStage)6": {
						"encoding": "inplace",
						"label": "enum LiskGarden.GrowStage",
						"numberOfBytes": "1"
					},
					"t_mapping(t_address,t_array(t_uint256)dyn_storage)": {
						"encoding": "mapping",
						"key": "t_address",
						"label": "mapping(address => uint256[])",
						"numberOfBytes": "32",
						"value": "t_array(t_uint256)dyn_storage"
					},
					"t_mapping(t_uint256,t_struct(Plant)24_storage)": {
						"encoding": "mapping",
						"key": "t_uint256",
						"label": "mapping(uint256 => struct LiskGarden.Plant)",
						"numberOfBytes": "32",
						"value": "t_struct(Plant)24_storage"
					},
					"t_struct(Plant)24_storage": {
						"encoding": "inplace",
						"label": "struct LiskGarden.Plant",
						"members": [
							{
								"astId": 8,
								"contract": "Learn/Sesi-01-Challenge/LiskGarden.sol:LiskGarden",
								"label": "plantId",
								"offset": 0,
								"slot": "0",
								"type": "t_uint256"
							},
							{
								"astId": 10,
								"contract": "Learn/Sesi-01-Challenge/LiskGarden.sol:LiskGarden",
								"label": "owner",
								"offset": 0,
								"slot": "1",
								"type": "t_address"
							},
							{
								"astId": 13,
								"contract": "Learn/Sesi-01-Challenge/LiskGarden.sol:LiskGarden",
								"label": "stage",
								"offset": 20,
								"slot": "1",
								"type": "t_enum(GrowStage)6"
							},
							{
								"astId": 15,
								"contract": "Learn/Sesi-01-Challenge/LiskGarden.sol:LiskGarden",
								"label": "plantedDate",
								"offset": 0,
								"slot": "2",
								"type": "t_uint256"
							},
							{
								"astId": 17,
								"contract": "Learn/Sesi-01-Challenge/LiskGarden.sol:LiskGarden",
								"label": "lastWatered",
								"offset": 0,
								"slot": "3",
								"type": "t_uint256"
							},
							{
								"astId": 19,
								"contract": "Learn/Sesi-01-Challenge/LiskGarden.sol:LiskGarden",
								"label": "waterLevel",
								"offset": 0,
								"slot": "4",
								"type": "t_uint256"
							},
							{
								"astId": 21,
								"contract": "Learn/Sesi-01-Challenge/LiskGarden.sol:LiskGarden",
								"label": "exists",
								"offset": 0,
								"slot": "5",
								"type": "t_bool"
							},
							{
								"astId": 23,
								"contract": "Learn/Sesi-01-Challenge/LiskGarden.sol:LiskGarden",
								"label": "isDead",
								"offset": 1,
								"slot": "5",
								"type": "t_bool"
							}
						],
						"numberOfBytes": "192"
					},
					"t_uint256": {
						"encoding": "inplace",
						"label": "uint256",
						"numberOfBytes": "32"
					}
				}
			},
			"userdoc": {
				"kind": "user",
				"methods": {},
				"version": 1
			}
		}
	}
}