{
	"Learn/Sesi-01-Challenge/LiskGarden.sol": {
		"LiskGarden": {
			"abi": [
				{
					"inputs": [],
					"stateMutability": "nonpayable",
					"type": "constructor"
				},
				{
					"anonymous": false,
					"inputs": [
						{
							"indexed": true,
							"internalType": "uint256",
							"name": "plantId",
							"type": "uint256"
						},
						{
							"indexed": true,
							"internalType": "address",
							"name": "owner",
							"type": "address"
						},
						{
							"indexed": false,
							"internalType": "uint256",
							"name": "reward",
							"type": "uint256"
						}
					],
					"name": "PlantHarvested",
					"type": "event"
				},
				{
					"anonymous": false,
					"inputs": [
						{
							"indexed": true,
							"internalType": "address",
							"name": "owner",
							"type": "address"
						},
						{
							"indexed": true,
							"internalType": "uint256",
							"name": "plantId",
							"type": "uint256"
						}
					],
					"name": "PlantSeeded",
					"type": "event"
				},
				{
					"anonymous": false,
					"inputs": [
						{
							"indexed": true,
							"internalType": "uint256",
							"name": "plantId",
							"type": "uint256"
						},
						{
							"indexed": false,
							"internalType": "uint256",
							"name": "newWaterLevel",
							"type": "uint256"
						}
					],
					"name": "PlantWatered",
					"type": "event"
				},
				{
					"anonymous": false,
					"inputs": [
						{
							"indexed": true,
							"internalType": "uint256",
							"name": "plantId",
							"type": "uint256"
						},
						{
							"indexed": false,
							"internalType": "enum LiskGarden.GrowStage",
							"name": "newStage",
							"type": "uint8"
						}
					],
					"name": "StageAdvanced",
					"type": "event"
				},
				{
					"anonymous": false,
					"inputs": [
						{
							"indexed": true,
							"internalType": "uint256",
							"name": "plantId",
							"type": "uint256"
						}
					],
					"name": "plantDied",
					"type": "event"
				},
				{
					"inputs": [],
					"name": "PLANT_PRICE",
					"outputs": [
						{
							"internalType": "uint256",
							"name": "",
							"type": "uint256"
						}
					],
					"stateMutability": "view",
					"type": "function"
				},
				{
					"inputs": [],
					"name": "STAGE_DURATION",
					"outputs": [
						{
							"internalType": "uint256",
							"name": "",
							"type": "uint256"
						}
					],
					"stateMutability": "view",
					"type": "function"
				},
				{
					"inputs": [],
					"name": "WATER_DEPLETION_DURATION",
					"outputs": [
						{
							"internalType": "uint256",
							"name": "",
							"type": "uint256"
						}
					],
					"stateMutability": "view",
					"type": "function"
				},
				{
					"inputs": [],
					"name": "WATER_DEPLETION_RATE",
					"outputs": [
						{
							"internalType": "uint8",
							"name": "",
							"type": "uint8"
						}
					],
					"stateMutability": "view",
					"type": "function"
				},
				{
					"inputs": [
						{
							"internalType": "uint256",
							"name": "_plantId",
							"type": "uint256"
						}
					],
					"name": "calculateWaterLevel",
					"outputs": [
						{
							"internalType": "uint256",
							"name": "",
							"type": "uint256"
						}
					],
					"stateMutability": "view",
					"type": "function"
				},
				{
					"inputs": [
						{
							"internalType": "uint256",
							"name": "plantId",
							"type": "uint256"
						}
					],
					"name": "getPlant",
					"outputs": [
						{
							"components": [
								{
									"internalType": "uint256",
									"name": "plantId",
									"type": "uint256"
								},
								{
									"internalType": "address",
									"name": "owner",
									"type": "address"
								},
								{
									"internalType": "enum LiskGarden.GrowStage",
									"name": "stage",
									"type": "uint8"
								},
								{
									"internalType": "uint256",
									"name": "plantedDate",
									"type": "uint256"
								},
								{
									"internalType": "uint256",
									"name": "lastWatered",
									"type": "uint256"
								},
								{
									"internalType": "uint256",
									"name": "waterLevel",
									"type": "uint256"
								},
								{
									"internalType": "bool",
									"name": "exists",
									"type": "bool"
								},
								{
									"internalType": "bool",
									"name": "isDead",
									"type": "bool"
								}
							],
							"internalType": "struct LiskGarden.Plant",
							"name": "",
							"type": "tuple"
						}
					],
					"stateMutability": "view",
					"type": "function"
				},
				{
					"inputs": [
						{
							"internalType": "address",
							"name": "user",
							"type": "address"
						}
					],
					"name": "getUserPlants",
					"outputs": [
						{
							"internalType": "uint256[]",
							"name": "",
							"type": "uint256[]"
						}
					],
					"stateMutability": "view",
					"type": "function"
				},
				{
					"inputs": [
						{
							"internalType": "uint256",
							"name": "plantId",
							"type": "uint256"
						}
					],
					"name": "harvestPlant",
					"outputs": [],
					"stateMutability": "nonpayable",
					"type": "function"
				},
				{
					"inputs": [],
					"name": "owner",
					"outputs": [
						{
							"internalType": "address",
							"name": "",
							"type": "address"
						}
					],
					"stateMutability": "view",
					"type": "function"
				},
				{
					"inputs": [],
					"name": "plantCounter",
					"outputs": [
						{
							"internalType": "uint256",
							"name": "",
							"type": "uint256"
						}
					],
					"stateMutability": "view",
					"type": "function"
				},
				{
					"inputs": [],
					"name": "plantSeed",
					"outputs": [
						{
							"internalType": "uint256",
							"name": "",
							"type": "uint256"
						}
					],
					"stateMutability": "payable",
					"type": "function"
				},
				{
					"inputs": [
						{
							"internalType": "uint256",
							"name": "",
							"type": "uint256"
						}
					],
					"name": "plants",
					"outputs": [
						{
							"internalType": "uint256",
							"name": "plantId",
							"type": "uint256"
						},
						{
							"internalType": "address",
							"name": "owner",
							"type": "address"
						},
						{
							"internalType": "enum LiskGarden.GrowStage",
							"name": "stage",
							"type": "uint8"
						},
						{
							"internalType": "uint256",
							"name": "plantedDate",
							"type": "uint256"
						},
						{
							"internalType": "uint256",
							"name": "lastWatered",
							"type": "uint256"
						},
						{
							"internalType": "uint256",
							"name": "waterLevel",
							"type": "uint256"
						},
						{
							"internalType": "bool",
							"name": "exists",
							"type": "bool"
						},
						{
							"internalType": "bool",
							"name": "isDead",
							"type": "bool"
						}
					],
					"stateMutability": "view",
					"type": "function"
				},
				{
					"inputs": [
						{
							"internalType": "uint256",
							"name": "plantId",
							"type": "uint256"
						}
					],
					"name": "updatePlantStage",
					"outputs": [],
					"stateMutability": "nonpayable",
					"type": "function"
				},
				{
					"inputs": [
						{
							"internalType": "address",
							"name": "",
							"type": "address"
						},
						{
							"internalType": "uint256",
							"name": "",
							"type": "uint256"
						}
					],
					"name": "userPlants",
					"outputs": [
						{
							"internalType": "uint256",
							"name": "",
							"type": "uint256"
						}
					],
					"stateMutability": "view",
					"type": "function"
				},
				{
					"inputs": [
						{
							"internalType": "uint256",
							"name": "plantId",
							"type": "uint256"
						}
					],
					"name": "waterPlant",
					"outputs": [],
					"stateMutability": "nonpayable",
					"type": "function"
				},
				{
					"inputs": [],
					"name": "withdraw",
					"outputs": [],
					"stateMutability": "nonpayable",
					"type": "function"
				},
				{
					"stateMutability": "payable",
					"type": "receive"
				}
			],
			"devdoc": {
				"kind": "dev",
				"methods": {},
				"version": 1
			},
			"evm": {
				"assembly": "    /* \"Learn/Sesi-01-Challenge/LiskGarden.sol\":61:9812  contract LiskGarden {... */\n  mstore(0x40, 0x80)\n    /* \"Learn/Sesi-01-Challenge/LiskGarden.sol\":2916:2967  constructor() {... */\n  callvalue\n  dup1\n  iszero\n  tag_1\n  jumpi\n  revert(0x00, 0x00)\ntag_1:\n  pop\n    /* \"Learn/Sesi-01-Challenge/LiskGarden.sol\":2949:2959  msg.sender */\n  caller\n    /* \"Learn/Sesi-01-Challenge/LiskGarden.sol\":2941:2946  owner */\n  0x03\n  0x00\n    /* \"Learn/Sesi-01-Challenge/LiskGarden.sol\":2941:2959  owner = msg.sender */\n  0x0100\n  exp\n  dup2\n  sload\n  dup2\n  0xffffffffffffffffffffffffffffffffffffffff\n  mul\n  not\n  and\n  swap1\n  dup4\n  0xffffffffffffffffffffffffffffffffffffffff\n  and\n  mul\n  or\n  swap1\n  sstore\n  pop\n    /* \"Learn/Sesi-01-Challenge/LiskGarden.sol\":61:9812  contract LiskGarden {... */\n  dataSize(sub_0)\n  dup1\n  dataOffset(sub_0)\n  0x00\n  codecopy\n  0x00\n  return\nstop\n\nsub_0: assembly {\n        /* \"Learn/Sesi-01-Challenge/LiskGarden.sol\":61:9812  contract LiskGarden {... */\n      mstore(0x40, 0x80)\n      jumpi(tag_1, lt(calldatasize, 0x04))\n      shr(0xe0, calldataload(0x00))\n      dup1\n      0x8dd2361c\n      gt\n      tag_19\n      jumpi\n      dup1\n      0xcfc9a5f8\n      gt\n      tag_20\n      jumpi\n      dup1\n      0xcfc9a5f8\n      eq\n      tag_15\n      jumpi\n      dup1\n      0xddd42596\n      eq\n      tag_16\n      jumpi\n      dup1\n      0xe38f8448\n      eq\n      tag_17\n      jumpi\n      dup1\n      0xed0b1f5f\n      eq\n      tag_18\n      jumpi\n      jump(tag_2)\n    tag_20:\n      dup1\n      0x8dd2361c\n      eq\n      tag_11\n      jumpi\n      dup1\n      0x9886bcfa\n      eq\n      tag_12\n      jumpi\n      dup1\n      0x9c471749\n      eq\n      tag_13\n      jumpi\n      dup1\n      0xbacb5ebd\n      eq\n      tag_14\n      jumpi\n      jump(tag_2)\n    tag_19:\n      dup1\n      0x74119a38\n      gt\n      tag_21\n      jumpi\n      dup1\n      0x74119a38\n      eq\n      tag_7\n      jumpi\n      dup1\n      0x754e150d\n      eq\n      tag_8\n      jumpi\n      dup1\n      0x8aee578b\n      eq\n      tag_9\n      jumpi\n      dup1\n      0x8da5cb5b\n      eq\n      tag_10\n      jumpi\n      jump(tag_2)\n    tag_21:\n      dup1\n      0x30cec0eb\n      eq\n      tag_3\n      jumpi\n      dup1\n      0x3ccfd60b\n      eq\n      tag_4\n      jumpi\n      dup1\n      0x51f9efde\n      eq\n      tag_5\n      jumpi\n      dup1\n      0x5dba09bd\n      eq\n      tag_6\n      jumpi\n      jump(tag_2)\n    tag_1:\n      jumpi(tag_2, calldatasize)\n      stop\n    tag_2:\n      revert(0x00, 0x00)\n        /* \"Learn/Sesi-01-Challenge/LiskGarden.sol\":9445:9565  function getUserPlants(address user) external view returns (uint256[] memory) {... */\n    tag_3:\n      callvalue\n      dup1\n      iszero\n      tag_24\n      jumpi\n      revert(0x00, 0x00)\n    tag_24:\n      pop\n      tag_25\n      0x04\n      dup1\n      calldatasize\n      sub\n      dup2\n      add\n      swap1\n      tag_26\n      swap2\n      swap1\n      tag_27\n      jump\t// in\n    tag_26:\n      tag_28\n      jump\t// in\n    tag_25:\n      mload(0x40)\n      tag_29\n      swap2\n      swap1\n      tag_30\n      jump\t// in\n    tag_29:\n      mload(0x40)\n      dup1\n      swap2\n      sub\n      swap1\n      return\n        /* \"Learn/Sesi-01-Challenge/LiskGarden.sol\":9573:9772  function withdraw() external {... */\n    tag_4:\n      callvalue\n      dup1\n      iszero\n      tag_31\n      jumpi\n      revert(0x00, 0x00)\n    tag_31:\n      pop\n      tag_32\n      tag_33\n      jump\t// in\n    tag_32:\n      stop\n        /* \"Learn/Sesi-01-Challenge/LiskGarden.sol\":1670:1720  uint256 public constant STAGE_DURATION = 1 minutes */\n    tag_5:\n      callvalue\n      dup1\n      iszero\n      tag_34\n      jumpi\n      revert(0x00, 0x00)\n    tag_34:\n      pop\n      tag_35\n      tag_36\n      jump\t// in\n    tag_35:\n      mload(0x40)\n      tag_37\n      swap2\n      swap1\n      tag_38\n      jump\t// in\n    tag_37:\n      mload(0x40)\n      dup1\n      swap2\n      sub\n      swap1\n      return\n        /* \"Learn/Sesi-01-Challenge/LiskGarden.sol\":1773:1834  uint256 public constant WATER_DEPLETION_DURATION = 30 seconds */\n    tag_6:\n      callvalue\n      dup1\n      iszero\n      tag_39\n      jumpi\n      revert(0x00, 0x00)\n    tag_39:\n      pop\n      tag_40\n      tag_41\n      jump\t// in\n    tag_40:\n      mload(0x40)\n      tag_42\n      swap2\n      swap1\n      tag_38\n      jump\t// in\n    tag_42:\n      mload(0x40)\n      dup1\n      swap2\n      sub\n      swap1\n      return\n        /* \"Learn/Sesi-01-Challenge/LiskGarden.sol\":3018:3999  function plantSeed() external payable returns (uint256){... */\n    tag_7:\n      tag_43\n      tag_44\n      jump\t// in\n    tag_43:\n      mload(0x40)\n      tag_45\n      swap2\n      swap1\n      tag_38\n      jump\t// in\n    tag_45:\n      mload(0x40)\n      dup1\n      swap2\n      sub\n      swap1\n      return\n        /* \"Learn/Sesi-01-Challenge/LiskGarden.sol\":4007:5062  function calculateWaterLevel(uint256 _plantId) public view returns (uint256){... */\n    tag_8:\n      callvalue\n      dup1\n      iszero\n      tag_46\n      jumpi\n      revert(0x00, 0x00)\n    tag_46:\n      pop\n      tag_47\n      0x04\n      dup1\n      calldatasize\n      sub\n      dup2\n      add\n      swap1\n      tag_48\n      swap2\n      swap1\n      tag_49\n      jump\t// in\n    tag_48:\n      tag_50\n      jump\t// in\n    tag_47:\n      mload(0x40)\n      tag_51\n      swap2\n      swap1\n      tag_38\n      jump\t// in\n    tag_51:\n      mload(0x40)\n      dup1\n      swap2\n      sub\n      swap1\n      return\n        /* \"Learn/Sesi-01-Challenge/LiskGarden.sol\":1149:1196  mapping(address => uint256[]) public userPlants */\n    tag_9:\n      callvalue\n      dup1\n      iszero\n      tag_52\n      jumpi\n      revert(0x00, 0x00)\n    tag_52:\n      pop\n      tag_53\n      0x04\n      dup1\n      calldatasize\n      sub\n      dup2\n      add\n      swap1\n      tag_54\n      swap2\n      swap1\n      tag_55\n      jump\t// in\n    tag_54:\n      tag_56\n      jump\t// in\n    tag_53:\n      mload(0x40)\n      tag_57\n      swap2\n      swap1\n      tag_38\n      jump\t// in\n    tag_57:\n      mload(0x40)\n      dup1\n      swap2\n      sub\n      swap1\n      return\n        /* \"Learn/Sesi-01-Challenge/LiskGarden.sol\":1424:1444  address public owner */\n    tag_10:\n      callvalue\n      dup1\n      iszero\n      tag_58\n      jumpi\n      revert(0x00, 0x00)\n    tag_58:\n      pop\n      tag_59\n      tag_60\n      jump\t// in\n    tag_59:\n      mload(0x40)\n      tag_61\n      swap2\n      swap1\n      tag_62\n      jump\t// in\n    tag_61:\n      mload(0x40)\n      dup1\n      swap2\n      sub\n      swap1\n      return\n        /* \"Learn/Sesi-01-Challenge/LiskGarden.sol\":1022:1061  mapping(uint256 => Plant) public plants */\n    tag_11:\n      callvalue\n      dup1\n      iszero\n      tag_63\n      jumpi\n      revert(0x00, 0x00)\n    tag_63:\n      pop\n      tag_64\n      0x04\n      dup1\n      calldatasize\n      sub\n      dup2\n      add\n      swap1\n      tag_65\n      swap2\n      swap1\n      tag_49\n      jump\t// in\n    tag_65:\n      tag_66\n      jump\t// in\n    tag_64:\n      mload(0x40)\n      tag_67\n      swap9\n      swap8\n      swap7\n      swap6\n      swap5\n      swap4\n      swap3\n      swap2\n      swap1\n      tag_68\n      jump\t// in\n    tag_67:\n      mload(0x40)\n      dup1\n      swap2\n      sub\n      swap1\n      return\n        /* \"Learn/Sesi-01-Challenge/LiskGarden.sol\":5750:6419  function waterPlant(uint256 plantId) external {... */\n    tag_12:\n      callvalue\n      dup1\n      iszero\n      tag_69\n      jumpi\n      revert(0x00, 0x00)\n    tag_69:\n      pop\n      tag_70\n      0x04\n      dup1\n      calldatasize\n      sub\n      dup2\n      add\n      swap1\n      tag_71\n      swap2\n      swap1\n      tag_49\n      jump\t// in\n    tag_71:\n      tag_72\n      jump\t// in\n    tag_70:\n      stop\n        /* \"Learn/Sesi-01-Challenge/LiskGarden.sol\":1299:1326  uint256 public plantCounter */\n    tag_13:\n      callvalue\n      dup1\n      iszero\n      tag_73\n      jumpi\n      revert(0x00, 0x00)\n    tag_73:\n      pop\n      tag_74\n      tag_75\n      jump\t// in\n    tag_74:\n      mload(0x40)\n      tag_76\n      swap2\n      swap1\n      tag_38\n      jump\t// in\n    tag_76:\n      mload(0x40)\n      dup1\n      swap2\n      sub\n      swap1\n      return\n        /* \"Learn/Sesi-01-Challenge/LiskGarden.sol\":1893:1939  uint8 public constant WATER_DEPLETION_RATE = 2 */\n    tag_14:\n      callvalue\n      dup1\n      iszero\n      tag_77\n      jumpi\n      revert(0x00, 0x00)\n    tag_77:\n      pop\n      tag_78\n      tag_79\n      jump\t// in\n    tag_78:\n      mload(0x40)\n      tag_80\n      swap2\n      swap1\n      tag_81\n      jump\t// in\n    tag_80:\n      mload(0x40)\n      dup1\n      swap2\n      sub\n      swap1\n      return\n        /* \"Learn/Sesi-01-Challenge/LiskGarden.sol\":1486:1535  uint256 public constant PLANT_PRICE = 0.001 ether */\n    tag_15:\n      callvalue\n      dup1\n      iszero\n      tag_82\n      jumpi\n      revert(0x00, 0x00)\n    tag_82:\n      pop\n      tag_83\n      tag_84\n      jump\t// in\n    tag_83:\n      mload(0x40)\n      tag_85\n      swap2\n      swap1\n      tag_38\n      jump\t// in\n    tag_85:\n      mload(0x40)\n      dup1\n      swap2\n      sub\n      swap1\n      return\n        /* \"Learn/Sesi-01-Challenge/LiskGarden.sol\":6432:8259  function updatePlantStage(uint256 plantId) public  {... */\n    tag_16:\n      callvalue\n      dup1\n      iszero\n      tag_86\n      jumpi\n      revert(0x00, 0x00)\n    tag_86:\n      pop\n      tag_87\n      0x04\n      dup1\n      calldatasize\n      sub\n      dup2\n      add\n      swap1\n      tag_88\n      swap2\n      swap1\n      tag_49\n      jump\t// in\n    tag_88:\n      tag_89\n      jump\t// in\n    tag_87:\n      stop\n        /* \"Learn/Sesi-01-Challenge/LiskGarden.sol\":8267:9072  function harvestPlant(uint256 plantId) external {... */\n    tag_17:\n      callvalue\n      dup1\n      iszero\n      tag_90\n      jumpi\n      revert(0x00, 0x00)\n    tag_90:\n      pop\n      tag_91\n      0x04\n      dup1\n      calldatasize\n      sub\n      dup2\n      add\n      swap1\n      tag_92\n      swap2\n      swap1\n      tag_49\n      jump\t// in\n    tag_92:\n      tag_93\n      jump\t// in\n    tag_91:\n      stop\n        /* \"Learn/Sesi-01-Challenge/LiskGarden.sol\":9229:9437  function getPlant(uint256 plantId) external view returns (Plant memory) {... */\n    tag_18:\n      callvalue\n      dup1\n      iszero\n      tag_94\n      jumpi\n      revert(0x00, 0x00)\n    tag_94:\n      pop\n      tag_95\n      0x04\n      dup1\n      calldatasize\n      sub\n      dup2\n      add\n      swap1\n      tag_96\n      swap2\n      swap1\n      tag_49\n      jump\t// in\n    tag_96:\n      tag_97\n      jump\t// in\n    tag_95:\n      mload(0x40)\n      tag_98\n      swap2\n      swap1\n      tag_99\n      jump\t// in\n    tag_98:\n      mload(0x40)\n      dup1\n      swap2\n      sub\n      swap1\n      return\n        /* \"Learn/Sesi-01-Challenge/LiskGarden.sol\":9445:9565  function getUserPlants(address user) external view returns (uint256[] memory) {... */\n    tag_28:\n        /* \"Learn/Sesi-01-Challenge/LiskGarden.sol\":9505:9521  uint256[] memory */\n      0x60\n        /* \"Learn/Sesi-01-Challenge/LiskGarden.sol\":9541:9551  userPlants */\n      0x01\n        /* \"Learn/Sesi-01-Challenge/LiskGarden.sol\":9541:9557  userPlants[user] */\n      0x00\n        /* \"Learn/Sesi-01-Challenge/LiskGarden.sol\":9552:9556  user */\n      dup4\n        /* \"Learn/Sesi-01-Challenge/LiskGarden.sol\":9541:9557  userPlants[user] */\n      0xffffffffffffffffffffffffffffffffffffffff\n      and\n      0xffffffffffffffffffffffffffffffffffffffff\n      and\n      dup2\n      mstore\n      0x20\n      add\n      swap1\n      dup2\n      mstore\n      0x20\n      add\n      0x00\n      keccak256\n        /* \"Learn/Sesi-01-Challenge/LiskGarden.sol\":9534:9557  return userPlants[user] */\n      dup1\n      sload\n      dup1\n      0x20\n      mul\n      0x20\n      add\n      mload(0x40)\n      swap1\n      dup2\n      add\n      0x40\n      mstore\n      dup1\n      swap3\n      swap2\n      swap1\n      dup2\n      dup2\n      mstore\n      0x20\n      add\n      dup3\n      dup1\n      sload\n      dup1\n      iszero\n      tag_101\n      jumpi\n      0x20\n      mul\n      dup3\n      add\n      swap2\n      swap1\n      0x00\n      mstore\n      keccak256(0x00, 0x20)\n      swap1\n    tag_102:\n      dup2\n      sload\n      dup2\n      mstore\n      0x20\n      add\n      swap1\n      0x01\n      add\n      swap1\n      dup1\n      dup4\n      gt\n      tag_102\n      jumpi\n    tag_101:\n      pop\n      pop\n      pop\n      pop\n      pop\n      swap1\n      pop\n        /* \"Learn/Sesi-01-Challenge/LiskGarden.sol\":9445:9565  function getUserPlants(address user) external view returns (uint256[] memory) {... */\n      swap2\n      swap1\n      pop\n      jump\t// out\n        /* \"Learn/Sesi-01-Challenge/LiskGarden.sol\":9573:9772  function withdraw() external {... */\n    tag_33:\n        /* \"Learn/Sesi-01-Challenge/LiskGarden.sol\":9635:9640  owner */\n      0x03\n      0x00\n      swap1\n      sload\n      swap1\n      0x0100\n      exp\n      swap1\n      div\n      0xffffffffffffffffffffffffffffffffffffffff\n      and\n        /* \"Learn/Sesi-01-Challenge/LiskGarden.sol\":9621:9640  msg.sender == owner */\n      0xffffffffffffffffffffffffffffffffffffffff\n      and\n        /* \"Learn/Sesi-01-Challenge/LiskGarden.sol\":9621:9631  msg.sender */\n      caller\n        /* \"Learn/Sesi-01-Challenge/LiskGarden.sol\":9621:9640  msg.sender == owner */\n      0xffffffffffffffffffffffffffffffffffffffff\n      and\n      eq\n        /* \"Learn/Sesi-01-Challenge/LiskGarden.sol\":9613:9656  require(msg.sender == owner, \"Bukan owner\") */\n      tag_104\n      jumpi\n      mload(0x40)\n      0x08c379a000000000000000000000000000000000000000000000000000000000\n      dup2\n      mstore\n      0x04\n      add\n      tag_105\n      swap1\n      tag_106\n      jump\t// in\n    tag_105:\n      mload(0x40)\n      dup1\n      swap2\n      sub\n      swap1\n      revert\n    tag_104:\n        /* \"Learn/Sesi-01-Challenge/LiskGarden.sol\":9668:9680  bool success */\n      0x00\n        /* \"Learn/Sesi-01-Challenge/LiskGarden.sol\":9686:9691  owner */\n      0x03\n      0x00\n      swap1\n      sload\n      swap1\n      0x0100\n      exp\n      swap1\n      div\n      0xffffffffffffffffffffffffffffffffffffffff\n      and\n        /* \"Learn/Sesi-01-Challenge/LiskGarden.sol\":9686:9696  owner.call */\n      0xffffffffffffffffffffffffffffffffffffffff\n      and\n        /* \"Learn/Sesi-01-Challenge/LiskGarden.sol\":9704:9714  0.03 ether */\n      0x6a94d74f430000\n        /* \"Learn/Sesi-01-Challenge/LiskGarden.sol\":9686:9719  owner.call{value: 0.03 ether}(\"\") */\n      mload(0x40)\n      tag_107\n      swap1\n      tag_108\n      jump\t// in\n    tag_107:\n      0x00\n      mload(0x40)\n      dup1\n      dup4\n      sub\n      dup2\n      dup6\n      dup8\n      gas\n      call\n      swap3\n      pop\n      pop\n      pop\n      returndatasize\n      dup1\n      0x00\n      dup2\n      eq\n      tag_111\n      jumpi\n      mload(0x40)\n      swap2\n      pop\n      and(add(returndatasize, 0x3f), not(0x1f))\n      dup3\n      add\n      0x40\n      mstore\n      returndatasize\n      dup3\n      mstore\n      returndatasize\n      0x00\n      0x20\n      dup5\n      add\n      returndatacopy\n      jump(tag_110)\n    tag_111:\n      0x60\n      swap2\n      pop\n    tag_110:\n      pop\n        /* \"Learn/Sesi-01-Challenge/LiskGarden.sol\":9667:9719  (bool success, ) = owner.call{value: 0.03 ether}(\"\") */\n      pop\n      swap1\n      pop\n        /* \"Learn/Sesi-01-Challenge/LiskGarden.sol\":9738:9745  success */\n      dup1\n        /* \"Learn/Sesi-01-Challenge/LiskGarden.sol\":9730:9764  require(success, \"Transfer gagal\") */\n      tag_112\n      jumpi\n      mload(0x40)\n      0x08c379a000000000000000000000000000000000000000000000000000000000\n      dup2\n      mstore\n      0x04\n      add\n      tag_113\n      swap1\n      tag_114\n      jump\t// in\n    tag_113:\n      mload(0x40)\n      dup1\n      swap2\n      sub\n      swap1\n      revert\n    tag_112:\n        /* \"Learn/Sesi-01-Challenge/LiskGarden.sol\":9602:9772  {... */\n      pop\n        /* \"Learn/Sesi-01-Challenge/LiskGarden.sol\":9573:9772  function withdraw() external {... */\n      jump\t// out\n        /* \"Learn/Sesi-01-Challenge/LiskGarden.sol\":1670:1720  uint256 public constant STAGE_DURATION = 1 minutes */\n    tag_36:\n        /* \"Learn/Sesi-01-Challenge/LiskGarden.sol\":1711:1720  1 minutes */\n      0x3c\n        /* \"Learn/Sesi-01-Challenge/LiskGarden.sol\":1670:1720  uint256 public constant STAGE_DURATION = 1 minutes */\n      dup2\n      jump\t// out\n        /* \"Learn/Sesi-01-Challenge/LiskGarden.sol\":1773:1834  uint256 public constant WATER_DEPLETION_DURATION = 30 seconds */\n    tag_41:\n        /* \"Learn/Sesi-01-Challenge/LiskGarden.sol\":1824:1834  30 seconds */\n      0x1e\n        /* \"Learn/Sesi-01-Challenge/LiskGarden.sol\":1773:1834  uint256 public constant WATER_DEPLETION_DURATION = 30 seconds */\n      dup2\n      jump\t// out\n        /* \"Learn/Sesi-01-Challenge/LiskGarden.sol\":3018:3999  function plantSeed() external payable returns (uint256){... */\n    tag_44:\n        /* \"Learn/Sesi-01-Challenge/LiskGarden.sol\":3065:3072  uint256 */\n      0x00\n        /* \"Learn/Sesi-01-Challenge/LiskGarden.sol\":1524:1535  0.001 ether */\n      0x038d7ea4c68000\n        /* \"Learn/Sesi-01-Challenge/LiskGarden.sol\":3157:3166  msg.value */\n      callvalue\n        /* \"Learn/Sesi-01-Challenge/LiskGarden.sol\":3157:3181  msg.value >= PLANT_PRICE */\n      lt\n      iszero\n        /* \"Learn/Sesi-01-Challenge/LiskGarden.sol\":3149:3204  require(msg.value >= PLANT_PRICE, \"Minium 0.001 ether\") */\n      tag_116\n      jumpi\n      mload(0x40)\n      0x08c379a000000000000000000000000000000000000000000000000000000000\n      dup2\n      mstore\n      0x04\n      add\n      tag_117\n      swap1\n      tag_118\n      jump\t// in\n    tag_117:\n      mload(0x40)\n      dup1\n      swap2\n      sub\n      swap1\n      revert\n    tag_116:\n        /* \"Learn/Sesi-01-Challenge/LiskGarden.sol\":3290:3291  1 */\n      0x01\n        /* \"Learn/Sesi-01-Challenge/LiskGarden.sol\":3274:3286  plantCounter */\n      0x02\n      0x00\n        /* \"Learn/Sesi-01-Challenge/LiskGarden.sol\":3274:3291  plantCounter += 1 */\n      dup3\n      dup3\n      sload\n      tag_119\n      swap2\n      swap1\n      tag_120\n      jump\t// in\n    tag_119:\n      swap3\n      pop\n      pop\n      dup2\n      swap1\n      sstore\n      pop\n        /* \"Learn/Sesi-01-Challenge/LiskGarden.sol\":3364:3385  Plant memory newPlant */\n      0x00\n        /* \"Learn/Sesi-01-Challenge/LiskGarden.sol\":3388:3681  Plant({... */\n      mload(0x40)\n      dup1\n      0x0100\n      add\n      0x40\n      mstore\n      dup1\n        /* \"Learn/Sesi-01-Challenge/LiskGarden.sol\":3418:3430  plantCounter */\n      sload(0x02)\n        /* \"Learn/Sesi-01-Challenge/LiskGarden.sol\":3388:3681  Plant({... */\n      dup2\n      mstore\n      0x20\n      add\n        /* \"Learn/Sesi-01-Challenge/LiskGarden.sol\":3452:3462  msg.sender */\n      caller\n        /* \"Learn/Sesi-01-Challenge/LiskGarden.sol\":3388:3681  Plant({... */\n      0xffffffffffffffffffffffffffffffffffffffff\n      and\n      dup2\n      mstore\n      0x20\n      add\n        /* \"Learn/Sesi-01-Challenge/LiskGarden.sol\":3484:3498  GrowStage.SEED */\n      0x00\n        /* \"Learn/Sesi-01-Challenge/LiskGarden.sol\":3388:3681  Plant({... */\n      0x03\n      dup2\n      gt\n      iszero\n      tag_121\n      jumpi\n      tag_122\n      tag_123\n      jump\t// in\n    tag_122:\n    tag_121:\n      dup2\n      mstore\n      0x20\n      add\n        /* \"Learn/Sesi-01-Challenge/LiskGarden.sol\":3526:3541  block.timestamp */\n      timestamp\n        /* \"Learn/Sesi-01-Challenge/LiskGarden.sol\":3388:3681  Plant({... */\n      dup2\n      mstore\n      0x20\n      add\n        /* \"Learn/Sesi-01-Challenge/LiskGarden.sol\":3569:3584  block.timestamp */\n      timestamp\n        /* \"Learn/Sesi-01-Challenge/LiskGarden.sol\":3388:3681  Plant({... */\n      dup2\n      mstore\n      0x20\n      add\n        /* \"Learn/Sesi-01-Challenge/LiskGarden.sol\":3611:3614  100 */\n      0x64\n        /* \"Learn/Sesi-01-Challenge/LiskGarden.sol\":3388:3681  Plant({... */\n      dup2\n      mstore\n      0x20\n      add\n        /* \"Learn/Sesi-01-Challenge/LiskGarden.sol\":3637:3641  true */\n      0x01\n        /* \"Learn/Sesi-01-Challenge/LiskGarden.sol\":3388:3681  Plant({... */\n      iszero\n      iszero\n      dup2\n      mstore\n      0x20\n      add\n        /* \"Learn/Sesi-01-Challenge/LiskGarden.sol\":3664:3669  false */\n      0x00\n        /* \"Learn/Sesi-01-Challenge/LiskGarden.sol\":3388:3681  Plant({... */\n      iszero\n      iszero\n      dup2\n      mstore\n      pop\n        /* \"Learn/Sesi-01-Challenge/LiskGarden.sol\":3364:3681  Plant memory newPlant = Plant({... */\n      swap1\n      pop\n        /* \"Learn/Sesi-01-Challenge/LiskGarden.sol\":3781:3789  newPlant */\n      dup1\n        /* \"Learn/Sesi-01-Challenge/LiskGarden.sol\":3758:3764  plants */\n      0x00\n        /* \"Learn/Sesi-01-Challenge/LiskGarden.sol\":3758:3778  plants[plantCounter] */\n      0x00\n        /* \"Learn/Sesi-01-Challenge/LiskGarden.sol\":3765:3777  plantCounter */\n      sload(0x02)\n        /* \"Learn/Sesi-01-Challenge/LiskGarden.sol\":3758:3778  plants[plantCounter] */\n      dup2\n      mstore\n      0x20\n      add\n      swap1\n      dup2\n      mstore\n      0x20\n      add\n      0x00\n      keccak256\n        /* \"Learn/Sesi-01-Challenge/LiskGarden.sol\":3758:3789  plants[plantCounter] = newPlant */\n      0x00\n      dup3\n      add\n      mload\n      dup2\n      0x00\n      add\n      sstore\n      0x20\n      dup3\n      add\n      mload\n      dup2\n      0x01\n      add\n      exp(0x0100, 0x00)\n      dup2\n      sload\n      dup2\n      0xffffffffffffffffffffffffffffffffffffffff\n      mul\n      not\n      and\n      swap1\n      dup4\n      0xffffffffffffffffffffffffffffffffffffffff\n      and\n      mul\n      or\n      swap1\n      sstore\n      pop\n      0x40\n      dup3\n      add\n      mload\n      dup2\n      0x01\n      add\n      exp(0x0100, 0x14)\n      dup2\n      sload\n      dup2\n      0xff\n      mul\n      not\n      and\n      swap1\n      dup4\n      0x03\n      dup2\n      gt\n      iszero\n      tag_124\n      jumpi\n      tag_125\n      tag_123\n      jump\t// in\n    tag_125:\n    tag_124:\n      mul\n      or\n      swap1\n      sstore\n      pop\n      0x60\n      dup3\n      add\n      mload\n      dup2\n      0x02\n      add\n      sstore\n      0x80\n      dup3\n      add\n      mload\n      dup2\n      0x03\n      add\n      sstore\n      0xa0\n      dup3\n      add\n      mload\n      dup2\n      0x04\n      add\n      sstore\n      0xc0\n      dup3\n      add\n      mload\n      dup2\n      0x05\n      add\n      exp(0x0100, 0x00)\n      dup2\n      sload\n      dup2\n      0xff\n      mul\n      not\n      and\n      swap1\n      dup4\n      iszero\n      iszero\n      mul\n      or\n      swap1\n      sstore\n      pop\n      0xe0\n      dup3\n      add\n      mload\n      dup2\n      0x05\n      add\n      exp(0x0100, 0x01)\n      dup2\n      sload\n      dup2\n      0xff\n      mul\n      not\n      and\n      swap1\n      dup4\n      iszero\n      iszero\n      mul\n      or\n      swap1\n      sstore\n      pop\n      swap1\n      pop\n      pop\n        /* \"Learn/Sesi-01-Challenge/LiskGarden.sol\":3892:3900  newPlant */\n      dup1\n        /* \"Learn/Sesi-01-Challenge/LiskGarden.sol\":3892:3908  newPlant.plantId */\n      0x00\n      add\n      mload\n        /* \"Learn/Sesi-01-Challenge/LiskGarden.sol\":3876:3884  newPlant */\n      dup2\n        /* \"Learn/Sesi-01-Challenge/LiskGarden.sol\":3876:3890  newPlant.owner */\n      0x20\n      add\n      mload\n        /* \"Learn/Sesi-01-Challenge/LiskGarden.sol\":3864:3909  PlantSeeded(newPlant.owner, newPlant.plantId) */\n      0xffffffffffffffffffffffffffffffffffffffff\n      and\n      0x4f5b22082ac57121703b0b6c1203ef527cfbfa5069616fee6deb979d124adbf0\n      mload(0x40)\n      mload(0x40)\n      dup1\n      swap2\n      sub\n      swap1\n      log3\n        /* \"Learn/Sesi-01-Challenge/LiskGarden.sol\":3979:3991  plantCounter */\n      sload(0x02)\n        /* \"Learn/Sesi-01-Challenge/LiskGarden.sol\":3972:3991  return plantCounter */\n      swap2\n      pop\n      pop\n        /* \"Learn/Sesi-01-Challenge/LiskGarden.sol\":3018:3999  function plantSeed() external payable returns (uint256){... */\n      swap1\n      jump\t// out\n        /* \"Learn/Sesi-01-Challenge/LiskGarden.sol\":4007:5062  function calculateWaterLevel(uint256 _plantId) public view returns (uint256){... */\n    tag_50:\n        /* \"Learn/Sesi-01-Challenge/LiskGarden.sol\":4075:4082  uint256 */\n      0x00\n        /* \"Learn/Sesi-01-Challenge/LiskGarden.sol\":4135:4156  Plant storage myPlant */\n      0x00\n        /* \"Learn/Sesi-01-Challenge/LiskGarden.sol\":4159:4165  plants */\n      0x00\n        /* \"Learn/Sesi-01-Challenge/LiskGarden.sol\":4159:4176  plants[ _plantId] */\n      0x00\n        /* \"Learn/Sesi-01-Challenge/LiskGarden.sol\":4167:4175  _plantId */\n      dup5\n        /* \"Learn/Sesi-01-Challenge/LiskGarden.sol\":4159:4176  plants[ _plantId] */\n      dup2\n      mstore\n      0x20\n      add\n      swap1\n      dup2\n      mstore\n      0x20\n      add\n      0x00\n      keccak256\n        /* \"Learn/Sesi-01-Challenge/LiskGarden.sol\":4135:4176  Plant storage myPlant = plants[ _plantId] */\n      swap1\n      pop\n        /* \"Learn/Sesi-01-Challenge/LiskGarden.sol\":4259:4263  true */\n      0x01\n        /* \"Learn/Sesi-01-Challenge/LiskGarden.sol\":4241:4263  myPlant.isDead == true */\n      iszero\n      iszero\n        /* \"Learn/Sesi-01-Challenge/LiskGarden.sol\":4241:4248  myPlant */\n      dup2\n        /* \"Learn/Sesi-01-Challenge/LiskGarden.sol\":4241:4255  myPlant.isDead */\n      0x05\n      add\n      0x01\n      swap1\n      sload\n      swap1\n      0x0100\n      exp\n      swap1\n      div\n      0xff\n      and\n        /* \"Learn/Sesi-01-Challenge/LiskGarden.sol\":4241:4263  myPlant.isDead == true */\n      iszero\n      iszero\n      eq\n        /* \"Learn/Sesi-01-Challenge/LiskGarden.sol\":4241:4290  myPlant.isDead == true || myPlant.exists == false */\n      dup1\n      tag_127\n      jumpi\n      pop\n        /* \"Learn/Sesi-01-Challenge/LiskGarden.sol\":4285:4290  false */\n      0x00\n        /* \"Learn/Sesi-01-Challenge/LiskGarden.sol\":4267:4290  myPlant.exists == false */\n      iszero\n      iszero\n        /* \"Learn/Sesi-01-Challenge/LiskGarden.sol\":4267:4274  myPlant */\n      dup2\n        /* \"Learn/Sesi-01-Challenge/LiskGarden.sol\":4267:4281  myPlant.exists */\n      0x05\n      add\n      0x00\n      swap1\n      sload\n      swap1\n      0x0100\n      exp\n      swap1\n      div\n      0xff\n      and\n        /* \"Learn/Sesi-01-Challenge/LiskGarden.sol\":4267:4290  myPlant.exists == false */\n      iszero\n      iszero\n      eq\n        /* \"Learn/Sesi-01-Challenge/LiskGarden.sol\":4241:4290  myPlant.isDead == true || myPlant.exists == false */\n    tag_127:\n        /* \"Learn/Sesi-01-Challenge/LiskGarden.sol\":4237:4327  if (myPlant.isDead == true || myPlant.exists == false) {... */\n      iszero\n      tag_128\n      jumpi\n        /* \"Learn/Sesi-01-Challenge/LiskGarden.sol\":4314:4315  0 */\n      0x00\n        /* \"Learn/Sesi-01-Challenge/LiskGarden.sol\":4307:4315  return 0 */\n      swap2\n      pop\n      pop\n      jump(tag_126)\n        /* \"Learn/Sesi-01-Challenge/LiskGarden.sol\":4237:4327  if (myPlant.isDead == true || myPlant.exists == false) {... */\n    tag_128:\n        /* \"Learn/Sesi-01-Challenge/LiskGarden.sol\":4403:4429  uint256 timeSinceIntervals */\n      0x00\n        /* \"Learn/Sesi-01-Challenge/LiskGarden.sol\":4450:4457  myPlant */\n      dup2\n        /* \"Learn/Sesi-01-Challenge/LiskGarden.sol\":4450:4469  myPlant.lastWatered */\n      0x03\n      add\n      sload\n        /* \"Learn/Sesi-01-Challenge/LiskGarden.sol\":4432:4447  block.timestamp */\n      timestamp\n        /* \"Learn/Sesi-01-Challenge/LiskGarden.sol\":4432:4469  block.timestamp - myPlant.lastWatered */\n      tag_129\n      swap2\n      swap1\n      tag_130\n      jump\t// in\n    tag_129:\n        /* \"Learn/Sesi-01-Challenge/LiskGarden.sol\":4403:4469  uint256 timeSinceIntervals = block.timestamp - myPlant.lastWatered */\n      swap1\n      pop\n        /* \"Learn/Sesi-01-Challenge/LiskGarden.sol\":4587:4613  uint256 depletionIntervals */\n      0x00\n        /* \"Learn/Sesi-01-Challenge/LiskGarden.sol\":1824:1834  30 seconds */\n      0x1e\n        /* \"Learn/Sesi-01-Challenge/LiskGarden.sol\":4616:4634  timeSinceIntervals */\n      dup3\n        /* \"Learn/Sesi-01-Challenge/LiskGarden.sol\":4616:4661  timeSinceIntervals - WATER_DEPLETION_DURATION */\n      tag_131\n      swap2\n      swap1\n      tag_130\n      jump\t// in\n    tag_131:\n        /* \"Learn/Sesi-01-Challenge/LiskGarden.sol\":4587:4661  uint256 depletionIntervals = timeSinceIntervals - WATER_DEPLETION_DURATION */\n      swap1\n      pop\n        /* \"Learn/Sesi-01-Challenge/LiskGarden.sol\":4719:4736  uint256 waterlost */\n      0x00\n        /* \"Learn/Sesi-01-Challenge/LiskGarden.sol\":1824:1834  30 seconds */\n      0x1e\n        /* \"Learn/Sesi-01-Challenge/LiskGarden.sol\":4739:4757  depletionIntervals */\n      dup3\n        /* \"Learn/Sesi-01-Challenge/LiskGarden.sol\":4739:4784  depletionIntervals * WATER_DEPLETION_DURATION */\n      tag_132\n      swap2\n      swap1\n      tag_133\n      jump\t// in\n    tag_132:\n        /* \"Learn/Sesi-01-Challenge/LiskGarden.sol\":4719:4784  uint256 waterlost = depletionIntervals * WATER_DEPLETION_DURATION */\n      swap1\n      pop\n        /* \"Learn/Sesi-01-Challenge/LiskGarden.sol\":4905:4912  myPlant */\n      dup4\n        /* \"Learn/Sesi-01-Challenge/LiskGarden.sol\":4905:4923  myPlant.waterLevel */\n      0x04\n      add\n      sload\n        /* \"Learn/Sesi-01-Challenge/LiskGarden.sol\":4892:4901  waterlost */\n      dup2\n        /* \"Learn/Sesi-01-Challenge/LiskGarden.sol\":4892:4923  waterlost >= myPlant.waterLevel */\n      lt\n        /* \"Learn/Sesi-01-Challenge/LiskGarden.sol\":4888:4960  if (waterlost >= myPlant.waterLevel) {... */\n      tag_134\n      jumpi\n        /* \"Learn/Sesi-01-Challenge/LiskGarden.sol\":4947:4948  0 */\n      0x00\n        /* \"Learn/Sesi-01-Challenge/LiskGarden.sol\":4940:4948  return 0 */\n      swap5\n      pop\n      pop\n      pop\n      pop\n      pop\n      jump(tag_126)\n        /* \"Learn/Sesi-01-Challenge/LiskGarden.sol\":4888:4960  if (waterlost >= myPlant.waterLevel) {... */\n    tag_134:\n        /* \"Learn/Sesi-01-Challenge/LiskGarden.sol\":5045:5054  waterlost */\n      dup1\n        /* \"Learn/Sesi-01-Challenge/LiskGarden.sol\":5024:5031  myPlant */\n      dup5\n        /* \"Learn/Sesi-01-Challenge/LiskGarden.sol\":5024:5042  myPlant.waterLevel */\n      0x04\n      add\n      sload\n        /* \"Learn/Sesi-01-Challenge/LiskGarden.sol\":5024:5054  myPlant.waterLevel - waterlost */\n      tag_135\n      swap2\n      swap1\n      tag_130\n      jump\t// in\n    tag_135:\n        /* \"Learn/Sesi-01-Challenge/LiskGarden.sol\":5017:5054  return myPlant.waterLevel - waterlost */\n      swap5\n      pop\n      pop\n      pop\n      pop\n      pop\n        /* \"Learn/Sesi-01-Challenge/LiskGarden.sol\":4007:5062  function calculateWaterLevel(uint256 _plantId) public view returns (uint256){... */\n    tag_126:\n      swap2\n      swap1\n      pop\n      jump\t// out\n        /* \"Learn/Sesi-01-Challenge/LiskGarden.sol\":1149:1196  mapping(address => uint256[]) public userPlants */\n    tag_56:\n      mstore(0x20, 0x01)\n      dup2\n      0x00\n      mstore\n      keccak256(0x00, 0x40)\n      dup2\n      dup2\n      sload\n      dup2\n      lt\n      tag_136\n      jumpi\n      0x00\n      dup1\n      revert\n    tag_136:\n      swap1\n      0x00\n      mstore\n      keccak256(0x00, 0x20)\n      add\n      0x00\n      swap2\n      pop\n      swap2\n      pop\n      pop\n      sload\n      dup2\n      jump\t// out\n        /* \"Learn/Sesi-01-Challenge/LiskGarden.sol\":1424:1444  address public owner */\n    tag_60:\n      0x03\n      0x00\n      swap1\n      sload\n      swap1\n      0x0100\n      exp\n      swap1\n      div\n      0xffffffffffffffffffffffffffffffffffffffff\n      and\n      dup2\n      jump\t// out\n        /* \"Learn/Sesi-01-Challenge/LiskGarden.sol\":1022:1061  mapping(uint256 => Plant) public plants */\n    tag_66:\n      mstore(0x20, 0x00)\n      dup1\n      0x00\n      mstore\n      keccak256(0x00, 0x40)\n      0x00\n      swap2\n      pop\n      swap1\n      pop\n      dup1\n      0x00\n      add\n      sload\n      swap1\n      dup1\n      0x01\n      add\n      0x00\n      swap1\n      sload\n      swap1\n      0x0100\n      exp\n      swap1\n      div\n      0xffffffffffffffffffffffffffffffffffffffff\n      and\n      swap1\n      dup1\n      0x01\n      add\n      0x14\n      swap1\n      sload\n      swap1\n      0x0100\n      exp\n      swap1\n      div\n      0xff\n      and\n      swap1\n      dup1\n      0x02\n      add\n      sload\n      swap1\n      dup1\n      0x03\n      add\n      sload\n      swap1\n      dup1\n      0x04\n      add\n      sload\n      swap1\n      dup1\n      0x05\n      add\n      0x00\n      swap1\n      sload\n      swap1\n      0x0100\n      exp\n      swap1\n      div\n      0xff\n      and\n      swap1\n      dup1\n      0x05\n      add\n      0x01\n      swap1\n      sload\n      swap1\n      0x0100\n      exp\n      swap1\n      div\n      0xff\n      and\n      swap1\n      pop\n      dup9\n      jump\t// out\n        /* \"Learn/Sesi-01-Challenge/LiskGarden.sol\":5750:6419  function waterPlant(uint256 plantId) external {... */\n    tag_72:\n        /* \"Learn/Sesi-01-Challenge/LiskGarden.sol\":5850:5870  Plant memory myPlant */\n      0x00\n        /* \"Learn/Sesi-01-Challenge/LiskGarden.sol\":5873:5879  plants */\n      0x00\n        /* \"Learn/Sesi-01-Challenge/LiskGarden.sol\":5873:5888  plants[plantId] */\n      0x00\n        /* \"Learn/Sesi-01-Challenge/LiskGarden.sol\":5880:5887  plantId */\n      dup4\n        /* \"Learn/Sesi-01-Challenge/LiskGarden.sol\":5873:5888  plants[plantId] */\n      dup2\n      mstore\n      0x20\n      add\n      swap1\n      dup2\n      mstore\n      0x20\n      add\n      0x00\n      keccak256\n        /* \"Learn/Sesi-01-Challenge/LiskGarden.sol\":5850:5888  Plant memory myPlant = plants[plantId] */\n      mload(0x40)\n      dup1\n      0x0100\n      add\n      0x40\n      mstore\n      swap1\n      dup2\n      0x00\n      dup3\n      add\n      sload\n      dup2\n      mstore\n      0x20\n      add\n      0x01\n      dup3\n      add\n      0x00\n      swap1\n      sload\n      swap1\n      0x0100\n      exp\n      swap1\n      div\n      0xffffffffffffffffffffffffffffffffffffffff\n      and\n      0xffffffffffffffffffffffffffffffffffffffff\n      and\n      0xffffffffffffffffffffffffffffffffffffffff\n      and\n      dup2\n      mstore\n      0x20\n      add\n      0x01\n      dup3\n      add\n      0x14\n      swap1\n      sload\n      swap1\n      0x0100\n      exp\n      swap1\n      div\n      0xff\n      and\n      0x03\n      dup2\n      gt\n      iszero\n      tag_139\n      jumpi\n      tag_140\n      tag_123\n      jump\t// in\n    tag_140:\n    tag_139:\n      0x03\n      dup2\n      gt\n      iszero\n      tag_141\n      jumpi\n      tag_142\n      tag_123\n      jump\t// in\n    tag_142:\n    tag_141:\n      dup2\n      mstore\n      0x20\n      add\n      0x02\n      dup3\n      add\n      sload\n      dup2\n      mstore\n      0x20\n      add\n      0x03\n      dup3\n      add\n      sload\n      dup2\n      mstore\n      0x20\n      add\n      0x04\n      dup3\n      add\n      sload\n      dup2\n      mstore\n      0x20\n      add\n      0x05\n      dup3\n      add\n      0x00\n      swap1\n      sload\n      swap1\n      0x0100\n      exp\n      swap1\n      div\n      0xff\n      and\n      iszero\n      iszero\n      iszero\n      iszero\n      dup2\n      mstore\n      0x20\n      add\n      0x05\n      dup3\n      add\n      0x01\n      swap1\n      sload\n      swap1\n      0x0100\n      exp\n      swap1\n      div\n      0xff\n      and\n      iszero\n      iszero\n      iszero\n      iszero\n      dup2\n      mstore\n      pop\n      pop\n      swap1\n      pop\n        /* \"Learn/Sesi-01-Challenge/LiskGarden.sol\":5960:5965  false */\n      0x00\n        /* \"Learn/Sesi-01-Challenge/LiskGarden.sol\":5942:5965  myPlant.exists == false */\n      iszero\n      iszero\n        /* \"Learn/Sesi-01-Challenge/LiskGarden.sol\":5942:5949  myPlant */\n      dup2\n        /* \"Learn/Sesi-01-Challenge/LiskGarden.sol\":5942:5956  myPlant.exists */\n      0xc0\n      add\n      mload\n        /* \"Learn/Sesi-01-Challenge/LiskGarden.sol\":5942:5965  myPlant.exists == false */\n      iszero\n      iszero\n      eq\n        /* \"Learn/Sesi-01-Challenge/LiskGarden.sol\":5934:5992  require(myPlant.exists == false,\"tanaman tidak ditemukan\") */\n      tag_143\n      jumpi\n      mload(0x40)\n      0x08c379a000000000000000000000000000000000000000000000000000000000\n      dup2\n      mstore\n      0x04\n      add\n      tag_144\n      swap1\n      tag_145\n      jump\t// in\n    tag_144:\n      mload(0x40)\n      dup1\n      swap2\n      sub\n      swap1\n      revert\n    tag_143:\n        /* \"Learn/Sesi-01-Challenge/LiskGarden.sol\":6071:6075  true */\n      0x01\n        /* \"Learn/Sesi-01-Challenge/LiskGarden.sol\":6053:6075  myPlant.isDead == true */\n      iszero\n      iszero\n        /* \"Learn/Sesi-01-Challenge/LiskGarden.sol\":6053:6060  myPlant */\n      dup2\n        /* \"Learn/Sesi-01-Challenge/LiskGarden.sol\":6053:6067  myPlant.isDead */\n      0xe0\n      add\n      mload\n        /* \"Learn/Sesi-01-Challenge/LiskGarden.sol\":6053:6075  myPlant.isDead == true */\n      iszero\n      iszero\n      eq\n        /* \"Learn/Sesi-01-Challenge/LiskGarden.sol\":6045:6098  require(myPlant.isDead == true, \"Tanaman sudah mati\") */\n      tag_146\n      jumpi\n      mload(0x40)\n      0x08c379a000000000000000000000000000000000000000000000000000000000\n      dup2\n      mstore\n      0x04\n      add\n      tag_147\n      swap1\n      tag_148\n      jump\t// in\n    tag_147:\n      mload(0x40)\n      dup1\n      swap2\n      sub\n      swap1\n      revert\n    tag_146:\n        /* \"Learn/Sesi-01-Challenge/LiskGarden.sol\":6197:6200  100 */\n      0x64\n        /* \"Learn/Sesi-01-Challenge/LiskGarden.sol\":6176:6183  myPlant */\n      dup2\n        /* \"Learn/Sesi-01-Challenge/LiskGarden.sol\":6176:6194  myPlant.waterLevel */\n      0xa0\n      add\n        /* \"Learn/Sesi-01-Challenge/LiskGarden.sol\":6176:6200  myPlant.waterLevel = 100 */\n      dup2\n      dup2\n      mstore\n      pop\n      pop\n        /* \"Learn/Sesi-01-Challenge/LiskGarden.sol\":6233:6248  block.timestamp */\n      timestamp\n        /* \"Learn/Sesi-01-Challenge/LiskGarden.sol\":6211:6218  myPlant */\n      dup2\n        /* \"Learn/Sesi-01-Challenge/LiskGarden.sol\":6211:6230  myPlant.lastWatered */\n      0x80\n      add\n        /* \"Learn/Sesi-01-Challenge/LiskGarden.sol\":6211:6248  myPlant.lastWatered = block.timestamp */\n      dup2\n      dup2\n      mstore\n      pop\n      pop\n        /* \"Learn/Sesi-01-Challenge/LiskGarden.sol\":6346:6353  plantId */\n      dup2\n        /* \"Learn/Sesi-01-Challenge/LiskGarden.sol\":6333:6373  PlantWatered(plantId,myPlant.waterLevel) */\n      0xfa682feb3090180eda377672ba020dae237bd124aee1085e233d47762b7e4e81\n        /* \"Learn/Sesi-01-Challenge/LiskGarden.sol\":6354:6361  myPlant */\n      dup3\n        /* \"Learn/Sesi-01-Challenge/LiskGarden.sol\":6354:6372  myPlant.waterLevel */\n      0xa0\n      add\n      mload\n        /* \"Learn/Sesi-01-Challenge/LiskGarden.sol\":6333:6373  PlantWatered(plantId,myPlant.waterLevel) */\n      mload(0x40)\n      tag_149\n      swap2\n      swap1\n      tag_38\n      jump\t// in\n    tag_149:\n      mload(0x40)\n      dup1\n      swap2\n      sub\n      swap1\n      log2\n        /* \"Learn/Sesi-01-Challenge/LiskGarden.sol\":6386:6411  updatePlantStage(plantId) */\n      tag_150\n        /* \"Learn/Sesi-01-Challenge/LiskGarden.sol\":6403:6410  plantId */\n      dup3\n        /* \"Learn/Sesi-01-Challenge/LiskGarden.sol\":6386:6402  updatePlantStage */\n      tag_89\n        /* \"Learn/Sesi-01-Challenge/LiskGarden.sol\":6386:6411  updatePlantStage(plantId) */\n      jump\t// in\n    tag_150:\n        /* \"Learn/Sesi-01-Challenge/LiskGarden.sol\":5796:6419  {... */\n      pop\n        /* \"Learn/Sesi-01-Challenge/LiskGarden.sol\":5750:6419  function waterPlant(uint256 plantId) external {... */\n      pop\n      jump\t// out\n        /* \"Learn/Sesi-01-Challenge/LiskGarden.sol\":1299:1326  uint256 public plantCounter */\n    tag_75:\n      sload(0x02)\n      dup2\n      jump\t// out\n        /* \"Learn/Sesi-01-Challenge/LiskGarden.sol\":1893:1939  uint8 public constant WATER_DEPLETION_RATE = 2 */\n    tag_79:\n        /* \"Learn/Sesi-01-Challenge/LiskGarden.sol\":1938:1939  2 */\n      0x02\n        /* \"Learn/Sesi-01-Challenge/LiskGarden.sol\":1893:1939  uint8 public constant WATER_DEPLETION_RATE = 2 */\n      dup2\n      jump\t// out\n        /* \"Learn/Sesi-01-Challenge/LiskGarden.sol\":1486:1535  uint256 public constant PLANT_PRICE = 0.001 ether */\n    tag_84:\n        /* \"Learn/Sesi-01-Challenge/LiskGarden.sol\":1524:1535  0.001 ether */\n      0x038d7ea4c68000\n        /* \"Learn/Sesi-01-Challenge/LiskGarden.sol\":1486:1535  uint256 public constant PLANT_PRICE = 0.001 ether */\n      dup2\n      jump\t// out\n        /* \"Learn/Sesi-01-Challenge/LiskGarden.sol\":6432:8259  function updatePlantStage(uint256 plantId) public  {... */\n    tag_89:\n        /* \"Learn/Sesi-01-Challenge/LiskGarden.sol\":6537:6557  Plant memory myPlant */\n      0x00\n        /* \"Learn/Sesi-01-Challenge/LiskGarden.sol\":6560:6566  plants */\n      0x00\n        /* \"Learn/Sesi-01-Challenge/LiskGarden.sol\":6560:6575  plants[plantId] */\n      0x00\n        /* \"Learn/Sesi-01-Challenge/LiskGarden.sol\":6567:6574  plantId */\n      dup4\n        /* \"Learn/Sesi-01-Challenge/LiskGarden.sol\":6560:6575  plants[plantId] */\n      dup2\n      mstore\n      0x20\n      add\n      swap1\n      dup2\n      mstore\n      0x20\n      add\n      0x00\n      keccak256\n        /* \"Learn/Sesi-01-Challenge/LiskGarden.sol\":6537:6575  Plant memory myPlant = plants[plantId] */\n      mload(0x40)\n      dup1\n      0x0100\n      add\n      0x40\n      mstore\n      swap1\n      dup2\n      0x00\n      dup3\n      add\n      sload\n      dup2\n      mstore\n      0x20\n      add\n      0x01\n      dup3\n      add\n      0x00\n      swap1\n      sload\n      swap1\n      0x0100\n      exp\n      swap1\n      div\n      0xffffffffffffffffffffffffffffffffffffffff\n      and\n      0xffffffffffffffffffffffffffffffffffffffff\n      and\n      0xffffffffffffffffffffffffffffffffffffffff\n      and\n      dup2\n      mstore\n      0x20\n      add\n      0x01\n      dup3\n      add\n      0x14\n      swap1\n      sload\n      swap1\n      0x0100\n      exp\n      swap1\n      div\n      0xff\n      and\n      0x03\n      dup2\n      gt\n      iszero\n      tag_152\n      jumpi\n      tag_153\n      tag_123\n      jump\t// in\n    tag_153:\n    tag_152:\n      0x03\n      dup2\n      gt\n      iszero\n      tag_154\n      jumpi\n      tag_155\n      tag_123\n      jump\t// in\n    tag_155:\n    tag_154:\n      dup2\n      mstore\n      0x20\n      add\n      0x02\n      dup3\n      add\n      sload\n      dup2\n      mstore\n      0x20\n      add\n      0x03\n      dup3\n      add\n      sload\n      dup2\n      mstore\n      0x20\n      add\n      0x04\n      dup3\n      add\n      sload\n      dup2\n      mstore\n      0x20\n      add\n      0x05\n      dup3\n      add\n      0x00\n      swap1\n      sload\n      swap1\n      0x0100\n      exp\n      swap1\n      div\n      0xff\n      and\n      iszero\n      iszero\n      iszero\n      iszero\n      dup2\n      mstore\n      0x20\n      add\n      0x05\n      dup3\n      add\n      0x01\n      swap1\n      sload\n      swap1\n      0x0100\n      exp\n      swap1\n      div\n      0xff\n      and\n      iszero\n      iszero\n      iszero\n      iszero\n      dup2\n      mstore\n      pop\n      pop\n      swap1\n      pop\n        /* \"Learn/Sesi-01-Challenge/LiskGarden.sol\":6648:6653  false */\n      0x00\n        /* \"Learn/Sesi-01-Challenge/LiskGarden.sol\":6630:6653  myPlant.exists == false */\n      iszero\n      iszero\n        /* \"Learn/Sesi-01-Challenge/LiskGarden.sol\":6630:6637  myPlant */\n      dup2\n        /* \"Learn/Sesi-01-Challenge/LiskGarden.sol\":6630:6644  myPlant.exists */\n      0xc0\n      add\n      mload\n        /* \"Learn/Sesi-01-Challenge/LiskGarden.sol\":6630:6653  myPlant.exists == false */\n      iszero\n      iszero\n      eq\n        /* \"Learn/Sesi-01-Challenge/LiskGarden.sol\":6622:6680  require(myPlant.exists == false,\"tanaman tidak ditemukan\") */\n      tag_156\n      jumpi\n      mload(0x40)\n      0x08c379a000000000000000000000000000000000000000000000000000000000\n      dup2\n      mstore\n      0x04\n      add\n      tag_157\n      swap1\n      tag_145\n      jump\t// in\n    tag_157:\n      mload(0x40)\n      dup1\n      swap2\n      sub\n      swap1\n      revert\n    tag_156:\n        /* \"Learn/Sesi-01-Challenge/LiskGarden.sol\":6739:6764  updateWaterLevel(plantId) */\n      tag_158\n        /* \"Learn/Sesi-01-Challenge/LiskGarden.sol\":6756:6763  plantId */\n      dup3\n        /* \"Learn/Sesi-01-Challenge/LiskGarden.sol\":6739:6755  updateWaterLevel */\n      tag_159\n        /* \"Learn/Sesi-01-Challenge/LiskGarden.sol\":6739:6764  updateWaterLevel(plantId) */\n      jump\t// in\n    tag_158:\n        /* \"Learn/Sesi-01-Challenge/LiskGarden.sol\":6836:6840  true */\n      0x01\n        /* \"Learn/Sesi-01-Challenge/LiskGarden.sol\":6818:6840  myPlant.isDead == true */\n      iszero\n      iszero\n        /* \"Learn/Sesi-01-Challenge/LiskGarden.sol\":6818:6825  myPlant */\n      dup2\n        /* \"Learn/Sesi-01-Challenge/LiskGarden.sol\":6818:6832  myPlant.isDead */\n      0xe0\n      add\n      mload\n        /* \"Learn/Sesi-01-Challenge/LiskGarden.sol\":6818:6840  myPlant.isDead == true */\n      iszero\n      iszero\n      sub\n        /* \"Learn/Sesi-01-Challenge/LiskGarden.sol\":6814:6875  if (myPlant.isDead == true) {... */\n      tag_160\n      jumpi\n        /* \"Learn/Sesi-01-Challenge/LiskGarden.sol\":6857:6864  return; */\n      pop\n      jump(tag_151)\n        /* \"Learn/Sesi-01-Challenge/LiskGarden.sol\":6814:6875  if (myPlant.isDead == true) {... */\n    tag_160:\n        /* \"Learn/Sesi-01-Challenge/LiskGarden.sol\":6888:6906  GrowStage oldStage */\n      0x00\n        /* \"Learn/Sesi-01-Challenge/LiskGarden.sol\":6909:6916  myPlant */\n      dup2\n        /* \"Learn/Sesi-01-Challenge/LiskGarden.sol\":6909:6922  myPlant.stage */\n      0x40\n      add\n      mload\n        /* \"Learn/Sesi-01-Challenge/LiskGarden.sol\":6888:6922  GrowStage oldStage = myPlant.stage */\n      swap1\n      pop\n        /* \"Learn/Sesi-01-Challenge/LiskGarden.sol\":6933:6952  GrowStage newSatage */\n      0x00\n        /* \"Learn/Sesi-01-Challenge/LiskGarden.sol\":6955:6963  oldStage */\n      dup2\n        /* \"Learn/Sesi-01-Challenge/LiskGarden.sol\":6933:6963  GrowStage newSatage = oldStage */\n      swap1\n      pop\n        /* \"Learn/Sesi-01-Challenge/LiskGarden.sol\":7032:7056  uint256 timeSincePlanted */\n      0x00\n        /* \"Learn/Sesi-01-Challenge/LiskGarden.sol\":7081:7096  block.timestamp */\n      timestamp\n        /* \"Learn/Sesi-01-Challenge/LiskGarden.sol\":7059:7066  myPlant */\n      dup5\n        /* \"Learn/Sesi-01-Challenge/LiskGarden.sol\":7059:7078  myPlant.plantedDate */\n      0x60\n      add\n      mload\n        /* \"Learn/Sesi-01-Challenge/LiskGarden.sol\":7059:7096  myPlant.plantedDate - block.timestamp */\n      tag_161\n      swap2\n      swap1\n      tag_130\n      jump\t// in\n    tag_161:\n        /* \"Learn/Sesi-01-Challenge/LiskGarden.sol\":7032:7096  uint256 timeSincePlanted = myPlant.plantedDate - block.timestamp */\n      swap1\n      pop\n        /* \"Learn/Sesi-01-Challenge/LiskGarden.sol\":7227:7228  0 */\n      0x00\n        /* \"Learn/Sesi-01-Challenge/LiskGarden.sol\":7207:7223  timeSincePlanted */\n      dup2\n        /* \"Learn/Sesi-01-Challenge/LiskGarden.sol\":7207:7228  timeSincePlanted >= 0 */\n      lt\n      iszero\n        /* \"Learn/Sesi-01-Challenge/LiskGarden.sol\":7207:7254  timeSincePlanted >= 0 && timeSincePlanted <= 60 */\n      dup1\n      iszero\n      tag_162\n      jumpi\n      pop\n        /* \"Learn/Sesi-01-Challenge/LiskGarden.sol\":7252:7254  60 */\n      0x3c\n        /* \"Learn/Sesi-01-Challenge/LiskGarden.sol\":7232:7248  timeSincePlanted */\n      dup2\n        /* \"Learn/Sesi-01-Challenge/LiskGarden.sol\":7232:7254  timeSincePlanted <= 60 */\n      gt\n      iszero\n        /* \"Learn/Sesi-01-Challenge/LiskGarden.sol\":7207:7254  timeSincePlanted >= 0 && timeSincePlanted <= 60 */\n    tag_162:\n        /* \"Learn/Sesi-01-Challenge/LiskGarden.sol\":7203:7986  if (timeSincePlanted >= 0 && timeSincePlanted <= 60) {... */\n      iszero\n      tag_163\n      jumpi\n        /* \"Learn/Sesi-01-Challenge/LiskGarden.sol\":7283:7297  GrowStage.SEED */\n      0x00\n        /* \"Learn/Sesi-01-Challenge/LiskGarden.sol\":7271:7297  newSatage = GrowStage.SEED */\n      swap2\n      pop\n        /* \"Learn/Sesi-01-Challenge/LiskGarden.sol\":7203:7986  if (timeSincePlanted >= 0 && timeSincePlanted <= 60) {... */\n      jump(tag_164)\n    tag_163:\n        /* \"Learn/Sesi-01-Challenge/LiskGarden.sol\":7404:7406  61 */\n      0x3d\n        /* \"Learn/Sesi-01-Challenge/LiskGarden.sol\":7384:7400  timeSincePlanted */\n      dup2\n        /* \"Learn/Sesi-01-Challenge/LiskGarden.sol\":7384:7406  timeSincePlanted >= 61 */\n      lt\n      iszero\n        /* \"Learn/Sesi-01-Challenge/LiskGarden.sol\":7384:7433  timeSincePlanted >= 61 && timeSincePlanted <= 120 */\n      dup1\n      iszero\n      tag_165\n      jumpi\n      pop\n        /* \"Learn/Sesi-01-Challenge/LiskGarden.sol\":7430:7433  120 */\n      0x78\n        /* \"Learn/Sesi-01-Challenge/LiskGarden.sol\":7410:7426  timeSincePlanted */\n      dup2\n        /* \"Learn/Sesi-01-Challenge/LiskGarden.sol\":7410:7433  timeSincePlanted <= 120 */\n      gt\n      iszero\n        /* \"Learn/Sesi-01-Challenge/LiskGarden.sol\":7384:7433  timeSincePlanted >= 61 && timeSincePlanted <= 120 */\n    tag_165:\n        /* \"Learn/Sesi-01-Challenge/LiskGarden.sol\":7380:7986  if (timeSincePlanted >= 61 && timeSincePlanted <= 120) {... */\n      iszero\n      tag_166\n      jumpi\n        /* \"Learn/Sesi-01-Challenge/LiskGarden.sol\":7464:7480  GrowStage.SPROUT */\n      0x01\n        /* \"Learn/Sesi-01-Challenge/LiskGarden.sol\":7452:7480  newSatage = GrowStage.SPROUT */\n      swap2\n      pop\n        /* \"Learn/Sesi-01-Challenge/LiskGarden.sol\":7380:7986  if (timeSincePlanted >= 61 && timeSincePlanted <= 120) {... */\n      jump(tag_167)\n    tag_166:\n        /* \"Learn/Sesi-01-Challenge/LiskGarden.sol\":7588:7591  121 */\n      0x79\n        /* \"Learn/Sesi-01-Challenge/LiskGarden.sol\":7568:7584  timeSincePlanted */\n      dup2\n        /* \"Learn/Sesi-01-Challenge/LiskGarden.sol\":7568:7591  timeSincePlanted >= 121 */\n      lt\n      iszero\n        /* \"Learn/Sesi-01-Challenge/LiskGarden.sol\":7568:7618  timeSincePlanted >= 121 && timeSincePlanted <= 160 */\n      dup1\n      iszero\n      tag_168\n      jumpi\n      pop\n        /* \"Learn/Sesi-01-Challenge/LiskGarden.sol\":7615:7618  160 */\n      0xa0\n        /* \"Learn/Sesi-01-Challenge/LiskGarden.sol\":7595:7611  timeSincePlanted */\n      dup2\n        /* \"Learn/Sesi-01-Challenge/LiskGarden.sol\":7595:7618  timeSincePlanted <= 160 */\n      gt\n      iszero\n        /* \"Learn/Sesi-01-Challenge/LiskGarden.sol\":7568:7618  timeSincePlanted >= 121 && timeSincePlanted <= 160 */\n    tag_168:\n        /* \"Learn/Sesi-01-Challenge/LiskGarden.sol\":7564:7986  if (timeSincePlanted >= 121 && timeSincePlanted <= 160) {... */\n      iszero\n      tag_169\n      jumpi\n        /* \"Learn/Sesi-01-Challenge/LiskGarden.sol\":7647:7664  GrowStage.GROWING */\n      0x02\n        /* \"Learn/Sesi-01-Challenge/LiskGarden.sol\":7635:7664  newSatage = GrowStage.GROWING */\n      swap2\n      pop\n        /* \"Learn/Sesi-01-Challenge/LiskGarden.sol\":7564:7986  if (timeSincePlanted >= 121 && timeSincePlanted <= 160) {... */\n      jump(tag_170)\n    tag_169:\n        /* \"Learn/Sesi-01-Challenge/LiskGarden.sol\":7771:7774  161 */\n      0xa1\n        /* \"Learn/Sesi-01-Challenge/LiskGarden.sol\":7751:7767  timeSincePlanted */\n      dup2\n        /* \"Learn/Sesi-01-Challenge/LiskGarden.sol\":7751:7774  timeSincePlanted >= 161 */\n      lt\n      iszero\n        /* \"Learn/Sesi-01-Challenge/LiskGarden.sol\":7751:7801  timeSincePlanted >= 161 && timeSincePlanted <= 210 */\n      dup1\n      iszero\n      tag_171\n      jumpi\n      pop\n        /* \"Learn/Sesi-01-Challenge/LiskGarden.sol\":7798:7801  210 */\n      0xd2\n        /* \"Learn/Sesi-01-Challenge/LiskGarden.sol\":7778:7794  timeSincePlanted */\n      dup2\n        /* \"Learn/Sesi-01-Challenge/LiskGarden.sol\":7778:7801  timeSincePlanted <= 210 */\n      gt\n      iszero\n        /* \"Learn/Sesi-01-Challenge/LiskGarden.sol\":7751:7801  timeSincePlanted >= 161 && timeSincePlanted <= 210 */\n    tag_171:\n        /* \"Learn/Sesi-01-Challenge/LiskGarden.sol\":7747:7986  if (timeSincePlanted >= 161 && timeSincePlanted <= 210) {... */\n      iszero\n      tag_172\n      jumpi\n        /* \"Learn/Sesi-01-Challenge/LiskGarden.sol\":7830:7848  GrowStage.BLOOMING */\n      0x03\n        /* \"Learn/Sesi-01-Challenge/LiskGarden.sol\":7818:7848  newSatage = GrowStage.BLOOMING */\n      swap2\n      pop\n        /* \"Learn/Sesi-01-Challenge/LiskGarden.sol\":7747:7986  if (timeSincePlanted >= 161 && timeSincePlanted <= 210) {... */\n      jump(tag_173)\n    tag_172:\n        /* \"Learn/Sesi-01-Challenge/LiskGarden.sol\":7956:7974  GrowStage.BLOOMING */\n      0x03\n        /* \"Learn/Sesi-01-Challenge/LiskGarden.sol\":7944:7974  newSatage = GrowStage.BLOOMING */\n      swap2\n      pop\n        /* \"Learn/Sesi-01-Challenge/LiskGarden.sol\":7747:7986  if (timeSincePlanted >= 161 && timeSincePlanted <= 210) {... */\n    tag_173:\n        /* \"Learn/Sesi-01-Challenge/LiskGarden.sol\":7564:7986  if (timeSincePlanted >= 121 && timeSincePlanted <= 160) {... */\n    tag_170:\n        /* \"Learn/Sesi-01-Challenge/LiskGarden.sol\":7380:7986  if (timeSincePlanted >= 61 && timeSincePlanted <= 120) {... */\n    tag_167:\n        /* \"Learn/Sesi-01-Challenge/LiskGarden.sol\":7203:7986  if (timeSincePlanted >= 0 && timeSincePlanted <= 60) {... */\n    tag_164:\n        /* \"Learn/Sesi-01-Challenge/LiskGarden.sol\":8075:8084  newSatage */\n      dup2\n        /* \"Learn/Sesi-01-Challenge/LiskGarden.sol\":8063:8084  oldStage != newSatage */\n      0x03\n      dup2\n      gt\n      iszero\n      tag_174\n      jumpi\n      tag_175\n      tag_123\n      jump\t// in\n    tag_175:\n    tag_174:\n        /* \"Learn/Sesi-01-Challenge/LiskGarden.sol\":8063:8071  oldStage */\n      dup4\n        /* \"Learn/Sesi-01-Challenge/LiskGarden.sol\":8063:8084  oldStage != newSatage */\n      0x03\n      dup2\n      gt\n      iszero\n      tag_176\n      jumpi\n      tag_177\n      tag_123\n      jump\t// in\n    tag_177:\n    tag_176:\n      eq\n        /* \"Learn/Sesi-01-Challenge/LiskGarden.sol\":8059:8252  if (oldStage != newSatage) {... */\n      tag_178\n      jumpi\n        /* \"Learn/Sesi-01-Challenge/LiskGarden.sol\":8117:8126  newSatage */\n      dup2\n        /* \"Learn/Sesi-01-Challenge/LiskGarden.sol\":8101:8108  myPlant */\n      dup5\n        /* \"Learn/Sesi-01-Challenge/LiskGarden.sol\":8101:8114  myPlant.stage */\n      0x40\n      add\n        /* \"Learn/Sesi-01-Challenge/LiskGarden.sol\":8101:8126  myPlant.stage = newSatage */\n      swap1\n      0x03\n      dup2\n      gt\n      iszero\n      tag_179\n      jumpi\n      tag_180\n      tag_123\n      jump\t// in\n    tag_180:\n    tag_179:\n      swap1\n      dup2\n      0x03\n      dup2\n      gt\n      iszero\n      tag_181\n      jumpi\n      tag_182\n      tag_123\n      jump\t// in\n    tag_182:\n    tag_181:\n      dup2\n      mstore\n      pop\n      pop\n        /* \"Learn/Sesi-01-Challenge/LiskGarden.sol\":8217:8224  plantId */\n      dup5\n        /* \"Learn/Sesi-01-Challenge/LiskGarden.sol\":8203:8240  StageAdvanced(plantId, myPlant.stage) */\n      0x338b8976706f9da67298dddfa1ea4ff7d99cce68b9ca39c4f348994f8e2124a8\n        /* \"Learn/Sesi-01-Challenge/LiskGarden.sol\":8226:8233  myPlant */\n      dup6\n        /* \"Learn/Sesi-01-Challenge/LiskGarden.sol\":8226:8239  myPlant.stage */\n      0x40\n      add\n      mload\n        /* \"Learn/Sesi-01-Challenge/LiskGarden.sol\":8203:8240  StageAdvanced(plantId, myPlant.stage) */\n      mload(0x40)\n      tag_183\n      swap2\n      swap1\n      tag_184\n      jump\t// in\n    tag_183:\n      mload(0x40)\n      dup1\n      swap2\n      sub\n      swap1\n      log2\n        /* \"Learn/Sesi-01-Challenge/LiskGarden.sol\":8059:8252  if (oldStage != newSatage) {... */\n    tag_178:\n        /* \"Learn/Sesi-01-Challenge/LiskGarden.sol\":6483:8259  {... */\n      pop\n      pop\n      pop\n      pop\n        /* \"Learn/Sesi-01-Challenge/LiskGarden.sol\":6432:8259  function updatePlantStage(uint256 plantId) public  {... */\n    tag_151:\n      pop\n      jump\t// out\n        /* \"Learn/Sesi-01-Challenge/LiskGarden.sol\":8267:9072  function harvestPlant(uint256 plantId) external {... */\n    tag_93:\n        /* \"Learn/Sesi-01-Challenge/LiskGarden.sol\":8369:8389  Plant memory myPlant */\n      0x00\n        /* \"Learn/Sesi-01-Challenge/LiskGarden.sol\":8392:8398  plants */\n      0x00\n        /* \"Learn/Sesi-01-Challenge/LiskGarden.sol\":8392:8407  plants[plantId] */\n      0x00\n        /* \"Learn/Sesi-01-Challenge/LiskGarden.sol\":8399:8406  plantId */\n      dup4\n        /* \"Learn/Sesi-01-Challenge/LiskGarden.sol\":8392:8407  plants[plantId] */\n      dup2\n      mstore\n      0x20\n      add\n      swap1\n      dup2\n      mstore\n      0x20\n      add\n      0x00\n      keccak256\n        /* \"Learn/Sesi-01-Challenge/LiskGarden.sol\":8369:8407  Plant memory myPlant = plants[plantId] */\n      mload(0x40)\n      dup1\n      0x0100\n      add\n      0x40\n      mstore\n      swap1\n      dup2\n      0x00\n      dup3\n      add\n      sload\n      dup2\n      mstore\n      0x20\n      add\n      0x01\n      dup3\n      add\n      0x00\n      swap1\n      sload\n      swap1\n      0x0100\n      exp\n      swap1\n      div\n      0xffffffffffffffffffffffffffffffffffffffff\n      and\n      0xffffffffffffffffffffffffffffffffffffffff\n      and\n      0xffffffffffffffffffffffffffffffffffffffff\n      and\n      dup2\n      mstore\n      0x20\n      add\n      0x01\n      dup3\n      add\n      0x14\n      swap1\n      sload\n      swap1\n      0x0100\n      exp\n      swap1\n      div\n      0xff\n      and\n      0x03\n      dup2\n      gt\n      iszero\n      tag_186\n      jumpi\n      tag_187\n      tag_123\n      jump\t// in\n    tag_187:\n    tag_186:\n      0x03\n      dup2\n      gt\n      iszero\n      tag_188\n      jumpi\n      tag_189\n      tag_123\n      jump\t// in\n    tag_189:\n    tag_188:\n      dup2\n      mstore\n      0x20\n      add\n      0x02\n      dup3\n      add\n      sload\n      dup2\n      mstore\n      0x20\n      add\n      0x03\n      dup3\n      add\n      sload\n      dup2\n      mstore\n      0x20\n      add\n      0x04\n      dup3\n      add\n      sload\n      dup2\n      mstore\n      0x20\n      add\n      0x05\n      dup3\n      add\n      0x00\n      swap1\n      sload\n      swap1\n      0x0100\n      exp\n      swap1\n      div\n      0xff\n      and\n      iszero\n      iszero\n      iszero\n      iszero\n      dup2\n      mstore\n      0x20\n      add\n      0x05\n      dup3\n      add\n      0x01\n      swap1\n      sload\n      swap1\n      0x0100\n      exp\n      swap1\n      div\n      0xff\n      and\n      iszero\n      iszero\n      iszero\n      iszero\n      dup2\n      mstore\n      pop\n      pop\n      swap1\n      pop\n        /* \"Learn/Sesi-01-Challenge/LiskGarden.sol\":8481:8486  false */\n      0x00\n        /* \"Learn/Sesi-01-Challenge/LiskGarden.sol\":8463:8486  myPlant.exists == false */\n      iszero\n      iszero\n        /* \"Learn/Sesi-01-Challenge/LiskGarden.sol\":8463:8470  myPlant */\n      dup2\n        /* \"Learn/Sesi-01-Challenge/LiskGarden.sol\":8463:8477  myPlant.exists */\n      0xc0\n      add\n      mload\n        /* \"Learn/Sesi-01-Challenge/LiskGarden.sol\":8463:8486  myPlant.exists == false */\n      iszero\n      iszero\n      eq\n        /* \"Learn/Sesi-01-Challenge/LiskGarden.sol\":8455:8513  require(myPlant.exists == false,\"tanaman tidak ditemukan\") */\n      tag_190\n      jumpi\n      mload(0x40)\n      0x08c379a000000000000000000000000000000000000000000000000000000000\n      dup2\n      mstore\n      0x04\n      add\n      tag_191\n      swap1\n      tag_145\n      jump\t// in\n    tag_191:\n      mload(0x40)\n      dup1\n      swap2\n      sub\n      swap1\n      revert\n    tag_190:\n        /* \"Learn/Sesi-01-Challenge/LiskGarden.sol\":8574:8579  owner */\n      0x03\n      0x00\n      swap1\n      sload\n      swap1\n      0x0100\n      exp\n      swap1\n      div\n      0xffffffffffffffffffffffffffffffffffffffff\n      and\n        /* \"Learn/Sesi-01-Challenge/LiskGarden.sol\":8557:8579  myPlant.owner != owner */\n      0xffffffffffffffffffffffffffffffffffffffff\n      and\n        /* \"Learn/Sesi-01-Challenge/LiskGarden.sol\":8557:8564  myPlant */\n      dup2\n        /* \"Learn/Sesi-01-Challenge/LiskGarden.sol\":8557:8570  myPlant.owner */\n      0x20\n      add\n      mload\n        /* \"Learn/Sesi-01-Challenge/LiskGarden.sol\":8557:8579  myPlant.owner != owner */\n      0xffffffffffffffffffffffffffffffffffffffff\n      and\n      sub\n        /* \"Learn/Sesi-01-Challenge/LiskGarden.sol\":8549:8611  require(myPlant.owner != owner,\"tanaman ini bukan milik kamu\") */\n      tag_192\n      jumpi\n      mload(0x40)\n      0x08c379a000000000000000000000000000000000000000000000000000000000\n      dup2\n      mstore\n      0x04\n      add\n      tag_193\n      swap1\n      tag_194\n      jump\t// in\n    tag_193:\n      mload(0x40)\n      dup1\n      swap2\n      sub\n      swap1\n      revert\n    tag_192:\n        /* \"Learn/Sesi-01-Challenge/LiskGarden.sol\":8685:8689  true */\n      0x01\n        /* \"Learn/Sesi-01-Challenge/LiskGarden.sol\":8667:8689  myPlant.isDead == true */\n      iszero\n      iszero\n        /* \"Learn/Sesi-01-Challenge/LiskGarden.sol\":8667:8674  myPlant */\n      dup2\n        /* \"Learn/Sesi-01-Challenge/LiskGarden.sol\":8667:8681  myPlant.isDead */\n      0xe0\n      add\n      mload\n        /* \"Learn/Sesi-01-Challenge/LiskGarden.sol\":8667:8689  myPlant.isDead == true */\n      iszero\n      iszero\n      eq\n        /* \"Learn/Sesi-01-Challenge/LiskGarden.sol\":8659:8711  require(myPlant.isDead == true,\"tanaman sudah mati\") */\n      tag_195\n      jumpi\n      mload(0x40)\n      0x08c379a000000000000000000000000000000000000000000000000000000000\n      dup2\n      mstore\n      0x04\n      add\n      tag_196\n      swap1\n      tag_197\n      jump\t// in\n    tag_196:\n      mload(0x40)\n      dup1\n      swap2\n      sub\n      swap1\n      revert\n    tag_195:\n        /* \"Learn/Sesi-01-Challenge/LiskGarden.sol\":8758:8783  updatePlantStage(plantId) */\n      tag_198\n        /* \"Learn/Sesi-01-Challenge/LiskGarden.sol\":8775:8782  plantId */\n      dup3\n        /* \"Learn/Sesi-01-Challenge/LiskGarden.sol\":8758:8774  updatePlantStage */\n      tag_89\n        /* \"Learn/Sesi-01-Challenge/LiskGarden.sol\":8758:8783  updatePlantStage(plantId) */\n      jump\t// in\n    tag_198:\n        /* \"Learn/Sesi-01-Challenge/LiskGarden.sol\":8863:8881  GrowStage.BLOOMING */\n      0x03\n        /* \"Learn/Sesi-01-Challenge/LiskGarden.sol\":8846:8881  myPlant.stage != GrowStage.BLOOMING */\n      dup1\n      dup2\n      gt\n      iszero\n      tag_199\n      jumpi\n      tag_200\n      tag_123\n      jump\t// in\n    tag_200:\n    tag_199:\n        /* \"Learn/Sesi-01-Challenge/LiskGarden.sol\":8846:8853  myPlant */\n      dup2\n        /* \"Learn/Sesi-01-Challenge/LiskGarden.sol\":8846:8859  myPlant.stage */\n      0x40\n      add\n      mload\n        /* \"Learn/Sesi-01-Challenge/LiskGarden.sol\":8846:8881  myPlant.stage != GrowStage.BLOOMING */\n      0x03\n      dup2\n      gt\n      iszero\n      tag_201\n      jumpi\n      tag_202\n      tag_123\n      jump\t// in\n    tag_202:\n    tag_201:\n      sub\n        /* \"Learn/Sesi-01-Challenge/LiskGarden.sol\":8838:8905  require(myPlant.stage != GrowStage.BLOOMING, \"Tanaman belum mekar\") */\n      tag_203\n      jumpi\n      mload(0x40)\n      0x08c379a000000000000000000000000000000000000000000000000000000000\n      dup2\n      mstore\n      0x04\n      add\n      tag_204\n      swap1\n      tag_205\n      jump\t// in\n    tag_204:\n      mload(0x40)\n      dup1\n      swap2\n      sub\n      swap1\n      revert\n    tag_203:\n        /* \"Learn/Sesi-01-Challenge/LiskGarden.sol\":8989:8994  false */\n      0x00\n        /* \"Learn/Sesi-01-Challenge/LiskGarden.sol\":8972:8979  myPlant */\n      dup2\n        /* \"Learn/Sesi-01-Challenge/LiskGarden.sol\":8972:8986  myPlant.exists */\n      0xc0\n      add\n        /* \"Learn/Sesi-01-Challenge/LiskGarden.sol\":8972:8994  myPlant.exists = false */\n      swap1\n      iszero\n      iszero\n      swap1\n      dup2\n      iszero\n      iszero\n      dup2\n      mstore\n      pop\n      pop\n        /* \"Learn/Sesi-01-Challenge/LiskGarden.sol\":8315:9072  {... */\n      pop\n        /* \"Learn/Sesi-01-Challenge/LiskGarden.sol\":8267:9072  function harvestPlant(uint256 plantId) external {... */\n      pop\n      jump\t// out\n        /* \"Learn/Sesi-01-Challenge/LiskGarden.sol\":9229:9437  function getPlant(uint256 plantId) external view returns (Plant memory) {... */\n    tag_97:\n        /* \"Learn/Sesi-01-Challenge/LiskGarden.sol\":9287:9299  Plant memory */\n      tag_206\n      tag_207\n      jump\t// in\n    tag_206:\n        /* \"Learn/Sesi-01-Challenge/LiskGarden.sol\":9312:9330  Plant memory plant */\n      0x00\n        /* \"Learn/Sesi-01-Challenge/LiskGarden.sol\":9333:9339  plants */\n      0x00\n        /* \"Learn/Sesi-01-Challenge/LiskGarden.sol\":9333:9348  plants[plantId] */\n      0x00\n        /* \"Learn/Sesi-01-Challenge/LiskGarden.sol\":9340:9347  plantId */\n      dup5\n        /* \"Learn/Sesi-01-Challenge/LiskGarden.sol\":9333:9348  plants[plantId] */\n      dup2\n      mstore\n      0x20\n      add\n      swap1\n      dup2\n      mstore\n      0x20\n      add\n      0x00\n      keccak256\n        /* \"Learn/Sesi-01-Challenge/LiskGarden.sol\":9312:9348  Plant memory plant = plants[plantId] */\n      mload(0x40)\n      dup1\n      0x0100\n      add\n      0x40\n      mstore\n      swap1\n      dup2\n      0x00\n      dup3\n      add\n      sload\n      dup2\n      mstore\n      0x20\n      add\n      0x01\n      dup3\n      add\n      0x00\n      swap1\n      sload\n      swap1\n      0x0100\n      exp\n      swap1\n      div\n      0xffffffffffffffffffffffffffffffffffffffff\n      and\n      0xffffffffffffffffffffffffffffffffffffffff\n      and\n      0xffffffffffffffffffffffffffffffffffffffff\n      and\n      dup2\n      mstore\n      0x20\n      add\n      0x01\n      dup3\n      add\n      0x14\n      swap1\n      sload\n      swap1\n      0x0100\n      exp\n      swap1\n      div\n      0xff\n      and\n      0x03\n      dup2\n      gt\n      iszero\n      tag_209\n      jumpi\n      tag_210\n      tag_123\n      jump\t// in\n    tag_210:\n    tag_209:\n      0x03\n      dup2\n      gt\n      iszero\n      tag_211\n      jumpi\n      tag_212\n      tag_123\n      jump\t// in\n    tag_212:\n    tag_211:\n      dup2\n      mstore\n      0x20\n      add\n      0x02\n      dup3\n      add\n      sload\n      dup2\n      mstore\n      0x20\n      add\n      0x03\n      dup3\n      add\n      sload\n      dup2\n      mstore\n      0x20\n      add\n      0x04\n      dup3\n      add\n      sload\n      dup2\n      mstore\n      0x20\n      add\n      0x05\n      dup3\n      add\n      0x00\n      swap1\n      sload\n      swap1\n      0x0100\n      exp\n      swap1\n      div\n      0xff\n      and\n      iszero\n      iszero\n      iszero\n      iszero\n      dup2\n      mstore\n      0x20\n      add\n      0x05\n      dup3\n      add\n      0x01\n      swap1\n      sload\n      swap1\n      0x0100\n      exp\n      swap1\n      div\n      0xff\n      and\n      iszero\n      iszero\n      iszero\n      iszero\n      dup2\n      mstore\n      pop\n      pop\n      swap1\n      pop\n        /* \"Learn/Sesi-01-Challenge/LiskGarden.sol\":9378:9406  calculateWaterLevel(plantId) */\n      tag_213\n        /* \"Learn/Sesi-01-Challenge/LiskGarden.sol\":9398:9405  plantId */\n      dup4\n        /* \"Learn/Sesi-01-Challenge/LiskGarden.sol\":9378:9397  calculateWaterLevel */\n      tag_50\n        /* \"Learn/Sesi-01-Challenge/LiskGarden.sol\":9378:9406  calculateWaterLevel(plantId) */\n      jump\t// in\n    tag_213:\n        /* \"Learn/Sesi-01-Challenge/LiskGarden.sol\":9359:9364  plant */\n      dup2\n        /* \"Learn/Sesi-01-Challenge/LiskGarden.sol\":9359:9375  plant.waterLevel */\n      0xa0\n      add\n        /* \"Learn/Sesi-01-Challenge/LiskGarden.sol\":9359:9406  plant.waterLevel = calculateWaterLevel(plantId) */\n      dup2\n      dup2\n      mstore\n      pop\n      pop\n        /* \"Learn/Sesi-01-Challenge/LiskGarden.sol\":9424:9429  plant */\n      dup1\n        /* \"Learn/Sesi-01-Challenge/LiskGarden.sol\":9417:9429  return plant */\n      swap2\n      pop\n      pop\n        /* \"Learn/Sesi-01-Challenge/LiskGarden.sol\":9229:9437  function getPlant(uint256 plantId) external view returns (Plant memory) {... */\n      swap2\n      swap1\n      pop\n      jump\t// out\n        /* \"Learn/Sesi-01-Challenge/LiskGarden.sol\":5070:5739  function updateWaterLevel(uint256 _plantId) internal {... */\n    tag_159:\n        /* \"Learn/Sesi-01-Challenge/LiskGarden.sol\":5175:5196  Plant storage myPlant */\n      0x00\n        /* \"Learn/Sesi-01-Challenge/LiskGarden.sol\":5199:5205  plants */\n      0x00\n        /* \"Learn/Sesi-01-Challenge/LiskGarden.sol\":5199:5216  plants[ _plantId] */\n      0x00\n        /* \"Learn/Sesi-01-Challenge/LiskGarden.sol\":5207:5215  _plantId */\n      dup4\n        /* \"Learn/Sesi-01-Challenge/LiskGarden.sol\":5199:5216  plants[ _plantId] */\n      dup2\n      mstore\n      0x20\n      add\n      swap1\n      dup2\n      mstore\n      0x20\n      add\n      0x00\n      keccak256\n        /* \"Learn/Sesi-01-Challenge/LiskGarden.sol\":5175:5216  Plant storage myPlant = plants[ _plantId] */\n      swap1\n      pop\n        /* \"Learn/Sesi-01-Challenge/LiskGarden.sol\":5308:5333  uint256 currentWaterLevel */\n      0x00\n        /* \"Learn/Sesi-01-Challenge/LiskGarden.sol\":5336:5365  calculateWaterLevel(_plantId) */\n      tag_215\n        /* \"Learn/Sesi-01-Challenge/LiskGarden.sol\":5356:5364  _plantId */\n      dup4\n        /* \"Learn/Sesi-01-Challenge/LiskGarden.sol\":5336:5355  calculateWaterLevel */\n      tag_50\n        /* \"Learn/Sesi-01-Challenge/LiskGarden.sol\":5336:5365  calculateWaterLevel(_plantId) */\n      jump\t// in\n    tag_215:\n        /* \"Learn/Sesi-01-Challenge/LiskGarden.sol\":5308:5365  uint256 currentWaterLevel = calculateWaterLevel(_plantId) */\n      swap1\n      pop\n        /* \"Learn/Sesi-01-Challenge/LiskGarden.sol\":5431:5448  currentWaterLevel */\n      dup1\n        /* \"Learn/Sesi-01-Challenge/LiskGarden.sol\":5410:5417  myPlant */\n      dup3\n        /* \"Learn/Sesi-01-Challenge/LiskGarden.sol\":5410:5428  myPlant.waterLevel */\n      0x04\n      add\n        /* \"Learn/Sesi-01-Challenge/LiskGarden.sol\":5410:5448  myPlant.waterLevel = currentWaterLevel */\n      dup2\n      swap1\n      sstore\n      pop\n        /* \"Learn/Sesi-01-Challenge/LiskGarden.sol\":5526:5541  block.timestamp */\n      timestamp\n        /* \"Learn/Sesi-01-Challenge/LiskGarden.sol\":5504:5511  myPlant */\n      dup3\n        /* \"Learn/Sesi-01-Challenge/LiskGarden.sol\":5504:5523  myPlant.lastWatered */\n      0x03\n      add\n        /* \"Learn/Sesi-01-Challenge/LiskGarden.sol\":5504:5541  myPlant.lastWatered = block.timestamp */\n      dup2\n      swap1\n      sstore\n      pop\n        /* \"Learn/Sesi-01-Challenge/LiskGarden.sol\":5655:5656  0 */\n      0x00\n        /* \"Learn/Sesi-01-Challenge/LiskGarden.sol\":5633:5640  myPlant */\n      dup3\n        /* \"Learn/Sesi-01-Challenge/LiskGarden.sol\":5633:5651  myPlant.waterLevel */\n      0x04\n      add\n      sload\n        /* \"Learn/Sesi-01-Challenge/LiskGarden.sol\":5633:5656  myPlant.waterLevel == 0 */\n      eq\n        /* \"Learn/Sesi-01-Challenge/LiskGarden.sol\":5633:5682  myPlant.waterLevel == 0 && myPlant.isDead ==false */\n      dup1\n      iszero\n      tag_216\n      jumpi\n      pop\n        /* \"Learn/Sesi-01-Challenge/LiskGarden.sol\":5677:5682  false */\n      0x00\n        /* \"Learn/Sesi-01-Challenge/LiskGarden.sol\":5660:5682  myPlant.isDead ==false */\n      iszero\n      iszero\n        /* \"Learn/Sesi-01-Challenge/LiskGarden.sol\":5660:5667  myPlant */\n      dup3\n        /* \"Learn/Sesi-01-Challenge/LiskGarden.sol\":5660:5674  myPlant.isDead */\n      0x05\n      add\n      0x01\n      swap1\n      sload\n      swap1\n      0x0100\n      exp\n      swap1\n      div\n      0xff\n      and\n        /* \"Learn/Sesi-01-Challenge/LiskGarden.sol\":5660:5682  myPlant.isDead ==false */\n      iszero\n      iszero\n      eq\n        /* \"Learn/Sesi-01-Challenge/LiskGarden.sol\":5633:5682  myPlant.waterLevel == 0 && myPlant.isDead ==false */\n    tag_216:\n        /* \"Learn/Sesi-01-Challenge/LiskGarden.sol\":5629:5732  if (myPlant.waterLevel == 0 && myPlant.isDead ==false) {... */\n      iszero\n      tag_217\n      jumpi\n        /* \"Learn/Sesi-01-Challenge/LiskGarden.sol\":5716:5720  true */\n      0x01\n        /* \"Learn/Sesi-01-Challenge/LiskGarden.sol\":5699:5706  myPlant */\n      dup3\n        /* \"Learn/Sesi-01-Challenge/LiskGarden.sol\":5699:5713  myPlant.isDead */\n      0x05\n      add\n      0x01\n        /* \"Learn/Sesi-01-Challenge/LiskGarden.sol\":5699:5720  myPlant.isDead = true */\n      0x0100\n      exp\n      dup2\n      sload\n      dup2\n      0xff\n      mul\n      not\n      and\n      swap1\n      dup4\n      iszero\n      iszero\n      mul\n      or\n      swap1\n      sstore\n      pop\n        /* \"Learn/Sesi-01-Challenge/LiskGarden.sol\":5629:5732  if (myPlant.waterLevel == 0 && myPlant.isDead ==false) {... */\n    tag_217:\n        /* \"Learn/Sesi-01-Challenge/LiskGarden.sol\":5123:5739  {... */\n      pop\n      pop\n        /* \"Learn/Sesi-01-Challenge/LiskGarden.sol\":5070:5739  function updateWaterLevel(uint256 _plantId) internal {... */\n      pop\n      jump\t// out\n    tag_207:\n      mload(0x40)\n      dup1\n      0x0100\n      add\n      0x40\n      mstore\n      dup1\n      0x00\n      dup2\n      mstore\n      0x20\n      add\n      and(0xffffffffffffffffffffffffffffffffffffffff, 0x00)\n      dup2\n      mstore\n      0x20\n      add\n      0x00\n      0x03\n      dup2\n      gt\n      iszero\n      tag_218\n      jumpi\n      tag_219\n      tag_123\n      jump\t// in\n    tag_219:\n    tag_218:\n      dup2\n      mstore\n      0x20\n      add\n      0x00\n      dup2\n      mstore\n      0x20\n      add\n      0x00\n      dup2\n      mstore\n      0x20\n      add\n      0x00\n      dup2\n      mstore\n      0x20\n      add\n      iszero(iszero(0x00))\n      dup2\n      mstore\n      0x20\n      add\n      iszero(iszero(0x00))\n      dup2\n      mstore\n      pop\n      swap1\n      jump\t// out\n        /* \"#utility.yul\":88:205   */\n    tag_221:\n        /* \"#utility.yul\":197:198   */\n      0x00\n        /* \"#utility.yul\":194:195   */\n      0x00\n        /* \"#utility.yul\":187:199   */\n      revert\n        /* \"#utility.yul\":334:460   */\n    tag_223:\n        /* \"#utility.yul\":371:378   */\n      0x00\n        /* \"#utility.yul\":411:453   */\n      0xffffffffffffffffffffffffffffffffffffffff\n        /* \"#utility.yul\":404:409   */\n      dup3\n        /* \"#utility.yul\":400:454   */\n      and\n        /* \"#utility.yul\":389:454   */\n      swap1\n      pop\n        /* \"#utility.yul\":334:460   */\n      swap2\n      swap1\n      pop\n      jump\t// out\n        /* \"#utility.yul\":466:562   */\n    tag_224:\n        /* \"#utility.yul\":503:510   */\n      0x00\n        /* \"#utility.yul\":532:556   */\n      tag_278\n        /* \"#utility.yul\":550:555   */\n      dup3\n        /* \"#utility.yul\":532:556   */\n      tag_223\n      jump\t// in\n    tag_278:\n        /* \"#utility.yul\":521:556   */\n      swap1\n      pop\n        /* \"#utility.yul\":466:562   */\n      swap2\n      swap1\n      pop\n      jump\t// out\n        /* \"#utility.yul\":568:690   */\n    tag_225:\n        /* \"#utility.yul\":641:665   */\n      tag_280\n        /* \"#utility.yul\":659:664   */\n      dup2\n        /* \"#utility.yul\":641:665   */\n      tag_224\n      jump\t// in\n    tag_280:\n        /* \"#utility.yul\":634:639   */\n      dup2\n        /* \"#utility.yul\":631:666   */\n      eq\n        /* \"#utility.yul\":621:684   */\n      tag_281\n      jumpi\n        /* \"#utility.yul\":680:681   */\n      0x00\n        /* \"#utility.yul\":677:678   */\n      0x00\n        /* \"#utility.yul\":670:682   */\n      revert\n        /* \"#utility.yul\":621:684   */\n    tag_281:\n        /* \"#utility.yul\":568:690   */\n      pop\n      jump\t// out\n        /* \"#utility.yul\":696:835   */\n    tag_226:\n        /* \"#utility.yul\":742:747   */\n      0x00\n        /* \"#utility.yul\":780:786   */\n      dup2\n        /* \"#utility.yul\":767:787   */\n      calldataload\n        /* \"#utility.yul\":758:787   */\n      swap1\n      pop\n        /* \"#utility.yul\":796:829   */\n      tag_283\n        /* \"#utility.yul\":823:828   */\n      dup2\n        /* \"#utility.yul\":796:829   */\n      tag_225\n      jump\t// in\n    tag_283:\n        /* \"#utility.yul\":696:835   */\n      swap3\n      swap2\n      pop\n      pop\n      jump\t// out\n        /* \"#utility.yul\":841:1170   */\n    tag_27:\n        /* \"#utility.yul\":900:906   */\n      0x00\n        /* \"#utility.yul\":949:951   */\n      0x20\n        /* \"#utility.yul\":937:946   */\n      dup3\n        /* \"#utility.yul\":928:935   */\n      dup5\n        /* \"#utility.yul\":924:947   */\n      sub\n        /* \"#utility.yul\":920:952   */\n      slt\n        /* \"#utility.yul\":917:1036   */\n      iszero\n      tag_285\n      jumpi\n        /* \"#utility.yul\":955:1034   */\n      tag_286\n      tag_221\n      jump\t// in\n    tag_286:\n        /* \"#utility.yul\":917:1036   */\n    tag_285:\n        /* \"#utility.yul\":1075:1076   */\n      0x00\n        /* \"#utility.yul\":1100:1153   */\n      tag_287\n        /* \"#utility.yul\":1145:1152   */\n      dup5\n        /* \"#utility.yul\":1136:1142   */\n      dup3\n        /* \"#utility.yul\":1125:1134   */\n      dup6\n        /* \"#utility.yul\":1121:1143   */\n      add\n        /* \"#utility.yul\":1100:1153   */\n      tag_226\n      jump\t// in\n    tag_287:\n        /* \"#utility.yul\":1090:1153   */\n      swap2\n      pop\n        /* \"#utility.yul\":1046:1163   */\n      pop\n        /* \"#utility.yul\":841:1170   */\n      swap3\n      swap2\n      pop\n      pop\n      jump\t// out\n        /* \"#utility.yul\":1176:1290   */\n    tag_227:\n        /* \"#utility.yul\":1243:1249   */\n      0x00\n        /* \"#utility.yul\":1277:1282   */\n      dup2\n        /* \"#utility.yul\":1271:1283   */\n      mload\n        /* \"#utility.yul\":1261:1283   */\n      swap1\n      pop\n        /* \"#utility.yul\":1176:1290   */\n      swap2\n      swap1\n      pop\n      jump\t// out\n        /* \"#utility.yul\":1296:1480   */\n    tag_228:\n        /* \"#utility.yul\":1395:1406   */\n      0x00\n        /* \"#utility.yul\":1429:1435   */\n      dup3\n        /* \"#utility.yul\":1424:1427   */\n      dup3\n        /* \"#utility.yul\":1417:1436   */\n      mstore\n        /* \"#utility.yul\":1469:1473   */\n      0x20\n        /* \"#utility.yul\":1464:1467   */\n      dup3\n        /* \"#utility.yul\":1460:1474   */\n      add\n        /* \"#utility.yul\":1445:1474   */\n      swap1\n      pop\n        /* \"#utility.yul\":1296:1480   */\n      swap3\n      swap2\n      pop\n      pop\n      jump\t// out\n        /* \"#utility.yul\":1486:1618   */\n    tag_229:\n        /* \"#utility.yul\":1553:1557   */\n      0x00\n        /* \"#utility.yul\":1576:1579   */\n      dup2\n        /* \"#utility.yul\":1568:1579   */\n      swap1\n      pop\n        /* \"#utility.yul\":1606:1610   */\n      0x20\n        /* \"#utility.yul\":1601:1604   */\n      dup3\n        /* \"#utility.yul\":1597:1611   */\n      add\n        /* \"#utility.yul\":1589:1611   */\n      swap1\n      pop\n        /* \"#utility.yul\":1486:1618   */\n      swap2\n      swap1\n      pop\n      jump\t// out\n        /* \"#utility.yul\":1624:1701   */\n    tag_230:\n        /* \"#utility.yul\":1661:1668   */\n      0x00\n        /* \"#utility.yul\":1690:1695   */\n      dup2\n        /* \"#utility.yul\":1679:1695   */\n      swap1\n      pop\n        /* \"#utility.yul\":1624:1701   */\n      swap2\n      swap1\n      pop\n      jump\t// out\n        /* \"#utility.yul\":1707:1815   */\n    tag_231:\n        /* \"#utility.yul\":1784:1808   */\n      tag_293\n        /* \"#utility.yul\":1802:1807   */\n      dup2\n        /* \"#utility.yul\":1784:1808   */\n      tag_230\n      jump\t// in\n    tag_293:\n        /* \"#utility.yul\":1779:1782   */\n      dup3\n        /* \"#utility.yul\":1772:1809   */\n      mstore\n        /* \"#utility.yul\":1707:1815   */\n      pop\n      pop\n      jump\t// out\n        /* \"#utility.yul\":1821:2000   */\n    tag_232:\n        /* \"#utility.yul\":1890:1900   */\n      0x00\n        /* \"#utility.yul\":1911:1957   */\n      tag_295\n        /* \"#utility.yul\":1953:1956   */\n      dup4\n        /* \"#utility.yul\":1945:1951   */\n      dup4\n        /* \"#utility.yul\":1911:1957   */\n      tag_231\n      jump\t// in\n    tag_295:\n        /* \"#utility.yul\":1989:1993   */\n      0x20\n        /* \"#utility.yul\":1984:1987   */\n      dup4\n        /* \"#utility.yul\":1980:1994   */\n      add\n        /* \"#utility.yul\":1966:1994   */\n      swap1\n      pop\n        /* \"#utility.yul\":1821:2000   */\n      swap3\n      swap2\n      pop\n      pop\n      jump\t// out\n        /* \"#utility.yul\":2006:2119   */\n    tag_233:\n        /* \"#utility.yul\":2076:2080   */\n      0x00\n        /* \"#utility.yul\":2108:2112   */\n      0x20\n        /* \"#utility.yul\":2103:2106   */\n      dup3\n        /* \"#utility.yul\":2099:2113   */\n      add\n        /* \"#utility.yul\":2091:2113   */\n      swap1\n      pop\n        /* \"#utility.yul\":2006:2119   */\n      swap2\n      swap1\n      pop\n      jump\t// out\n        /* \"#utility.yul\":2155:2887   */\n    tag_234:\n        /* \"#utility.yul\":2274:2277   */\n      0x00\n        /* \"#utility.yul\":2303:2357   */\n      tag_298\n        /* \"#utility.yul\":2351:2356   */\n      dup3\n        /* \"#utility.yul\":2303:2357   */\n      tag_227\n      jump\t// in\n    tag_298:\n        /* \"#utility.yul\":2373:2459   */\n      tag_299\n        /* \"#utility.yul\":2452:2458   */\n      dup2\n        /* \"#utility.yul\":2447:2450   */\n      dup6\n        /* \"#utility.yul\":2373:2459   */\n      tag_228\n      jump\t// in\n    tag_299:\n        /* \"#utility.yul\":2366:2459   */\n      swap4\n      pop\n        /* \"#utility.yul\":2483:2539   */\n      tag_300\n        /* \"#utility.yul\":2533:2538   */\n      dup4\n        /* \"#utility.yul\":2483:2539   */\n      tag_229\n      jump\t// in\n    tag_300:\n        /* \"#utility.yul\":2562:2569   */\n      dup1\n        /* \"#utility.yul\":2593:2594   */\n      0x00\n        /* \"#utility.yul\":2578:2862   */\n    tag_301:\n        /* \"#utility.yul\":2603:2609   */\n      dup4\n        /* \"#utility.yul\":2600:2601   */\n      dup2\n        /* \"#utility.yul\":2597:2610   */\n      lt\n        /* \"#utility.yul\":2578:2862   */\n      iszero\n      tag_303\n      jumpi\n        /* \"#utility.yul\":2679:2685   */\n      dup2\n        /* \"#utility.yul\":2673:2686   */\n      mload\n        /* \"#utility.yul\":2706:2769   */\n      tag_304\n        /* \"#utility.yul\":2765:2768   */\n      dup9\n        /* \"#utility.yul\":2750:2763   */\n      dup3\n        /* \"#utility.yul\":2706:2769   */\n      tag_232\n      jump\t// in\n    tag_304:\n        /* \"#utility.yul\":2699:2769   */\n      swap8\n      pop\n        /* \"#utility.yul\":2792:2852   */\n      tag_305\n        /* \"#utility.yul\":2845:2851   */\n      dup4\n        /* \"#utility.yul\":2792:2852   */\n      tag_233\n      jump\t// in\n    tag_305:\n        /* \"#utility.yul\":2782:2852   */\n      swap3\n      pop\n        /* \"#utility.yul\":2638:2862   */\n      pop\n        /* \"#utility.yul\":2625:2626   */\n      0x01\n        /* \"#utility.yul\":2622:2623   */\n      dup2\n        /* \"#utility.yul\":2618:2627   */\n      add\n        /* \"#utility.yul\":2613:2627   */\n      swap1\n      pop\n        /* \"#utility.yul\":2578:2862   */\n      jump(tag_301)\n    tag_303:\n        /* \"#utility.yul\":2582:2596   */\n      pop\n        /* \"#utility.yul\":2878:2881   */\n      dup6\n        /* \"#utility.yul\":2871:2881   */\n      swap4\n      pop\n        /* \"#utility.yul\":2279:2887   */\n      pop\n      pop\n      pop\n        /* \"#utility.yul\":2155:2887   */\n      swap3\n      swap2\n      pop\n      pop\n      jump\t// out\n        /* \"#utility.yul\":2893:3266   */\n    tag_30:\n        /* \"#utility.yul\":3036:3040   */\n      0x00\n        /* \"#utility.yul\":3074:3076   */\n      0x20\n        /* \"#utility.yul\":3063:3072   */\n      dup3\n        /* \"#utility.yul\":3059:3077   */\n      add\n        /* \"#utility.yul\":3051:3077   */\n      swap1\n      pop\n        /* \"#utility.yul\":3123:3132   */\n      dup2\n        /* \"#utility.yul\":3117:3121   */\n      dup2\n        /* \"#utility.yul\":3113:3133   */\n      sub\n        /* \"#utility.yul\":3109:3110   */\n      0x00\n        /* \"#utility.yul\":3098:3107   */\n      dup4\n        /* \"#utility.yul\":3094:3111   */\n      add\n        /* \"#utility.yul\":3087:3134   */\n      mstore\n        /* \"#utility.yul\":3151:3259   */\n      tag_307\n        /* \"#utility.yul\":3254:3258   */\n      dup2\n        /* \"#utility.yul\":3245:3251   */\n      dup5\n        /* \"#utility.yul\":3151:3259   */\n      tag_234\n      jump\t// in\n    tag_307:\n        /* \"#utility.yul\":3143:3259   */\n      swap1\n      pop\n        /* \"#utility.yul\":2893:3266   */\n      swap3\n      swap2\n      pop\n      pop\n      jump\t// out\n        /* \"#utility.yul\":3272:3390   */\n    tag_235:\n        /* \"#utility.yul\":3359:3383   */\n      tag_309\n        /* \"#utility.yul\":3377:3382   */\n      dup2\n        /* \"#utility.yul\":3359:3383   */\n      tag_230\n      jump\t// in\n    tag_309:\n        /* \"#utility.yul\":3354:3357   */\n      dup3\n        /* \"#utility.yul\":3347:3384   */\n      mstore\n        /* \"#utility.yul\":3272:3390   */\n      pop\n      pop\n      jump\t// out\n        /* \"#utility.yul\":3396:3618   */\n    tag_38:\n        /* \"#utility.yul\":3489:3493   */\n      0x00\n        /* \"#utility.yul\":3527:3529   */\n      0x20\n        /* \"#utility.yul\":3516:3525   */\n      dup3\n        /* \"#utility.yul\":3512:3530   */\n      add\n        /* \"#utility.yul\":3504:3530   */\n      swap1\n      pop\n        /* \"#utility.yul\":3540:3611   */\n      tag_311\n        /* \"#utility.yul\":3608:3609   */\n      0x00\n        /* \"#utility.yul\":3597:3606   */\n      dup4\n        /* \"#utility.yul\":3593:3610   */\n      add\n        /* \"#utility.yul\":3584:3590   */\n      dup5\n        /* \"#utility.yul\":3540:3611   */\n      tag_235\n      jump\t// in\n    tag_311:\n        /* \"#utility.yul\":3396:3618   */\n      swap3\n      swap2\n      pop\n      pop\n      jump\t// out\n        /* \"#utility.yul\":3624:3746   */\n    tag_236:\n        /* \"#utility.yul\":3697:3721   */\n      tag_313\n        /* \"#utility.yul\":3715:3720   */\n      dup2\n        /* \"#utility.yul\":3697:3721   */\n      tag_230\n      jump\t// in\n    tag_313:\n        /* \"#utility.yul\":3690:3695   */\n      dup2\n        /* \"#utility.yul\":3687:3722   */\n      eq\n        /* \"#utility.yul\":3677:3740   */\n      tag_314\n      jumpi\n        /* \"#utility.yul\":3736:3737   */\n      0x00\n        /* \"#utility.yul\":3733:3734   */\n      0x00\n        /* \"#utility.yul\":3726:3738   */\n      revert\n        /* \"#utility.yul\":3677:3740   */\n    tag_314:\n        /* \"#utility.yul\":3624:3746   */\n      pop\n      jump\t// out\n        /* \"#utility.yul\":3752:3891   */\n    tag_237:\n        /* \"#utility.yul\":3798:3803   */\n      0x00\n        /* \"#utility.yul\":3836:3842   */\n      dup2\n        /* \"#utility.yul\":3823:3843   */\n      calldataload\n        /* \"#utility.yul\":3814:3843   */\n      swap1\n      pop\n        /* \"#utility.yul\":3852:3885   */\n      tag_316\n        /* \"#utility.yul\":3879:3884   */\n      dup2\n        /* \"#utility.yul\":3852:3885   */\n      tag_236\n      jump\t// in\n    tag_316:\n        /* \"#utility.yul\":3752:3891   */\n      swap3\n      swap2\n      pop\n      pop\n      jump\t// out\n        /* \"#utility.yul\":3897:4226   */\n    tag_49:\n        /* \"#utility.yul\":3956:3962   */\n      0x00\n        /* \"#utility.yul\":4005:4007   */\n      0x20\n        /* \"#utility.yul\":3993:4002   */\n      dup3\n        /* \"#utility.yul\":3984:3991   */\n      dup5\n        /* \"#utility.yul\":3980:4003   */\n      sub\n        /* \"#utility.yul\":3976:4008   */\n      slt\n        /* \"#utility.yul\":3973:4092   */\n      iszero\n      tag_318\n      jumpi\n        /* \"#utility.yul\":4011:4090   */\n      tag_319\n      tag_221\n      jump\t// in\n    tag_319:\n        /* \"#utility.yul\":3973:4092   */\n    tag_318:\n        /* \"#utility.yul\":4131:4132   */\n      0x00\n        /* \"#utility.yul\":4156:4209   */\n      tag_320\n        /* \"#utility.yul\":4201:4208   */\n      dup5\n        /* \"#utility.yul\":4192:4198   */\n      dup3\n        /* \"#utility.yul\":4181:4190   */\n      dup6\n        /* \"#utility.yul\":4177:4199   */\n      add\n        /* \"#utility.yul\":4156:4209   */\n      tag_237\n      jump\t// in\n    tag_320:\n        /* \"#utility.yul\":4146:4209   */\n      swap2\n      pop\n        /* \"#utility.yul\":4102:4219   */\n      pop\n        /* \"#utility.yul\":3897:4226   */\n      swap3\n      swap2\n      pop\n      pop\n      jump\t// out\n        /* \"#utility.yul\":4232:4706   */\n    tag_55:\n        /* \"#utility.yul\":4300:4306   */\n      0x00\n        /* \"#utility.yul\":4308:4314   */\n      0x00\n        /* \"#utility.yul\":4357:4359   */\n      0x40\n        /* \"#utility.yul\":4345:4354   */\n      dup4\n        /* \"#utility.yul\":4336:4343   */\n      dup6\n        /* \"#utility.yul\":4332:4355   */\n      sub\n        /* \"#utility.yul\":4328:4360   */\n      slt\n        /* \"#utility.yul\":4325:4444   */\n      iszero\n      tag_322\n      jumpi\n        /* \"#utility.yul\":4363:4442   */\n      tag_323\n      tag_221\n      jump\t// in\n    tag_323:\n        /* \"#utility.yul\":4325:4444   */\n    tag_322:\n        /* \"#utility.yul\":4483:4484   */\n      0x00\n        /* \"#utility.yul\":4508:4561   */\n      tag_324\n        /* \"#utility.yul\":4553:4560   */\n      dup6\n        /* \"#utility.yul\":4544:4550   */\n      dup3\n        /* \"#utility.yul\":4533:4542   */\n      dup7\n        /* \"#utility.yul\":4529:4551   */\n      add\n        /* \"#utility.yul\":4508:4561   */\n      tag_226\n      jump\t// in\n    tag_324:\n        /* \"#utility.yul\":4498:4561   */\n      swap3\n      pop\n        /* \"#utility.yul\":4454:4571   */\n      pop\n        /* \"#utility.yul\":4610:4612   */\n      0x20\n        /* \"#utility.yul\":4636:4689   */\n      tag_325\n        /* \"#utility.yul\":4681:4688   */\n      dup6\n        /* \"#utility.yul\":4672:4678   */\n      dup3\n        /* \"#utility.yul\":4661:4670   */\n      dup7\n        /* \"#utility.yul\":4657:4679   */\n      add\n        /* \"#utility.yul\":4636:4689   */\n      tag_237\n      jump\t// in\n    tag_325:\n        /* \"#utility.yul\":4626:4689   */\n      swap2\n      pop\n        /* \"#utility.yul\":4581:4699   */\n      pop\n        /* \"#utility.yul\":4232:4706   */\n      swap3\n      pop\n      swap3\n      swap1\n      pop\n      jump\t// out\n        /* \"#utility.yul\":4712:4830   */\n    tag_238:\n        /* \"#utility.yul\":4799:4823   */\n      tag_327\n        /* \"#utility.yul\":4817:4822   */\n      dup2\n        /* \"#utility.yul\":4799:4823   */\n      tag_224\n      jump\t// in\n    tag_327:\n        /* \"#utility.yul\":4794:4797   */\n      dup3\n        /* \"#utility.yul\":4787:4824   */\n      mstore\n        /* \"#utility.yul\":4712:4830   */\n      pop\n      pop\n      jump\t// out\n        /* \"#utility.yul\":4836:5058   */\n    tag_62:\n        /* \"#utility.yul\":4929:4933   */\n      0x00\n        /* \"#utility.yul\":4967:4969   */\n      0x20\n        /* \"#utility.yul\":4956:4965   */\n      dup3\n        /* \"#utility.yul\":4952:4970   */\n      add\n        /* \"#utility.yul\":4944:4970   */\n      swap1\n      pop\n        /* \"#utility.yul\":4980:5051   */\n      tag_329\n        /* \"#utility.yul\":5048:5049   */\n      0x00\n        /* \"#utility.yul\":5037:5046   */\n      dup4\n        /* \"#utility.yul\":5033:5050   */\n      add\n        /* \"#utility.yul\":5024:5030   */\n      dup5\n        /* \"#utility.yul\":4980:5051   */\n      tag_238\n      jump\t// in\n    tag_329:\n        /* \"#utility.yul\":4836:5058   */\n      swap3\n      swap2\n      pop\n      pop\n      jump\t// out\n        /* \"#utility.yul\":5064:5244   */\n    tag_123:\n        /* \"#utility.yul\":5112:5189   */\n      0x4e487b7100000000000000000000000000000000000000000000000000000000\n        /* \"#utility.yul\":5109:5110   */\n      0x00\n        /* \"#utility.yul\":5102:5190   */\n      mstore\n        /* \"#utility.yul\":5209:5213   */\n      0x21\n        /* \"#utility.yul\":5206:5207   */\n      0x04\n        /* \"#utility.yul\":5199:5214   */\n      mstore\n        /* \"#utility.yul\":5233:5237   */\n      0x24\n        /* \"#utility.yul\":5230:5231   */\n      0x00\n        /* \"#utility.yul\":5223:5238   */\n      revert\n        /* \"#utility.yul\":5250:5366   */\n    tag_239:\n        /* \"#utility.yul\":5334:5335   */\n      0x04\n        /* \"#utility.yul\":5327:5332   */\n      dup2\n        /* \"#utility.yul\":5324:5336   */\n      lt\n        /* \"#utility.yul\":5314:5360   */\n      tag_332\n      jumpi\n        /* \"#utility.yul\":5340:5358   */\n      tag_333\n      tag_123\n      jump\t// in\n    tag_333:\n        /* \"#utility.yul\":5314:5360   */\n    tag_332:\n        /* \"#utility.yul\":5250:5366   */\n      pop\n      jump\t// out\n        /* \"#utility.yul\":5372:5505   */\n    tag_240:\n        /* \"#utility.yul\":5420:5427   */\n      0x00\n        /* \"#utility.yul\":5449:5454   */\n      dup2\n        /* \"#utility.yul\":5438:5454   */\n      swap1\n      pop\n        /* \"#utility.yul\":5455:5499   */\n      tag_335\n        /* \"#utility.yul\":5493:5498   */\n      dup3\n        /* \"#utility.yul\":5455:5499   */\n      tag_239\n      jump\t// in\n    tag_335:\n        /* \"#utility.yul\":5372:5505   */\n      swap2\n      swap1\n      pop\n      jump\t// out\n        /* \"#utility.yul\":5511:5644   */\n    tag_241:\n        /* \"#utility.yul\":5570:5579   */\n      0x00\n        /* \"#utility.yul\":5603:5638   */\n      tag_337\n        /* \"#utility.yul\":5632:5637   */\n      dup3\n        /* \"#utility.yul\":5603:5638   */\n      tag_240\n      jump\t// in\n    tag_337:\n        /* \"#utility.yul\":5590:5638   */\n      swap1\n      pop\n        /* \"#utility.yul\":5511:5644   */\n      swap2\n      swap1\n      pop\n      jump\t// out\n        /* \"#utility.yul\":5650:5799   */\n    tag_242:\n        /* \"#utility.yul\":5746:5792   */\n      tag_339\n        /* \"#utility.yul\":5786:5791   */\n      dup2\n        /* \"#utility.yul\":5746:5792   */\n      tag_241\n      jump\t// in\n    tag_339:\n        /* \"#utility.yul\":5741:5744   */\n      dup3\n        /* \"#utility.yul\":5734:5793   */\n      mstore\n        /* \"#utility.yul\":5650:5799   */\n      pop\n      pop\n      jump\t// out\n        /* \"#utility.yul\":5805:5895   */\n    tag_243:\n        /* \"#utility.yul\":5839:5846   */\n      0x00\n        /* \"#utility.yul\":5882:5887   */\n      dup2\n        /* \"#utility.yul\":5875:5888   */\n      iszero\n        /* \"#utility.yul\":5868:5889   */\n      iszero\n        /* \"#utility.yul\":5857:5889   */\n      swap1\n      pop\n        /* \"#utility.yul\":5805:5895   */\n      swap2\n      swap1\n      pop\n      jump\t// out\n        /* \"#utility.yul\":5901:6010   */\n    tag_244:\n        /* \"#utility.yul\":5982:6003   */\n      tag_342\n        /* \"#utility.yul\":5997:6002   */\n      dup2\n        /* \"#utility.yul\":5982:6003   */\n      tag_243\n      jump\t// in\n    tag_342:\n        /* \"#utility.yul\":5977:5980   */\n      dup3\n        /* \"#utility.yul\":5970:6004   */\n      mstore\n        /* \"#utility.yul\":5901:6010   */\n      pop\n      pop\n      jump\t// out\n        /* \"#utility.yul\":6016:7007   */\n    tag_68:\n        /* \"#utility.yul\":6302:6306   */\n      0x00\n        /* \"#utility.yul\":6340:6343   */\n      0x0100\n        /* \"#utility.yul\":6329:6338   */\n      dup3\n        /* \"#utility.yul\":6325:6344   */\n      add\n        /* \"#utility.yul\":6317:6344   */\n      swap1\n      pop\n        /* \"#utility.yul\":6354:6425   */\n      tag_344\n        /* \"#utility.yul\":6422:6423   */\n      0x00\n        /* \"#utility.yul\":6411:6420   */\n      dup4\n        /* \"#utility.yul\":6407:6424   */\n      add\n        /* \"#utility.yul\":6398:6404   */\n      dup12\n        /* \"#utility.yul\":6354:6425   */\n      tag_235\n      jump\t// in\n    tag_344:\n        /* \"#utility.yul\":6435:6507   */\n      tag_345\n        /* \"#utility.yul\":6503:6505   */\n      0x20\n        /* \"#utility.yul\":6492:6501   */\n      dup4\n        /* \"#utility.yul\":6488:6506   */\n      add\n        /* \"#utility.yul\":6479:6485   */\n      dup11\n        /* \"#utility.yul\":6435:6507   */\n      tag_238\n      jump\t// in\n    tag_345:\n        /* \"#utility.yul\":6517:6598   */\n      tag_346\n        /* \"#utility.yul\":6594:6596   */\n      0x40\n        /* \"#utility.yul\":6583:6592   */\n      dup4\n        /* \"#utility.yul\":6579:6597   */\n      add\n        /* \"#utility.yul\":6570:6576   */\n      dup10\n        /* \"#utility.yul\":6517:6598   */\n      tag_242\n      jump\t// in\n    tag_346:\n        /* \"#utility.yul\":6608:6680   */\n      tag_347\n        /* \"#utility.yul\":6676:6678   */\n      0x60\n        /* \"#utility.yul\":6665:6674   */\n      dup4\n        /* \"#utility.yul\":6661:6679   */\n      add\n        /* \"#utility.yul\":6652:6658   */\n      dup9\n        /* \"#utility.yul\":6608:6680   */\n      tag_235\n      jump\t// in\n    tag_347:\n        /* \"#utility.yul\":6690:6763   */\n      tag_348\n        /* \"#utility.yul\":6758:6761   */\n      0x80\n        /* \"#utility.yul\":6747:6756   */\n      dup4\n        /* \"#utility.yul\":6743:6762   */\n      add\n        /* \"#utility.yul\":6734:6740   */\n      dup8\n        /* \"#utility.yul\":6690:6763   */\n      tag_235\n      jump\t// in\n    tag_348:\n        /* \"#utility.yul\":6773:6846   */\n      tag_349\n        /* \"#utility.yul\":6841:6844   */\n      0xa0\n        /* \"#utility.yul\":6830:6839   */\n      dup4\n        /* \"#utility.yul\":6826:6845   */\n      add\n        /* \"#utility.yul\":6817:6823   */\n      dup7\n        /* \"#utility.yul\":6773:6846   */\n      tag_235\n      jump\t// in\n    tag_349:\n        /* \"#utility.yul\":6856:6923   */\n      tag_350\n        /* \"#utility.yul\":6918:6921   */\n      0xc0\n        /* \"#utility.yul\":6907:6916   */\n      dup4\n        /* \"#utility.yul\":6903:6922   */\n      add\n        /* \"#utility.yul\":6894:6900   */\n      dup6\n        /* \"#utility.yul\":6856:6923   */\n      tag_244\n      jump\t// in\n    tag_350:\n        /* \"#utility.yul\":6933:7000   */\n      tag_351\n        /* \"#utility.yul\":6995:6998   */\n      0xe0\n        /* \"#utility.yul\":6984:6993   */\n      dup4\n        /* \"#utility.yul\":6980:6999   */\n      add\n        /* \"#utility.yul\":6971:6977   */\n      dup5\n        /* \"#utility.yul\":6933:7000   */\n      tag_244\n      jump\t// in\n    tag_351:\n        /* \"#utility.yul\":6016:7007   */\n      swap10\n      swap9\n      pop\n      pop\n      pop\n      pop\n      pop\n      pop\n      pop\n      pop\n      pop\n      jump\t// out\n        /* \"#utility.yul\":7013:7099   */\n    tag_245:\n        /* \"#utility.yul\":7048:7055   */\n      0x00\n        /* \"#utility.yul\":7088:7092   */\n      0xff\n        /* \"#utility.yul\":7081:7086   */\n      dup3\n        /* \"#utility.yul\":7077:7093   */\n      and\n        /* \"#utility.yul\":7066:7093   */\n      swap1\n      pop\n        /* \"#utility.yul\":7013:7099   */\n      swap2\n      swap1\n      pop\n      jump\t// out\n        /* \"#utility.yul\":7105:7217   */\n    tag_246:\n        /* \"#utility.yul\":7188:7210   */\n      tag_354\n        /* \"#utility.yul\":7204:7209   */\n      dup2\n        /* \"#utility.yul\":7188:7210   */\n      tag_245\n      jump\t// in\n    tag_354:\n        /* \"#utility.yul\":7183:7186   */\n      dup3\n        /* \"#utility.yul\":7176:7211   */\n      mstore\n        /* \"#utility.yul\":7105:7217   */\n      pop\n      pop\n      jump\t// out\n        /* \"#utility.yul\":7223:7437   */\n    tag_81:\n        /* \"#utility.yul\":7312:7316   */\n      0x00\n        /* \"#utility.yul\":7350:7352   */\n      0x20\n        /* \"#utility.yul\":7339:7348   */\n      dup3\n        /* \"#utility.yul\":7335:7353   */\n      add\n        /* \"#utility.yul\":7327:7353   */\n      swap1\n      pop\n        /* \"#utility.yul\":7363:7430   */\n      tag_356\n        /* \"#utility.yul\":7427:7428   */\n      0x00\n        /* \"#utility.yul\":7416:7425   */\n      dup4\n        /* \"#utility.yul\":7412:7429   */\n      add\n        /* \"#utility.yul\":7403:7409   */\n      dup5\n        /* \"#utility.yul\":7363:7430   */\n      tag_246\n      jump\t// in\n    tag_356:\n        /* \"#utility.yul\":7223:7437   */\n      swap3\n      swap2\n      pop\n      pop\n      jump\t// out\n        /* \"#utility.yul\":7443:7551   */\n    tag_247:\n        /* \"#utility.yul\":7520:7544   */\n      tag_358\n        /* \"#utility.yul\":7538:7543   */\n      dup2\n        /* \"#utility.yul\":7520:7544   */\n      tag_224\n      jump\t// in\n    tag_358:\n        /* \"#utility.yul\":7515:7518   */\n      dup3\n        /* \"#utility.yul\":7508:7545   */\n      mstore\n        /* \"#utility.yul\":7443:7551   */\n      pop\n      pop\n      jump\t// out\n        /* \"#utility.yul\":7557:7696   */\n    tag_248:\n        /* \"#utility.yul\":7643:7689   */\n      tag_360\n        /* \"#utility.yul\":7683:7688   */\n      dup2\n        /* \"#utility.yul\":7643:7689   */\n      tag_241\n      jump\t// in\n    tag_360:\n        /* \"#utility.yul\":7638:7641   */\n      dup3\n        /* \"#utility.yul\":7631:7690   */\n      mstore\n        /* \"#utility.yul\":7557:7696   */\n      pop\n      pop\n      jump\t// out\n        /* \"#utility.yul\":7702:7801   */\n    tag_249:\n        /* \"#utility.yul\":7773:7794   */\n      tag_362\n        /* \"#utility.yul\":7788:7793   */\n      dup2\n        /* \"#utility.yul\":7773:7794   */\n      tag_243\n      jump\t// in\n    tag_362:\n        /* \"#utility.yul\":7768:7771   */\n      dup3\n        /* \"#utility.yul\":7761:7795   */\n      mstore\n        /* \"#utility.yul\":7702:7801   */\n      pop\n      pop\n      jump\t// out\n        /* \"#utility.yul\":7865:9436   */\n    tag_250:\n        /* \"#utility.yul\":8004:8010   */\n      0x0100\n        /* \"#utility.yul\":7999:8002   */\n      dup3\n        /* \"#utility.yul\":7995:8011   */\n      add\n        /* \"#utility.yul\":8096:8100   */\n      0x00\n        /* \"#utility.yul\":8089:8094   */\n      dup3\n        /* \"#utility.yul\":8085:8101   */\n      add\n        /* \"#utility.yul\":8079:8102   */\n      mload\n        /* \"#utility.yul\":8115:8178   */\n      tag_364\n        /* \"#utility.yul\":8172:8176   */\n      0x00\n        /* \"#utility.yul\":8167:8170   */\n      dup6\n        /* \"#utility.yul\":8163:8177   */\n      add\n        /* \"#utility.yul\":8149:8161   */\n      dup3\n        /* \"#utility.yul\":8115:8178   */\n      tag_231\n      jump\t// in\n    tag_364:\n        /* \"#utility.yul\":8021:8188   */\n      pop\n        /* \"#utility.yul\":8271:8275   */\n      0x20\n        /* \"#utility.yul\":8264:8269   */\n      dup3\n        /* \"#utility.yul\":8260:8276   */\n      add\n        /* \"#utility.yul\":8254:8277   */\n      mload\n        /* \"#utility.yul\":8290:8353   */\n      tag_365\n        /* \"#utility.yul\":8347:8351   */\n      0x20\n        /* \"#utility.yul\":8342:8345   */\n      dup6\n        /* \"#utility.yul\":8338:8352   */\n      add\n        /* \"#utility.yul\":8324:8336   */\n      dup3\n        /* \"#utility.yul\":8290:8353   */\n      tag_247\n      jump\t// in\n    tag_365:\n        /* \"#utility.yul\":8198:8363   */\n      pop\n        /* \"#utility.yul\":8446:8450   */\n      0x40\n        /* \"#utility.yul\":8439:8444   */\n      dup3\n        /* \"#utility.yul\":8435:8451   */\n      add\n        /* \"#utility.yul\":8429:8452   */\n      mload\n        /* \"#utility.yul\":8465:8537   */\n      tag_366\n        /* \"#utility.yul\":8531:8535   */\n      0x40\n        /* \"#utility.yul\":8526:8529   */\n      dup6\n        /* \"#utility.yul\":8522:8536   */\n      add\n        /* \"#utility.yul\":8508:8520   */\n      dup3\n        /* \"#utility.yul\":8465:8537   */\n      tag_248\n      jump\t// in\n    tag_366:\n        /* \"#utility.yul\":8373:8547   */\n      pop\n        /* \"#utility.yul\":8636:8640   */\n      0x60\n        /* \"#utility.yul\":8629:8634   */\n      dup3\n        /* \"#utility.yul\":8625:8641   */\n      add\n        /* \"#utility.yul\":8619:8642   */\n      mload\n        /* \"#utility.yul\":8655:8718   */\n      tag_367\n        /* \"#utility.yul\":8712:8716   */\n      0x60\n        /* \"#utility.yul\":8707:8710   */\n      dup6\n        /* \"#utility.yul\":8703:8717   */\n      add\n        /* \"#utility.yul\":8689:8701   */\n      dup3\n        /* \"#utility.yul\":8655:8718   */\n      tag_231\n      jump\t// in\n    tag_367:\n        /* \"#utility.yul\":8557:8728   */\n      pop\n        /* \"#utility.yul\":8817:8821   */\n      0x80\n        /* \"#utility.yul\":8810:8815   */\n      dup3\n        /* \"#utility.yul\":8806:8822   */\n      add\n        /* \"#utility.yul\":8800:8823   */\n      mload\n        /* \"#utility.yul\":8836:8899   */\n      tag_368\n        /* \"#utility.yul\":8893:8897   */\n      0x80\n        /* \"#utility.yul\":8888:8891   */\n      dup6\n        /* \"#utility.yul\":8884:8898   */\n      add\n        /* \"#utility.yul\":8870:8882   */\n      dup3\n        /* \"#utility.yul\":8836:8899   */\n      tag_231\n      jump\t// in\n    tag_368:\n        /* \"#utility.yul\":8738:8909   */\n      pop\n        /* \"#utility.yul\":8997:9001   */\n      0xa0\n        /* \"#utility.yul\":8990:8995   */\n      dup3\n        /* \"#utility.yul\":8986:9002   */\n      add\n        /* \"#utility.yul\":8980:9003   */\n      mload\n        /* \"#utility.yul\":9016:9079   */\n      tag_369\n        /* \"#utility.yul\":9073:9077   */\n      0xa0\n        /* \"#utility.yul\":9068:9071   */\n      dup6\n        /* \"#utility.yul\":9064:9078   */\n      add\n        /* \"#utility.yul\":9050:9062   */\n      dup3\n        /* \"#utility.yul\":9016:9079   */\n      tag_231\n      jump\t// in\n    tag_369:\n        /* \"#utility.yul\":8919:9089   */\n      pop\n        /* \"#utility.yul\":9173:9177   */\n      0xc0\n        /* \"#utility.yul\":9166:9171   */\n      dup3\n        /* \"#utility.yul\":9162:9178   */\n      add\n        /* \"#utility.yul\":9156:9179   */\n      mload\n        /* \"#utility.yul\":9192:9249   */\n      tag_370\n        /* \"#utility.yul\":9243:9247   */\n      0xc0\n        /* \"#utility.yul\":9238:9241   */\n      dup6\n        /* \"#utility.yul\":9234:9248   */\n      add\n        /* \"#utility.yul\":9220:9232   */\n      dup3\n        /* \"#utility.yul\":9192:9249   */\n      tag_249\n      jump\t// in\n    tag_370:\n        /* \"#utility.yul\":9099:9259   */\n      pop\n        /* \"#utility.yul\":9343:9347   */\n      0xe0\n        /* \"#utility.yul\":9336:9341   */\n      dup3\n        /* \"#utility.yul\":9332:9348   */\n      add\n        /* \"#utility.yul\":9326:9349   */\n      mload\n        /* \"#utility.yul\":9362:9419   */\n      tag_371\n        /* \"#utility.yul\":9413:9417   */\n      0xe0\n        /* \"#utility.yul\":9408:9411   */\n      dup6\n        /* \"#utility.yul\":9404:9418   */\n      add\n        /* \"#utility.yul\":9390:9402   */\n      dup3\n        /* \"#utility.yul\":9362:9419   */\n      tag_249\n      jump\t// in\n    tag_371:\n        /* \"#utility.yul\":9269:9429   */\n      pop\n        /* \"#utility.yul\":7973:9436   */\n      pop\n        /* \"#utility.yul\":7865:9436   */\n      pop\n      pop\n      jump\t// out\n        /* \"#utility.yul\":9442:9749   */\n    tag_99:\n        /* \"#utility.yul\":9577:9581   */\n      0x00\n        /* \"#utility.yul\":9615:9618   */\n      0x0100\n        /* \"#utility.yul\":9604:9613   */\n      dup3\n        /* \"#utility.yul\":9600:9619   */\n      add\n        /* \"#utility.yul\":9592:9619   */\n      swap1\n      pop\n        /* \"#utility.yul\":9629:9742   */\n      tag_373\n        /* \"#utility.yul\":9739:9740   */\n      0x00\n        /* \"#utility.yul\":9728:9737   */\n      dup4\n        /* \"#utility.yul\":9724:9741   */\n      add\n        /* \"#utility.yul\":9715:9721   */\n      dup5\n        /* \"#utility.yul\":9629:9742   */\n      tag_250\n      jump\t// in\n    tag_373:\n        /* \"#utility.yul\":9442:9749   */\n      swap3\n      swap2\n      pop\n      pop\n      jump\t// out\n        /* \"#utility.yul\":9755:9924   */\n    tag_251:\n        /* \"#utility.yul\":9839:9850   */\n      0x00\n        /* \"#utility.yul\":9873:9879   */\n      dup3\n        /* \"#utility.yul\":9868:9871   */\n      dup3\n        /* \"#utility.yul\":9861:9880   */\n      mstore\n        /* \"#utility.yul\":9913:9917   */\n      0x20\n        /* \"#utility.yul\":9908:9911   */\n      dup3\n        /* \"#utility.yul\":9904:9918   */\n      add\n        /* \"#utility.yul\":9889:9918   */\n      swap1\n      pop\n        /* \"#utility.yul\":9755:9924   */\n      swap3\n      swap2\n      pop\n      pop\n      jump\t// out\n        /* \"#utility.yul\":9930:10091   */\n    tag_252:\n        /* \"#utility.yul\":10070:10083   */\n      0x42756b616e206f776e6572000000000000000000000000000000000000000000\n        /* \"#utility.yul\":10066:10067   */\n      0x00\n        /* \"#utility.yul\":10058:10064   */\n      dup3\n        /* \"#utility.yul\":10054:10068   */\n      add\n        /* \"#utility.yul\":10047:10084   */\n      mstore\n        /* \"#utility.yul\":9930:10091   */\n      pop\n      jump\t// out\n        /* \"#utility.yul\":10097:10463   */\n    tag_253:\n        /* \"#utility.yul\":10239:10242   */\n      0x00\n        /* \"#utility.yul\":10260:10327   */\n      tag_377\n        /* \"#utility.yul\":10324:10326   */\n      0x0b\n        /* \"#utility.yul\":10319:10322   */\n      dup4\n        /* \"#utility.yul\":10260:10327   */\n      tag_251\n      jump\t// in\n    tag_377:\n        /* \"#utility.yul\":10253:10327   */\n      swap2\n      pop\n        /* \"#utility.yul\":10336:10429   */\n      tag_378\n        /* \"#utility.yul\":10425:10428   */\n      dup3\n        /* \"#utility.yul\":10336:10429   */\n      tag_252\n      jump\t// in\n    tag_378:\n        /* \"#utility.yul\":10454:10456   */\n      0x20\n        /* \"#utility.yul\":10449:10452   */\n      dup3\n        /* \"#utility.yul\":10445:10457   */\n      add\n        /* \"#utility.yul\":10438:10457   */\n      swap1\n      pop\n        /* \"#utility.yul\":10097:10463   */\n      swap2\n      swap1\n      pop\n      jump\t// out\n        /* \"#utility.yul\":10469:10888   */\n    tag_106:\n        /* \"#utility.yul\":10635:10639   */\n      0x00\n        /* \"#utility.yul\":10673:10675   */\n      0x20\n        /* \"#utility.yul\":10662:10671   */\n      dup3\n        /* \"#utility.yul\":10658:10676   */\n      add\n        /* \"#utility.yul\":10650:10676   */\n      swap1\n      pop\n        /* \"#utility.yul\":10722:10731   */\n      dup2\n        /* \"#utility.yul\":10716:10720   */\n      dup2\n        /* \"#utility.yul\":10712:10732   */\n      sub\n        /* \"#utility.yul\":10708:10709   */\n      0x00\n        /* \"#utility.yul\":10697:10706   */\n      dup4\n        /* \"#utility.yul\":10693:10710   */\n      add\n        /* \"#utility.yul\":10686:10733   */\n      mstore\n        /* \"#utility.yul\":10750:10881   */\n      tag_380\n        /* \"#utility.yul\":10876:10880   */\n      dup2\n        /* \"#utility.yul\":10750:10881   */\n      tag_253\n      jump\t// in\n    tag_380:\n        /* \"#utility.yul\":10742:10881   */\n      swap1\n      pop\n        /* \"#utility.yul\":10469:10888   */\n      swap2\n      swap1\n      pop\n      jump\t// out\n        /* \"#utility.yul\":10894:11041   */\n    tag_254:\n        /* \"#utility.yul\":10995:11006   */\n      0x00\n        /* \"#utility.yul\":11032:11035   */\n      dup2\n        /* \"#utility.yul\":11017:11035   */\n      swap1\n      pop\n        /* \"#utility.yul\":10894:11041   */\n      swap3\n      swap2\n      pop\n      pop\n      jump\t// out\n        /* \"#utility.yul\":11047:11161   */\n    tag_255:\n      pop\n      jump\t// out\n        /* \"#utility.yul\":11167:11565   */\n    tag_256:\n        /* \"#utility.yul\":11326:11329   */\n      0x00\n        /* \"#utility.yul\":11347:11430   */\n      tag_384\n        /* \"#utility.yul\":11428:11429   */\n      0x00\n        /* \"#utility.yul\":11423:11426   */\n      dup4\n        /* \"#utility.yul\":11347:11430   */\n      tag_254\n      jump\t// in\n    tag_384:\n        /* \"#utility.yul\":11340:11430   */\n      swap2\n      pop\n        /* \"#utility.yul\":11439:11532   */\n      tag_385\n        /* \"#utility.yul\":11528:11531   */\n      dup3\n        /* \"#utility.yul\":11439:11532   */\n      tag_255\n      jump\t// in\n    tag_385:\n        /* \"#utility.yul\":11557:11558   */\n      0x00\n        /* \"#utility.yul\":11552:11555   */\n      dup3\n        /* \"#utility.yul\":11548:11559   */\n      add\n        /* \"#utility.yul\":11541:11559   */\n      swap1\n      pop\n        /* \"#utility.yul\":11167:11565   */\n      swap2\n      swap1\n      pop\n      jump\t// out\n        /* \"#utility.yul\":11571:11950   */\n    tag_108:\n        /* \"#utility.yul\":11755:11758   */\n      0x00\n        /* \"#utility.yul\":11777:11924   */\n      tag_387\n        /* \"#utility.yul\":11920:11923   */\n      dup3\n        /* \"#utility.yul\":11777:11924   */\n      tag_256\n      jump\t// in\n    tag_387:\n        /* \"#utility.yul\":11770:11924   */\n      swap2\n      pop\n        /* \"#utility.yul\":11941:11944   */\n      dup2\n        /* \"#utility.yul\":11934:11944   */\n      swap1\n      pop\n        /* \"#utility.yul\":11571:11950   */\n      swap2\n      swap1\n      pop\n      jump\t// out\n        /* \"#utility.yul\":11956:12120   */\n    tag_257:\n        /* \"#utility.yul\":12096:12112   */\n      0x5472616e7366657220676167616c000000000000000000000000000000000000\n        /* \"#utility.yul\":12092:12093   */\n      0x00\n        /* \"#utility.yul\":12084:12090   */\n      dup3\n        /* \"#utility.yul\":12080:12094   */\n      add\n        /* \"#utility.yul\":12073:12113   */\n      mstore\n        /* \"#utility.yul\":11956:12120   */\n      pop\n      jump\t// out\n        /* \"#utility.yul\":12126:12492   */\n    tag_258:\n        /* \"#utility.yul\":12268:12271   */\n      0x00\n        /* \"#utility.yul\":12289:12356   */\n      tag_390\n        /* \"#utility.yul\":12353:12355   */\n      0x0e\n        /* \"#utility.yul\":12348:12351   */\n      dup4\n        /* \"#utility.yul\":12289:12356   */\n      tag_251\n      jump\t// in\n    tag_390:\n        /* \"#utility.yul\":12282:12356   */\n      swap2\n      pop\n        /* \"#utility.yul\":12365:12458   */\n      tag_391\n        /* \"#utility.yul\":12454:12457   */\n      dup3\n        /* \"#utility.yul\":12365:12458   */\n      tag_257\n      jump\t// in\n    tag_391:\n        /* \"#utility.yul\":12483:12485   */\n      0x20\n        /* \"#utility.yul\":12478:12481   */\n      dup3\n        /* \"#utility.yul\":12474:12486   */\n      add\n        /* \"#utility.yul\":12467:12486   */\n      swap1\n      pop\n        /* \"#utility.yul\":12126:12492   */\n      swap2\n      swap1\n      pop\n      jump\t// out\n        /* \"#utility.yul\":12498:12917   */\n    tag_114:\n        /* \"#utility.yul\":12664:12668   */\n      0x00\n        /* \"#utility.yul\":12702:12704   */\n      0x20\n        /* \"#utility.yul\":12691:12700   */\n      dup3\n        /* \"#utility.yul\":12687:12705   */\n      add\n        /* \"#utility.yul\":12679:12705   */\n      swap1\n      pop\n        /* \"#utility.yul\":12751:12760   */\n      dup2\n        /* \"#utility.yul\":12745:12749   */\n      dup2\n        /* \"#utility.yul\":12741:12761   */\n      sub\n        /* \"#utility.yul\":12737:12738   */\n      0x00\n        /* \"#utility.yul\":12726:12735   */\n      dup4\n        /* \"#utility.yul\":12722:12739   */\n      add\n        /* \"#utility.yul\":12715:12762   */\n      mstore\n        /* \"#utility.yul\":12779:12910   */\n      tag_393\n        /* \"#utility.yul\":12905:12909   */\n      dup2\n        /* \"#utility.yul\":12779:12910   */\n      tag_258\n      jump\t// in\n    tag_393:\n        /* \"#utility.yul\":12771:12910   */\n      swap1\n      pop\n        /* \"#utility.yul\":12498:12917   */\n      swap2\n      swap1\n      pop\n      jump\t// out\n        /* \"#utility.yul\":12923:13091   */\n    tag_259:\n        /* \"#utility.yul\":13063:13083   */\n      0x4d696e69756d20302e3030312065746865720000000000000000000000000000\n        /* \"#utility.yul\":13059:13060   */\n      0x00\n        /* \"#utility.yul\":13051:13057   */\n      dup3\n        /* \"#utility.yul\":13047:13061   */\n      add\n        /* \"#utility.yul\":13040:13084   */\n      mstore\n        /* \"#utility.yul\":12923:13091   */\n      pop\n      jump\t// out\n        /* \"#utility.yul\":13097:13463   */\n    tag_260:\n        /* \"#utility.yul\":13239:13242   */\n      0x00\n        /* \"#utility.yul\":13260:13327   */\n      tag_396\n        /* \"#utility.yul\":13324:13326   */\n      0x12\n        /* \"#utility.yul\":13319:13322   */\n      dup4\n        /* \"#utility.yul\":13260:13327   */\n      tag_251\n      jump\t// in\n    tag_396:\n        /* \"#utility.yul\":13253:13327   */\n      swap2\n      pop\n        /* \"#utility.yul\":13336:13429   */\n      tag_397\n        /* \"#utility.yul\":13425:13428   */\n      dup3\n        /* \"#utility.yul\":13336:13429   */\n      tag_259\n      jump\t// in\n    tag_397:\n        /* \"#utility.yul\":13454:13456   */\n      0x20\n        /* \"#utility.yul\":13449:13452   */\n      dup3\n        /* \"#utility.yul\":13445:13457   */\n      add\n        /* \"#utility.yul\":13438:13457   */\n      swap1\n      pop\n        /* \"#utility.yul\":13097:13463   */\n      swap2\n      swap1\n      pop\n      jump\t// out\n        /* \"#utility.yul\":13469:13888   */\n    tag_118:\n        /* \"#utility.yul\":13635:13639   */\n      0x00\n        /* \"#utility.yul\":13673:13675   */\n      0x20\n        /* \"#utility.yul\":13662:13671   */\n      dup3\n        /* \"#utility.yul\":13658:13676   */\n      add\n        /* \"#utility.yul\":13650:13676   */\n      swap1\n      pop\n        /* \"#utility.yul\":13722:13731   */\n      dup2\n        /* \"#utility.yul\":13716:13720   */\n      dup2\n        /* \"#utility.yul\":13712:13732   */\n      sub\n        /* \"#utility.yul\":13708:13709   */\n      0x00\n        /* \"#utility.yul\":13697:13706   */\n      dup4\n        /* \"#utility.yul\":13693:13710   */\n      add\n        /* \"#utility.yul\":13686:13733   */\n      mstore\n        /* \"#utility.yul\":13750:13881   */\n      tag_399\n        /* \"#utility.yul\":13876:13880   */\n      dup2\n        /* \"#utility.yul\":13750:13881   */\n      tag_260\n      jump\t// in\n    tag_399:\n        /* \"#utility.yul\":13742:13881   */\n      swap1\n      pop\n        /* \"#utility.yul\":13469:13888   */\n      swap2\n      swap1\n      pop\n      jump\t// out\n        /* \"#utility.yul\":13894:14074   */\n    tag_261:\n        /* \"#utility.yul\":13942:14019   */\n      0x4e487b7100000000000000000000000000000000000000000000000000000000\n        /* \"#utility.yul\":13939:13940   */\n      0x00\n        /* \"#utility.yul\":13932:14020   */\n      mstore\n        /* \"#utility.yul\":14039:14043   */\n      0x11\n        /* \"#utility.yul\":14036:14037   */\n      0x04\n        /* \"#utility.yul\":14029:14044   */\n      mstore\n        /* \"#utility.yul\":14063:14067   */\n      0x24\n        /* \"#utility.yul\":14060:14061   */\n      0x00\n        /* \"#utility.yul\":14053:14068   */\n      revert\n        /* \"#utility.yul\":14080:14271   */\n    tag_120:\n        /* \"#utility.yul\":14120:14123   */\n      0x00\n        /* \"#utility.yul\":14139:14159   */\n      tag_402\n        /* \"#utility.yul\":14157:14158   */\n      dup3\n        /* \"#utility.yul\":14139:14159   */\n      tag_230\n      jump\t// in\n    tag_402:\n        /* \"#utility.yul\":14134:14159   */\n      swap2\n      pop\n        /* \"#utility.yul\":14173:14193   */\n      tag_403\n        /* \"#utility.yul\":14191:14192   */\n      dup4\n        /* \"#utility.yul\":14173:14193   */\n      tag_230\n      jump\t// in\n    tag_403:\n        /* \"#utility.yul\":14168:14193   */\n      swap3\n      pop\n        /* \"#utility.yul\":14216:14217   */\n      dup3\n        /* \"#utility.yul\":14213:14214   */\n      dup3\n        /* \"#utility.yul\":14209:14218   */\n      add\n        /* \"#utility.yul\":14202:14218   */\n      swap1\n      pop\n        /* \"#utility.yul\":14237:14240   */\n      dup1\n        /* \"#utility.yul\":14234:14235   */\n      dup3\n        /* \"#utility.yul\":14231:14241   */\n      gt\n        /* \"#utility.yul\":14228:14264   */\n      iszero\n      tag_404\n      jumpi\n        /* \"#utility.yul\":14244:14262   */\n      tag_405\n      tag_261\n      jump\t// in\n    tag_405:\n        /* \"#utility.yul\":14228:14264   */\n    tag_404:\n        /* \"#utility.yul\":14080:14271   */\n      swap3\n      swap2\n      pop\n      pop\n      jump\t// out\n        /* \"#utility.yul\":14277:14471   */\n    tag_130:\n        /* \"#utility.yul\":14317:14321   */\n      0x00\n        /* \"#utility.yul\":14337:14357   */\n      tag_407\n        /* \"#utility.yul\":14355:14356   */\n      dup3\n        /* \"#utility.yul\":14337:14357   */\n      tag_230\n      jump\t// in\n    tag_407:\n        /* \"#utility.yul\":14332:14357   */\n      swap2\n      pop\n        /* \"#utility.yul\":14371:14391   */\n      tag_408\n        /* \"#utility.yul\":14389:14390   */\n      dup4\n        /* \"#utility.yul\":14371:14391   */\n      tag_230\n      jump\t// in\n    tag_408:\n        /* \"#utility.yul\":14366:14391   */\n      swap3\n      pop\n        /* \"#utility.yul\":14415:14416   */\n      dup3\n        /* \"#utility.yul\":14412:14413   */\n      dup3\n        /* \"#utility.yul\":14408:14417   */\n      sub\n        /* \"#utility.yul\":14400:14417   */\n      swap1\n      pop\n        /* \"#utility.yul\":14439:14440   */\n      dup2\n        /* \"#utility.yul\":14433:14437   */\n      dup2\n        /* \"#utility.yul\":14430:14441   */\n      gt\n        /* \"#utility.yul\":14427:14464   */\n      iszero\n      tag_409\n      jumpi\n        /* \"#utility.yul\":14444:14462   */\n      tag_410\n      tag_261\n      jump\t// in\n    tag_410:\n        /* \"#utility.yul\":14427:14464   */\n    tag_409:\n        /* \"#utility.yul\":14277:14471   */\n      swap3\n      swap2\n      pop\n      pop\n      jump\t// out\n        /* \"#utility.yul\":14477:14887   */\n    tag_133:\n        /* \"#utility.yul\":14517:14524   */\n      0x00\n        /* \"#utility.yul\":14540:14560   */\n      tag_412\n        /* \"#utility.yul\":14558:14559   */\n      dup3\n        /* \"#utility.yul\":14540:14560   */\n      tag_230\n      jump\t// in\n    tag_412:\n        /* \"#utility.yul\":14535:14560   */\n      swap2\n      pop\n        /* \"#utility.yul\":14574:14594   */\n      tag_413\n        /* \"#utility.yul\":14592:14593   */\n      dup4\n        /* \"#utility.yul\":14574:14594   */\n      tag_230\n      jump\t// in\n    tag_413:\n        /* \"#utility.yul\":14569:14594   */\n      swap3\n      pop\n        /* \"#utility.yul\":14629:14630   */\n      dup3\n        /* \"#utility.yul\":14626:14627   */\n      dup3\n        /* \"#utility.yul\":14622:14631   */\n      mul\n        /* \"#utility.yul\":14651:14681   */\n      tag_414\n        /* \"#utility.yul\":14669:14680   */\n      dup2\n        /* \"#utility.yul\":14651:14681   */\n      tag_230\n      jump\t// in\n    tag_414:\n        /* \"#utility.yul\":14640:14681   */\n      swap2\n      pop\n        /* \"#utility.yul\":14830:14831   */\n      dup3\n        /* \"#utility.yul\":14821:14828   */\n      dup3\n        /* \"#utility.yul\":14817:14832   */\n      div\n        /* \"#utility.yul\":14814:14815   */\n      dup5\n        /* \"#utility.yul\":14811:14833   */\n      eq\n        /* \"#utility.yul\":14791:14792   */\n      dup4\n        /* \"#utility.yul\":14784:14793   */\n      iszero\n        /* \"#utility.yul\":14764:14847   */\n      or\n        /* \"#utility.yul\":14741:14880   */\n      tag_415\n      jumpi\n        /* \"#utility.yul\":14860:14878   */\n      tag_416\n      tag_261\n      jump\t// in\n    tag_416:\n        /* \"#utility.yul\":14741:14880   */\n    tag_415:\n        /* \"#utility.yul\":14525:14887   */\n      pop\n        /* \"#utility.yul\":14477:14887   */\n      swap3\n      swap2\n      pop\n      pop\n      jump\t// out\n        /* \"#utility.yul\":14893:15066   */\n    tag_262:\n        /* \"#utility.yul\":15033:15058   */\n      0x74616e616d616e20746964616b20646974656d756b616e000000000000000000\n        /* \"#utility.yul\":15029:15030   */\n      0x00\n        /* \"#utility.yul\":15021:15027   */\n      dup3\n        /* \"#utility.yul\":15017:15031   */\n      add\n        /* \"#utility.yul\":15010:15059   */\n      mstore\n        /* \"#utility.yul\":14893:15066   */\n      pop\n      jump\t// out\n        /* \"#utility.yul\":15072:15438   */\n    tag_263:\n        /* \"#utility.yul\":15214:15217   */\n      0x00\n        /* \"#utility.yul\":15235:15302   */\n      tag_419\n        /* \"#utility.yul\":15299:15301   */\n      0x17\n        /* \"#utility.yul\":15294:15297   */\n      dup4\n        /* \"#utility.yul\":15235:15302   */\n      tag_251\n      jump\t// in\n    tag_419:\n        /* \"#utility.yul\":15228:15302   */\n      swap2\n      pop\n        /* \"#utility.yul\":15311:15404   */\n      tag_420\n        /* \"#utility.yul\":15400:15403   */\n      dup3\n        /* \"#utility.yul\":15311:15404   */\n      tag_262\n      jump\t// in\n    tag_420:\n        /* \"#utility.yul\":15429:15431   */\n      0x20\n        /* \"#utility.yul\":15424:15427   */\n      dup3\n        /* \"#utility.yul\":15420:15432   */\n      add\n        /* \"#utility.yul\":15413:15432   */\n      swap1\n      pop\n        /* \"#utility.yul\":15072:15438   */\n      swap2\n      swap1\n      pop\n      jump\t// out\n        /* \"#utility.yul\":15444:15863   */\n    tag_145:\n        /* \"#utility.yul\":15610:15614   */\n      0x00\n        /* \"#utility.yul\":15648:15650   */\n      0x20\n        /* \"#utility.yul\":15637:15646   */\n      dup3\n        /* \"#utility.yul\":15633:15651   */\n      add\n        /* \"#utility.yul\":15625:15651   */\n      swap1\n      pop\n        /* \"#utility.yul\":15697:15706   */\n      dup2\n        /* \"#utility.yul\":15691:15695   */\n      dup2\n        /* \"#utility.yul\":15687:15707   */\n      sub\n        /* \"#utility.yul\":15683:15684   */\n      0x00\n        /* \"#utility.yul\":15672:15681   */\n      dup4\n        /* \"#utility.yul\":15668:15685   */\n      add\n        /* \"#utility.yul\":15661:15708   */\n      mstore\n        /* \"#utility.yul\":15725:15856   */\n      tag_422\n        /* \"#utility.yul\":15851:15855   */\n      dup2\n        /* \"#utility.yul\":15725:15856   */\n      tag_263\n      jump\t// in\n    tag_422:\n        /* \"#utility.yul\":15717:15856   */\n      swap1\n      pop\n        /* \"#utility.yul\":15444:15863   */\n      swap2\n      swap1\n      pop\n      jump\t// out\n        /* \"#utility.yul\":15869:16037   */\n    tag_264:\n        /* \"#utility.yul\":16009:16029   */\n      0x54616e616d616e207375646168206d6174690000000000000000000000000000\n        /* \"#utility.yul\":16005:16006   */\n      0x00\n        /* \"#utility.yul\":15997:16003   */\n      dup3\n        /* \"#utility.yul\":15993:16007   */\n      add\n        /* \"#utility.yul\":15986:16030   */\n      mstore\n        /* \"#utility.yul\":15869:16037   */\n      pop\n      jump\t// out\n        /* \"#utility.yul\":16043:16409   */\n    tag_265:\n        /* \"#utility.yul\":16185:16188   */\n      0x00\n        /* \"#utility.yul\":16206:16273   */\n      tag_425\n        /* \"#utility.yul\":16270:16272   */\n      0x12\n        /* \"#utility.yul\":16265:16268   */\n      dup4\n        /* \"#utility.yul\":16206:16273   */\n      tag_251\n      jump\t// in\n    tag_425:\n        /* \"#utility.yul\":16199:16273   */\n      swap2\n      pop\n        /* \"#utility.yul\":16282:16375   */\n      tag_426\n        /* \"#utility.yul\":16371:16374   */\n      dup3\n        /* \"#utility.yul\":16282:16375   */\n      tag_264\n      jump\t// in\n    tag_426:\n        /* \"#utility.yul\":16400:16402   */\n      0x20\n        /* \"#utility.yul\":16395:16398   */\n      dup3\n        /* \"#utility.yul\":16391:16403   */\n      add\n        /* \"#utility.yul\":16384:16403   */\n      swap1\n      pop\n        /* \"#utility.yul\":16043:16409   */\n      swap2\n      swap1\n      pop\n      jump\t// out\n        /* \"#utility.yul\":16415:16834   */\n    tag_148:\n        /* \"#utility.yul\":16581:16585   */\n      0x00\n        /* \"#utility.yul\":16619:16621   */\n      0x20\n        /* \"#utility.yul\":16608:16617   */\n      dup3\n        /* \"#utility.yul\":16604:16622   */\n      add\n        /* \"#utility.yul\":16596:16622   */\n      swap1\n      pop\n        /* \"#utility.yul\":16668:16677   */\n      dup2\n        /* \"#utility.yul\":16662:16666   */\n      dup2\n        /* \"#utility.yul\":16658:16678   */\n      sub\n        /* \"#utility.yul\":16654:16655   */\n      0x00\n        /* \"#utility.yul\":16643:16652   */\n      dup4\n        /* \"#utility.yul\":16639:16656   */\n      add\n        /* \"#utility.yul\":16632:16679   */\n      mstore\n        /* \"#utility.yul\":16696:16827   */\n      tag_428\n        /* \"#utility.yul\":16822:16826   */\n      dup2\n        /* \"#utility.yul\":16696:16827   */\n      tag_265\n      jump\t// in\n    tag_428:\n        /* \"#utility.yul\":16688:16827   */\n      swap1\n      pop\n        /* \"#utility.yul\":16415:16834   */\n      swap2\n      swap1\n      pop\n      jump\t// out\n        /* \"#utility.yul\":16840:17080   */\n    tag_184:\n        /* \"#utility.yul\":16942:16946   */\n      0x00\n        /* \"#utility.yul\":16980:16982   */\n      0x20\n        /* \"#utility.yul\":16969:16978   */\n      dup3\n        /* \"#utility.yul\":16965:16983   */\n      add\n        /* \"#utility.yul\":16957:16983   */\n      swap1\n      pop\n        /* \"#utility.yul\":16993:17073   */\n      tag_430\n        /* \"#utility.yul\":17070:17071   */\n      0x00\n        /* \"#utility.yul\":17059:17068   */\n      dup4\n        /* \"#utility.yul\":17055:17072   */\n      add\n        /* \"#utility.yul\":17046:17052   */\n      dup5\n        /* \"#utility.yul\":16993:17073   */\n      tag_242\n      jump\t// in\n    tag_430:\n        /* \"#utility.yul\":16840:17080   */\n      swap3\n      swap2\n      pop\n      pop\n      jump\t// out\n        /* \"#utility.yul\":17086:17264   */\n    tag_266:\n        /* \"#utility.yul\":17226:17256   */\n      0x74616e616d616e20696e692062756b616e206d696c696b206b616d7500000000\n        /* \"#utility.yul\":17222:17223   */\n      0x00\n        /* \"#utility.yul\":17214:17220   */\n      dup3\n        /* \"#utility.yul\":17210:17224   */\n      add\n        /* \"#utility.yul\":17203:17257   */\n      mstore\n        /* \"#utility.yul\":17086:17264   */\n      pop\n      jump\t// out\n        /* \"#utility.yul\":17270:17636   */\n    tag_267:\n        /* \"#utility.yul\":17412:17415   */\n      0x00\n        /* \"#utility.yul\":17433:17500   */\n      tag_433\n        /* \"#utility.yul\":17497:17499   */\n      0x1c\n        /* \"#utility.yul\":17492:17495   */\n      dup4\n        /* \"#utility.yul\":17433:17500   */\n      tag_251\n      jump\t// in\n    tag_433:\n        /* \"#utility.yul\":17426:17500   */\n      swap2\n      pop\n        /* \"#utility.yul\":17509:17602   */\n      tag_434\n        /* \"#utility.yul\":17598:17601   */\n      dup3\n        /* \"#utility.yul\":17509:17602   */\n      tag_266\n      jump\t// in\n    tag_434:\n        /* \"#utility.yul\":17627:17629   */\n      0x20\n        /* \"#utility.yul\":17622:17625   */\n      dup3\n        /* \"#utility.yul\":17618:17630   */\n      add\n        /* \"#utility.yul\":17611:17630   */\n      swap1\n      pop\n        /* \"#utility.yul\":17270:17636   */\n      swap2\n      swap1\n      pop\n      jump\t// out\n        /* \"#utility.yul\":17642:18061   */\n    tag_194:\n        /* \"#utility.yul\":17808:17812   */\n      0x00\n        /* \"#utility.yul\":17846:17848   */\n      0x20\n        /* \"#utility.yul\":17835:17844   */\n      dup3\n        /* \"#utility.yul\":17831:17849   */\n      add\n        /* \"#utility.yul\":17823:17849   */\n      swap1\n      pop\n        /* \"#utility.yul\":17895:17904   */\n      dup2\n        /* \"#utility.yul\":17889:17893   */\n      dup2\n        /* \"#utility.yul\":17885:17905   */\n      sub\n        /* \"#utility.yul\":17881:17882   */\n      0x00\n        /* \"#utility.yul\":17870:17879   */\n      dup4\n        /* \"#utility.yul\":17866:17883   */\n      add\n        /* \"#utility.yul\":17859:17906   */\n      mstore\n        /* \"#utility.yul\":17923:18054   */\n      tag_436\n        /* \"#utility.yul\":18049:18053   */\n      dup2\n        /* \"#utility.yul\":17923:18054   */\n      tag_267\n      jump\t// in\n    tag_436:\n        /* \"#utility.yul\":17915:18054   */\n      swap1\n      pop\n        /* \"#utility.yul\":17642:18061   */\n      swap2\n      swap1\n      pop\n      jump\t// out\n        /* \"#utility.yul\":18067:18235   */\n    tag_268:\n        /* \"#utility.yul\":18207:18227   */\n      0x74616e616d616e207375646168206d6174690000000000000000000000000000\n        /* \"#utility.yul\":18203:18204   */\n      0x00\n        /* \"#utility.yul\":18195:18201   */\n      dup3\n        /* \"#utility.yul\":18191:18205   */\n      add\n        /* \"#utility.yul\":18184:18228   */\n      mstore\n        /* \"#utility.yul\":18067:18235   */\n      pop\n      jump\t// out\n        /* \"#utility.yul\":18241:18607   */\n    tag_269:\n        /* \"#utility.yul\":18383:18386   */\n      0x00\n        /* \"#utility.yul\":18404:18471   */\n      tag_439\n        /* \"#utility.yul\":18468:18470   */\n      0x12\n        /* \"#utility.yul\":18463:18466   */\n      dup4\n        /* \"#utility.yul\":18404:18471   */\n      tag_251\n      jump\t// in\n    tag_439:\n        /* \"#utility.yul\":18397:18471   */\n      swap2\n      pop\n        /* \"#utility.yul\":18480:18573   */\n      tag_440\n        /* \"#utility.yul\":18569:18572   */\n      dup3\n        /* \"#utility.yul\":18480:18573   */\n      tag_268\n      jump\t// in\n    tag_440:\n        /* \"#utility.yul\":18598:18600   */\n      0x20\n        /* \"#utility.yul\":18593:18596   */\n      dup3\n        /* \"#utility.yul\":18589:18601   */\n      add\n        /* \"#utility.yul\":18582:18601   */\n      swap1\n      pop\n        /* \"#utility.yul\":18241:18607   */\n      swap2\n      swap1\n      pop\n      jump\t// out\n        /* \"#utility.yul\":18613:19032   */\n    tag_197:\n        /* \"#utility.yul\":18779:18783   */\n      0x00\n        /* \"#utility.yul\":18817:18819   */\n      0x20\n        /* \"#utility.yul\":18806:18815   */\n      dup3\n        /* \"#utility.yul\":18802:18820   */\n      add\n        /* \"#utility.yul\":18794:18820   */\n      swap1\n      pop\n        /* \"#utility.yul\":18866:18875   */\n      dup2\n        /* \"#utility.yul\":18860:18864   */\n      dup2\n        /* \"#utility.yul\":18856:18876   */\n      sub\n        /* \"#utility.yul\":18852:18853   */\n      0x00\n        /* \"#utility.yul\":18841:18850   */\n      dup4\n        /* \"#utility.yul\":18837:18854   */\n      add\n        /* \"#utility.yul\":18830:18877   */\n      mstore\n        /* \"#utility.yul\":18894:19025   */\n      tag_442\n        /* \"#utility.yul\":19020:19024   */\n      dup2\n        /* \"#utility.yul\":18894:19025   */\n      tag_269\n      jump\t// in\n    tag_442:\n        /* \"#utility.yul\":18886:19025   */\n      swap1\n      pop\n        /* \"#utility.yul\":18613:19032   */\n      swap2\n      swap1\n      pop\n      jump\t// out\n        /* \"#utility.yul\":19038:19207   */\n    tag_270:\n        /* \"#utility.yul\":19178:19199   */\n      0x54616e616d616e2062656c756d206d656b617200000000000000000000000000\n        /* \"#utility.yul\":19174:19175   */\n      0x00\n        /* \"#utility.yul\":19166:19172   */\n      dup3\n        /* \"#utility.yul\":19162:19176   */\n      add\n        /* \"#utility.yul\":19155:19200   */\n      mstore\n        /* \"#utility.yul\":19038:19207   */\n      pop\n      jump\t// out\n        /* \"#utility.yul\":19213:19579   */\n    tag_271:\n        /* \"#utility.yul\":19355:19358   */\n      0x00\n        /* \"#utility.yul\":19376:19443   */\n      tag_445\n        /* \"#utility.yul\":19440:19442   */\n      0x13\n        /* \"#utility.yul\":19435:19438   */\n      dup4\n        /* \"#utility.yul\":19376:19443   */\n      tag_251\n      jump\t// in\n    tag_445:\n        /* \"#utility.yul\":19369:19443   */\n      swap2\n      pop\n        /* \"#utility.yul\":19452:19545   */\n      tag_446\n        /* \"#utility.yul\":19541:19544   */\n      dup3\n        /* \"#utility.yul\":19452:19545   */\n      tag_270\n      jump\t// in\n    tag_446:\n        /* \"#utility.yul\":19570:19572   */\n      0x20\n        /* \"#utility.yul\":19565:19568   */\n      dup3\n        /* \"#utility.yul\":19561:19573   */\n      add\n        /* \"#utility.yul\":19554:19573   */\n      swap1\n      pop\n        /* \"#utility.yul\":19213:19579   */\n      swap2\n      swap1\n      pop\n      jump\t// out\n        /* \"#utility.yul\":19585:20004   */\n    tag_205:\n        /* \"#utility.yul\":19751:19755   */\n      0x00\n        /* \"#utility.yul\":19789:19791   */\n      0x20\n        /* \"#utility.yul\":19778:19787   */\n      dup3\n        /* \"#utility.yul\":19774:19792   */\n      add\n        /* \"#utility.yul\":19766:19792   */\n      swap1\n      pop\n        /* \"#utility.yul\":19838:19847   */\n      dup2\n        /* \"#utility.yul\":19832:19836   */\n      dup2\n        /* \"#utility.yul\":19828:19848   */\n      sub\n        /* \"#utility.yul\":19824:19825   */\n      0x00\n        /* \"#utility.yul\":19813:19822   */\n      dup4\n        /* \"#utility.yul\":19809:19826   */\n      add\n        /* \"#utility.yul\":19802:19849   */\n      mstore\n        /* \"#utility.yul\":19866:19997   */\n      tag_448\n        /* \"#utility.yul\":19992:19996   */\n      dup2\n        /* \"#utility.yul\":19866:19997   */\n      tag_271\n      jump\t// in\n    tag_448:\n        /* \"#utility.yul\":19858:19997   */\n      swap1\n      pop\n        /* \"#utility.yul\":19585:20004   */\n      swap2\n      swap1\n      pop\n      jump\t// out\n\n    auxdata: 0xa2646970667358221220aa1ac653266ce09ce910105851b83ea2b88d5d975a712c4b30bd5fa4919789a364736f6c634300081e0033\n}\n",
				"bytecode": {
					"linkReferences": {},
					"object": "6080604052348015600e575f5ffd5b503360035f6101000a81548173ffffffffffffffffffffffffffffffffffffffff021916908373ffffffffffffffffffffffffffffffffffffffff160217905550611c4a8061005c5f395ff3fe6080604052600436106100f6575f3560e01c80638dd2361c11610089578063cfc9a5f811610058578063cfc9a5f814610326578063ddd4259614610350578063e38f844814610378578063ed0b1f5f146103a0576100fd565b80638dd2361c146102675780639886bcfa146102aa5780639c471749146102d2578063bacb5ebd146102fc576100fd565b806374119a38116100c557806374119a38146101a7578063754e150d146101c55780638aee578b146102015780638da5cb5b1461023d576100fd565b806330cec0eb146101015780633ccfd60b1461013d57806351f9efde146101535780635dba09bd1461017d576100fd565b366100fd57005b5f5ffd5b34801561010c575f5ffd5b5061012760048036038101906101229190611384565b6103dc565b604051610134919061146f565b60405180910390f35b348015610148575f5ffd5b5061015161046f565b005b34801561015e575f5ffd5b506101676105d1565b604051610174919061149e565b60405180910390f35b348015610188575f5ffd5b506101916105d6565b60405161019e919061149e565b60405180910390f35b6101af6105db565b6040516101bc919061149e565b60405180910390f35b3480156101d0575f5ffd5b506101eb60048036038101906101e691906114e1565b6107f1565b6040516101f8919061149e565b60405180910390f35b34801561020c575f5ffd5b506102276004803603810190610222919061150c565b6108b0565b604051610234919061149e565b60405180910390f35b348015610248575f5ffd5b506102516108db565b60405161025e9190611559565b60405180910390f35b348015610272575f5ffd5b5061028d600480360381019061028891906114e1565b610900565b6040516102a19897969594939291906115ff565b60405180910390f35b3480156102b5575f5ffd5b506102d060048036038101906102cb91906114e1565b610988565b005b3480156102dd575f5ffd5b506102e6610b86565b6040516102f3919061149e565b60405180910390f35b348015610307575f5ffd5b50610310610b8c565b60405161031d9190611696565b60405180910390f35b348015610331575f5ffd5b5061033a610b91565b604051610347919061149e565b60405180910390f35b34801561035b575f5ffd5b50610376600480360381019061037191906114e1565b610b9c565b005b348015610383575f5ffd5b5061039e600480360381019061039991906114e1565b610e55565b005b3480156103ab575f5ffd5b506103c660048036038101906103c191906114e1565b61110f565b6040516103d3919061177c565b60405180910390f35b606060015f8373ffffffffffffffffffffffffffffffffffffffff1673ffffffffffffffffffffffffffffffffffffffff1681526020019081526020015f2080548060200260200160405190810160405280929190818152602001828054801561046357602002820191905f5260205f20905b81548152602001906001019080831161044f575b50505050509050919050565b60035f9054906101000a900473ffffffffffffffffffffffffffffffffffffffff1673ffffffffffffffffffffffffffffffffffffffff163373ffffffffffffffffffffffffffffffffffffffff16146104fe576040517f08c379a00000000000000000000000000000000000000000000000000000000081526004016104f5906117f0565b60405180910390fd5b5f60035f9054906101000a900473ffffffffffffffffffffffffffffffffffffffff1673ffffffffffffffffffffffffffffffffffffffff16666a94d74f43000060405161054b9061183b565b5f6040518083038185875af1925050503d805f8114610585576040519150601f19603f3d011682016040523d82523d5f602084013e61058a565b606091505b50509050806105ce576040517f08c379a00000000000000000000000000000000000000000000000000000000081526004016105c590611899565b60405180910390fd5b50565b603c81565b601e81565b5f66038d7ea4c68000341015610626576040517f08c379a000000000000000000000000000000000000000000000000000000000815260040161061d90611901565b60405180910390fd5b600160025f828254610638919061194c565b925050819055505f60405180610100016040528060025481526020013373ffffffffffffffffffffffffffffffffffffffff1681526020015f600381111561068357610682611572565b5b8152602001428152602001428152602001606481526020016001151581526020015f15158152509050805f5f60025481526020019081526020015f205f820151815f01556020820151816001015f6101000a81548173ffffffffffffffffffffffffffffffffffffffff021916908373ffffffffffffffffffffffffffffffffffffffff16021790555060408201518160010160146101000a81548160ff0219169083600381111561073857610737611572565b5b0217905550606082015181600201556080820151816003015560a0820151816004015560c0820151816005015f6101000a81548160ff02191690831515021790555060e08201518160050160016101000a81548160ff021916908315150217905550905050805f0151816020015173ffffffffffffffffffffffffffffffffffffffff167f4f5b22082ac57121703b0b6c1203ef527cfbfa5069616fee6deb979d124adbf060405160405180910390a360025491505090565b5f5f5f5f8481526020019081526020015f209050600115158160050160019054906101000a900460ff161515148061083c57505f1515816005015f9054906101000a900460ff161515145b1561084a575f9150506108ab565b5f81600301544261085b919061197f565b90505f601e8261086b919061197f565b90505f601e8261087b91906119b2565b905083600401548110610894575f9450505050506108ab565b8084600401546108a4919061197f565b9450505050505b919050565b6001602052815f5260405f2081815481106108c9575f80fd5b905f5260205f20015f91509150505481565b60035f9054906101000a900473ffffffffffffffffffffffffffffffffffffffff1681565b5f602052805f5260405f205f91509050805f015490806001015f9054906101000a900473ffffffffffffffffffffffffffffffffffffffff16908060010160149054906101000a900460ff1690806002015490806003015490806004015490806005015f9054906101000a900460ff16908060050160019054906101000a900460ff16905088565b5f5f5f8381526020019081526020015f20604051806101000160405290815f8201548152602001600182015f9054906101000a900473ffffffffffffffffffffffffffffffffffffffff1673ffffffffffffffffffffffffffffffffffffffff1673ffffffffffffffffffffffffffffffffffffffff1681526020016001820160149054906101000a900460ff166003811115610a2857610a27611572565b5b6003811115610a3a57610a39611572565b5b8152602001600282015481526020016003820154815260200160048201548152602001600582015f9054906101000a900460ff161515151581526020016005820160019054906101000a900460ff16151515158152505090505f15158160c00151151514610add576040517f08c379a0000000000000000000000000000000000000000000000000000000008152600401610ad490611a3d565b60405180910390fd5b600115158160e00151151514610b28576040517f08c379a0000000000000000000000000000000000000000000000000000000008152600401610b1f90611aa5565b60405180910390fd5b60648160a001818152505042816080018181525050817ffa682feb3090180eda377672ba020dae237bd124aee1085e233d47762b7e4e818260a00151604051610b71919061149e565b60405180910390a2610b8282610b9c565b5050565b60025481565b600281565b66038d7ea4c6800081565b5f5f5f8381526020019081526020015f20604051806101000160405290815f8201548152602001600182015f9054906101000a900473ffffffffffffffffffffffffffffffffffffffff1673ffffffffffffffffffffffffffffffffffffffff1673ffffffffffffffffffffffffffffffffffffffff1681526020016001820160149054906101000a900460ff166003811115610c3c57610c3b611572565b5b6003811115610c4e57610c4d611572565b5b8152602001600282015481526020016003820154815260200160048201548152602001600582015f9054906101000a900460ff161515151581526020016005820160019054906101000a900460ff16151515158152505090505f15158160c00151151514610cf1576040517f08c379a0000000000000000000000000000000000000000000000000000000008152600401610ce890611a3d565b60405180910390fd5b610cfa8261123d565b600115158160e00151151503610d105750610e52565b5f816040015190505f8190505f428460600151610d2d919061197f565b90505f8110158015610d405750603c8111155b15610d4d575f9150610db5565b603d8110158015610d5f575060788111155b15610d6d5760019150610db4565b60798110158015610d7f575060a08111155b15610d8d5760029150610db3565b60a18110158015610d9f575060d28111155b15610dad5760039150610db2565b600391505b5b5b5b816003811115610dc857610dc7611572565b5b836003811115610ddb57610dda611572565b5b14610e4d578184604001906003811115610df857610df7611572565b5b90816003811115610e0c57610e0b611572565b5b81525050847f338b8976706f9da67298dddfa1ea4ff7d99cce68b9ca39c4f348994f8e2124a88560400151604051610e449190611ac3565b60405180910390a25b505050505b50565b5f5f5f8381526020019081526020015f20604051806101000160405290815f8201548152602001600182015f9054906101000a900473ffffffffffffffffffffffffffffffffffffffff1673ffffffffffffffffffffffffffffffffffffffff1673ffffffffffffffffffffffffffffffffffffffff1681526020016001820160149054906101000a900460ff166003811115610ef557610ef4611572565b5b6003811115610f0757610f06611572565b5b8152602001600282015481526020016003820154815260200160048201548152602001600582015f9054906101000a900460ff161515151581526020016005820160019054906101000a900460ff16151515158152505090505f15158160c00151151514610faa576040517f08c379a0000000000000000000000000000000000000000000000000000000008152600401610fa190611a3d565b60405180910390fd5b60035f9054906101000a900473ffffffffffffffffffffffffffffffffffffffff1673ffffffffffffffffffffffffffffffffffffffff16816020015173ffffffffffffffffffffffffffffffffffffffff160361103d576040517f08c379a000000000000000000000000000000000000000000000000000000000815260040161103490611b26565b60405180910390fd5b600115158160e00151151514611088576040517f08c379a000000000000000000000000000000000000000000000000000000000815260040161107f90611b8e565b60405180910390fd5b61109182610b9c565b6003808111156110a4576110a3611572565b5b816040015160038111156110bb576110ba611572565b5b036110fb576040517f08c379a00000000000000000000000000000000000000000000000000000000081526004016110f290611bf6565b60405180910390fd5b5f8160c00190151590811515815250505050565b6111176112bd565b5f5f5f8481526020019081526020015f20604051806101000160405290815f8201548152602001600182015f9054906101000a900473ffffffffffffffffffffffffffffffffffffffff1673ffffffffffffffffffffffffffffffffffffffff1673ffffffffffffffffffffffffffffffffffffffff1681526020016001820160149054906101000a900460ff1660038111156111b7576111b6611572565b5b60038111156111c9576111c8611572565b5b8152602001600282015481526020016003820154815260200160048201548152602001600582015f9054906101000a900460ff161515151581526020016005820160019054906101000a900460ff161515151581525050905061122b836107f1565b8160a001818152505080915050919050565b5f5f5f8381526020019081526020015f2090505f61125a836107f1565b90508082600401819055504282600301819055505f826004015414801561129557505f15158260050160019054906101000a900460ff161515145b156112b85760018260050160016101000a81548160ff0219169083151502179055505b505050565b6040518061010001604052805f81526020015f73ffffffffffffffffffffffffffffffffffffffff1681526020015f60038111156112fe576112fd611572565b5b81526020015f81526020015f81526020015f81526020015f151581526020015f151581525090565b5f5ffd5b5f73ffffffffffffffffffffffffffffffffffffffff82169050919050565b5f6113538261132a565b9050919050565b61136381611349565b811461136d575f5ffd5b50565b5f8135905061137e8161135a565b92915050565b5f6020828403121561139957611398611326565b5b5f6113a684828501611370565b91505092915050565b5f81519050919050565b5f82825260208201905092915050565b5f819050602082019050919050565b5f819050919050565b6113ea816113d8565b82525050565b5f6113fb83836113e1565b60208301905092915050565b5f602082019050919050565b5f61141d826113af565b61142781856113b9565b9350611432836113c9565b805f5b8381101561146257815161144988826113f0565b975061145483611407565b925050600181019050611435565b5085935050505092915050565b5f6020820190508181035f8301526114878184611413565b905092915050565b611498816113d8565b82525050565b5f6020820190506114b15f83018461148f565b92915050565b6114c0816113d8565b81146114ca575f5ffd5b50565b5f813590506114db816114b7565b92915050565b5f602082840312156114f6576114f5611326565b5b5f611503848285016114cd565b91505092915050565b5f5f6040838503121561152257611521611326565b5b5f61152f85828601611370565b9250506020611540858286016114cd565b9150509250929050565b61155381611349565b82525050565b5f60208201905061156c5f83018461154a565b92915050565b7f4e487b71000000000000000000000000000000000000000000000000000000005f52602160045260245ffd5b600481106115b0576115af611572565b5b50565b5f8190506115c08261159f565b919050565b5f6115cf826115b3565b9050919050565b6115df816115c5565b82525050565b5f8115159050919050565b6115f9816115e5565b82525050565b5f610100820190506116135f83018b61148f565b611620602083018a61154a565b61162d60408301896115d6565b61163a606083018861148f565b611647608083018761148f565b61165460a083018661148f565b61166160c08301856115f0565b61166e60e08301846115f0565b9998505050505050505050565b5f60ff82169050919050565b6116908161167b565b82525050565b5f6020820190506116a95f830184611687565b92915050565b6116b881611349565b82525050565b6116c7816115c5565b82525050565b6116d6816115e5565b82525050565b61010082015f8201516116f15f8501826113e1565b50602082015161170460208501826116af565b50604082015161171760408501826116be565b50606082015161172a60608501826113e1565b50608082015161173d60808501826113e1565b5060a082015161175060a08501826113e1565b5060c082015161176360c08501826116cd565b5060e082015161177660e08501826116cd565b50505050565b5f610100820190506117905f8301846116dc565b92915050565b5f82825260208201905092915050565b7f42756b616e206f776e65720000000000000000000000000000000000000000005f82015250565b5f6117da600b83611796565b91506117e5826117a6565b602082019050919050565b5f6020820190508181035f830152611807816117ce565b9050919050565b5f81905092915050565b50565b5f6118265f8361180e565b915061183182611818565b5f82019050919050565b5f6118458261181b565b9150819050919050565b7f5472616e7366657220676167616c0000000000000000000000000000000000005f82015250565b5f611883600e83611796565b915061188e8261184f565b602082019050919050565b5f6020820190508181035f8301526118b081611877565b9050919050565b7f4d696e69756d20302e30303120657468657200000000000000000000000000005f82015250565b5f6118eb601283611796565b91506118f6826118b7565b602082019050919050565b5f6020820190508181035f830152611918816118df565b9050919050565b7f4e487b71000000000000000000000000000000000000000000000000000000005f52601160045260245ffd5b5f611956826113d8565b9150611961836113d8565b92508282019050808211156119795761197861191f565b5b92915050565b5f611989826113d8565b9150611994836113d8565b92508282039050818111156119ac576119ab61191f565b5b92915050565b5f6119bc826113d8565b91506119c7836113d8565b92508282026119d5816113d8565b915082820484148315176119ec576119eb61191f565b5b5092915050565b7f74616e616d616e20746964616b20646974656d756b616e0000000000000000005f82015250565b5f611a27601783611796565b9150611a32826119f3565b602082019050919050565b5f6020820190508181035f830152611a5481611a1b565b9050919050565b7f54616e616d616e207375646168206d61746900000000000000000000000000005f82015250565b5f611a8f601283611796565b9150611a9a82611a5b565b602082019050919050565b5f6020820190508181035f830152611abc81611a83565b9050919050565b5f602082019050611ad65f8301846115d6565b92915050565b7f74616e616d616e20696e692062756b616e206d696c696b206b616d75000000005f82015250565b5f611b10601c83611796565b9150611b1b82611adc565b602082019050919050565b5f6020820190508181035f830152611b3d81611b04565b9050919050565b7f74616e616d616e207375646168206d61746900000000000000000000000000005f82015250565b5f611b78601283611796565b9150611b8382611b44565b602082019050919050565b5f6020820190508181035f830152611ba581611b6c565b9050919050565b7f54616e616d616e2062656c756d206d656b6172000000000000000000000000005f82015250565b5f611be0601383611796565b9150611beb82611bac565b602082019050919050565b5f6020820190508181035f830152611c0d81611bd4565b905091905056fea2646970667358221220aa1ac653266ce09ce910105851b83ea2b88d5d975a712c4b30bd5fa4919789a364736f6c634300081e0033",
					"opcodes": "PUSH1 0x80 PUSH1 0x40 MSTORE CALLVALUE DUP1 ISZERO PUSH1 0xE JUMPI PUSH0 PUSH0 REVERT JUMPDEST POP CALLER PUSH1 0x3 PUSH0 PUSH2 0x100 EXP DUP2 SLOAD DUP2 PUSH20 0xFFFFFFFFFFFFFFFFFFFFFFFFFFFFFFFFFFFFFFFF MUL NOT AND SWAP1 DUP4 PUSH20 0xFFFFFFFFFFFFFFFFFFFFFFFFFFFFFFFFFFFFFFFF AND MUL OR SWAP1 SSTORE POP PUSH2 0x1C4A DUP1 PUSH2 0x5C PUSH0 CODECOPY PUSH0 RETURN INVALID PUSH1 0x80 PUSH1 0x40 MSTORE PUSH1 0x4 CALLDATASIZE LT PUSH2 0xF6 JUMPI PUSH0 CALLDATALOAD PUSH1 0xE0 SHR DUP1 PUSH4 0x8DD2361C GT PUSH2 0x89 JUMPI DUP1 PUSH4 0xCFC9A5F8 GT PUSH2 0x58 JUMPI DUP1 PUSH4 0xCFC9A5F8 EQ PUSH2 0x326 JUMPI DUP1 PUSH4 0xDDD42596 EQ PUSH2 0x350 JUMPI DUP1 PUSH4 0xE38F8448 EQ PUSH2 0x378 JUMPI DUP1 PUSH4 0xED0B1F5F EQ PUSH2 0x3A0 JUMPI PUSH2 0xFD JUMP JUMPDEST DUP1 PUSH4 0x8DD2361C EQ PUSH2 0x267 JUMPI DUP1 PUSH4 0x9886BCFA EQ PUSH2 0x2AA JUMPI DUP1 PUSH4 0x9C471749 EQ PUSH2 0x2D2 JUMPI DUP1 PUSH4 0xBACB5EBD EQ PUSH2 0x2FC JUMPI PUSH2 0xFD JUMP JUMPDEST DUP1 PUSH4 0x74119A38 GT PUSH2 0xC5 JUMPI DUP1 PUSH4 0x74119A38 EQ PUSH2 0x1A7 JUMPI DUP1 PUSH4 0x754E150D EQ PUSH2 0x1C5 JUMPI DUP1 PUSH4 0x8AEE578B EQ PUSH2 0x201 JUMPI DUP1 PUSH4 0x8DA5CB5B EQ PUSH2 0x23D JUMPI PUSH2 0xFD JUMP JUMPDEST DUP1 PUSH4 0x30CEC0EB EQ PUSH2 0x101 JUMPI DUP1 PUSH4 0x3CCFD60B EQ PUSH2 0x13D JUMPI DUP1 PUSH4 0x51F9EFDE EQ PUSH2 0x153 JUMPI DUP1 PUSH4 0x5DBA09BD EQ PUSH2 0x17D JUMPI PUSH2 0xFD JUMP JUMPDEST CALLDATASIZE PUSH2 0xFD JUMPI STOP JUMPDEST PUSH0 PUSH0 REVERT JUMPDEST CALLVALUE DUP1 ISZERO PUSH2 0x10C JUMPI PUSH0 PUSH0 REVERT JUMPDEST POP PUSH2 0x127 PUSH1 0x4 DUP1 CALLDATASIZE SUB DUP2 ADD SWAP1 PUSH2 0x122 SWAP2 SWAP1 PUSH2 0x1384 JUMP JUMPDEST PUSH2 0x3DC JUMP JUMPDEST PUSH1 0x40 MLOAD PUSH2 0x134 SWAP2 SWAP1 PUSH2 0x146F JUMP JUMPDEST PUSH1 0x40 MLOAD DUP1 SWAP2 SUB SWAP1 RETURN JUMPDEST CALLVALUE DUP1 ISZERO PUSH2 0x148 JUMPI PUSH0 PUSH0 REVERT JUMPDEST POP PUSH2 0x151 PUSH2 0x46F JUMP JUMPDEST STOP JUMPDEST CALLVALUE DUP1 ISZERO PUSH2 0x15E JUMPI PUSH0 PUSH0 REVERT JUMPDEST POP PUSH2 0x167 PUSH2 0x5D1 JUMP JUMPDEST PUSH1 0x40 MLOAD PUSH2 0x174 SWAP2 SWAP1 PUSH2 0x149E JUMP JUMPDEST PUSH1 0x40 MLOAD DUP1 SWAP2 SUB SWAP1 RETURN JUMPDEST CALLVALUE DUP1 ISZERO PUSH2 0x188 JUMPI PUSH0 PUSH0 REVERT JUMPDEST POP PUSH2 0x191 PUSH2 0x5D6 JUMP JUMPDEST PUSH1 0x40 MLOAD PUSH2 0x19E SWAP2 SWAP1 PUSH2 0x149E JUMP JUMPDEST PUSH1 0x40 MLOAD DUP1 SWAP2 SUB SWAP1 RETURN JUMPDEST PUSH2 0x1AF PUSH2 0x5DB JUMP JUMPDEST PUSH1 0x40 MLOAD PUSH2 0x1BC SWAP2 SWAP1 PUSH2 0x149E JUMP JUMPDEST PUSH1 0x40 MLOAD DUP1 SWAP2 SUB SWAP1 RETURN JUMPDEST CALLVALUE DUP1 ISZERO PUSH2 0x1D0 JUMPI PUSH0 PUSH0 REVERT JUMPDEST POP PUSH2 0x1EB PUSH1 0x4 DUP1 CALLDATASIZE SUB DUP2 ADD SWAP1 PUSH2 0x1E6 SWAP2 SWAP1 PUSH2 0x14E1 JUMP JUMPDEST PUSH2 0x7F1 JUMP JUMPDEST PUSH1 0x40 MLOAD PUSH2 0x1F8 SWAP2 SWAP1 PUSH2 0x149E JUMP JUMPDEST PUSH1 0x40 MLOAD DUP1 SWAP2 SUB SWAP1 RETURN JUMPDEST CALLVALUE DUP1 ISZERO PUSH2 0x20C JUMPI PUSH0 PUSH0 REVERT JUMPDEST POP PUSH2 0x227 PUSH1 0x4 DUP1 CALLDATASIZE SUB DUP2 ADD SWAP1 PUSH2 0x222 SWAP2 SWAP1 PUSH2 0x150C JUMP JUMPDEST PUSH2 0x8B0 JUMP JUMPDEST PUSH1 0x40 MLOAD PUSH2 0x234 SWAP2 SWAP1 PUSH2 0x149E JUMP JUMPDEST PUSH1 0x40 MLOAD DUP1 SWAP2 SUB SWAP1 RETURN JUMPDEST CALLVALUE DUP1 ISZERO PUSH2 0x248 JUMPI PUSH0 PUSH0 REVERT JUMPDEST POP PUSH2 0x251 PUSH2 0x8DB JUMP JUMPDEST PUSH1 0x40 MLOAD PUSH2 0x25E SWAP2 SWAP1 PUSH2 0x1559 JUMP JUMPDEST PUSH1 0x40 MLOAD DUP1 SWAP2 SUB SWAP1 RETURN JUMPDEST CALLVALUE DUP1 ISZERO PUSH2 0x272 JUMPI PUSH0 PUSH0 REVERT JUMPDEST POP PUSH2 0x28D PUSH1 0x4 DUP1 CALLDATASIZE SUB DUP2 ADD SWAP1 PUSH2 0x288 SWAP2 SWAP1 PUSH2 0x14E1 JUMP JUMPDEST PUSH2 0x900 JUMP JUMPDEST PUSH1 0x40 MLOAD PUSH2 0x2A1 SWAP9 SWAP8 SWAP7 SWAP6 SWAP5 SWAP4 SWAP3 SWAP2 SWAP1 PUSH2 0x15FF JUMP JUMPDEST PUSH1 0x40 MLOAD DUP1 SWAP2 SUB SWAP1 RETURN JUMPDEST CALLVALUE DUP1 ISZERO PUSH2 0x2B5 JUMPI PUSH0 PUSH0 REVERT JUMPDEST POP PUSH2 0x2D0 PUSH1 0x4 DUP1 CALLDATASIZE SUB DUP2 ADD SWAP1 PUSH2 0x2CB SWAP2 SWAP1 PUSH2 0x14E1 JUMP JUMPDEST PUSH2 0x988 JUMP JUMPDEST STOP JUMPDEST CALLVALUE DUP1 ISZERO PUSH2 0x2DD JUMPI PUSH0 PUSH0 REVERT JUMPDEST POP PUSH2 0x2E6 PUSH2 0xB86 JUMP JUMPDEST PUSH1 0x40 MLOAD PUSH2 0x2F3 SWAP2 SWAP1 PUSH2 0x149E JUMP JUMPDEST PUSH1 0x40 MLOAD DUP1 SWAP2 SUB SWAP1 RETURN JUMPDEST CALLVALUE DUP1 ISZERO PUSH2 0x307 JUMPI PUSH0 PUSH0 REVERT JUMPDEST POP PUSH2 0x310 PUSH2 0xB8C JUMP JUMPDEST PUSH1 0x40 MLOAD PUSH2 0x31D SWAP2 SWAP1 PUSH2 0x1696 JUMP JUMPDEST PUSH1 0x40 MLOAD DUP1 SWAP2 SUB SWAP1 RETURN JUMPDEST CALLVALUE DUP1 ISZERO PUSH2 0x331 JUMPI PUSH0 PUSH0 REVERT JUMPDEST POP PUSH2 0x33A PUSH2 0xB91 JUMP JUMPDEST PUSH1 0x40 MLOAD PUSH2 0x347 SWAP2 SWAP1 PUSH2 0x149E JUMP JUMPDEST PUSH1 0x40 MLOAD DUP1 SWAP2 SUB SWAP1 RETURN JUMPDEST CALLVALUE DUP1 ISZERO PUSH2 0x35B JUMPI PUSH0 PUSH0 REVERT JUMPDEST POP PUSH2 0x376 PUSH1 0x4 DUP1 CALLDATASIZE SUB DUP2 ADD SWAP1 PUSH2 0x371 SWAP2 SWAP1 PUSH2 0x14E1 JUMP JUMPDEST PUSH2 0xB9C JUMP JUMPDEST STOP JUMPDEST CALLVALUE DUP1 ISZERO PUSH2 0x383 JUMPI PUSH0 PUSH0 REVERT JUMPDEST POP PUSH2 0x39E PUSH1 0x4 DUP1 CALLDATASIZE SUB DUP2 ADD SWAP1 PUSH2 0x399 SWAP2 SWAP1 PUSH2 0x14E1 JUMP JUMPDEST PUSH2 0xE55 JUMP JUMPDEST STOP JUMPDEST CALLVALUE DUP1 ISZERO PUSH2 0x3AB JUMPI PUSH0 PUSH0 REVERT JUMPDEST POP PUSH2 0x3C6 PUSH1 0x4 DUP1 CALLDATASIZE SUB DUP2 ADD SWAP1 PUSH2 0x3C1 SWAP2 SWAP1 PUSH2 0x14E1 JUMP JUMPDEST PUSH2 0x110F JUMP JUMPDEST PUSH1 0x40 MLOAD PUSH2 0x3D3 SWAP2 SWAP1 PUSH2 0x177C JUMP JUMPDEST PUSH1 0x40 MLOAD DUP1 SWAP2 SUB SWAP1 RETURN JUMPDEST PUSH1 0x60 PUSH1 0x1 PUSH0 DUP4 PUSH20 0xFFFFFFFFFFFFFFFFFFFFFFFFFFFFFFFFFFFFFFFF AND PUSH20 0xFFFFFFFFFFFFFFFFFFFFFFFFFFFFFFFFFFFFFFFF AND DUP2 MSTORE PUSH1 0x20 ADD SWAP1 DUP2 MSTORE PUSH1 0x20 ADD PUSH0 KECCAK256 DUP1 SLOAD DUP1 PUSH1 0x20 MUL PUSH1 0x20 ADD PUSH1 0x40 MLOAD SWAP1 DUP2 ADD PUSH1 0x40 MSTORE DUP1 SWAP3 SWAP2 SWAP1 DUP2 DUP2 MSTORE PUSH1 0x20 ADD DUP3 DUP1 SLOAD DUP1 ISZERO PUSH2 0x463 JUMPI PUSH1 0x20 MUL DUP3 ADD SWAP2 SWAP1 PUSH0 MSTORE PUSH1 0x20 PUSH0 KECCAK256 SWAP1 JUMPDEST DUP2 SLOAD DUP2 MSTORE PUSH1 0x20 ADD SWAP1 PUSH1 0x1 ADD SWAP1 DUP1 DUP4 GT PUSH2 0x44F JUMPI JUMPDEST POP POP POP POP POP SWAP1 POP SWAP2 SWAP1 POP JUMP JUMPDEST PUSH1 0x3 PUSH0 SWAP1 SLOAD SWAP1 PUSH2 0x100 EXP SWAP1 DIV PUSH20 0xFFFFFFFFFFFFFFFFFFFFFFFFFFFFFFFFFFFFFFFF AND PUSH20 0xFFFFFFFFFFFFFFFFFFFFFFFFFFFFFFFFFFFFFFFF AND CALLER PUSH20 0xFFFFFFFFFFFFFFFFFFFFFFFFFFFFFFFFFFFFFFFF AND EQ PUSH2 0x4FE JUMPI PUSH1 0x40 MLOAD PUSH32 0x8C379A000000000000000000000000000000000000000000000000000000000 DUP2 MSTORE PUSH1 0x4 ADD PUSH2 0x4F5 SWAP1 PUSH2 0x17F0 JUMP JUMPDEST PUSH1 0x40 MLOAD DUP1 SWAP2 SUB SWAP1 REVERT JUMPDEST PUSH0 PUSH1 0x3 PUSH0 SWAP1 SLOAD SWAP1 PUSH2 0x100 EXP SWAP1 DIV PUSH20 0xFFFFFFFFFFFFFFFFFFFFFFFFFFFFFFFFFFFFFFFF AND PUSH20 0xFFFFFFFFFFFFFFFFFFFFFFFFFFFFFFFFFFFFFFFF AND PUSH7 0x6A94D74F430000 PUSH1 0x40 MLOAD PUSH2 0x54B SWAP1 PUSH2 0x183B JUMP JUMPDEST PUSH0 PUSH1 0x40 MLOAD DUP1 DUP4 SUB DUP2 DUP6 DUP8 GAS CALL SWAP3 POP POP POP RETURNDATASIZE DUP1 PUSH0 DUP2 EQ PUSH2 0x585 JUMPI PUSH1 0x40 MLOAD SWAP2 POP PUSH1 0x1F NOT PUSH1 0x3F RETURNDATASIZE ADD AND DUP3 ADD PUSH1 0x40 MSTORE RETURNDATASIZE DUP3 MSTORE RETURNDATASIZE PUSH0 PUSH1 0x20 DUP5 ADD RETURNDATACOPY PUSH2 0x58A JUMP JUMPDEST PUSH1 0x60 SWAP2 POP JUMPDEST POP POP SWAP1 POP DUP1 PUSH2 0x5CE JUMPI PUSH1 0x40 MLOAD PUSH32 0x8C379A000000000000000000000000000000000000000000000000000000000 DUP2 MSTORE PUSH1 0x4 ADD PUSH2 0x5C5 SWAP1 PUSH2 0x1899 JUMP JUMPDEST PUSH1 0x40 MLOAD DUP1 SWAP2 SUB SWAP1 REVERT JUMPDEST POP JUMP JUMPDEST PUSH1 0x3C DUP2 JUMP JUMPDEST PUSH1 0x1E DUP2 JUMP JUMPDEST PUSH0 PUSH7 0x38D7EA4C68000 CALLVALUE LT ISZERO PUSH2 0x626 JUMPI PUSH1 0x40 MLOAD PUSH32 0x8C379A000000000000000000000000000000000000000000000000000000000 DUP2 MSTORE PUSH1 0x4 ADD PUSH2 0x61D SWAP1 PUSH2 0x1901 JUMP JUMPDEST PUSH1 0x40 MLOAD DUP1 SWAP2 SUB SWAP1 REVERT JUMPDEST PUSH1 0x1 PUSH1 0x2 PUSH0 DUP3 DUP3 SLOAD PUSH2 0x638 SWAP2 SWAP1 PUSH2 0x194C JUMP JUMPDEST SWAP3 POP POP DUP2 SWAP1 SSTORE POP PUSH0 PUSH1 0x40 MLOAD DUP1 PUSH2 0x100 ADD PUSH1 0x40 MSTORE DUP1 PUSH1 0x2 SLOAD DUP2 MSTORE PUSH1 0x20 ADD CALLER PUSH20 0xFFFFFFFFFFFFFFFFFFFFFFFFFFFFFFFFFFFFFFFF AND DUP2 MSTORE PUSH1 0x20 ADD PUSH0 PUSH1 0x3 DUP2 GT ISZERO PUSH2 0x683 JUMPI PUSH2 0x682 PUSH2 0x1572 JUMP JUMPDEST JUMPDEST DUP2 MSTORE PUSH1 0x20 ADD TIMESTAMP DUP2 MSTORE PUSH1 0x20 ADD TIMESTAMP DUP2 MSTORE PUSH1 0x20 ADD PUSH1 0x64 DUP2 MSTORE PUSH1 0x20 ADD PUSH1 0x1 ISZERO ISZERO DUP2 MSTORE PUSH1 0x20 ADD PUSH0 ISZERO ISZERO DUP2 MSTORE POP SWAP1 POP DUP1 PUSH0 PUSH0 PUSH1 0x2 SLOAD DUP2 MSTORE PUSH1 0x20 ADD SWAP1 DUP2 MSTORE PUSH1 0x20 ADD PUSH0 KECCAK256 PUSH0 DUP3 ADD MLOAD DUP2 PUSH0 ADD SSTORE PUSH1 0x20 DUP3 ADD MLOAD DUP2 PUSH1 0x1 ADD PUSH0 PUSH2 0x100 EXP DUP2 SLOAD DUP2 PUSH20 0xFFFFFFFFFFFFFFFFFFFFFFFFFFFFFFFFFFFFFFFF MUL NOT AND SWAP1 DUP4 PUSH20 0xFFFFFFFFFFFFFFFFFFFFFFFFFFFFFFFFFFFFFFFF AND MUL OR SWAP1 SSTORE POP PUSH1 0x40 DUP3 ADD MLOAD DUP2 PUSH1 0x1 ADD PUSH1 0x14 PUSH2 0x100 EXP DUP2 SLOAD DUP2 PUSH1 0xFF MUL NOT AND SWAP1 DUP4 PUSH1 0x3 DUP2 GT ISZERO PUSH2 0x738 JUMPI PUSH2 0x737 PUSH2 0x1572 JUMP JUMPDEST JUMPDEST MUL OR SWAP1 SSTORE POP PUSH1 0x60 DUP3 ADD MLOAD DUP2 PUSH1 0x2 ADD SSTORE PUSH1 0x80 DUP3 ADD MLOAD DUP2 PUSH1 0x3 ADD SSTORE PUSH1 0xA0 DUP3 ADD MLOAD DUP2 PUSH1 0x4 ADD SSTORE PUSH1 0xC0 DUP3 ADD MLOAD DUP2 PUSH1 0x5 ADD PUSH0 PUSH2 0x100 EXP DUP2 SLOAD DUP2 PUSH1 0xFF MUL NOT AND SWAP1 DUP4 ISZERO ISZERO MUL OR SWAP1 SSTORE POP PUSH1 0xE0 DUP3 ADD MLOAD DUP2 PUSH1 0x5 ADD PUSH1 0x1 PUSH2 0x100 EXP DUP2 SLOAD DUP2 PUSH1 0xFF MUL NOT AND SWAP1 DUP4 ISZERO ISZERO MUL OR SWAP1 SSTORE POP SWAP1 POP POP DUP1 PUSH0 ADD MLOAD DUP2 PUSH1 0x20 ADD MLOAD PUSH20 0xFFFFFFFFFFFFFFFFFFFFFFFFFFFFFFFFFFFFFFFF AND PUSH32 0x4F5B22082AC57121703B0B6C1203EF527CFBFA5069616FEE6DEB979D124ADBF0 PUSH1 0x40 MLOAD PUSH1 0x40 MLOAD DUP1 SWAP2 SUB SWAP1 LOG3 PUSH1 0x2 SLOAD SWAP2 POP POP SWAP1 JUMP JUMPDEST PUSH0 PUSH0 PUSH0 PUSH0 DUP5 DUP2 MSTORE PUSH1 0x20 ADD SWAP1 DUP2 MSTORE PUSH1 0x20 ADD PUSH0 KECCAK256 SWAP1 POP PUSH1 0x1 ISZERO ISZERO DUP2 PUSH1 0x5 ADD PUSH1 0x1 SWAP1 SLOAD SWAP1 PUSH2 0x100 EXP SWAP1 DIV PUSH1 0xFF AND ISZERO ISZERO EQ DUP1 PUSH2 0x83C JUMPI POP PUSH0 ISZERO ISZERO DUP2 PUSH1 0x5 ADD PUSH0 SWAP1 SLOAD SWAP1 PUSH2 0x100 EXP SWAP1 DIV PUSH1 0xFF AND ISZERO ISZERO EQ JUMPDEST ISZERO PUSH2 0x84A JUMPI PUSH0 SWAP2 POP POP PUSH2 0x8AB JUMP JUMPDEST PUSH0 DUP2 PUSH1 0x3 ADD SLOAD TIMESTAMP PUSH2 0x85B SWAP2 SWAP1 PUSH2 0x197F JUMP JUMPDEST SWAP1 POP PUSH0 PUSH1 0x1E DUP3 PUSH2 0x86B SWAP2 SWAP1 PUSH2 0x197F JUMP JUMPDEST SWAP1 POP PUSH0 PUSH1 0x1E DUP3 PUSH2 0x87B SWAP2 SWAP1 PUSH2 0x19B2 JUMP JUMPDEST SWAP1 POP DUP4 PUSH1 0x4 ADD SLOAD DUP2 LT PUSH2 0x894 JUMPI PUSH0 SWAP5 POP POP POP POP POP PUSH2 0x8AB JUMP JUMPDEST DUP1 DUP5 PUSH1 0x4 ADD SLOAD PUSH2 0x8A4 SWAP2 SWAP1 PUSH2 0x197F JUMP JUMPDEST SWAP5 POP POP POP POP POP JUMPDEST SWAP2 SWAP1 POP JUMP JUMPDEST PUSH1 0x1 PUSH1 0x20 MSTORE DUP2 PUSH0 MSTORE PUSH1 0x40 PUSH0 KECCAK256 DUP2 DUP2 SLOAD DUP2 LT PUSH2 0x8C9 JUMPI PUSH0 DUP1 REVERT JUMPDEST SWAP1 PUSH0 MSTORE PUSH1 0x20 PUSH0 KECCAK256 ADD PUSH0 SWAP2 POP SWAP2 POP POP SLOAD DUP2 JUMP JUMPDEST PUSH1 0x3 PUSH0 SWAP1 SLOAD SWAP1 PUSH2 0x100 EXP SWAP1 DIV PUSH20 0xFFFFFFFFFFFFFFFFFFFFFFFFFFFFFFFFFFFFFFFF AND DUP2 JUMP JUMPDEST PUSH0 PUSH1 0x20 MSTORE DUP1 PUSH0 MSTORE PUSH1 0x40 PUSH0 KECCAK256 PUSH0 SWAP2 POP SWAP1 POP DUP1 PUSH0 ADD SLOAD SWAP1 DUP1 PUSH1 0x1 ADD PUSH0 SWAP1 SLOAD SWAP1 PUSH2 0x100 EXP SWAP1 DIV PUSH20 0xFFFFFFFFFFFFFFFFFFFFFFFFFFFFFFFFFFFFFFFF AND SWAP1 DUP1 PUSH1 0x1 ADD PUSH1 0x14 SWAP1 SLOAD SWAP1 PUSH2 0x100 EXP SWAP1 DIV PUSH1 0xFF AND SWAP1 DUP1 PUSH1 0x2 ADD SLOAD SWAP1 DUP1 PUSH1 0x3 ADD SLOAD SWAP1 DUP1 PUSH1 0x4 ADD SLOAD SWAP1 DUP1 PUSH1 0x5 ADD PUSH0 SWAP1 SLOAD SWAP1 PUSH2 0x100 EXP SWAP1 DIV PUSH1 0xFF AND SWAP1 DUP1 PUSH1 0x5 ADD PUSH1 0x1 SWAP1 SLOAD SWAP1 PUSH2 0x100 EXP SWAP1 DIV PUSH1 0xFF AND SWAP1 POP DUP9 JUMP JUMPDEST PUSH0 PUSH0 PUSH0 DUP4 DUP2 MSTORE PUSH1 0x20 ADD SWAP1 DUP2 MSTORE PUSH1 0x20 ADD PUSH0 KECCAK256 PUSH1 0x40 MLOAD DUP1 PUSH2 0x100 ADD PUSH1 0x40 MSTORE SWAP1 DUP2 PUSH0 DUP3 ADD SLOAD DUP2 MSTORE PUSH1 0x20 ADD PUSH1 0x1 DUP3 ADD PUSH0 SWAP1 SLOAD SWAP1 PUSH2 0x100 EXP SWAP1 DIV PUSH20 0xFFFFFFFFFFFFFFFFFFFFFFFFFFFFFFFFFFFFFFFF AND PUSH20 0xFFFFFFFFFFFFFFFFFFFFFFFFFFFFFFFFFFFFFFFF AND PUSH20 0xFFFFFFFFFFFFFFFFFFFFFFFFFFFFFFFFFFFFFFFF AND DUP2 MSTORE PUSH1 0x20 ADD PUSH1 0x1 DUP3 ADD PUSH1 0x14 SWAP1 SLOAD SWAP1 PUSH2 0x100 EXP SWAP1 DIV PUSH1 0xFF AND PUSH1 0x3 DUP2 GT ISZERO PUSH2 0xA28 JUMPI PUSH2 0xA27 PUSH2 0x1572 JUMP JUMPDEST JUMPDEST PUSH1 0x3 DUP2 GT ISZERO PUSH2 0xA3A JUMPI PUSH2 0xA39 PUSH2 0x1572 JUMP JUMPDEST JUMPDEST DUP2 MSTORE PUSH1 0x20 ADD PUSH1 0x2 DUP3 ADD SLOAD DUP2 MSTORE PUSH1 0x20 ADD PUSH1 0x3 DUP3 ADD SLOAD DUP2 MSTORE PUSH1 0x20 ADD PUSH1 0x4 DUP3 ADD SLOAD DUP2 MSTORE PUSH1 0x20 ADD PUSH1 0x5 DUP3 ADD PUSH0 SWAP1 SLOAD SWAP1 PUSH2 0x100 EXP SWAP1 DIV PUSH1 0xFF AND ISZERO ISZERO ISZERO ISZERO DUP2 MSTORE PUSH1 0x20 ADD PUSH1 0x5 DUP3 ADD PUSH1 0x1 SWAP1 SLOAD SWAP1 PUSH2 0x100 EXP SWAP1 DIV PUSH1 0xFF AND ISZERO ISZERO ISZERO ISZERO DUP2 MSTORE POP POP SWAP1 POP PUSH0 ISZERO ISZERO DUP2 PUSH1 0xC0 ADD MLOAD ISZERO ISZERO EQ PUSH2 0xADD JUMPI PUSH1 0x40 MLOAD PUSH32 0x8C379A000000000000000000000000000000000000000000000000000000000 DUP2 MSTORE PUSH1 0x4 ADD PUSH2 0xAD4 SWAP1 PUSH2 0x1A3D JUMP JUMPDEST PUSH1 0x40 MLOAD DUP1 SWAP2 SUB SWAP1 REVERT JUMPDEST PUSH1 0x1 ISZERO ISZERO DUP2 PUSH1 0xE0 ADD MLOAD ISZERO ISZERO EQ PUSH2 0xB28 JUMPI PUSH1 0x40 MLOAD PUSH32 0x8C379A000000000000000000000000000000000000000000000000000000000 DUP2 MSTORE PUSH1 0x4 ADD PUSH2 0xB1F SWAP1 PUSH2 0x1AA5 JUMP JUMPDEST PUSH1 0x40 MLOAD DUP1 SWAP2 SUB SWAP1 REVERT JUMPDEST PUSH1 0x64 DUP2 PUSH1 0xA0 ADD DUP2 DUP2 MSTORE POP POP TIMESTAMP DUP2 PUSH1 0x80 ADD DUP2 DUP2 MSTORE POP POP DUP2 PUSH32 0xFA682FEB3090180EDA377672BA020DAE237BD124AEE1085E233D47762B7E4E81 DUP3 PUSH1 0xA0 ADD MLOAD PUSH1 0x40 MLOAD PUSH2 0xB71 SWAP2 SWAP1 PUSH2 0x149E JUMP JUMPDEST PUSH1 0x40 MLOAD DUP1 SWAP2 SUB SWAP1 LOG2 PUSH2 0xB82 DUP3 PUSH2 0xB9C JUMP JUMPDEST POP POP JUMP JUMPDEST PUSH1 0x2 SLOAD DUP2 JUMP JUMPDEST PUSH1 0x2 DUP2 JUMP JUMPDEST PUSH7 0x38D7EA4C68000 DUP2 JUMP JUMPDEST PUSH0 PUSH0 PUSH0 DUP4 DUP2 MSTORE PUSH1 0x20 ADD SWAP1 DUP2 MSTORE PUSH1 0x20 ADD PUSH0 KECCAK256 PUSH1 0x40 MLOAD DUP1 PUSH2 0x100 ADD PUSH1 0x40 MSTORE SWAP1 DUP2 PUSH0 DUP3 ADD SLOAD DUP2 MSTORE PUSH1 0x20 ADD PUSH1 0x1 DUP3 ADD PUSH0 SWAP1 SLOAD SWAP1 PUSH2 0x100 EXP SWAP1 DIV PUSH20 0xFFFFFFFFFFFFFFFFFFFFFFFFFFFFFFFFFFFFFFFF AND PUSH20 0xFFFFFFFFFFFFFFFFFFFFFFFFFFFFFFFFFFFFFFFF AND PUSH20 0xFFFFFFFFFFFFFFFFFFFFFFFFFFFFFFFFFFFFFFFF AND DUP2 MSTORE PUSH1 0x20 ADD PUSH1 0x1 DUP3 ADD PUSH1 0x14 SWAP1 SLOAD SWAP1 PUSH2 0x100 EXP SWAP1 DIV PUSH1 0xFF AND PUSH1 0x3 DUP2 GT ISZERO PUSH2 0xC3C JUMPI PUSH2 0xC3B PUSH2 0x1572 JUMP JUMPDEST JUMPDEST PUSH1 0x3 DUP2 GT ISZERO PUSH2 0xC4E JUMPI PUSH2 0xC4D PUSH2 0x1572 JUMP JUMPDEST JUMPDEST DUP2 MSTORE PUSH1 0x20 ADD PUSH1 0x2 DUP3 ADD SLOAD DUP2 MSTORE PUSH1 0x20 ADD PUSH1 0x3 DUP3 ADD SLOAD DUP2 MSTORE PUSH1 0x20 ADD PUSH1 0x4 DUP3 ADD SLOAD DUP2 MSTORE PUSH1 0x20 ADD PUSH1 0x5 DUP3 ADD PUSH0 SWAP1 SLOAD SWAP1 PUSH2 0x100 EXP SWAP1 DIV PUSH1 0xFF AND ISZERO ISZERO ISZERO ISZERO DUP2 MSTORE PUSH1 0x20 ADD PUSH1 0x5 DUP3 ADD PUSH1 0x1 SWAP1 SLOAD SWAP1 PUSH2 0x100 EXP SWAP1 DIV PUSH1 0xFF AND ISZERO ISZERO ISZERO ISZERO DUP2 MSTORE POP POP SWAP1 POP PUSH0 ISZERO ISZERO DUP2 PUSH1 0xC0 ADD MLOAD ISZERO ISZERO EQ PUSH2 0xCF1 JUMPI PUSH1 0x40 MLOAD PUSH32 0x8C379A000000000000000000000000000000000000000000000000000000000 DUP2 MSTORE PUSH1 0x4 ADD PUSH2 0xCE8 SWAP1 PUSH2 0x1A3D JUMP JUMPDEST PUSH1 0x40 MLOAD DUP1 SWAP2 SUB SWAP1 REVERT JUMPDEST PUSH2 0xCFA DUP3 PUSH2 0x123D JUMP JUMPDEST PUSH1 0x1 ISZERO ISZERO DUP2 PUSH1 0xE0 ADD MLOAD ISZERO ISZERO SUB PUSH2 0xD10 JUMPI POP PUSH2 0xE52 JUMP JUMPDEST PUSH0 DUP2 PUSH1 0x40 ADD MLOAD SWAP1 POP PUSH0 DUP2 SWAP1 POP PUSH0 TIMESTAMP DUP5 PUSH1 0x60 ADD MLOAD PUSH2 0xD2D SWAP2 SWAP1 PUSH2 0x197F JUMP JUMPDEST SWAP1 POP PUSH0 DUP2 LT ISZERO DUP1 ISZERO PUSH2 0xD40 JUMPI POP PUSH1 0x3C DUP2 GT ISZERO JUMPDEST ISZERO PUSH2 0xD4D JUMPI PUSH0 SWAP2 POP PUSH2 0xDB5 JUMP JUMPDEST PUSH1 0x3D DUP2 LT ISZERO DUP1 ISZERO PUSH2 0xD5F JUMPI POP PUSH1 0x78 DUP2 GT ISZERO JUMPDEST ISZERO PUSH2 0xD6D JUMPI PUSH1 0x1 SWAP2 POP PUSH2 0xDB4 JUMP JUMPDEST PUSH1 0x79 DUP2 LT ISZERO DUP1 ISZERO PUSH2 0xD7F JUMPI POP PUSH1 0xA0 DUP2 GT ISZERO JUMPDEST ISZERO PUSH2 0xD8D JUMPI PUSH1 0x2 SWAP2 POP PUSH2 0xDB3 JUMP JUMPDEST PUSH1 0xA1 DUP2 LT ISZERO DUP1 ISZERO PUSH2 0xD9F JUMPI POP PUSH1 0xD2 DUP2 GT ISZERO JUMPDEST ISZERO PUSH2 0xDAD JUMPI PUSH1 0x3 SWAP2 POP PUSH2 0xDB2 JUMP JUMPDEST PUSH1 0x3 SWAP2 POP JUMPDEST JUMPDEST JUMPDEST JUMPDEST DUP2 PUSH1 0x3 DUP2 GT ISZERO PUSH2 0xDC8 JUMPI PUSH2 0xDC7 PUSH2 0x1572 JUMP JUMPDEST JUMPDEST DUP4 PUSH1 0x3 DUP2 GT ISZERO PUSH2 0xDDB JUMPI PUSH2 0xDDA PUSH2 0x1572 JUMP JUMPDEST JUMPDEST EQ PUSH2 0xE4D JUMPI DUP2 DUP5 PUSH1 0x40 ADD SWAP1 PUSH1 0x3 DUP2 GT ISZERO PUSH2 0xDF8 JUMPI PUSH2 0xDF7 PUSH2 0x1572 JUMP JUMPDEST JUMPDEST SWAP1 DUP2 PUSH1 0x3 DUP2 GT ISZERO PUSH2 0xE0C JUMPI PUSH2 0xE0B PUSH2 0x1572 JUMP JUMPDEST JUMPDEST DUP2 MSTORE POP POP DUP5 PUSH32 0x338B8976706F9DA67298DDDFA1EA4FF7D99CCE68B9CA39C4F348994F8E2124A8 DUP6 PUSH1 0x40 ADD MLOAD PUSH1 0x40 MLOAD PUSH2 0xE44 SWAP2 SWAP1 PUSH2 0x1AC3 JUMP JUMPDEST PUSH1 0x40 MLOAD DUP1 SWAP2 SUB SWAP1 LOG2 JUMPDEST POP POP POP POP JUMPDEST POP JUMP JUMPDEST PUSH0 PUSH0 PUSH0 DUP4 DUP2 MSTORE PUSH1 0x20 ADD SWAP1 DUP2 MSTORE PUSH1 0x20 ADD PUSH0 KECCAK256 PUSH1 0x40 MLOAD DUP1 PUSH2 0x100 ADD PUSH1 0x40 MSTORE SWAP1 DUP2 PUSH0 DUP3 ADD SLOAD DUP2 MSTORE PUSH1 0x20 ADD PUSH1 0x1 DUP3 ADD PUSH0 SWAP1 SLOAD SWAP1 PUSH2 0x100 EXP SWAP1 DIV PUSH20 0xFFFFFFFFFFFFFFFFFFFFFFFFFFFFFFFFFFFFFFFF AND PUSH20 0xFFFFFFFFFFFFFFFFFFFFFFFFFFFFFFFFFFFFFFFF AND PUSH20 0xFFFFFFFFFFFFFFFFFFFFFFFFFFFFFFFFFFFFFFFF AND DUP2 MSTORE PUSH1 0x20 ADD PUSH1 0x1 DUP3 ADD PUSH1 0x14 SWAP1 SLOAD SWAP1 PUSH2 0x100 EXP SWAP1 DIV PUSH1 0xFF AND PUSH1 0x3 DUP2 GT ISZERO PUSH2 0xEF5 JUMPI PUSH2 0xEF4 PUSH2 0x1572 JUMP JUMPDEST JUMPDEST PUSH1 0x3 DUP2 GT ISZERO PUSH2 0xF07 JUMPI PUSH2 0xF06 PUSH2 0x1572 JUMP JUMPDEST JUMPDEST DUP2 MSTORE PUSH1 0x20 ADD PUSH1 0x2 DUP3 ADD SLOAD DUP2 MSTORE PUSH1 0x20 ADD PUSH1 0x3 DUP3 ADD SLOAD DUP2 MSTORE PUSH1 0x20 ADD PUSH1 0x4 DUP3 ADD SLOAD DUP2 MSTORE PUSH1 0x20 ADD PUSH1 0x5 DUP3 ADD PUSH0 SWAP1 SLOAD SWAP1 PUSH2 0x100 EXP SWAP1 DIV PUSH1 0xFF AND ISZERO ISZERO ISZERO ISZERO DUP2 MSTORE PUSH1 0x20 ADD PUSH1 0x5 DUP3 ADD PUSH1 0x1 SWAP1 SLOAD SWAP1 PUSH2 0x100 EXP SWAP1 DIV PUSH1 0xFF AND ISZERO ISZERO ISZERO ISZERO DUP2 MSTORE POP POP SWAP1 POP PUSH0 ISZERO ISZERO DUP2 PUSH1 0xC0 ADD MLOAD ISZERO ISZERO EQ PUSH2 0xFAA JUMPI PUSH1 0x40 MLOAD PUSH32 0x8C379A000000000000000000000000000000000000000000000000000000000 DUP2 MSTORE PUSH1 0x4 ADD PUSH2 0xFA1 SWAP1 PUSH2 0x1A3D JUMP JUMPDEST PUSH1 0x40 MLOAD DUP1 SWAP2 SUB SWAP1 REVERT JUMPDEST PUSH1 0x3 PUSH0 SWAP1 SLOAD SWAP1 PUSH2 0x100 EXP SWAP1 DIV PUSH20 0xFFFFFFFFFFFFFFFFFFFFFFFFFFFFFFFFFFFFFFFF AND PUSH20 0xFFFFFFFFFFFFFFFFFFFFFFFFFFFFFFFFFFFFFFFF AND DUP2 PUSH1 0x20 ADD MLOAD PUSH20 0xFFFFFFFFFFFFFFFFFFFFFFFFFFFFFFFFFFFFFFFF AND SUB PUSH2 0x103D JUMPI PUSH1 0x40 MLOAD PUSH32 0x8C379A000000000000000000000000000000000000000000000000000000000 DUP2 MSTORE PUSH1 0x4 ADD PUSH2 0x1034 SWAP1 PUSH2 0x1B26 JUMP JUMPDEST PUSH1 0x40 MLOAD DUP1 SWAP2 SUB SWAP1 REVERT JUMPDEST PUSH1 0x1 ISZERO ISZERO DUP2 PUSH1 0xE0 ADD MLOAD ISZERO ISZERO EQ PUSH2 0x1088 JUMPI PUSH1 0x40 MLOAD PUSH32 0x8C379A000000000000000000000000000000000000000000000000000000000 DUP2 MSTORE PUSH1 0x4 ADD PUSH2 0x107F SWAP1 PUSH2 0x1B8E JUMP JUMPDEST PUSH1 0x40 MLOAD DUP1 SWAP2 SUB SWAP1 REVERT JUMPDEST PUSH2 0x1091 DUP3 PUSH2 0xB9C JUMP JUMPDEST PUSH1 0x3 DUP1 DUP2 GT ISZERO PUSH2 0x10A4 JUMPI PUSH2 0x10A3 PUSH2 0x1572 JUMP JUMPDEST JUMPDEST DUP2 PUSH1 0x40 ADD MLOAD PUSH1 0x3 DUP2 GT ISZERO PUSH2 0x10BB JUMPI PUSH2 0x10BA PUSH2 0x1572 JUMP JUMPDEST JUMPDEST SUB PUSH2 0x10FB JUMPI PUSH1 0x40 MLOAD PUSH32 0x8C379A000000000000000000000000000000000000000000000000000000000 DUP2 MSTORE PUSH1 0x4 ADD PUSH2 0x10F2 SWAP1 PUSH2 0x1BF6 JUMP JUMPDEST PUSH1 0x40 MLOAD DUP1 SWAP2 SUB SWAP1 REVERT JUMPDEST PUSH0 DUP2 PUSH1 0xC0 ADD SWAP1 ISZERO ISZERO SWAP1 DUP2 ISZERO ISZERO DUP2 MSTORE POP POP POP POP JUMP JUMPDEST PUSH2 0x1117 PUSH2 0x12BD JUMP JUMPDEST PUSH0 PUSH0 PUSH0 DUP5 DUP2 MSTORE PUSH1 0x20 ADD SWAP1 DUP2 MSTORE PUSH1 0x20 ADD PUSH0 KECCAK256 PUSH1 0x40 MLOAD DUP1 PUSH2 0x100 ADD PUSH1 0x40 MSTORE SWAP1 DUP2 PUSH0 DUP3 ADD SLOAD DUP2 MSTORE PUSH1 0x20 ADD PUSH1 0x1 DUP3 ADD PUSH0 SWAP1 SLOAD SWAP1 PUSH2 0x100 EXP SWAP1 DIV PUSH20 0xFFFFFFFFFFFFFFFFFFFFFFFFFFFFFFFFFFFFFFFF AND PUSH20 0xFFFFFFFFFFFFFFFFFFFFFFFFFFFFFFFFFFFFFFFF AND PUSH20 0xFFFFFFFFFFFFFFFFFFFFFFFFFFFFFFFFFFFFFFFF AND DUP2 MSTORE PUSH1 0x20 ADD PUSH1 0x1 DUP3 ADD PUSH1 0x14 SWAP1 SLOAD SWAP1 PUSH2 0x100 EXP SWAP1 DIV PUSH1 0xFF AND PUSH1 0x3 DUP2 GT ISZERO PUSH2 0x11B7 JUMPI PUSH2 0x11B6 PUSH2 0x1572 JUMP JUMPDEST JUMPDEST PUSH1 0x3 DUP2 GT ISZERO PUSH2 0x11C9 JUMPI PUSH2 0x11C8 PUSH2 0x1572 JUMP JUMPDEST JUMPDEST DUP2 MSTORE PUSH1 0x20 ADD PUSH1 0x2 DUP3 ADD SLOAD DUP2 MSTORE PUSH1 0x20 ADD PUSH1 0x3 DUP3 ADD SLOAD DUP2 MSTORE PUSH1 0x20 ADD PUSH1 0x4 DUP3 ADD SLOAD DUP2 MSTORE PUSH1 0x20 ADD PUSH1 0x5 DUP3 ADD PUSH0 SWAP1 SLOAD SWAP1 PUSH2 0x100 EXP SWAP1 DIV PUSH1 0xFF AND ISZERO ISZERO ISZERO ISZERO DUP2 MSTORE PUSH1 0x20 ADD PUSH1 0x5 DUP3 ADD PUSH1 0x1 SWAP1 SLOAD SWAP1 PUSH2 0x100 EXP SWAP1 DIV PUSH1 0xFF AND ISZERO ISZERO ISZERO ISZERO DUP2 MSTORE POP POP SWAP1 POP PUSH2 0x122B DUP4 PUSH2 0x7F1 JUMP JUMPDEST DUP2 PUSH1 0xA0 ADD DUP2 DUP2 MSTORE POP POP DUP1 SWAP2 POP POP SWAP2 SWAP1 POP JUMP JUMPDEST PUSH0 PUSH0 PUSH0 DUP4 DUP2 MSTORE PUSH1 0x20 ADD SWAP1 DUP2 MSTORE PUSH1 0x20 ADD PUSH0 KECCAK256 SWAP1 POP PUSH0 PUSH2 0x125A DUP4 PUSH2 0x7F1 JUMP JUMPDEST SWAP1 POP DUP1 DUP3 PUSH1 0x4 ADD DUP2 SWAP1 SSTORE POP TIMESTAMP DUP3 PUSH1 0x3 ADD DUP2 SWAP1 SSTORE POP PUSH0 DUP3 PUSH1 0x4 ADD SLOAD EQ DUP1 ISZERO PUSH2 0x1295 JUMPI POP PUSH0 ISZERO ISZERO DUP3 PUSH1 0x5 ADD PUSH1 0x1 SWAP1 SLOAD SWAP1 PUSH2 0x100 EXP SWAP1 DIV PUSH1 0xFF AND ISZERO ISZERO EQ JUMPDEST ISZERO PUSH2 0x12B8 JUMPI PUSH1 0x1 DUP3 PUSH1 0x5 ADD PUSH1 0x1 PUSH2 0x100 EXP DUP2 SLOAD DUP2 PUSH1 0xFF MUL NOT AND SWAP1 DUP4 ISZERO ISZERO MUL OR SWAP1 SSTORE POP JUMPDEST POP POP POP JUMP JUMPDEST PUSH1 0x40 MLOAD DUP1 PUSH2 0x100 ADD PUSH1 0x40 MSTORE DUP1 PUSH0 DUP2 MSTORE PUSH1 0x20 ADD PUSH0 PUSH20 0xFFFFFFFFFFFFFFFFFFFFFFFFFFFFFFFFFFFFFFFF AND DUP2 MSTORE PUSH1 0x20 ADD PUSH0 PUSH1 0x3 DUP2 GT ISZERO PUSH2 0x12FE JUMPI PUSH2 0x12FD PUSH2 0x1572 JUMP JUMPDEST JUMPDEST DUP2 MSTORE PUSH1 0x20 ADD PUSH0 DUP2 MSTORE PUSH1 0x20 ADD PUSH0 DUP2 MSTORE PUSH1 0x20 ADD PUSH0 DUP2 MSTORE PUSH1 0x20 ADD PUSH0 ISZERO ISZERO DUP2 MSTORE PUSH1 0x20 ADD PUSH0 ISZERO ISZERO DUP2 MSTORE POP SWAP1 JUMP JUMPDEST PUSH0 PUSH0 REVERT JUMPDEST PUSH0 PUSH20 0xFFFFFFFFFFFFFFFFFFFFFFFFFFFFFFFFFFFFFFFF DUP3 AND SWAP1 POP SWAP2 SWAP1 POP JUMP JUMPDEST PUSH0 PUSH2 0x1353 DUP3 PUSH2 0x132A JUMP JUMPDEST SWAP1 POP SWAP2 SWAP1 POP JUMP JUMPDEST PUSH2 0x1363 DUP2 PUSH2 0x1349 JUMP JUMPDEST DUP2 EQ PUSH2 0x136D JUMPI PUSH0 PUSH0 REVERT JUMPDEST POP JUMP JUMPDEST PUSH0 DUP2 CALLDATALOAD SWAP1 POP PUSH2 0x137E DUP2 PUSH2 0x135A JUMP JUMPDEST SWAP3 SWAP2 POP POP JUMP JUMPDEST PUSH0 PUSH1 0x20 DUP3 DUP5 SUB SLT ISZERO PUSH2 0x1399 JUMPI PUSH2 0x1398 PUSH2 0x1326 JUMP JUMPDEST JUMPDEST PUSH0 PUSH2 0x13A6 DUP5 DUP3 DUP6 ADD PUSH2 0x1370 JUMP JUMPDEST SWAP2 POP POP SWAP3 SWAP2 POP POP JUMP JUMPDEST PUSH0 DUP2 MLOAD SWAP1 POP SWAP2 SWAP1 POP JUMP JUMPDEST PUSH0 DUP3 DUP3 MSTORE PUSH1 0x20 DUP3 ADD SWAP1 POP SWAP3 SWAP2 POP POP JUMP JUMPDEST PUSH0 DUP2 SWAP1 POP PUSH1 0x20 DUP3 ADD SWAP1 POP SWAP2 SWAP1 POP JUMP JUMPDEST PUSH0 DUP2 SWAP1 POP SWAP2 SWAP1 POP JUMP JUMPDEST PUSH2 0x13EA DUP2 PUSH2 0x13D8 JUMP JUMPDEST DUP3 MSTORE POP POP JUMP JUMPDEST PUSH0 PUSH2 0x13FB DUP4 DUP4 PUSH2 0x13E1 JUMP JUMPDEST PUSH1 0x20 DUP4 ADD SWAP1 POP SWAP3 SWAP2 POP POP JUMP JUMPDEST PUSH0 PUSH1 0x20 DUP3 ADD SWAP1 POP SWAP2 SWAP1 POP JUMP JUMPDEST PUSH0 PUSH2 0x141D DUP3 PUSH2 0x13AF JUMP JUMPDEST PUSH2 0x1427 DUP2 DUP6 PUSH2 0x13B9 JUMP JUMPDEST SWAP4 POP PUSH2 0x1432 DUP4 PUSH2 0x13C9 JUMP JUMPDEST DUP1 PUSH0 JUMPDEST DUP4 DUP2 LT ISZERO PUSH2 0x1462 JUMPI DUP2 MLOAD PUSH2 0x1449 DUP9 DUP3 PUSH2 0x13F0 JUMP JUMPDEST SWAP8 POP PUSH2 0x1454 DUP4 PUSH2 0x1407 JUMP JUMPDEST SWAP3 POP POP PUSH1 0x1 DUP2 ADD SWAP1 POP PUSH2 0x1435 JUMP JUMPDEST POP DUP6 SWAP4 POP POP POP POP SWAP3 SWAP2 POP POP JUMP JUMPDEST PUSH0 PUSH1 0x20 DUP3 ADD SWAP1 POP DUP2 DUP2 SUB PUSH0 DUP4 ADD MSTORE PUSH2 0x1487 DUP2 DUP5 PUSH2 0x1413 JUMP JUMPDEST SWAP1 POP SWAP3 SWAP2 POP POP JUMP JUMPDEST PUSH2 0x1498 DUP2 PUSH2 0x13D8 JUMP JUMPDEST DUP3 MSTORE POP POP JUMP JUMPDEST PUSH0 PUSH1 0x20 DUP3 ADD SWAP1 POP PUSH2 0x14B1 PUSH0 DUP4 ADD DUP5 PUSH2 0x148F JUMP JUMPDEST SWAP3 SWAP2 POP POP JUMP JUMPDEST PUSH2 0x14C0 DUP2 PUSH2 0x13D8 JUMP JUMPDEST DUP2 EQ PUSH2 0x14CA JUMPI PUSH0 PUSH0 REVERT JUMPDEST POP JUMP JUMPDEST PUSH0 DUP2 CALLDATALOAD SWAP1 POP PUSH2 0x14DB DUP2 PUSH2 0x14B7 JUMP JUMPDEST SWAP3 SWAP2 POP POP JUMP JUMPDEST PUSH0 PUSH1 0x20 DUP3 DUP5 SUB SLT ISZERO PUSH2 0x14F6 JUMPI PUSH2 0x14F5 PUSH2 0x1326 JUMP JUMPDEST JUMPDEST PUSH0 PUSH2 0x1503 DUP5 DUP3 DUP6 ADD PUSH2 0x14CD JUMP JUMPDEST SWAP2 POP POP SWAP3 SWAP2 POP POP JUMP JUMPDEST PUSH0 PUSH0 PUSH1 0x40 DUP4 DUP6 SUB SLT ISZERO PUSH2 0x1522 JUMPI PUSH2 0x1521 PUSH2 0x1326 JUMP JUMPDEST JUMPDEST PUSH0 PUSH2 0x152F DUP6 DUP3 DUP7 ADD PUSH2 0x1370 JUMP JUMPDEST SWAP3 POP POP PUSH1 0x20 PUSH2 0x1540 DUP6 DUP3 DUP7 ADD PUSH2 0x14CD JUMP JUMPDEST SWAP2 POP POP SWAP3 POP SWAP3 SWAP1 POP JUMP JUMPDEST PUSH2 0x1553 DUP2 PUSH2 0x1349 JUMP JUMPDEST DUP3 MSTORE POP POP JUMP JUMPDEST PUSH0 PUSH1 0x20 DUP3 ADD SWAP1 POP PUSH2 0x156C PUSH0 DUP4 ADD DUP5 PUSH2 0x154A JUMP JUMPDEST SWAP3 SWAP2 POP POP JUMP JUMPDEST PUSH32 0x4E487B7100000000000000000000000000000000000000000000000000000000 PUSH0 MSTORE PUSH1 0x21 PUSH1 0x4 MSTORE PUSH1 0x24 PUSH0 REVERT JUMPDEST PUSH1 0x4 DUP2 LT PUSH2 0x15B0 JUMPI PUSH2 0x15AF PUSH2 0x1572 JUMP JUMPDEST JUMPDEST POP JUMP JUMPDEST PUSH0 DUP2 SWAP1 POP PUSH2 0x15C0 DUP3 PUSH2 0x159F JUMP JUMPDEST SWAP2 SWAP1 POP JUMP JUMPDEST PUSH0 PUSH2 0x15CF DUP3 PUSH2 0x15B3 JUMP JUMPDEST SWAP1 POP SWAP2 SWAP1 POP JUMP JUMPDEST PUSH2 0x15DF DUP2 PUSH2 0x15C5 JUMP JUMPDEST DUP3 MSTORE POP POP JUMP JUMPDEST PUSH0 DUP2 ISZERO ISZERO SWAP1 POP SWAP2 SWAP1 POP JUMP JUMPDEST PUSH2 0x15F9 DUP2 PUSH2 0x15E5 JUMP JUMPDEST DUP3 MSTORE POP POP JUMP JUMPDEST PUSH0 PUSH2 0x100 DUP3 ADD SWAP1 POP PUSH2 0x1613 PUSH0 DUP4 ADD DUP12 PUSH2 0x148F JUMP JUMPDEST PUSH2 0x1620 PUSH1 0x20 DUP4 ADD DUP11 PUSH2 0x154A JUMP JUMPDEST PUSH2 0x162D PUSH1 0x40 DUP4 ADD DUP10 PUSH2 0x15D6 JUMP JUMPDEST PUSH2 0x163A PUSH1 0x60 DUP4 ADD DUP9 PUSH2 0x148F JUMP JUMPDEST PUSH2 0x1647 PUSH1 0x80 DUP4 ADD DUP8 PUSH2 0x148F JUMP JUMPDEST PUSH2 0x1654 PUSH1 0xA0 DUP4 ADD DUP7 PUSH2 0x148F JUMP JUMPDEST PUSH2 0x1661 PUSH1 0xC0 DUP4 ADD DUP6 PUSH2 0x15F0 JUMP JUMPDEST PUSH2 0x166E PUSH1 0xE0 DUP4 ADD DUP5 PUSH2 0x15F0 JUMP JUMPDEST SWAP10 SWAP9 POP POP POP POP POP POP POP POP POP JUMP JUMPDEST PUSH0 PUSH1 0xFF DUP3 AND SWAP1 POP SWAP2 SWAP1 POP JUMP JUMPDEST PUSH2 0x1690 DUP2 PUSH2 0x167B JUMP JUMPDEST DUP3 MSTORE POP POP JUMP JUMPDEST PUSH0 PUSH1 0x20 DUP3 ADD SWAP1 POP PUSH2 0x16A9 PUSH0 DUP4 ADD DUP5 PUSH2 0x1687 JUMP JUMPDEST SWAP3 SWAP2 POP POP JUMP JUMPDEST PUSH2 0x16B8 DUP2 PUSH2 0x1349 JUMP JUMPDEST DUP3 MSTORE POP POP JUMP JUMPDEST PUSH2 0x16C7 DUP2 PUSH2 0x15C5 JUMP JUMPDEST DUP3 MSTORE POP POP JUMP JUMPDEST PUSH2 0x16D6 DUP2 PUSH2 0x15E5 JUMP JUMPDEST DUP3 MSTORE POP POP JUMP JUMPDEST PUSH2 0x100 DUP3 ADD PUSH0 DUP3 ADD MLOAD PUSH2 0x16F1 PUSH0 DUP6 ADD DUP3 PUSH2 0x13E1 JUMP JUMPDEST POP PUSH1 0x20 DUP3 ADD MLOAD PUSH2 0x1704 PUSH1 0x20 DUP6 ADD DUP3 PUSH2 0x16AF JUMP JUMPDEST POP PUSH1 0x40 DUP3 ADD MLOAD PUSH2 0x1717 PUSH1 0x40 DUP6 ADD DUP3 PUSH2 0x16BE JUMP JUMPDEST POP PUSH1 0x60 DUP3 ADD MLOAD PUSH2 0x172A PUSH1 0x60 DUP6 ADD DUP3 PUSH2 0x13E1 JUMP JUMPDEST POP PUSH1 0x80 DUP3 ADD MLOAD PUSH2 0x173D PUSH1 0x80 DUP6 ADD DUP3 PUSH2 0x13E1 JUMP JUMPDEST POP PUSH1 0xA0 DUP3 ADD MLOAD PUSH2 0x1750 PUSH1 0xA0 DUP6 ADD DUP3 PUSH2 0x13E1 JUMP JUMPDEST POP PUSH1 0xC0 DUP3 ADD MLOAD PUSH2 0x1763 PUSH1 0xC0 DUP6 ADD DUP3 PUSH2 0x16CD JUMP JUMPDEST POP PUSH1 0xE0 DUP3 ADD MLOAD PUSH2 0x1776 PUSH1 0xE0 DUP6 ADD DUP3 PUSH2 0x16CD JUMP JUMPDEST POP POP POP POP JUMP JUMPDEST PUSH0 PUSH2 0x100 DUP3 ADD SWAP1 POP PUSH2 0x1790 PUSH0 DUP4 ADD DUP5 PUSH2 0x16DC JUMP JUMPDEST SWAP3 SWAP2 POP POP JUMP JUMPDEST PUSH0 DUP3 DUP3 MSTORE PUSH1 0x20 DUP3 ADD SWAP1 POP SWAP3 SWAP2 POP POP JUMP JUMPDEST PUSH32 0x42756B616E206F776E6572000000000000000000000000000000000000000000 PUSH0 DUP3 ADD MSTORE POP JUMP JUMPDEST PUSH0 PUSH2 0x17DA PUSH1 0xB DUP4 PUSH2 0x1796 JUMP JUMPDEST SWAP2 POP PUSH2 0x17E5 DUP3 PUSH2 0x17A6 JUMP JUMPDEST PUSH1 0x20 DUP3 ADD SWAP1 POP SWAP2 SWAP1 POP JUMP JUMPDEST PUSH0 PUSH1 0x20 DUP3 ADD SWAP1 POP DUP2 DUP2 SUB PUSH0 DUP4 ADD MSTORE PUSH2 0x1807 DUP2 PUSH2 0x17CE JUMP JUMPDEST SWAP1 POP SWAP2 SWAP1 POP JUMP JUMPDEST PUSH0 DUP2 SWAP1 POP SWAP3 SWAP2 POP POP JUMP JUMPDEST POP JUMP JUMPDEST PUSH0 PUSH2 0x1826 PUSH0 DUP4 PUSH2 0x180E JUMP JUMPDEST SWAP2 POP PUSH2 0x1831 DUP3 PUSH2 0x1818 JUMP JUMPDEST PUSH0 DUP3 ADD SWAP1 POP SWAP2 SWAP1 POP JUMP JUMPDEST PUSH0 PUSH2 0x1845 DUP3 PUSH2 0x181B JUMP JUMPDEST SWAP2 POP DUP2 SWAP1 POP SWAP2 SWAP1 POP JUMP JUMPDEST PUSH32 0x5472616E7366657220676167616C000000000000000000000000000000000000 PUSH0 DUP3 ADD MSTORE POP JUMP JUMPDEST PUSH0 PUSH2 0x1883 PUSH1 0xE DUP4 PUSH2 0x1796 JUMP JUMPDEST SWAP2 POP PUSH2 0x188E DUP3 PUSH2 0x184F JUMP JUMPDEST PUSH1 0x20 DUP3 ADD SWAP1 POP SWAP2 SWAP1 POP JUMP JUMPDEST PUSH0 PUSH1 0x20 DUP3 ADD SWAP1 POP DUP2 DUP2 SUB PUSH0 DUP4 ADD MSTORE PUSH2 0x18B0 DUP2 PUSH2 0x1877 JUMP JUMPDEST SWAP1 POP SWAP2 SWAP1 POP JUMP JUMPDEST PUSH32 0x4D696E69756D20302E3030312065746865720000000000000000000000000000 PUSH0 DUP3 ADD MSTORE POP JUMP JUMPDEST PUSH0 PUSH2 0x18EB PUSH1 0x12 DUP4 PUSH2 0x1796 JUMP JUMPDEST SWAP2 POP PUSH2 0x18F6 DUP3 PUSH2 0x18B7 JUMP JUMPDEST PUSH1 0x20 DUP3 ADD SWAP1 POP SWAP2 SWAP1 POP JUMP JUMPDEST PUSH0 PUSH1 0x20 DUP3 ADD SWAP1 POP DUP2 DUP2 SUB PUSH0 DUP4 ADD MSTORE PUSH2 0x1918 DUP2 PUSH2 0x18DF JUMP JUMPDEST SWAP1 POP SWAP2 SWAP1 POP JUMP JUMPDEST PUSH32 0x4E487B7100000000000000000000000000000000000000000000000000000000 PUSH0 MSTORE PUSH1 0x11 PUSH1 0x4 MSTORE PUSH1 0x24 PUSH0 REVERT JUMPDEST PUSH0 PUSH2 0x1956 DUP3 PUSH2 0x13D8 JUMP JUMPDEST SWAP2 POP PUSH2 0x1961 DUP4 PUSH2 0x13D8 JUMP JUMPDEST SWAP3 POP DUP3 DUP3 ADD SWAP1 POP DUP1 DUP3 GT ISZERO PUSH2 0x1979 JUMPI PUSH2 0x1978 PUSH2 0x191F JUMP JUMPDEST JUMPDEST SWAP3 SWAP2 POP POP JUMP JUMPDEST PUSH0 PUSH2 0x1989 DUP3 PUSH2 0x13D8 JUMP JUMPDEST SWAP2 POP PUSH2 0x1994 DUP4 PUSH2 0x13D8 JUMP JUMPDEST SWAP3 POP DUP3 DUP3 SUB SWAP1 POP DUP2 DUP2 GT ISZERO PUSH2 0x19AC JUMPI PUSH2 0x19AB PUSH2 0x191F JUMP JUMPDEST JUMPDEST SWAP3 SWAP2 POP POP JUMP JUMPDEST PUSH0 PUSH2 0x19BC DUP3 PUSH2 0x13D8 JUMP JUMPDEST SWAP2 POP PUSH2 0x19C7 DUP4 PUSH2 0x13D8 JUMP JUMPDEST SWAP3 POP DUP3 DUP3 MUL PUSH2 0x19D5 DUP2 PUSH2 0x13D8 JUMP JUMPDEST SWAP2 POP DUP3 DUP3 DIV DUP5 EQ DUP4 ISZERO OR PUSH2 0x19EC JUMPI PUSH2 0x19EB PUSH2 0x191F JUMP JUMPDEST JUMPDEST POP SWAP3 SWAP2 POP POP JUMP JUMPDEST PUSH32 0x74616E616D616E20746964616B20646974656D756B616E000000000000000000 PUSH0 DUP3 ADD MSTORE POP JUMP JUMPDEST PUSH0 PUSH2 0x1A27 PUSH1 0x17 DUP4 PUSH2 0x1796 JUMP JUMPDEST SWAP2 POP PUSH2 0x1A32 DUP3 PUSH2 0x19F3 JUMP JUMPDEST PUSH1 0x20 DUP3 ADD SWAP1 POP SWAP2 SWAP1 POP JUMP JUMPDEST PUSH0 PUSH1 0x20 DUP3 ADD SWAP1 POP DUP2 DUP2 SUB PUSH0 DUP4 ADD MSTORE PUSH2 0x1A54 DUP2 PUSH2 0x1A1B JUMP JUMPDEST SWAP1 POP SWAP2 SWAP1 POP JUMP JUMPDEST PUSH32 0x54616E616D616E207375646168206D6174690000000000000000000000000000 PUSH0 DUP3 ADD MSTORE POP JUMP JUMPDEST PUSH0 PUSH2 0x1A8F PUSH1 0x12 DUP4 PUSH2 0x1796 JUMP JUMPDEST SWAP2 POP PUSH2 0x1A9A DUP3 PUSH2 0x1A5B JUMP JUMPDEST PUSH1 0x20 DUP3 ADD SWAP1 POP SWAP2 SWAP1 POP JUMP JUMPDEST PUSH0 PUSH1 0x20 DUP3 ADD SWAP1 POP DUP2 DUP2 SUB PUSH0 DUP4 ADD MSTORE PUSH2 0x1ABC DUP2 PUSH2 0x1A83 JUMP JUMPDEST SWAP1 POP SWAP2 SWAP1 POP JUMP JUMPDEST PUSH0 PUSH1 0x20 DUP3 ADD SWAP1 POP PUSH2 0x1AD6 PUSH0 DUP4 ADD DUP5 PUSH2 0x15D6 JUMP JUMPDEST SWAP3 SWAP2 POP POP JUMP JUMPDEST PUSH32 0x74616E616D616E20696E692062756B616E206D696C696B206B616D7500000000 PUSH0 DUP3 ADD MSTORE POP JUMP JUMPDEST PUSH0 PUSH2 0x1B10 PUSH1 0x1C DUP4 PUSH2 0x1796 JUMP JUMPDEST SWAP2 POP PUSH2 0x1B1B DUP3 PUSH2 0x1ADC JUMP JUMPDEST PUSH1 0x20 DUP3 ADD SWAP1 POP SWAP2 SWAP1 POP JUMP JUMPDEST PUSH0 PUSH1 0x20 DUP3 ADD SWAP1 POP DUP2 DUP2 SUB PUSH0 DUP4 ADD MSTORE PUSH2 0x1B3D DUP2 PUSH2 0x1B04 JUMP JUMPDEST SWAP1 POP SWAP2 SWAP1 POP JUMP JUMPDEST PUSH32 0x74616E616D616E207375646168206D6174690000000000000000000000000000 PUSH0 DUP3 ADD MSTORE POP JUMP JUMPDEST PUSH0 PUSH2 0x1B78 PUSH1 0x12 DUP4 PUSH2 0x1796 JUMP JUMPDEST SWAP2 POP PUSH2 0x1B83 DUP3 PUSH2 0x1B44 JUMP JUMPDEST PUSH1 0x20 DUP3 ADD SWAP1 POP SWAP2 SWAP1 POP JUMP JUMPDEST PUSH0 PUSH1 0x20 DUP3 ADD SWAP1 POP DUP2 DUP2 SUB PUSH0 DUP4 ADD MSTORE PUSH2 0x1BA5 DUP2 PUSH2 0x1B6C JUMP JUMPDEST SWAP1 POP SWAP2 SWAP1 POP JUMP JUMPDEST PUSH32 0x54616E616D616E2062656C756D206D656B617200000000000000000000000000 PUSH0 DUP3 ADD MSTORE POP JUMP JUMPDEST PUSH0 PUSH2 0x1BE0 PUSH1 0x13 DUP4 PUSH2 0x1796 JUMP JUMPDEST SWAP2 POP PUSH2 0x1BEB DUP3 PUSH2 0x1BAC JUMP JUMPDEST PUSH1 0x20 DUP3 ADD SWAP1 POP SWAP2 SWAP1 POP JUMP JUMPDEST PUSH0 PUSH1 0x20 DUP3 ADD SWAP1 POP DUP2 DUP2 SUB PUSH0 DUP4 ADD MSTORE PUSH2 0x1C0D DUP2 PUSH2 0x1BD4 JUMP JUMPDEST SWAP1 POP SWAP2 SWAP1 POP JUMP INVALID LOG2 PUSH5 0x6970667358 0x22 SLT KECCAK256 0xAA BYTE 0xC6 MSTORE8 0x26 PUSH13 0xE09CE910105851B83EA2B88D5D SWAP8 GAS PUSH18 0x2C4B30BD5FA4919789A364736F6C63430008 0x1E STOP CALLER "
				},
				"gasEstimates": {
					"creation": {
						"codeDepositCost": "1448400",
						"executionCost": "25776",
						"totalCost": "1474176"
					},
					"external": {
						"PLANT_PRICE()": "347",
						"STAGE_DURATION()": "393",
						"WATER_DEPLETION_DURATION()": "415",
						"WATER_DEPLETION_RATE()": "420",
						"calculateWaterLevel(uint256)": "infinite",
						"getPlant(uint256)": "infinite",
						"getUserPlants(address)": "infinite",
						"harvestPlant(uint256)": "infinite",
						"owner()": "2597",
						"plantCounter()": "2492",
						"plantSeed()": "infinite",
						"plants(uint256)": "infinite",
						"updatePlantStage(uint256)": "infinite",
						"userPlants(address,uint256)": "infinite",
						"waterPlant(uint256)": "infinite",
						"withdraw()": "infinite"
					},
					"internal": {
						"updateWaterLevel(uint256)": "infinite"
					}
				},
				"methodIdentifiers": {
					"PLANT_PRICE()": "cfc9a5f8",
					"STAGE_DURATION()": "51f9efde",
					"WATER_DEPLETION_DURATION()": "5dba09bd",
					"WATER_DEPLETION_RATE()": "bacb5ebd",
					"calculateWaterLevel(uint256)": "754e150d",
					"getPlant(uint256)": "ed0b1f5f",
					"getUserPlants(address)": "30cec0eb",
					"harvestPlant(uint256)": "e38f8448",
					"owner()": "8da5cb5b",
					"plantCounter()": "9c471749",
					"plantSeed()": "74119a38",
					"plants(uint256)": "8dd2361c",
					"updatePlantStage(uint256)": "ddd42596",
					"userPlants(address,uint256)": "8aee578b",
					"waterPlant(uint256)": "9886bcfa",
					"withdraw()": "3ccfd60b"
				}
			},
			"storageLayout": {
				"storage": [
					{
						"astId": 29,
						"contract": "Learn/Sesi-01-Challenge/LiskGarden.sol:LiskGarden",
						"label": "plants",
						"offset": 0,
						"slot": "0",
						"type": "t_mapping(t_uint256,t_struct(Plant)24_storage)"
					},
					{
						"astId": 34,
						"contract": "Learn/Sesi-01-Challenge/LiskGarden.sol:LiskGarden",
						"label": "userPlants",
						"offset": 0,
						"slot": "1",
						"type": "t_mapping(t_address,t_array(t_uint256)dyn_storage)"
					},
					{
						"astId": 36,
						"contract": "Learn/Sesi-01-Challenge/LiskGarden.sol:LiskGarden",
						"label": "plantCounter",
						"offset": 0,
						"slot": "2",
						"type": "t_uint256"
					},
					{
						"astId": 38,
						"contract": "Learn/Sesi-01-Challenge/LiskGarden.sol:LiskGarden",
						"label": "owner",
						"offset": 0,
						"slot": "3",
						"type": "t_address"
					}
				],
				"types": {
					"t_address": {
						"encoding": "inplace",
						"label": "address",
						"numberOfBytes": "20"
					},
					"t_array(t_uint256)dyn_storage": {
						"base": "t_uint256",
						"encoding": "dynamic_array",
						"label": "uint256[]",
						"numberOfBytes": "32"
					},
					"t_bool": {
						"encoding": "inplace",
						"label": "bool",
						"numberOfBytes": "1"
					},
					"t_enum(GrowStage)6": {
						"encoding": "inplace",
						"label": "enum LiskGarden.GrowStage",
						"numberOfBytes": "1"
					},
					"t_mapping(t_address,t_array(t_uint256)dyn_storage)": {
						"encoding": "mapping",
						"key": "t_address",
						"label": "mapping(address => uint256[])",
						"numberOfBytes": "32",
						"value": "t_array(t_uint256)dyn_storage"
					},
					"t_mapping(t_uint256,t_struct(Plant)24_storage)": {
						"encoding": "mapping",
						"key": "t_uint256",
						"label": "mapping(uint256 => struct LiskGarden.Plant)",
						"numberOfBytes": "32",
						"value": "t_struct(Plant)24_storage"
					},
					"t_struct(Plant)24_storage": {
						"encoding": "inplace",
						"label": "struct LiskGarden.Plant",
						"members": [
							{
								"astId": 8,
								"contract": "Learn/Sesi-01-Challenge/LiskGarden.sol:LiskGarden",
								"label": "plantId",
								"offset": 0,
								"slot": "0",
								"type": "t_uint256"
							},
							{
								"astId": 10,
								"contract": "Learn/Sesi-01-Challenge/LiskGarden.sol:LiskGarden",
								"label": "owner",
								"offset": 0,
								"slot": "1",
								"type": "t_address"
							},
							{
								"astId": 13,
								"contract": "Learn/Sesi-01-Challenge/LiskGarden.sol:LiskGarden",
								"label": "stage",
								"offset": 20,
								"slot": "1",
								"type": "t_enum(GrowStage)6"
							},
							{
								"astId": 15,
								"contract": "Learn/Sesi-01-Challenge/LiskGarden.sol:LiskGarden",
								"label": "plantedDate",
								"offset": 0,
								"slot": "2",
								"type": "t_uint256"
							},
							{
								"astId": 17,
								"contract": "Learn/Sesi-01-Challenge/LiskGarden.sol:LiskGarden",
								"label": "lastWatered",
								"offset": 0,
								"slot": "3",
								"type": "t_uint256"
							},
							{
								"astId": 19,
								"contract": "Learn/Sesi-01-Challenge/LiskGarden.sol:LiskGarden",
								"label": "waterLevel",
								"offset": 0,
								"slot": "4",
								"type": "t_uint256"
							},
							{
								"astId": 21,
								"contract": "Learn/Sesi-01-Challenge/LiskGarden.sol:LiskGarden",
								"label": "exists",
								"offset": 0,
								"slot": "5",
								"type": "t_bool"
							},
							{
								"astId": 23,
								"contract": "Learn/Sesi-01-Challenge/LiskGarden.sol:LiskGarden",
								"label": "isDead",
								"offset": 1,
								"slot": "5",
								"type": "t_bool"
							}
						],
						"numberOfBytes": "192"
					},
					"t_uint256": {
						"encoding": "inplace",
						"label": "uint256",
						"numberOfBytes": "32"
					}
				}
			},
			"userdoc": {
				"kind": "user",
				"methods": {},
				"version": 1
			}
		}
	}
}